:020000040800F2
:10000000D06B00203903000887570008134A000806
:1000100055570008910F0008896B00080000000088
:10002000000000000000000000000000790200084D
:10003000C919000800000000D5020008895C00080A
:100040005303000853030008530300085303000838
:100050005303000853030008530300085303000828
:100060005303000853030008530300085303000818
:100070001D1700082D1700083D1700084D17000830
:100080005D1700086D170008530300087110000881
:10009000950F00085303000853030008CB1900080C
:1000A00053030008530300085303000853030008D8
:1000B00053030008455E0008555E0008530300081E
:1000C00053030008530300085303000853030008B8
:1000D00053030008A9680008C1680008D168000837
:1000E0005303000853030008530300085303000898
:1000F0005303000853030008530300085303000888
:100100005303000853030008530300085303000877
:10011000C161000853030008655E0008530300082E
:10012000530300087D1700088D1700089D1700086D
:10013000530300085303000853030008FD10000890
:1001400081100008530300085303000853030008FC
:1001500053030008AD170008BD170008E968000840
:100160005303000853030008530300085303000817
:100170005303000853030008530300080000000065
:10018000530300085303000800F002F800F065F87C
:100190000AA090E8000C82448344AAF10107DA45E2
:1001A00001D100F05AF8AFF2090EBAE80F0013F0CF
:1001B000010F18BFFB1A43F00103184704EB0000BE
:1001C00024EB00000A444FF0000C10F8013B13F040
:1001D000070408BF10F8014B1D1108BF10F8015BA0
:1001E000641E05D010F8016B641E01F8016BF9D193
:1001F00013F0080F1EBF10F8014BAD1C0C1B09D1EA
:100200006D1E58BF01F801CBFAD505E014F8016B5B
:1002100001F8016B6D1EF9D59142D6D370470000ED
:100220000023002400250026103A28BF78C1FBD8FF
:10023000520728BF30C148BF0B6070471FB50EF092
:10024000C0F99DE8030000F0FFFA00F00DFA1FBDB1
:1002500010B5002000F095FA10BD00F037FB1146F4
:10026000FFF7ECFF0BF0BDF800F06FFB03B4FFF7F6
:10027000EFFF03BC00F024FB2C4B19680868B0E8C2
:10028000F04F80F30988BFF36F8F4FF0000080F3C9
:10029000118870470000000008480068006880F37B
:1002A00008884FF0000080F3148862B661B6BFF38F
:1002B0004F8FBFF36F8F00DF00BF00BF08ED00E07E
:1002C000DFF80C00016841F470010160704700BF65
:1002D00088ED00E0EFF30980BFF36F8F134B1A68CE
:1002E0001EF0100F08BF20ED108A20E9F04F1060BB
:1002F00009B44FF0500080F31188BFF34F8FBFF364
:100300006F8F0CF065FA4FF0000080F3118809BC84
:1003100019680868B0E8F04F1EF0100F08BFB0EC85
:10032000108A80F30988BFF36F8F70473C0000206C
:10033000EFF30580704700000948804709480047EF
:10034000FEE7FEE7FEE7FEE7FEE7FEE7FEE7FEE785
:10035000FEE7FEE704480549054A064B70470000E2
:10036000555D000889010008D0650020D06B002091
:10037000D0670020D067002053EA020C00F06980AB
:100380002DE9F04B4FF00006002B1FBFB3FA83F5A9
:1003900003FA05F424FA05F65E4012BF1643B2FADA
:1003A00082F502FA05F4C5F120051EBF22FA05FC0C
:1003B00044EA0C04203556EA044C4FEA144418BFB2
:1003C000641C4FF000084FF00009904271EB030CE1
:1003D00039D3002919BFB1FA81F701FA07F6B0FA4B
:1003E00080F700FA07F6C7F120071EBF20FA07FCC6
:1003F00046EA0C062037B6FBF4FCA7EB0507103FD6
:1004000007F01F0BCBF120060CFA0BFB2CFA06F6BB
:1004100044BFB3460026202FA4BF5E464FF0000B1A
:100420005BEA060C08BF4FF0010B19EB0B09ABFBA5
:10043000027C48EB0608C01B06FB02CC0BFB03CC7E
:1004400071EB0C01C1E70B46024641464846BDE848
:10045000F08B13B54FF000004FF00001AFF30080B8
:10046000BDE81C4070472DE9F041074615460E4691
:10047000102000F025F904000AD06760C4E9026585
:1004800000F016F90168216004600020BDE8F081E9
:100490000120FBE7032A40F2308010F0030C00F04B
:1004A000158011F8013BBCF1020F624498BF11F8AE
:1004B00001CB00F8013B38BF11F8013BA2F1040267
:1004C00098BF00F801CB38BF00F8013B11F00303DF
:1004D00000F02580083AC0F0088051F8043B083A43
:1004E00051F804CBA0E80810F5E7121D5CBF51F8E5
:1004F000043B40F8043BAFF30080D20724BF11F85F
:10050000013B11F801CB48BF11F8012B24BF00F8C3
:10051000013B00F801CB48BF00F8012B704710B534
:10052000203AC0F00B80B1E81850203AA0E81850EB
:10053000B1E81850A0E81850BFF4F5AF5FEA027CAC
:1005400024BFB1E81850A0E8185044BF18C918C01B
:10055000BDE810405FEA827C24BF51F8043B40F8BC
:10056000043B08BF7047D20728BF31F8023B48BFA1
:1005700011F8012B28BF20F8023B48BF00F8012BDF
:10058000704702F0FF0343EA032242EA024200F00E
:100590001BB94FF0000200B5134694469646203929
:1005A00022BFA0E80C50A0E80C50B1F12001BFF42C
:1005B000F7AF090728BFA0E80C5048BF0CC05DF892
:1005C00004EB890028BF40F8042B08BF704748BFE0
:1005D00020F8022B11F0804F18BF00F8012B704754
:1005E0004FF0013C50F8042B51F8043B9A4221D1C2
:1005F000A2EB0C03934313EACC1317D150F8042B4E
:1006000051F8043B9A4215D1A2EB0C03934313EA31
:10061000CC130BD150F8042B51F8043B9A4209D16A
:10062000A2EB0C03934313EACC13DBD04FF0000092
:10063000704700BFD01A01BAB1FA81F101F0180178
:1006400022FA01F0CB40C1F12001DBB2C0B2C01AE6
:100650002CFA01F3D11A914311EAC311E6D1704784
:10066000704770477047000070B5064C7C44064DDB
:100670007D4403E0206820448047241DAC42F9D12A
:1006800070BD000070E6000090E600002DE9F0412A
:1006900017460E46054633B107FB0354E41B2046BC
:1006A000B047A542FAD1A5F10800BDE8F0810000ED
:1006B00000487047A4650020004870476C65002022
:1006C00070B5064600F0A4F8056806F10B0020F0AE
:1006D0000704B4429CBF002070BD2B466A68BAB1C3
:1006E0001068A04210D304F1080188423CBF506852
:1006F000586007D35168101941601168091B0160E7
:1007000058601460101D70BD13465268002AE7D16E
:100710002146284600F084F80028DED170BD70B56F
:100720000446051F00F074F80068002C14BF4468EC
:1007300070BD002C18BFAC423CBF20466468F8D3A3
:1007400001680A18AA4218BF456003D12A68054605
:100750001144016028684119A1421CBF6C6070BD42
:100760006168696021680844286070BD10B5FFF7B2
:10077000A3FF006810BD10B50446FFF79DFF04609D
:1007800010BD2DE9F0410646FFF792FF8046454631
:1007900013E016B1E068B0420ED120682860D4E9B9
:1007A0000101D8F8007088472046FFF7B8FFD8F855
:1007B0000000B842EBD100E025462C68002CE8D1BF
:1007C000BDE8F0814FF000020429C0F0128010F063
:1007D000030C3FF4E0AECCF1040CBCF1020F18BFE7
:1007E00000F8012BA8BF20F8022BA1EB0C01FFF7AA
:1007F000D2BE5FEAC17C24BF00F8012B00F8012BB8
:1008000048BF00F8012B7047004870476C65002016
:100810000048704774650020704770477047704704
:1008200038B504460A4600206946AFF30080002828
:1008300008BF38BD02460099204600F06CF8012040
:1008400038BD012000F0A3B8F8B5AFF3008005462D
:1008500000200C46102000BF0646A819A0420DD962
:10086000324669460020AFF30080070008BF00F061
:100870008EF80098A04218BF0546C419FFF7C8FFBC
:1008800005600746F01D20F007004619284600F0D5
:100890000AF8B44208BFF8BDA21B31463868BDE86B
:1008A000F84000F038B800210160C0E9011070473D
:1008B00010207047002801D000F002B870470000F7
:1008C00001491820ABBEFEE7260002007546FFF77F
:1008D0009BFFAE4605006946534620F0070085465B
:1008E00018B020B5FFF736FDBDE820404FF00006F8
:1008F0004FF000074FF000084FF0000B21F0070108
:10090000AC46ACE8C009ACE8C009ACE8C009ACE84A
:10091000C0098D467047034640688C46002818BFC2
:1009200088423CBF03464068F8D3186818448842A0
:1009300007D00CF1030020F00700001D411A521AE5
:100940000146081D0A60FFF7EABE10B50446AFF382
:1009500000802046BDE81040FFF788BC70B5054612
:100960000C460A2000E06D1C00F018F835B128781C
:100970000028F8D102E0641C00F010F814B12078CF
:100980000028F8D1BDE870400A2000F007B810B583
:1009900000F00CF8BDE81040FFF78CBF08B56946C1
:1009A0008DF800000320ABBE08BD704710B50128CC
:1009B00005D0002103A0FFF7D1FF012010BD09A140
:1009C000F8E7000053494752544D454D3A204F75C2
:1009D00074206F662068656170206D656D6F727937
:1009E000000000003A2048656170206D656D6F72EF
:1009F0007920636F72727570746564002DED068BDB
:100A000088B0F748007800F0010050B9F44809F0C8
:100A1000CBFB30B1F348002180F82910F048AFF348
:100A200000800020F049087048600120ED4981F8FD
:100A3000250000BFED48808AB0F5AF6F08DDEB48B8
:100A4000808AB0F5C86F03DA40F2DC50E74988824B
:100A5000E648C08AB0F5AF6F08DDE448C08AB0F55B
:100A6000C86F03DA40F2DC50E049C882DF48008AF0
:100A7000B0F5AF6F24DDDD48008AB0F5C86F1FDA2E
:100A8000DA48408AB0F5AF6F1ADDD848408AB0F531
:100A9000C86F15DAD448007828B90CF085FBD24924
:100AA0004860012008700CF07FFBCF494968401A6C
:100AB000322809D340F2DC50CC490882488203E056
:100AC0000020C949087048600122C949C948006826
:100AD0000CF0D0F9C548008A48B9C448408A30B9FA
:100AE000C248808A18B9C148C08A00287DD0BF4951
:100AF0004989A1F57A700DF03CF8B0F5C87F75DD35
:100B0000BA49498A40F2DC52501A0DF077FA41ECAA
:100B10001A0B9FEDB90B53EC102B0DF017F941ECAC
:100B2000190B9FEDB70B53EC102B0DF0BBFA41ECFA
:100B3000180B0DF025F8AB494860AC49098A40F222
:100B4000DC52501A0DF05AFA41EC1A0B9FEDAA0B29
:100B500053EC102B0DF0FAF841EC190B9FEDA80B9C
:100B600053EC102B0DF09EFA41EC180B0DF008F829
:100B70009C4908609D49898AA1F2DC500DF03EFA3B
:100B800041EC1A0B9FED9C0B53EC102B0DF0DEF893
:100B900041EC190B9FED9C0B53EC102B0DF082FADE
:100BA00041EC180B0CF0ECFF8E4948618F49C98A63
:100BB000A1F2DC500DF022FA41EC1A0B9FED8E0BE6
:100BC00053EC102B0DF0C2F841EC190B9FED900B7C
:100BD00053EC102B0DF066FA41EC180B0CF0D0FF23
:100BE00080498861091D081F01E0A4E185E106F044
:100BF00071FD7E494989A1F2DC500CF0BAFF322820
:100C00007ADA0220774981F820008348007800F0E2
:100C1000010050B9804809F0C7FA30B17F4800217F
:100C200080F829107C48AFF300807049C989A1F58C
:100C30007A700CF09EFF32283DDA6C498989A1F563
:100C40007A700CF096FF32280ADA0120654981F8A3
:100C50002100022081F82800062081F822002AE0E5
:100C600062498989A1F2DC500CF083FF322810DA46
:100C700002205C4981F82100684890F8280001288A
:100C800002D0002081F828000620564981F8220071
:100C900011E056498989A1F5FA600CF06AFF322803
:100CA00009DA02204F4981F82100012081F828004B
:100CB000052081F822002A224A495848FFF72FFCD4
:100CC0004A490989A1F57A700CF053FF322832DACB
:100CD0000120444981F82500002081F8260043497D
:100CE000C989A1F57A700CF044FF322805DA00209A
:100CF0003C4981F8270015E14FE03C49C989A1F53D
:100D0000FA600CF036FF3228F5DA38498989A1F506
:100D10007A700CF02EFF3228EDDA324814309FED55
:100D2000400A06F0E1FB01202E4981F8270002204D
:100D300081F82100F6E02D490989A1F5FA600CF04F
:100D400018FF3228D7DA2949C989A1F57A700CF041
:100D500010FF32280ADA0020224981F822000620FA
:100D600081F82200012081F8210011E01F49C98982
:100D7000A1F5FA600CF0FDFE322809DA02201949CB
:100D800081F82100042081F82200012081F826004A
:100D90000020144981F82500C4E014494989A1F5CF
:100DA000FA600CF0E6FE32287EDA03200D4981F865
:100DB0002200012081F820000C490989A1F5FA6080
:100DC0000CF0D7FE322831DA0620064981F82100DE
:100DD0000748007830BB01F1140006F0E5FC32E072
:100DE0007C020020445A0020640200200C5800209D
:100DF00080020020400200200000000000407F40F0
:100E00009A99999999990D400000000000001440AA
:100E1000000000000000004084020020705A002002
:100E2000000000004E4806F0C7FD0CE04D4909895E
:100E3000A1F57A700CF09DFE322804DA02204849B0
:100E4000143981F821004749C989A1F57A700CF05D
:100E500090FE322805DA01204149143981F8250035
:100E60000CE04049C989A1F5FA600CF082FE3228F5
:100E700004DA00203A49143981F82500384814383A
:100E800090F82200032805D03548143890F8220045
:100E9000022847D133498989A1F57A700CF069FE9F
:100EA000322809DA002000E026E02D49143981F8C3
:100EB000230081F8240035E02A498989A1F2DC5019
:100EC0000CF057FE322808DA01202549143981F840
:100ED0002300002081F8240024E022498989A1F51B
:100EE000FA600CF046FE32281CDA01201C49143945
:100EF00081F8230081F8240014E0002018491439F7
:100F000081F8200081F8210081F8220081F8230077
:100F100081F82400012081F82500002081F82600B6
:100F200081F8270000231A460D4914390E4800683D
:100F30000BF04EFE0FE020216846FFF72AFB20222F
:100F40000A496846FFF7EBFA20226946044814383C
:100F5000FFF7E5FA00BF01200AF06BFA6AE500002E
:100F6000585A00200C5800202402002074E7000882
:100F700010B500221146044804F0E5FD06F014F90E
:100F8000024808F0E7FF10BDB8040020E11900088E
:100F900000BFFEE710B5024800F05BFF10BD000087
:100FA0002003002010B50446A06800283AD120682C
:100FB000A0F20120082834D2DFE800F0040A11333F
:100FC000181E252C04F11C01174806F0E2FE28E04B
:100FD00004F11C0114482C3006F0DBFE21E004F182
:100FE0001C011148583006F0D4FE1AE004F11C012F
:100FF0000E4806F0CEFE14E004F11C010B482C3024
:1010000006F0C7FE0DE004F11C010848583006F058
:10101000C0FE06E004F11C010448843006F0B9FE6D
:1010200000BF00BF10BD0000305C0020085F002042
:101030001FB500BF4FF0FF3269460B4800680BF048
:1010400019FF0128F6D100BF084800F0E7FEC4B23E
:10105000002CF9D09DF80C30029881B26A46034802
:101060000AF0A2F9E6E700001002002020030020A9
:1010700010B5024800F0EDFE10BD00002003002076
:1010800010B5024800F0E5FE10BD00004803002046
:1010900010B50446A06804280DD12146064807F083
:1010A000C7FE21460448383007F0C2FE21460248F8
:1010B000703007F0BDFE10BDB85F00201FB500BF47
:1010C0004FF0FF3269460B4800680BF0D3FE012851
:1010D000F6D100BF00BF084800F0A0FEC4B2002C4B
:1010E000F9D09DF80C306A46034802990AF03EF99F
:1010F000E6E70000140200204803002010B5024873
:1011000000F0A7FE10BD000048030020F0B58BB032
:1011100007460C4615461E4604F0020080B1E8045E
:101120000190E80004F0030140EA41000290F0045D
:101130000390F00004F0030140EA4100049009E04C
:1011400068010190A007400F029070010390A00772
:10115000400F0490E0100690C4F380000590012039
:10116000099000200790012008900E200A9001A904
:10117000384600F003FD08B100F02CFC0BB0F0BDC8
:1011800070B504460D46204601F063F908B100F041
:1011900021FC0121204600F031FC08B100F01AFCCE
:1011A0000221204600F02AFC08B100F013FC1021B7
:1011B000204600F023FC08B100F00CFC0849206830
:1011C000884203D107480560002070BD06492068A9
:1011D000884203D1054805600020F6E70120F4E7C6
:1011E00000640040BC00002000680040C0000020F7
:1011F0002DED048B8EB000200D9000230122FB49C1
:10120000FB4800680BF0E4FC00BFFA4808F020FF40
:10121000F9490860F748383008F01AFF4042F749AA
:101220000860F448703008F013FFF5490860F24890
:101230000068002806DAF048006800F580300A30BF
:10124000ED490860ED480068002806DAEB480068C0
:1012500000F580300A30E9490860E9480068002854
:1012600006DAE748006800F580300A30E449086093
:101270000122E449E44800680BF0FCFD012876D126
:10128000E04890F8210001280BD11422DD490C31EF
:101290006846FFF744F9DB480EC8DC4807F066F8FB
:1012A000C9E0D84890F8210005280ED1202105A8D2
:1012B000FFF76FF9142208A96846FFF730F9D34801
:1012C00005A90EC907F052F8B5E0CE4890F8210004
:1012D00002284DD1CB4890ED000A10EE101A0846B6
:1012E0000DF0FEF841EC190B9FEDC90B53EC102BE0
:1012F0000CF0D8FE41EC180B0CF042FCC149086020
:10130000084690ED010A10EE101A08460DF0E8F8B4
:1013100041EC190B9FEDBE0B53EC102B0CF0C2FEF1
:1013200041EC180B0CF02CFCB6494860084690EDD7
:10133000050A10EE101A08460DF0D2F841EC190B10
:101340009FEDB50B53EC102B0CF0ACFE41EC180BE1
:101350000CF016FCAB49486114220C316846FFF7CB
:10136000DEF8A8480EC8A94807F000F863E0C0E11D
:10137000A44890F8210070B9202105A8FFF709F9C9
:10138000142208A96846FFF7CAF8A04805A90EC9A3
:1013900006F0ECFF4FE09B4890F8210006283BD177
:1013A000984890ED000A10EE101A08460DF098F8D3
:1013B00041EC190B9FED980B53EC102B0CF072FEC7
:1013C00041EC180B0CF0DCFB8E490860084690EDF0
:1013D000010A10EE101A08460DF082F841EC190BC4
:1013E0009FED8D0B53EC102B0CF05CFE41EC180BB9
:1013F0000CF0C6FB83494860084690ED050A80ED75
:10140000050A14220C316846FFF789F87D480EC89A
:101410007E4806F0ABFF0EE0202105A8FFF7B9F8E3
:10142000142208A96846FFF77AF8784805A90EC97A
:1014300006F09CFF00BF734890F82200022806D1F6
:101440009FED770A6B48B83807F094FE53E06D487B
:1014500090F82200032806D19FED710A6548B8383C
:1014600007F088FE47E0674890F82200042806D17C
:101470009FED6C0A5F48B83807F07CFE3BE061489E
:1014800090F8220030B99FED660A5A48B83807F044
:1014900071FE30E05B4890F8220001280DD15548DC
:1014A000B03890ED050A604880ED000A90ED000A22
:1014B0005048B83807F05EFE1DE0524890F8220010
:1014C000052806D19FED590A4A48B83807F052FE60
:1014D00011E04C4890F82200062806D19FED500AF2
:1014E0004448B83807F046FE05E09FED4D0A4148F4
:1014F000B83807F03FFE434890F8200001282DD16E
:10150000404890F8230040B99FED450A002211465B
:101510003848B83807F0A0FE59E03A4890F8230060
:10152000012854D1374890F8240058B94048D0EDEC
:10153000020AB0EE600A012200212E48B83807F0F6
:101540008BFE44E03A48D0ED020AB0EE600A012278
:1015500011462848B83807F07FFE38E0294890F84F
:101560002000022833D1274890F82800022809D10A
:10157000304890ED000A002211461E48B83808F0A5
:1015800083F824E01F4890F8280048B9294890EDD6
:10159000000A002201211748B83808F075F816E053
:1015A000184890F82800012808D19FED1D0A012253
:1015B00000211048B83808F067F808E01D4890EDA1
:1015C000000A002211460B48B83808F05DF80D48B3
:1015D00090F82500012831D1174890ED000A00212C
:1015E0000448B83807F0B8FF3BE00000A402002030
:1015F0003C020020B85F0020980200209C020020DE
:10160000A0020020D064002024020020D85B00202B
:101610009F758329F259E73F666666666666E63F10
:101620000000000000402F44D802002000002F449A
:1016300028650020A8020020C40200202F4890F84E
:10164000250038B92E4890ED000A01212D4807F0F9
:1016500083FF06E02A4890ED000A0021294807F0A0
:101660007BFF264890F82700012808D10D90002321
:1016700001220DA9244800680BF0AAFA33E01F48A4
:1016800090F8270030BB1D4890F82400012821D194
:101690001E4890ED000A0CF05FFA10EE104A20464A
:1016A0000CF01EFF41EC180B9FED190B53EC102BA7
:1016B0000CF0BCFC0ED2114890F82100062809D18C
:1016C00002200D90002301220DA90F4800680BF0A5
:1016D0007FFA08E000200D90002301220DA90A489E
:1016E00000680BF075FA0C4806F038FC054808F065
:1016F0002DFA012009F09DFE87E50000D06400204E
:10170000C4020020005F002038020020F801002001
:101710000000000000000040D85B002010B5024827
:1017200000F038FF10BD00009408002010B50248FA
:1017300000F030FF10BD00005406002010B5024834
:1017400000F028FF10BD0000F408002010B502488A
:1017500000F020FF10BD0000B406002010B50248C4
:1017600000F018FF10BD0000D407002010B502489B
:1017700000F010FF10BD00003408002010B5024832
:1017800000F008FF10BD00005409002010B5024809
:1017900000F000FF10BD00007407002010B50248E3
:1017A00000F0F8FE10BD0000C803002010B502488C
:1017B00000F0F0FE10BD0000B409002010B5024892
:1017C00000F0E8FE10BD0000140700200146087874
:1017D00010381823B0FBF3F20848805CC865032A70
:1017E00005D908686FF30900001D886503E00868E3
:1017F0006FF309008865886D7047000040E70008B6
:10180000014600208A6A8B69CBB932B1012A0DD01A
:10181000022A03D0032A10D10EE000BFCB6A03F0E6
:101820008073B3F1807F00D1012007E0CB6AB3F170
:10183000C07F00D1012001E000E000BF34E08B69EF
:10184000B3F5005F1AD132B1012A07D0022A03D0C2
:10185000032A11D10AE000BF01200EE0CB6A03F099
:101860008073B3F1807F00D1012006E0CB6AB3F131
:10187000C07F00D1012000E000BF15E032B1012A95
:1018800005D0022A04D0032A0CD103E000BF00BF18
:10189000012008E0CB6A03F08073B3F1807F00D1B0
:1018A000012000E000BF00BF704730B50468246825
:1018B00024F4802405682C60046863608468402CEC
:1018C00004D10468A2600468E16003E00468A160D8
:1018D0000468E26030BD000010B50022102108202D
:1018E0000BF08CF82B4908600022102108200BF027
:1018F00085F82949086000220C2104200BF07EF8AD
:101900002649086000220C2104200BF077F82449B6
:1019100008600022202104200BF070F821490860A3
:1019200000222C2104200BF069F81F4908600022D6
:10193000042102200BF062F81C49086000220121FA
:1019400008460BF05BF81A49086000220F210120BD
:101950000BF054F81749086000220F2101200BF00A
:101960004DF8154908600022012104200BF046F8CB
:10197000124908600022012114200BF03FF81049A1
:1019800008600022012110200BF038F80D49086092
:1019900010BD0000100200201402002018020020D8
:1019A0001C02002020020020240200202802002027
:1019B000340200202C0200203002002038020020D7
:1019C0003C02002040020020704710B5802000F04B
:1019D000CBFF10BD72B600BFFEE700BFFEE7000000
:1019E000044800680068406A03490968C1EB014186
:1019F00008447047C8000020C400002010B502460B
:101A000092F82030012B01D0022B06D110684069DA
:101A1000084314686061002010BD506A40F48020C3
:101A200050620120F8E7F0B504460D461E4694F8D2
:101A3000207020688368A86800B900E000BF012F0B
:101A400001D0022F7CD103F0806030B903F0006038
:101A500018B903F08050002873D0C3F30161022944
:101A600005D9606A40F4000060620120F0BD0120E9
:101A700088403060A86860B9B5F800C0E86840EAFE
:101A80004C5C206800F5C07000EB0110C0F800C08D
:101A90000FE0D5E901C040EACC00D5F80CC040EA1F
:101AA0000C00D4F800C00CF5C07C0CEB011CCCF889
:101AB0000000D5F810C0206800F5C07000EB0110E0
:101AC000C0F804C0287D01280ED1206800F5C07040
:101AD00000EB0110406840F4807C206800F5C07085
:101AE00000EB0110C0F804C0D079000692F806C0DF
:101AF00040EA0C4092F805C040EA0C2C10794CEA00
:101B0000000C206800F5C07000EB0110C0F80CC09C
:101B1000D078000692F802C040EA0C4092F801C06A
:101B200040EA0C2092F800C040EA0C00D4F800C053
:101B30000CF5C07C0CEB011CCCF80800206801E01F
:101B400016E00FE000F5C07000EB0110006840F0F7
:101B5000010C206800F5C07000EB0110C0F800C057
:101B6000002083E7606A40F40010606201207DE796
:101B7000606A40F480206062012077E7F0B5044697
:101B80000A46216894F82050012D01D0022D7ED103
:101B9000424901F50071086840F0010008600868DA
:101BA00020F47C5008600868566A40EA0620086005
:101BB000107D00F01F06012000FA06F3C869984363
:101BC000C861A1F50071D069C8B9D1F80C02984379
:101BD000C1F80C02908880B2968940EA064601F569
:101BE0001070576940F83760108880B2168940EA53
:101BF000064601F51070576900EBC7004660D069D2
:101C0000012819D1D1F80C021843C1F80C029088B0
:101C100080B2168840EA064601F51070576940F810
:101C20003760908980B2168940EA064601F5107047
:101C3000576900EBC7004660906928B9D1F80402E3
:101C40009843C1F8040204E0D1F804021843C1F833
:101C50000402106928B9D1F814029843C1F814029B
:101C600004E0D1F814021843C1F81402106A0128E4
:101C700004D1D1F81C021843C1F81C02D1F80002AB
:101C800020F00100C1F800020020F0BDFFE7606A0B
:101C900040F4802060620120F7E70000006400400B
:101CA000704770B5044694F82050012D01D0022DE4
:101CB0007DD151B92068C06800F0030080B9606A26
:101CC00040F400106062012070BD2068006900F0DF
:101CD000030028B9606A40F4001060620120F3E755
:101CE000206800F5D87000EB0110006800F00400D7
:101CF0009060906840B9206800F5D87000EB011042
:101D00000068400D106007E0206800F5D87000EB17
:101D100001100068C0085060206800F5D87000EB22
:101D20000110006800F00200D060206800F5D87053
:101D300000EB0110406800F00F001061206800F512
:101D4000D87000EB0110406800F47F40000A9061F9
:101D5000206800F5D87000EB01104068000C50615D
:101D6000206800F5D87000EB0110806818702068BA
:101D700000F5D87000EB0110806800F47F40000A85
:101D80005870206800F5D87000EB0110806800F4EE
:101D90007F00000C9870206800F5D87000EB0110EF
:101DA0008068000ED870206800F5D87000E02FE041
:101DB00000EB0110C0681871206800F5D87000EBC6
:101DC0000110C06800F47F40000A5871206800F5D7
:101DD000D87000EB0110C06800F47F00000C98710F
:101DE000206800F5D87000EB0110C068000ED871B3
:101DF00031B92068C06840F020002668F06005E036
:101E00002068006940F020002668306100205BE710
:101E1000606A40F480206062012055E7014600209E
:101E200091F82020012A01D0022A11D10B689B6869
:101E300003F0806303B1401C0B689B6803F00063F0
:101E400003B1401C0B689B6803F0805303B1401C36
:101E500070472DE9F05F0446002520684669206838
:101E6000D0F80490206887682068D0F80CA020681B
:101E7000D0F810B02068D0F8188006F001000028D3
:101E800055D007F00100C0B101202168886007F03B
:101E9000020018B1204600F00CFB0EE007F0040031
:101EA00010B145F4006508E007F0080010B145F4F2
:101EB000805502E0204600F0FBFA07F48070C8B1BC
:101EC0004FF480702168886007F4007018B12046D4
:101ED00000F0F1FA0EE007F4806010B145F400550F
:101EE00008E007F4006010B145F4804502E02046A8
:101EF00000F0E0FA07F48030C8B14FF48030216878
:101F0000886007F4003018B1204600F0D6FA0EE0E1
:101F100007F4802010B145F4004508E007F40020E4
:101F200010B145F4803502E0204600F0C5FA06F015
:101F3000080038B10AF0100020B145F400751020F7
:101F40002168C86006F0040040B10AF0080028B11A
:101F500008202168C860204600F01EFA06F0020042
:101F600038B12068C06800F0030010B1204600F0CE
:101F700015FA06F0400038B10BF0100020B145F41E
:101F8000806510202168086106F0200040B10BF048
:101F9000080028B1082021680861204600F02AFACC
:101FA00006F0100038B12068006900F0030010B19D
:101FB000204600F021FA06F4003040B109F010008C
:101FC00028B1102021684860204600F041FA06F44C
:101FD000803040B109F0080028B10820216848602D
:101FE000204600F06BFA06F4004088B309F00400C4
:101FF00078B306F4807020B108F0010008B145F014
:10200000010506F4007020B108F0020008B145F0A7
:10201000020506F4806020B108F0040008B145F024
:10202000040506F40060A0B108F0700088B108F063
:102030007000402817D006DC10280BD020280CD0C8
:10204000302819D10CE0502810D0602814D110E0AD
:102050001DE019E045F008050FE045F010050CE023
:1020600045F0200509E045F0400506E045F0800513
:1020700003E045F4807500E000BF00BF2068806980
:1020800020F07000216888610420216848602DB12B
:10209000606A284360622046FFF702FEBDE8F09FB9
:1020A00070B504460CB9012070BD94F8200010B939
:1020B000204600F0AFF82068006840F00100216879
:1020C000086000F05FFD05460DE000F05BFD401B81
:1020D0000A2808D9606A40F400306062052084F85C
:1020E00020000120E0E72068406800F0010000289F
:1020F000EBD02068006820F002002168086000F042
:1021000041FD05460DE000F03DFD401B0A2808D9C1
:10211000606A40F400306062052084F820000120ED
:10212000C2E72068406800F002000028EBD1207E62
:10213000012806D12068006840F08000216808600E
:1021400005E02068006820F0800021680860607E5B
:10215000012806D12068006840F04000216808602E
:1021600005E02068006820F0400021680860A07E3B
:10217000012806D12068006840F02000216808602E
:1021800005E02068006820F0200021680860E07EFB
:10219000012806D12068006820F01000216808603E
:1021A00005E02068006840F0100021680860207F8A
:1021B000012806D12068006840F008002168086006
:1021C00005E02068006820F0080021680860607F52
:1021D000012806D12068006840F0040021680860EA
:1021E00005E02068006820F0040021680860D4E958
:1021F0000201084321690843616908436168491E77
:1022000008432168C86100206062012084F8200032
:10221000002049E710B586B00446142101A8FEF756
:10222000B8F957492068884249D156480068401C8F
:10223000544908600846006801280FD100BF0020FB
:1022400000905148006840F000704F49086008460F
:10225000006800F00070009000BF00BF00BF0020C9
:10226000009049481038006840F00800464910398D
:1022700008600846006800F00800009000BF00BF3A
:10228000032001900220029000200390032004907C
:102290000920059001A93D4800F074FB00220521AA
:1022A000132000F033FD132000F020FD0022052153
:1022B000142000F02BFD142000F018FD5DE03449DF
:1022C0002068884259D100BF002000902E48006845
:1022D00040F080602C4908600846006800F080608B
:1022E000009000BF00BF27480068401C25490860D7
:1022F0000846006801280FD100BF00200090224846
:10230000006840F00070204908600846006800F04E
:102310000070009000BF00BF00BF002000901A486E
:102320001038006840F0020017491039086008466C
:10233000006800F00200009000BF00BF4FF4405062
:1023400001900220029000200390032004900920B5
:10235000059001A90F4800F015FB002205213F2040
:1023600000F0D4FC3F2000F0C1FC002205214020F9
:1023700000F0CCFC402000F0B9FC06B010BD00001D
:10238000006400402800002040380240000C024059
:1023900000680040000402407047000010B5044689
:1023A0000F4884420BD10F4BA3F11C0200212046A1
:1023B000FFF777FC0B481C380B49096888470B4826
:1023C00084420BD1074BA3F11C0200212046FFF7EA
:1023D00068FC04481C3806490968884710BD00009D
:1023E000200300206C530020BC0000204803002084
:1023F000C00000207047000010B504460F4884421A
:102400000BD10F4BA3F11C0201212046FFF749FC21
:102410000B481C380B49096888470B4884420BD18C
:10242000074BA3F11C0201212046FFF73AFC0448A8
:102430001C3806490968884710BD000020030020A9
:1024400090530020BC00002048030020C000002062
:10245000704770B5044694F82000012822D102206C
:1024600084F820002068006820F0010021680860DE
:1024700000F088FB05460DE000F084FB401B0A28B5
:1024800008D9606A40F400306062052084F82000BA
:10249000012070BD2068406800F001000028EBD1E9
:1024A0006062F6E7606A40F4002060620120F0E7B5
:1024B000704770477047704770477047704770B5F6
:1024C0000446A56D00F05EFB064694F83500022830
:1024D00008D08020606500BF002084F8340000BF71
:1024E000012070BD2068006820F016002168086097
:1024F0002068406920F0800021684861206C08B99C
:10250000A06C28B12068006820F0080021680860ED
:102510002068006820F001002168086010E000F0E9
:1025200031FB801B05280BD920206065032084F82F
:10253000350000BF002084F8340000BF0320D0E73E
:102540002068006800F001000028E8D194F85C10D1
:102550003F208840A860012084F8350000BF00209B
:1025600084F8340000BF00BFBBE7014691F8350096
:10257000022803D08020486501207047052081F89B
:1025800035000868006820F001000A68106000202B
:10259000F3E70000F8B50446002000908C4800687E
:1025A0004FF41651B0FBF1F7A56D2E6894F85C104E
:1025B00008208840304098B12068006800F004008E
:1025C00070B12068006820F004002168086094F869
:1025D0005C1008208840A860606D40F001006065D4
:1025E00094F85C1001208840304068B12068406950
:1025F00000F0800040B194F85C1001208840A86091
:10260000606D40F00200606594F85C100420884022
:10261000304068B12068006800F0020040B194F8D2
:102620005C1004208840A860606D40F00400606584
:1026300094F85C1010208840304078B3206800681F
:1026400000F0080050B394F85C1010208840A86097
:102650002068006800F4802080B12068006800F4E1
:10266000002028B9206CC8B12046216C884715E0AD
:10267000A06C98B12046A16C88470FE020680068E4
:1026800000F4807028B92068006820F008002168F4
:102690000860206C10B12046216C884794F85C10CB
:1026A000202088403040002865D02068006800F075
:1026B000100000285FD094F85C1020208840A860AB
:1026C00094F83500052828D12068006820F016000D
:1026D000216808602068406920F080002168486116
:1026E000206C08B9A06C28B12068006820F00800B0
:1026F0002168086094F85C103F208840A8600120A1
:1027000084F8350000BF002084F8340000BF206D3D
:1027100010B12046216D8847F8BD2068006800F49C
:10272000802080B12068006800F4002028B9606C27
:1027300010B12046616C88471DE0E06BD8B120469F
:10274000E16B884717E02068006800F4807068B982
:102750002068006820F0100021680860012084F8DB
:10276000350000BF002084F8340000BFE06B10B1DA
:102770002046E16B8847606D38B3606D00F0010062
:10278000F0B1052084F835002068006820F00100D1
:102790002168086000BF0098401C0090B84200D932
:1027A00005E02068006800F001000028F3D100BFB8
:1027B000012084F8350000BF002084F8340000BFF9
:1027C000E06C10B12046E16C884700BFA4E7000030
:1027D000380000202DE9F0410446002500F0D2F930
:1027E000074614B90120BDE8F081606A00B100BF5E
:1027F000022084F8350000BF002084F8340000BFB8
:102800002068006820F00100216808600AE000F0FC
:10281000B9F9C01B052805D920206065032084F87C
:102820003500E0E72068006800F001000028EED1E4
:102830002068056821480540D4E901010843E168A2
:1028400008432169084361690843A1690843E169B4
:102850000843216A08430543606A042803D1D4E988
:102860000B0108430543206805602068456925F091
:102870000705606A0543606A04280DD1A06A054314
:10288000E06A48B12046FEF7BBFF28B140206065F2
:10289000012084F83500A6E7206845612046FEF750
:1028A00095FF064694F85C103F208840B0600020F9
:1028B0006065012084F83500002094E73F8010F027
:1028C0002DE9F04704460D4616461F464FF0000816
:1028D000D4F8589000BF94F83400012802D10220A7
:1028E000BDE8F087012084F8340000BF94F835007B
:1028F000012825D1022084F83500002060653B4680
:10290000324629462046FEF7D0FF94F85C103F205F
:102910008840C9F808002068006840F01600216867
:102920000860206C28B12068006840F00800216829
:1029300008602068006840F001002168086006E037
:1029400000BF002084F8340000BF4FF0020840466A
:10295000C6E7000010B5044680222146014806F073
:10296000A5FB10BD0C58002010B5044604480068B3
:10297000204020B1024804602046FFF7EBFF10BD65
:10298000143C0140F8B502460B4600250024002007
:102990000021D6E0012606FA01F51E6806EA0504C4
:1029A000AC4274D11E7906F00306012E04D01E79C4
:1029B00006F00306022E13D190684F000326BE4096
:1029C000B0434F00DE68BE4030439060506801263F
:1029D0008E40B0431E79C6F300168E4030435060DF
:1029E0001E7906F00306032E09D0D0684F00032697
:1029F000BE40B0434F009E68BE403043D0601E7959
:102A000006F00306022E13D1CF0802F1200656F875
:102A100027004E07F70E0F26BE40B0434F07FF0EAC
:102A20001E69BE403043CF0802F1200646F8270059
:102A300010684F000326BE40B0431E7906F003061F
:102A40004F00BE40304310605E6806F44036002EF2
:102A500076D000BF002600963C4E366846F480468D
:102A60003A4F3E603E46366806F48046009600BF08
:102A700000BF374E8F0856F827008E07370F0F26F6
:102A8000BE40B043334EB24202D1002624E057E0AC
:102A9000314EB24201D101261EE0304EB24201D188
:102AA000022619E02E4EB24201D1032614E02D4E2B
:102AB000B24201D104260FE02B4EB24201D10526CD
:102AC0000AE02A4EB24201D1062605E0284EB24263
:102AD00001D1072600E008268F073F0FBE40304394
:102AE0001B4E8F0846F82700224E3068A0435E68D0
:102AF00006F4801606B120431E4E3060361D306845
:102B0000A0435E6806F4001606B12043194E361D38
:102B10003060184E361F3068A0435E6806F40036F9
:102B200006B12043134E361F3060361F3068A04375
:102B30005E6806F4803606B120430E4E083E3060D3
:102B4000491C1029FFF426AFF8BD000044380240AC
:102B50000838014000000240000402400008024022
:102B6000000C024000100240001402400018024015
:102B7000001C0240083C01400AB1816101E00B04E5
:102B80008361704701480068704700002C000020F6
:102B90000348006803490978084401490860704700
:102BA0002C0000203400002010B50D48006840F4CF
:102BB00000700B4908600846006840F480600860B7
:102BC0000846006840F480700860032000F0DCF8DC
:102BD0000F2000F007F800F05FF8002010BD0000A3
:102BE000003C02402DE9F04188B004460027B84679
:102BF00000BF002001902348006840F002002149F6
:102C000008600846006800F00200019000BF00BFA5
:102C100002A903A800F08EF9069F1FB900F0B2F9CF
:102C2000054602E000F0AEF945001748B5FBF0F0AC
:102C3000A0F1010815481649086040F2E731144830
:102C4000C160C0F80480002101618160816100F0F1
:102C500007FE064696B90E4800F092FE06466EB98B
:102C60001D2000F043F8102C07D2002221461D2021
:102C700000F04CF80748046000E00126304608B038
:102C8000BDE8F0814038024040420F00000400409F
:102C9000140A00203000002008B500BF002000907A
:102CA0001148006840F480400F49086008460068F9
:102CB00000F48040009000BF00BF00BF00200090E3
:102CC000081F006840F08050091F0860084600682F
:102CD00000F08050009000BF00BF00220F21901E26
:102CE00000F014F808BD00004438024001460846D0
:102CF000002809DB00F01F0301229A4043099B00D2
:102D000003F1E023C3F8002100BF70472DE9F05F15
:102D100080460D461646002707F018FA0746394642
:102D20002A46334601F00700C0F1070ABAF1040F42
:102D300002D94FF0040A01E0C0F1070AD14600F1C0
:102D4000040ABAF1070F02D24FF0000A01E0A0F125
:102D5000030AD4464FF0010A0AFA09FAAAF1010A55
:102D60000AEA020A0AFA0CFA4FF0010B0BFA0CFB02
:102D7000ABF1010B0BEA030B4AEA0B042146404678
:102D800007F0ECF9BDE8F09F00BF00F00702064B2A
:102D900019684FF6FF031940044B0B4343EA022125
:102DA000014B196000BF70470CED00E00000FA0510
:102DB00070B504460D460CB9012070BD5848006836
:102DC00000F00700A84209D255490D700846006876
:102DD00000F00700A84201D00120EEE7207800F0C3
:102DE000020002281DD1207800F00400042805D13B
:102DF0004C48006840F4E0504A490860207800F0F0
:102E00000800082805D14748006840F4604045495B
:102E100008604448006820F0F000A1680843414978
:102E20000860207800F00100A8B36068012807D18D
:102E30003C4808380068C0F34040B8B90120BCE7FE
:102E40006068022802D06068032807D13548083836
:102E50000068C0F3406048B90120AEE73148083847
:102E60000068C0F3400008B90120A6E72D480068BB
:102E700020F00300616808432A490860FFF782FEDA
:102E8000064609E0FFF77EFE801B41F2883188424A
:102E900002D9032091E707E02248006800F00C0007
:102EA0006168B0EB810FEDD11D48006800F00700AC
:102EB000A84209D91A490D700846006800F00700B9
:102EC000A84201D0012078E7207800F0040004280F
:102ED00007D11448006820F4E050E1680843114924
:102EE0000860207800F00800082808D10D48006824
:102EF00020F46040216940EAC1000A49086000F0FE
:102F000061F808490968C1F30311074A515CC840D8
:102F10000649086006480068FFF764FE00204CE799
:102F2000003C02400838024048E700083800002012
:102F3000300000200F2202600D4A126802F00302E6
:102F400042600B4A126802F0F0028260084A12687E
:102F500002F4E052C260064A126802F46042D208EB
:102F60000261044A126802F007020A60704700001A
:102F700008380240003C02400148006870470000E9
:102F80003800002000B5FFF7F7FF04490968C1F3D6
:102F90008221034A515CC84000BD0000083802404D
:102FA00058E7000800B5FFF7E7FF04490968C1F3D7
:102FB0004231034A515CC84000BD0000083802405D
:102FC00058E700082DE9F047002400250026A14617
:102FD0002548006800F00C0020B1042805D008281E
:102FE0003AD105E0DFF8849039E0DFF8849036E0EC
:102FF0001D48001F006800F03F041B48001F0068C8
:1030000000F4800078B11A481749091F0968C1F314
:103010008811A0FB01700146224600233846FDF7C7
:10302000ABF905460EE011480F49091F0968C1F3C5
:103030008811A0FB01700146224600233846FDF7A7
:103040009BF905460848001F0068C0F30140401C7A
:103050004600B5FBF6F902E0DFF8109000BF00BFB4
:103060004846BDE8F0870000083802400024F4001C
:1030700000127A00F8B504460CB90120F8BD20789A
:1030800000F00100002874D0F948006800F00C003E
:1030900004280DD0F648006800F00C00082813D171
:1030A000F348001F006800F48000B0F5800F0BD1DA
:1030B000EF4808380068C0F34040002859D06068E5
:1030C000002856D10120D9E700BF6068B0F5803FE5
:1030D00008D1E7480838006840F48030E4490839EE
:1030E00008601EE06068B0F5A02F0DD1E0480838F8
:1030F000006840F48020DE4908390860084600680E
:1031000040F4803008600CE0D9480838006820F4AA
:103110008030D749083908600846006820F48020CC
:10312000086000BF606890B1FFF72CFD054606E01F
:10313000FFF728FD401B642801D903209EE7CC48F7
:1031400008380068C0F340400028F1D011E0FFF7D4
:1031500019FD054606E0FFF715FD401B642801D95F
:1031600003208BE7C24808380068C0F340400028BD
:10317000F1D1207800F0020002285FD1BC4800683D
:1031800000F00C0058B1BA48006800F00C000828A4
:103190001CD1B748001F006800F48000B0B9B448E3
:1031A00008380068C0F3400020B1E068012801D071
:1031B000012063E7AE480838006820F0F800216974
:1031C00040EAC100AA490839086037E0E06800B366
:1031D0000120A8490860FFF7D5FC054606E0FFF787
:1031E000D1FC401B022801D9032047E7A04808383A
:1031F0000068C0F340000028F1D09D4808380068FE
:1032000020F0F800216940EAC100994908390860B6
:1032100014E0002097490860FFF7B4FC054606E07B
:10322000FFF7B0FC401B022801D9032026E7904895
:1032300008380068C0F340000028F1D1207800F081
:10324000080008282CD16069A8B101208A490860CB
:10325000FFF798FC054606E0FFF794FC401B0228A8
:1032600001D903200AE782486C300068C0F34000AF
:103270000028F1D014E000207F490860FFF782FCAD
:10328000054606E0FFF77EFC401B022801D903201B
:10329000F4E677486C300068C0F340000028F1D1B4
:1032A000207800F00400042870D1002770483830DE
:1032B000006800F0805090B900BF002000906C487A
:1032C0003830006840F0805069493831086008465D
:1032D000006800F08050009000BF00BF01276748E1
:1032E000006800F48070B0B96448006840F48070F1
:1032F00062490860FFF746FC054606E0FFF742FC1E
:10330000401B022801D90320B8E65C48006800F49D
:1033100080700028F2D000BFA068012808D154486E
:103320006830006840F001005149683108601DE0D4
:10333000A06805280DD14E486830006840F00400B0
:103340004B49683108600846006840F00100086099
:103350000CE047486830006820F0010044496831BB
:1033600008600846006820F00400086000BFA068FC
:10337000A8B1FFF707FC054609E0FFF703FC401B77
:1033800041F28831884202D9032077E626E03848A6
:1033900068300068C0F340000028EED013E0FFF76B
:1033A000F1FB054608E0FFF7EDFB401B41F28831D9
:1033B000884201D9032061E62D4868300068C0F3D7
:1033C00040000028EFD1012F07D12948383000688C
:1033D00020F0805026493831086000BFA0690028DD
:1033E00045D02348006800F00C0008285DD0A06993
:1033F000022845D100201F490866FFF7C3FB054698
:1034000006E0FFF7BFFB401B022801D9032035E689
:10341000174808380068C0F340600028F1D1D4E9AB
:1034200007010843616A40EA81110122A06AC2EBE8
:10343000500041EA00412C20005D41EA00600C4947
:10344000091F086001200B490866FFF79BFB054632
:1034500006E0FFF797FB401B022801D903200DE689
:10346000034808380068C0F340600028F1D049E004
:103470000838024000004742800E4742007000407A
:10348000002021490866FFF77DFB054606E0FFF7AF
:1034900079FB401B022801D90320EFE51B48006897
:1034A000C0F340600028F2D12CE0A069012800D1CF
:1034B000E4E51648001D0668A069012820D006F43E
:1034C0008001E06981421BD106F03F01206A814200
:1034D00016D147F6C0703040616AB0EB811F0FD142
:1034E00006F440310122A06AC2EB5000B1EB004F5C
:1034F00006D106F070612C20005DB1EB006F01D0A9
:103500000120BBE50020B9E5000047420038024039
:10351000704710B504460CB9012010BD606A38B977
:103520006068B0F5827F00D105E00021E16102E032
:103530000021216161610021A16294F8510028B944
:10354000002084F85000204600F048F8022084F85B
:1035500051002068006820F0400021680860A088C1
:1035600000F48270218901F404410843A18901F427
:1035700000610843217C01F002010843217D01F034
:1035800001010843218B01F400710843217F01F000
:10359000380108432021095D01F080010843218D95
:1035A00001F400510843216808600421A06901EA80
:1035B000104094F8241001F010010843216848607D
:1035C0002068C06920F400602168C861002060653F
:1035D000012084F8510000209FE7000010B586B05C
:1035E0000446142101A8FCF7D4FF2A492068884228
:1035F0004DD100BF002000902748006840F4805063
:10360000254908600846006800F48050009000BF1B
:1036100000BF00BF002000901F481438006840F031
:1036200001001D49143908600846006800F00100D7
:10363000009000BF00BFA020019002200290002057
:103640000390032004900520059001A91348FFF77B
:1036500099F91348134908604FF0C0604860402151
:10366000104881600021C1604FF480610161002138
:1036700041618161C16101624162FFF7ABF808B14C
:10368000FEF7A8F900BF0748A064846300BF06B036
:1036900010BD0000003001404438024000000240EC
:1036A00058640240C80300202DE9F04104460E464C
:1036B0001546002700BF94F85000012802D10220CF
:1036C000BDE8F081012084F8500000BF94F851005B
:1036D000012801D0022758E006B10DB9012754E0B6
:1036E000032084F85100002060652663A586E586E6
:1036F000A06360642064A087E087A068B0F5004FF5
:103700000BD12068006820F0400021680860206824
:10371000006840F48040216808601F48A16C08647C
:103720001E48A16CC8631E48A16CC8640020A16C2F
:103730000865E38ED4F800C00CF10C02216BA06C7C
:10374000FFF7BEF840B1606D40F0100060650127E2
:10375000012084F8510018E02068006800F0400063
:10376000402805D02068006840F0400021680860CB
:103770002068406840F02000216848602068406868
:1037800040F002002168486000BF00BF002084F8BC
:10379000500000BF384693E7715900087F59000870
:1037A00049590008704770477047704730B5024666
:1037B0000B4600BF92F83C00012801D1022030BD29
:1037C000012082F83C0000BF022082F83D00106812
:1037D00044681068816824F0700418680443106815
:1037E0004460184D1068A8421BD01068B0F1804F9B
:1037F00017D0154D1068A84213D0144D1068A84278
:103800000FD0134D1068A8420BD0124D1068A8427B
:1038100007D0114D1068A84203D0104D1068A8427F
:1038200005D121F0800158680143106881600120B2
:1038300082F83D0000BF002082F83C0000BF00BFBE
:10384000BDE7000000000140000400400008004007
:10385000000C0040000401400040014000180040FE
:1038600010B504460CB9012010BD94F83D0028B9EC
:10387000002084F83C00204600F026F8022084F85E
:103880003D00211D206802F0F5FA012084F8460071
:1038900000BF84F83E0001213F2001554020015522
:1038A0004120015500BF00BF012084F842004320A1
:1038B0000155442001554520015500BF012084F8E1
:1038C0003D000020D0E7000038B5044628492068B4
:1038D000884218D100BF002000902648006840F0C0
:1038E0000400244908600846006800F004000090C5
:1038F00000BF00BF002205211E20FFF707FA1E208F
:10390000FFF7F4F932E01C492068884218D100BF63
:10391000002000901748006840F01000154908602A
:103920000846006800F01000009000BF00BF0022B1
:1039300005213620FFF7EAF93620FFF7D7F915E021
:103940000E492068884211D100BF0020009009482C
:10395000001D006840F400300649091D0860084653
:10396000006800F40030009000BF00BF38BD0000C8
:103970000008004040380240001000400044014070
:10398000014691F83D00012801D001207047022036
:1039900081F83D000868C06840F001000B68D860FD
:1039A0001A4B086898421BD00868B0F1804F17D0B6
:1039B000174B0868984213D0164B086898420FD0EE
:1039C000154B086898420BD0144B0868984207D0F2
:1039D000134B0868984203D0124B086898420CD1E8
:1039E0000868806800F00702062A0CD008680068A2
:1039F00040F001000B68186005E00868006840F0BE
:103A000001000B6818600020C0E7000000000140C2
:103A10000004004000080040000C00400004014089
:103A200000400140001800402DE9F04104460D46D9
:103A3000002700BF94F83C00012802D10220BDE815
:103A4000F081012084F83C0000BF022084F83D0092
:103A50002068866826F0770626F47F462068866010
:103A60002868502833D00CDC202850D004DC0028F3
:103A70004BD0102851D149E0302849D040284CD1B2
:103A800039E060282DD0702807D0B0F5805F03D0D2
:103A9000B0F5005F41D10DE041E0D5E902136A685D
:103AA000206802F064FA2068866846F0770620688D
:103AB000866034E0D5E902136A68206802F057FA9C
:103AC0002068806840F480402168886027E0EA68C8
:103AD0006968206802F03CFB5021206802F052FA2D
:103AE0001DE0EA686968206802F045FB60212068F3
:103AF00002F048FA13E0EA686968206802F028FBDF
:103B00004021206802F03EFA09E000BF00BF00BF7C
:103B10002968206802F036FA01E0012700BF00BFE3
:103B2000012084F83D0000BF002084F83C0000BF65
:103B3000384684E7704710B5044620680069C0F332
:103B40004000D8B12068C068C0F34000B0B16FF049
:103B5000020021680861012020772068806900F058
:103B6000030018B12046FFF7E5FF05E0204600F00E
:103B7000DDF8204600F091F90020207720680069E8
:103B8000C0F38000D8B12068C068C0F38000B0B135
:103B90006FF00400216808610220207720688069A6
:103BA00000F4407018B12046FFF7C4FF05E020463E
:103BB00000F0BCF8204600F070F900202077206863
:103BC0000069C0F3C000D8B12068C068C0F3C0006D
:103BD000B0B16FF0080021680861042020772068E8
:103BE000C06900F0030018B12046FFF7A3FF05E00D
:103BF000204600F09BF8204600F04FF90020207787
:103C000020680069C0F30010D8B12068C068C0F314
:103C10000010B0B16FF01000216808610820207713
:103C20002068C06900F4407018B12046FFF782FF99
:103C300005E0204600F07AF8204600F02EF900203A
:103C400020772068006900F0010058B12068C06842
:103C500000F0010030B16FF00100216808612046DA
:103C600000F0A2F920680069C0F3C01058B12068C4
:103C7000C068C0F3C01030B16FF0800021680861E7
:103C80002046FFF791FD20680069C0F3801058B10D
:103C90002068C068C0F3801030B16FF04000216828
:103CA0000861204600F094F920680069C0F34010D4
:103CB00058B12068C068C0F3401030B16FF02000E8
:103CC000216808612046FFF770FD10BD10B586B071
:103CD0000446142101A8FCF75CFC114920688842C5
:103CE0001CD100BF002000900E48006840F020006A
:103CF0000C4908600846006800F02000009000BFF2
:103D000000BF402001900220029000200390049008
:103D10000320059001A90448FEF734FE06B010BD4B
:103D200000440140303802400014024070472DE941
:103D3000F04104460D461646002700BF94F83C00AB
:103D4000012802D10220BDE8F081012084F83C0066
:103D500000BF36B1042E1BD0082E31D00C2E5ED100
:103D600045E02946206802F017F92068806940F094
:103D70000800216888612068806920F004002168BB
:103D8000886120688069296908432168886148E062
:103D90002946206802F038F92068806940F4006004
:103DA000216888612068806920F4806021688861CA
:103DB00020688069296940EA01202168886130E033
:103DC0002946206802F05EF92068C06940F00800CA
:103DD0002168C8612068C06920F004002168C861BA
:103DE0002068C069296908432168C86119E029462B
:103DF000206802F083F92068C06940F400602168FF
:103E0000C8612068C06920F480602168C8612068AA
:103E1000C069296940EA01202168C86101E00127E1
:103E200000BF00BF00BF002084F83C0000BF384640
:103E300089E710B504460CB9012010BD94F83D0087
:103E400028B9002084F83C00204600F025F8022024
:103E500084F83D00211D206802F00CF8012084F850
:103E6000460000BF84F83E0001213F20015540205C
:103E700001554120015500BF00BF012084F84200D8
:103E800043200155442001554520015500BF012024
:103E900084F83D000020D0E77047704770B50446B5
:103EA0000D4615B994F83E000BE0042D02D13F20D9
:103EB000005D06E0082D02D14020005D01E04120B8
:103EC000005D012801D0012070BD1DB9022084F8D9
:103ED0003E000EE0042D03D102213F20015508E0F1
:103EE000082D03D102214020015502E0022141208A
:103EF000015501222946206802F028F8234920684C
:103F0000884203D022492068884201D1012000E084
:103F1000002028B12068406C40F4004021684864CB
:103F20001A49206888421BD02068B0F1804F17D012
:103F300018492068884213D01749206888420FD05A
:103F40001649206888420BD011492068884207D062
:103F500013492068884203D01249206888420CD156
:103F60002068806800F00706062E0CD020680068E4
:103F700040F001002168086005E02068006840F01A
:103F800001002168086000209EE700000000014059
:103F9000000401400004004000080040000C004004
:103FA000004001400018004010B504460649206852
:103FB000884201D1FEF7ECFD04492068884201D116
:103FC00002F0DAFD10BD00000004004000080040CF
:103FD0007047704770B50446002520684069C0F3FB
:103FE000C01594F83D00212817D1B5B100BF00BF1E
:103FF0002168143151E8001F21F08000216814313C
:1040000041E80002002AF3D100BF606B10B1606B81
:10401000FEF755FA204602F0BFF920684069C0F368
:10402000801594F83E00222817D1B5B100BF00BF1B
:104030002168143151E8001F21F04000216814313B
:1040400041E80002002AF3D100BFA06B10B1A06BC1
:10405000FEF735FA204602F059F9002070BD70478E
:104060002DE9F84F0446206805682068C668206876
:1040700047694FF00009CA4605F00F09B9F1000F72
:104080000AD105F0200038B106F0200020B120460A
:1040900002F095F9BDE8F88FB9F1000F7CD007F078
:1040A000010018B906F49070002875D005F00100E1
:1040B00030B106F4807018B1206C40F0010020642B
:1040C00005F0040030B107F0010018B1206C40F099
:1040D0000200206405F0020030B107F0010018B1C1
:1040E000206C40F00400206405F0080048B106F0A0
:1040F000200010B907F0010018B1206C40F0080052
:104100002064206C002846D005F0200028B106F07D
:10411000200010B1204602F052F920684069C0F337
:10412000801A206C00F0080010B9BAF1000F2DD0F1
:10413000204602F0EBF82068406900F0400040287B
:1041400020D100BF00BF2168143151E8001F21F0C9
:1041500040002168143141E80002002AF3D100BF79
:10416000A06B50B17548A16B0865A06BFEF7FDF917
:1041700088B1A06B016D88470DE02046FFF76FFF07
:1041800009E009E02046FFF76AFF04E02046FFF758
:1041900066FF002020647DE7206B012876D105F0C2
:1041A0001000002872D006F010000028FAD000BFDE
:1041B000002000902068006800902068406800900F
:1041C00000BF00BF2068406900F0400040285ED179
:1041D000A06B006840681FFA80F8B8F1000F54D057
:1041E000A08D404551DDA4F82E80A06BC069B0F5CC
:1041F000807F43D000BF00BF21680C3151E8001F11
:1042000021F4807021680C3141E80002002AF3D1CA
:1042100000BF00BF00BF2168143151E8001F21F02A
:1042200001002168143141E80002002AF3D100BFE7
:1042300000BF00BF2168143151E8001F21F0400089
:104240002168143141E80002002AF3D100BF202088
:1042500084F83E000020206300BF00BF21680C31BD
:1042600051E8001F21F0100021680C3141E80002E4
:10427000002AF3D100BFA06BFEF721F9A08DE28DDB
:10428000801A81B22046FFF7A4FE03E740E0A08D2C
:10429000E18D401A1FFA80F8E08DC0B3B8F1000F2D
:1042A00035D000BF00BF21680C3151E8001F21F458
:1042B000907021680C3141E80002002AF3D100BF60
:1042C00000BF00BF2168143151E8001F21F0010038
:1042D0002168143141E80002002AF3D100BF2020F8
:1042E00084F83E000020206300BF00BF21680C312D
:1042F00051E8001F21F0100021680C3141E8000254
:10430000002AF3D100BF41462046FFF762FEC1E616
:1043100005F0800030B106F0800018B1204602F0B0
:1043200049FAB7E605F0400030B106F0400018B198
:10433000204602F021F8ADE600BFABE6D9610008E7
:1043400010B504460CB9012010BDA06900B100E011
:1043500000BF94F83D0028B9002084F83C002046B6
:1043600000F028F8242084F83D002068C06820F47C
:1043700000502168C860204602F09EF8206800695D
:1043800020F49040216808612068406920F02A00EC
:10439000216848612068C06840F400502168C86006
:1043A00000202064202084F83D0084F83E00002096
:1043B000CAE7000010B586B00446142101A8FCF736
:1043C000E8F8F7492068884275D100BF00200090C6
:1043D000F448006840F40020F2490860084600688C
:1043E00000F40020009000BF00BF00BF002000903C
:1043F000EC481038006840F00400EA4910390860C1
:104400000846006800F00400009000BF00BF4FF4B1
:10441000406001900220029001200390032004904C
:104420000820059001A9E048FEF7ACFADF48E04912
:104430000860400548600021DD488160C1604FF49C
:1044400080610161002141618161C161016241625C
:10445000FEF7C0F908B1FDF7BDFA00BFD448A0636C
:10446000846300BFD1483030D24908604FF000600B
:1044700048604021CF4881600021C1604FF48061D5
:104480000161002141618161C16101624162FEF708
:10449000A1F908B1FDF79EFA00BFC64860638463C6
:1044A00000BF002205213420FEF730FC3420FEF747
:1044B0001DFC13E2FFE7C0492068884278D100BFA5
:1044C00000200090B748001D006840F01000B5497A
:1044D000091D08600846006800F01000009000BF49
:1044E00000BF00BF00200090AE481038006840F0C8
:1044F0000100AC49103908600846006800F001006E
:10450000009000BF00BF4FF4C060019002200290F5
:1045100000200390032004900720059001A9A748DC
:10452000FEF730FAA648A74908604FF000604860DF
:104530004021A44881600021C1604FF48061016185
:10454000002141618161C16101624162FEF742F96E
:1045500008B1FDF73FFA00BF9A486063846300BF6B
:1045600097487838984908604FF00060486000210B
:1045700095488160C1604FF4806101610021416113
:104580008161C16101624162FEF724F908B1FDF762
:1045900021FA00BF8C48A063846300BF002205217C
:1045A0002520FEF7B3FB2520FEF7A0FB96E1FFE7F1
:1045B00086492068884276D100BF00200090794863
:1045C000006840F40030774908600846006800F44D
:1045D0000030009000BF00BF00BF00200090714875
:1045E0001038006840F008006E491039086008462D
:1045F000006800F00800009000BF00BF602001903C
:1046000002200290002003900320049007200590D0
:1046100001A96F48FEF7B6F9644848306D49086053
:104620004FF00060486000216A488160C1604FF42B
:1046300080610161002141618161C161016241626A
:10464000FEF7C8F808B1FDF7C5F900BF6148A063DF
:10465000846300BF554860305F4908604FF00060D8
:10466000486040215C4881600021C1604FF4806156
:104670000161002141618161C16101624162FEF716
:10468000A9F808B1FDF7A6F900BF53486063846339
:1046900000BF002205212620FEF738FB2620FEF76A
:1046A00025FB1BE1FFE74D492068884276D100BF1A
:1046B000002000903B48006840F4802039490860A1
:1046C0000846006800F48020009000BF00BF00BFD3
:1046D0000020009033481038006840F00200314953
:1046E000103908600846006800F00200009000BF22
:1046F00000BF4FF440600190022002900020039020
:10470000032004900720059001A93548FEF73AF9E7
:1047100026481838334908604FF00060486000218F
:1047200030488160C1604FF48061016100214161C6
:104730008161C16101624162FEF74CF808B1FDF789
:1047400049F900BF2748A063846300BF17481830A9
:10475000254908604FF00060486040212248816090
:104760000021C1604FF480610161002141618161DC
:10477000C16101624162FEF72DF808B1FDF72AF927
:1047800000BF19486063846300BF00220521272011
:10479000FEF7BCFA2720FEF7A9FA9FE026E000000A
:1047A000004C004040380240000802404060024097
:1047B00054060020B4060020001001400000024012
:1047C000B864024014070020740700200044004031
:1047D000000C0240D40700203408002000480040AC
:1047E0000004024094080020F40800203C4920689E
:1047F000884273D100BF002000903A48006840F022
:104800002000384908600846006800F02000009049
:1048100000BF00BF00BF002000903248143800687D
:1048200040F040002F49143908600846006800F045
:104830004000009000BF00BF4FF484400190022070
:10484000029001200390032004900820059001A904
:104850002548FEF797F825482549086080054860F7
:10486000002123488160C1604FF480610161002113
:1048700041618161C16101624162FDF7ABFF08B135
:10488000FDF7A8F800BF1A48A063846300BF17486B
:104890007830184908604FF0206048604021154882
:1048A00081600021C1604FF480610161002141619C
:1048B0008161C16101624162FDF78CFF08B1FDF7C2
:1048C00089F800BF0B486063846300BF00220521A4
:1048D0004720FEF71BFA4720FEF708FA06B010BD86
:1048E000001401404438024000180240286402408D
:1048F00054090020B409002070B504460D46164640
:1049000094F83E00202816D105B10EB9012070BDE3
:1049100000BF94F83C00012801D10220F7E70120F4
:1049200084F83C0000BF0020206332462946204620
:1049300001F0D8FEEBE70220E9E7704770472DE968
:10494000F84F04460E46174699464FF0000A94F871
:104950003D0020285AD106B117B90120BDE8F88FD3
:1049600000BF94F83C00012801D10220F6E70120A5
:1049700084F83C0000BF00202064212084F83D0022
:10498000FEF700F98246A784E784A068B0F5805F4F
:1049900004D1206910B90025B04602E035464FF039
:1049A000000800BF002084F83C0000BF1BE0534615
:1049B000002280212046CDF8009001F02BFF08B1A5
:1049C0000320CBE745B9B8F80000C0F30800216820
:1049D000486008F1020803E02878216848606D1CEF
:1049E000E08C401EE084E08C0028E0D15346002299
:1049F00040212046CDF8009001F00CFF08B10320C3
:104A0000ACE7202084F83D000020A7E70220A5E7BE
:104A1000704700BFFEE700B563223121DE2002F0BF
:104A200085F900BD00B500221146082002F07EF98C
:104A300000BD00B508220021084602F077F900BD4C
:104A400000B500221146104602F070F900BD00B515
:104A50000022F721FF2002F069F900BD00BF00220B
:104A600033493448006808F005FA012821D130485C
:104A70000078052818D2DFE800F0030F070B1300B9
:104A800000202D49087013E003202B4908700FE027
:104A90000120294908700BE002202749087007E02F
:104AA00005202549087003E004202349087000BF51
:104AB00000BF21480078062834D2DFE800F0031256
:104AC00013082E0DFFF7B5FF02F048F92AE0FFF7B3
:104AD000A2FF02F043F925E0FFF7B9FF02F03EF92B
:104AE00020E000BF08F060FB04464FF4AF60B4FB69
:104AF000F0F100FB1145B5F52F7F09D20E48007883
:104B0000012802D1FFF78EFF04E000F017F801E062
:104B1000FFF796FF02F022F904E0FFF791FF02F0A1
:104B20001DF900BF00BF0A2006F083FC97E70000D4
:104B3000010300203C0200200003002000B50022F9
:104B40000821104602F0F2F800BD70B505460024B9
:104B5000284600F077F8044305F1140000F072F8DD
:104B60000443204670BD0000F8B5044600253148D6
:104B700020603148006860600020207280206072F0
:104B80000020A072E0600021218261822B486061D8
:104B90002B480168A16100212177802161770021E4
:104BA000A1772162A184E184002000904FF47A7102
:104BB000684607F0F1FC204600F0B2F8054304F126
:104BC000140000F0ADF80543642006F032FC2046E6
:104BD00000F0B8F8054304F1140000F0B3F8054301
:104BE000D5B1012600BF0025204600F0ABF80543F3
:104BF00004F1140000F0A6F8054305B90AE0052EFB
:104C000001DB2846F8BD4FF47A7006F012FC701CE8
:104C1000C6B2E8E700BF00BF642006F00AFC2046E9
:104C200000F04EF8054304F1140000F049F8054384
:104C30002846E7E7100600202C020020000500208F
:104C4000300200202DE9F0410446002500221B49D6
:104C5000606808F00FF901282DD118488079000606
:104C6000164FFF7940EA0740144F3F7A40EA072089
:104C7000124F7F7A40EA07021048C07A0F4FBF7A7E
:104C800040EA07230D48067B0021012005E00B4F79
:104C90003F5C0F44F9B2471CF8B20C28F7DB8E4298
:104CA00002D1E260238205E0608A40F00407678257
:104CB00045F0010500BF2846BDE8F08134650020BD
:104CC000FEB50446002513A207CA8DE80700A07AA6
:104CD0008DF801009DF801009DF8021008449DF830
:104CE000031008449DF8041008449DF8051008447A
:104CF0009DF8061008449DF807100844C6B28DF8C8
:104D000008600A2309226946206800F025FD054352
:104D10002846FEBDAA00002000010004000000009B
:104D200038B50446002506A000680090052301223E
:104D30006946206800F010FD0543284638BD000094
:104D400058000000FEB5044600251FA207CA8DE8E2
:104D50000700A07A8DF801009DF801009DF802106F
:104D600008449DF8031008449DF8041008449DF879
:104D7000051008449DF8061008449DF807100844E3
:104D8000C6B28DF808600A2309226946206800F03F
:104D9000E3FC054332220F49606808F06BF80128F4
:104DA0000CD169460B48FBF71BFC08B90020FEBD7F
:104DB000608A40F0020161820120F8E7608A40F0D9
:104DC000010161820120F2E7AA0001BE0001000199
:104DD000000000003465002038B504460D46002070
:104DE000009002236A4621460948006807F0C4FF84
:104DF00001280BD1009838B14FF080500549086068
:104E0000BFF34F8FBFF36F8F012038BD0020FCE749
:104E10003002002004ED00E038B504460D460020C5
:104E2000009002236A4621460948006807F0A4FF63
:104E300001280BD1009838B14FF080500549086027
:104E4000BFF34F8FBFF36F8F012038BD0020FCE709
:104E50002C02002004ED00E010B52DED048B82B093
:104E600004469FED230A05F069FBD4ED000A9FED8F
:104E7000201A70EE810A20EE209A9FED1D0A05F09F
:104E800037FFD4ED010A9FED1A1A70EE810A00EE89
:104E9000209AB0EE498A9FED160A05F029FFFFEE31
:104EA000000A20EE200AD4ED000A9FED111A70EEE0
:104EB000810A20EE209A9FED0E0A05F03FFBF7EEE7
:104EC000000A20EE200AD4ED010A9FED091A70EEC7
:104ED000810A00EE209AF0EE498A8DED008ACDED30
:104EE000018A684600F02EFE02B0BDEC048B10BDB6
:104EF000000000001FB5002400259FED3B0A8DED4A
:104F0000010A08F051F900903848FFF72DFE0443DC
:104F10002CB103E04FF47A7006F08BFAFAE76420C4
:104F200006F087FA00BF0024002500212F484182A7
:104F3000C184FFF70AFE04432C48006A2C4908602C
:104F40002A48C0682B490860084690ED000AF8EE30
:104F5000400A2948008800EE100AB8EE400A70EEB8
:104F6000C00A9FED261A80EE810A2548D0ED000A7E
:104F700030EE600A234880ED000A1D4890ED000ADB
:104F8000F8EE400A2048008800EE100AB8EE400A09
:104F900030EEC00ADFED190A80EE201AB1EE410AA8
:104FA0001A48D0ED000A30EE200A194880ED000AB8
:104FB00001A800F09BF805468DB10C48026AC16853
:104FC0009DED010A02A800F025F89DED010A02A856
:104FD00000F08AF8054615B902A8FFF73DFF282121
:104FE000684607F0D9FA9EE7E4CB96404465002076
:104FF000E0020020DC020020F602002000007A44DB
:10500000F0020020E4020020F4020020EC02002064
:10501000E802002070B52DED048B0446B0EE408A06
:105020000D4616469FED2E0A38EE000AB0EE408A75
:105030009FED2B0AC0EE000AF0EE609AB0EE690A0E
:1050400005F0BEF8F0EE408A9FED250AC0EE000A9A
:10505000F0EE609AB0EE690A05F0B2F8B0EE409A50
:1050600078EE680AB0EE600A05F042FEF0EE400A03
:1050700000EE105AB8EE400A20EE800ADFED190A61
:1050800080EE201AB1EE410A84ED010A78EE490A59
:10509000B0EE600A05F02CFEF0EE400A00EE106A59
:1050A000B8EE400A20EE800ADFED0E0A80EE201AEC
:1050B000B1EE410A84ED000A94ED000ADFED080A22
:1050C00030EE200A84ED000A94ED010ADFED040AB7
:1050D00030EE200A84ED010ABDEC048B70BD0000A7
:1050E0000000000000007A44014670470146704706
:1050F00000BF012006F09DF9FBE7000010B50E4847
:105100000E4908600320486000210C488160C1609E
:105110004FF4002101614FF44011416100210176FB
:1051200041768176C17601774177FCF7B9FF08B106
:10513000FCF750FC10BD000000640040200300207C
:1051400010B50E480E4908600320486000210C4845
:105150008160C1604FF4002101614FF44011416151
:105160000021017641768176C17601774177FCF79F
:1051700097FF08B1FCF72EFC10BD0000006800404E
:105180004803002008B500BF002000903A4800689E
:1051900040F48000384908600846006800F4800048
:1051A000009000BF00BF00BF0020009008460068CC
:1051B00040F4001008600846006800F400100090F9
:1051C00000BF00BF002205210C20FDF79FFD0C2031
:1051D000FDF78CFD002205210D20FDF797FD0D2028
:1051E000FDF784FD002205210E20FDF78FFD0E2026
:1051F000FDF77CFD002205210F20FDF787FD0F2024
:10520000FDF774FD002205211020FDF77FFD102021
:10521000FDF76CFD002205211120FDF777FD11201F
:10522000FDF764FD002205213920FDF76FFD3920CF
:10523000FDF75CFD002205213A20FDF767FD3A20CD
:10524000FDF754FD002205213B20FDF75FFD3B20CB
:10525000FDF74CFD002205214520FDF757FD4520B7
:10526000FDF744FD002205214620FDF74FFD4620B5
:10527000FDF73CFD08BD00003038024010B5234A60
:105280000021234806F02AF922490860224A002119
:10529000224806F023F922490860224A00212248C8
:1052A00006F01CF921490860214A0021214806F036
:1052B00015F921490860214A0021214806F00EF91C
:1052C00020490860204A0021204806F007F92049BB
:1052D0000860204A0021204806F000F91F490860B4
:1052E0001F4A00211F4806F0F9F81F4908601F4AAD
:1052F00000211F4806F0F2F81E4908601E4A0021EE
:105300001E4806F0EBF81E49086010BDD8E50008FD
:105310003110000800000020FCE50008F111000831
:105320000400002020E60008BD100008080000204E
:1053300044E60008916B00080C00002068E60008B5
:10534000FD090008100000208CE60008F54E00085A
:1053500014000020B0E60008F150000818000020FA
:10536000D4E6000831C100081C000020F8E600085F
:105370005D4A0008200000201CE700087D5B000853
:105380002400002000B587B0142102A8FBF701F922
:1053900000BF002001904C48006840F004004A49DA
:1053A00008600846006800F00400019000BF00BFDC
:1053B00000BF002001900846006840F0200008600F
:1053C0000846006800F02000019000BF00BF00BF49
:1053D000002001900846006840F080000860084600
:1053E000006800F08000019000BF00BF00BF0020F7
:1053F00001900846006840F0010008600846006817
:1054000000F00100019000BF00BF00BF002001902C
:105410000846006840F0020008600846006800F096
:105420000200019000BF00BF00BF002001900846AD
:10543000006840F0080008600846006800F00800B6
:10544000019000BF00BF00BF002001900846006827
:1054500040F0400008600846006800F040000190FD
:1054600000BF00BF002289151848FDF785FB80208A
:1054700002904FF4881003900020049002A9144871
:10548000FDF780FA4FF48070029001200390022013
:105490000490059002A90D48FDF774FA4FF480605E
:1054A0000290002003900120049002A90748FDF714
:1054B00069FA002205211720FDF728FC1720FDF7C7
:1054C00015FC07B000BD000030380240000C02405F
:1054D0000014024010B50E480E4908604FF4827067
:1054E000486000210B488160C160016141614FF457
:1054F000007181611821C1610021016241628162F4
:105500000A21C162FEF705F808B1FCF763FA10BD85
:10551000003001407003002000B587B01C216846B0
:10552000FBF737F8154816490860532048600021FA
:105530001348816040F63301C1600021016181613F
:10554000FEF78EF908B1FCF745FA0D48FEF771FC3D
:1055500008B1FCF73FFA6020009000200190029013
:105560000490002269460648FEF7E1FB08B1FCF70B
:1055700031FA0348FEF7AAFB07B000BD0044014022
:10558000B804002000B587B0002003900490059077
:105590000690019002901448144908605320486016
:1055A0000021124881604FF6FF71C1600021016146
:1055B0008161FEF755F908B1FCF70CFA4FF4805001
:1055C000039003A90948FEF72FFA08B1FCF702FA85
:1055D00000200190029001A90448FEF7E7F808B105
:1055E000FCF7F8F907B000BD0008004028040020CF
:1055F0001CB50020009001900E480F490860002063
:10560000486000210C4881604FF6FF71C1600021A5
:105610008161FEF725F908B1FCF7DCF90020009064
:10562000019069460448FEF7C1F808B1FCF7D2F9C9
:105630001CBD0000001000407004002010B50B4895
:105640000B4908604FF4964048600021084881608B
:10565000C16001610C21416100218161C161FEF7DE
:105660006FFE08B1FCF7B6F910BD0000004C004019
:105670000005002010B50B480B4908604FF4165088
:105680004860002108488160C16001610C214161CE
:1056900000218161C161FEF753FE08B1FCF79AF960
:1056A00010BD0000001001404405002010B50B485B
:1056B0000B4908604FF4E1304860002108488160E0
:1056C000C16001610C21416100218161C161FEF76E
:1056D00037FE08B1FCF77EF910BD00000044004021
:1056E0008805002010B50B480B4908604FF4E130E5
:1056F0004860002108488160C16001610C2141615E
:1057000000218161C161FEF71BFE08B1FCF762F95F
:1057100010BD000000480040CC05002010B50B482B
:105720000B4908604FF496404860002108488160AA
:10573000C16001610C21416100218161C161FEF7FD
:10574000FFFD08B1FCF746F910BD00000014014050
:105750001006002000BFFEE72DE9F04104460D468B
:1057600016461F464FF000083B4632462946204663
:10577000FFF7E5F88046B8F1000F02D10020BDE840
:10578000F0810120FBE700BFFEE72DE9F04105466F
:105790000E4614461F46E56066602046FEF760F838
:1057A00039462046FEF77AFBBDE8F081F8B503469E
:1057B0000D4600240022012666E0082C61D2DFE8B5
:1057C00004F0040E18222C3F4D57985CFC2802D19F
:1057D000601CC4B200E00024501CC2B253E0985CCC
:1057E000FB2802D1601CC4B200E00024501CC2B2ED
:1057F00049E0985C012802D1601CC4B200E000249A
:10580000501CC2B23FE0985C182802D1601CC4B2A0
:1058100000E00024501CC2B235E0A5F1180191420D
:1058200000DA0026002006E0995C1A4F3954511C1A
:10583000CAB2411CC8B21828F6DB611CCCB222E007
:10584000002006E0995C0DF80010511CCAB2411C02
:10585000C8B20228F6DB611CCCB214E0985CFD28CB
:1058600002D1601CC4B200E00024501CC2B20AE0A5
:10587000985CFE2802D1074801F040F90024002678
:1058800001E0002400BF00BFAA4201DA012E94D03B
:105890000020F8BD8858002000B52DED028B85B0A2
:1058A000F0EE408AB0EE608A0020019002900390F2
:1058B0000490FC208DF80400FB208DF805002048A2
:1058C00000788DF8060008208DF80700CDED008ADD
:1058D0009DF800008DF808009DF801008DF8090082
:1058E0009DF802008DF80A009DF803008DF80B006A
:1058F0008DED008A9DF800008DF80C009DF80100E8
:105900008DF80D009DF802008DF80E009DF8030043
:105910008DF80F0000208DF810008DF81100FD208B
:105920008DF81200FE208DF813004FF0FF33102287
:1059300001A90448FFF703F805B0BDEC028B00BDD8
:1059400050010020CC05002070B50546AC6B2068E6
:10595000406820F0030021684860606D40F010004E
:105960006065012084F851002046FDF7D1FD70BD2F
:1059700070B50446A56B2846FDF715FF70BDF8B558
:105980000546AC6BFDF7FEF806462868006800F493
:105990008070B0F5807F2DD02068406820F0200016
:1059A000216848602068406820F002002168486053
:1059B00032466421204600F023F818B1606D40F0B3
:1059C00020006065A06850B900BF002000902068EA
:1059D000C068009020688068009000BF00BF002071
:1059E000E086012084F85100606D18B12046FDF773
:1059F0008FFDF8BD2046FDF7D5FE00BFF9E700009A
:105A00007CB504460D461646164800681821B0FBC2
:105A1000F1F01549B0FBF1F04FF47A714843019071
:105A20006068B0F5827F0DD12B4600228021204690
:105A3000009600F01BF898B1606D40F020006065A2
:105A400003207CBD00BF019800B908E00198401E0A
:105A5000019020688068C0F3C0100028F3D100BF17
:105A60000020EEE73800002040420F002DE9F84FFB
:105A700004460D4690461E46DDF82890FDF782F854
:105A8000A0EB0900371AFDF77DF882462C48006824
:105A9000C0F3CB307843009045E0701C002842D022
:105AA000FDF770F8A0EB0A00B84200D2A7BB20684F
:105AB000406820F0E000216848606068B0F5827FAF
:105AC0000DD1A068B0F5004F03D0A068B0F5806F8D
:105AD00005D12068006820F0400021680860A06AB5
