:020000040800F2
:10000000F063002019030008B948000811430008F4
:10001000B5480008790D0008B1590008000000003B
:10002000000000000000000000000000590200086D
:10003000FD14000800000000B50200087F4A000817
:1000400033030008330300083303000833030008B8
:1000500033030008330300083303000833030008A8
:100060003303000833030008330300083303000898
:1000700099120008A9120008B9120008C912000854
:10008000D9120008E912000833030008490E0008DD
:100090007D0D00083303000833030008FF14000837
:1000A0003303000833030008330300083303000858
:1000B00033030008214C0008314C000833030008CA
:1000C0003303000833030008330300083303000838
:1000D00033030008D9560008F156000809570008F4
:1000E0003303000833030008330300083303000818
:1000F0003303000833030008330300083303000808
:1001000033030008330300083303000833030008F7
:100110008D4F000833030008330300083303000841
:1001200033030008F912000809130008330300081C
:10013000330300083303000833030008D50E00081A
:10014000590E000833030008330300083303000886
:100150003303000819130008291300082157000869
:100160003303000833030008330300083303000897
:1001700033030008330300083303000800000000C5
:10018000330300083303000800F002F800F055F8CC
:100190000AA090E8000C82448344AAF10107DA45E2
:1001A00001D100F04AF8AFF2090EBAE80F0013F0DF
:1001B000010F18BFFB1A43F00103184700B60000F7
:1001C00020B600000A4410F8014B14F00F0508BFD8
:1001D00010F8015B240908BF10F8014B6D1E05D013
:1001E00010F8013B6D1E01F8013BF9D1641E03D0EC
:1001F000641E01F8015BFBD19142E4D3704700001B
:100200000023002400250026103A28BF78C1FBD81F
:10021000520728BF30C148BF0B6070471FB50BF0B5
:10022000CEF89DE8030000F0BFFA00F0CDF91FBD45
:1002300010B5002000F051FA10BD00F0F7FA114699
:10024000FFF7ECFF08F05FFC00F02FFB03B4FFF7B3
:10025000EFFF03BC00F0E4FA2C4B19680868B0E823
:10026000F04F80F30988BFF36F8F4FF0000080F3E9
:10027000118870470000000008480068006880F39B
:1002800008884FF0000080F3148862B661B6BFF3AF
:100290004F8FBFF36F8F00DF00BF00BF08ED00E09E
:1002A000DFF80C00016841F470010160704700BF85
:1002B00088ED00E0EFF30980BFF36F8F134B1A68EE
:1002C0001EF0100F08BF20ED108A20E9F04F1060DB
:1002D00009B44FF0500080F31188BFF34F8FBFF384
:1002E0006F8F09F01BFD4FF0000080F3118809BCEF
:1002F00019680868B0E8F04F1EF0100F08BFB0ECA6
:10030000108A80F30988BFF36F8F70472C0000209C
:10031000EFF305807047000009488047094800470F
:10032000FEE7FEE7FEE7FEE7FEE7FEE7FEE7FEE7A5
:10033000FEE7FEE704480549054A064B7047000002
:10034000494B000889010008F05D0020F06300209F
:10035000F05F0020F05F002053EA020C00F069809B
:100360002DE9F04B4FF00006002B1FBFB3FA83F5C9
:1003700003FA05F424FA05F65E4012BF1643B2FAFA
:1003800082F502FA05F4C5F120051EBF22FA05FC2C
:1003900044EA0C04203556EA044C4FEA144418BFD2
:1003A000641C4FF000084FF00009904271EB030C01
:1003B00039D3002919BFB1FA81F701FA07F6B0FA6B
:1003C00080F700FA07F6C7F120071EBF20FA07FCE6
:1003D00046EA0C062037B6FBF4FCA7EB0507103FF6
:1003E00007F01F0BCBF120060CFA0BFB2CFA06F6DC
:1003F00044BFB3460026202FA4BF5E464FF0000B3B
:100400005BEA060C08BF4FF0010B19EB0B09ABFBC5
:10041000027C48EB0608C01B06FB02CC0BFB03CC9E
:1004200071EB0C01C1E70B46024641464846BDE868
:10043000F08B13B54FF000004FF00001AFF30080D8
:10044000BDE81C4070472DE9F041074615460E46B1
:10045000102000F0E1F804000AD06760C4E90265EA
:1004600000F0D6F80168216004600020BDE8F0814A
:100470000120FBE7032A40F2308010F0030C00F06B
:10048000158011F8013BBCF1020F624498BF11F8CE
:1004900001CB00F8013B38BF11F8013BA2F1040287
:1004A00098BF00F801CB38BF00F8013B11F00303FF
:1004B00000F02580083AC0F0088051F8043B083A63
:1004C00051F804CBA0E80810F5E7121D5CBF51F805
:1004D000043B40F8043BAFF30080D20724BF11F87F
:1004E000013B11F801CB48BF11F8012B24BF00F8E4
:1004F000013B00F801CB48BF00F8012B704710B555
:10050000203AC0F00B80B1E81850203AA0E818500B
:10051000B1E81850A0E81850BFF4F5AF5FEA027CCC
:1005200024BFB1E81850A0E8185044BF18C918C03B
:10053000BDE810405FEA827C24BF51F8043B40F8DC
:10054000043B08BF7047D20728BF31F8023B48BFC1
:1005500011F8012B28BF20F8023B48BF00F8012BFF
:10056000704702F0FF0343EA032242EA024200F02E
:10057000D7B84FF0000200B513469446964620398E
:1005800022BFA0E80C50A0E80C50B1F12001BFF44C
:10059000F7AF090728BFA0E80C5048BF0CC05DF8B2
:1005A00004EB890028BF40F8042B08BF704748BF00
:1005B00020F8022B11F0804F18BF00F8012B704774
:1005C000704770477047000070B5064C7C44064D7C
:1005D0007D4403E0206820448047241DAC42F9D1CB
:1005E00070BD00000CB2000028B200002DE9F041FF
:1005F00017460E46054633B107FB0354E41B20465D
:10060000B047A542FAD1A5F10800BDE8F08100008D
:1006100000487047C45D002070B5064600F0A4F89D
:10062000056806F10B0020F00704B4429CBF0020CF
:1006300070BD2B466A68BAB11068A04210D304F1AD
:10064000080188423CBF5068586007D351681019B0
:1006500041601168091B016058601460101D70BD75
:1006600013465268002AE7D12146284600F088F850
:100670000028DED170BD70B50446051F00F074F887
:100680000068002C14BF446870BD002C18BFAC4239
:100690003CBF20466468F8D301680A18AA4218BF14
:1006A000456003D12A680546114401602868411954
:1006B000A1421CBF6C6070BD61686960216808441C
:1006C000286070BD10B500F053F8006810BD10B57B
:1006D000044600F04DF8046010BD2DE9F0410646D7
:1006E000FFF796FF8046454613E016B1E068B0423A
:1006F0000ED120682860D4E90101D8F8007088473D
:100700002046FFF7B8FFD8F80000B842EBD100E070
:1007100025462C68002CE8D1BDE8F0814FF000029E
:100720000429C0F0128010F0030C3FF424AFCCF188
:10073000040CBCF1020F18BF00F8012BA8BF20F871
:10074000022BA1EB0C01FFF716BF5FEAC17C24BFAF
:1007500000F8012B00F8012B48BF00F8012B70476F
:10076000004870478C5D002000487047945D002071
:10077000004870478C5D0020704770477047704795
:1007800038B504460A4600206946AFF300800028C9
:1007900008BF38BD02460099204600F06CF80120E1
:1007A00038BD012000F0A3B8F8B5AFF300800546CE
:1007B00000200C46102000BF0646A819A0420DD903
:1007C000324669460020AFF30080070008BF00F002
:1007D0008EF80098A04218BF0546C419FFF7C4FF61
:1007E00005600746F01D20F007004619284600F076
:1007F0000AF8B44208BFF8BDA21B31463868BDE80C
:10080000F84000F038B800210160C0E901107047DD
:1008100010207047002801D000F002B87047000097
:1008200001491820ABBEFEE7260002007546FFF71F
:1008300097FFAE4605006946534620F007008546FF
:1008400018B020B5FFF776FDBDE820404FF0000658
:100850004FF000074FF000084FF0000B21F00701A8
:10086000AC46ACE8C009ACE8C009ACE8C009ACE8EB
:10087000C0098D467047034640688C46002818BF63
:1008800088423CBF03464068F8D318681844884241
:1008900007D00CF1030020F00700001D411A521A86
:1008A0000146081D0A60FFF7E6BE10B50446AFF327
:1008B00000802046BDE81040FFF7C8BC70B5054673
:1008C0000C460A2000E06D1C00F018F835B12878BD
:1008D0000028F8D102E0641C00F010F814B1207870
:1008E0000028F8D1BDE870400A2000F007B810B524
:1008F00000F00CF8BDE81040FFF78CBF08B5694662
:100900008DF800000320ABBE08BD704710B501286C
:1009100005D0002103A0FFF7D1FF012010BD09A1E0
:10092000F8E7000053494752544D454D3A204F7562
:1009300074206F662068656170206D656D6F7279D7
:10094000000000003A2048656170206D656D6F728F
:100950007920636F72727570746564002DED068B7B
:1009600088B0F248007800F0010050B9EF4807F075
:10097000B5FB30B1EE48002180F82810EB48AFF30A
:10098000008000BFEB48008AB0F5AF6F08DDE94892
:10099000008AB0F5C86F03DA40F2DC50E5490882FE
:1009A000E448408AB0F5AF6F08DDE248408AB0F510
:1009B000C86F03DA40F2DC50DE494882DD48808AA5
:1009C000B0F5AF6F08DDDB48808AB0F5C86F03DA99
:1009D00040F2DC50D7498882D648C08AB0F5AF6F64
:1009E00008DDD448C08AB0F5C86F03DA40F2DC50A5
:1009F000D049C882CF48008A48B9CE48408A30B929
:100A0000CC48808A18B9CB48C08A00287ED0C94912
:100A10004989A1F57A700AF0BAF9B0F5C87F76DD98
:100A2000C449498AA1F2DC500AF042FB41EC1A0B9E
:100A30009FEDC10B53EC102B0AF0E2F941EC190BBE
:100A40009FEDBF0B53EC102B0AF04AFB41EC180B47
:100A50000AF0A4F9B6494860B649098A40F2DC5266
:100A6000501A0AF025FB41EC1A0B9FEDB30B53EC27
:100A7000102B0AF0C5F941EC190B9FEDB10B53ECAB
:100A8000102B0AF02DFB41EC180B0AF087F9A8494E
:100A90000860A849898AA1F2DC500AF009FB41EC00
:100AA0001A0B9FEDA50B53EC102B0AF0A9F941ECA2
:100AB000190B9FEDA50B53EC102B0AF011FB41EC29
:100AC000180B0AF06BF99A4948619A49C98AA1F250
:100AD000DC500AF0EDFA41EC1A0B9FED970B53EC4A
:100AE000102B0AF08DF941EC190B9FED970B53EC8D
:100AF000102B0AF0F5FA41EC180B0AF04FF98C496B
:100B000088618C494989A1F2DC5001E0FAE0DDE01E
:100B10000AF03DF9322848DA0220854981F82000A0
:100B200084490989A1F57A700AF031F9322826DA68
:100B300001207F4981F82100002081F82200012056
:100B400081F82500002081F826007A49C989A1F59D
:100B50007A700AF01CF9322804DA0020744981F80E
:100B60002700C7E07349C989A1F5FA600AF00FF9B7
:100B70003228F6DA01206E4981F82700BAE06D4983
:100B80000989A1F5FA600AF002F93228E9DA0220AF
:100B9000674981F82100042081F82200002081F8B3
:100BA0002500012081F82600A4E062494989A1F5C9
:100BB000FA600AF0ECF83228D3DA01205C4981F8B7
:100BC00020005C490989A1F5FA600AF0E0F83228B2
:100BD0000CDA0620564981F821001031081F05F073
:100BE00027F95348143005F08DF90BE05149098974
:100BF000A1F57A700AF0CBF8322803DA02204C49CA
:100C000081F821004A4890F82100062819D1494965
:100C1000C989A1F57A700AF0BAF8322804DA0220FC
:100C2000434981F8220019E04249C989A1F5FA60D7
:100C30000AF0ADF8322811DA03203D4981F822008C
:100C40000CE03B4890F82100012807D1384981F891
:100C50002200002081F8230081F82400344890F815
:100C60002200032804D0324890F82200022841D103
:100C700030498989A1F57A700AF089F8322806DAB4
:100C800000202B4981F8230081F8240032E0294913
:100C90008989A1F2DC500AF07AF8322807DA0120BB
:100CA000234981F82300002081F8240022E0214913
:100CB0008989A1F5FA600AF06AF832281ADA012067
:100CC0001B4981F8230081F8240013E00020184913
:100CD00081F8200081F8210081F8220081F82300AA
:100CE00081F82400012081F82500002081F82600E9
:100CF00081F8270000231A460D491548006809F0BD
:100D00000DFA0EE020216846FFF733FC202211493E
:100D10006846FFF7F4FB202269460548FFF7EFFB22
:100D200000BF012007F013FF2CE60000D8010020CF
:100D3000085400204C5200200000000000407F407A
:100D4000000000000000084000000000000000401B
:100D500094010020E0B4000810B5002211460448B8
:100D600003F072FE04F008FF024807F0D5F810BD4A
:100D7000B80200201515000800BFFEE710B50248B4
:100D800000F001FE10BD00002002002010B5044656
:100D9000A06898BB2068A0F2012007282DD2DFE8C8
:100DA00000F0040A112C181E250004F11C0114483F
:100DB00005F095FA21E004F11C0111482C3005F0F2
:100DC0008EFA1AE004F11C010D48583005F087FA3C
:100DD00013E004F11C010B4805F081FA0DE004F169
:100DE0001C0108482C3005F07AFA06E004F11C01D9
:100DF0000448583005F073FA00BF00BF10BD000072
:100E0000C8550020A05800201FB500BF4FF0FF328A
:100E100069460B48006809F0D3FA0128F6D100BFF3
:100E2000084800F095FDC4B2002CF9D09DF80C30B4
:100E3000029881B26A46034807F048FEE6E70000E0
:100E4000800100202002002010B5024800F09BFD28
:100E500010BD00002002002010B5024800F093FDF4
:100E600010BD00004802002010B50446A068042808
:100E70000DD12146064806F0ABF92146044838302A
:100E800006F0A6F921460248703006F0A1F910BD1F
:100E9000245900201FB500BF4FF0FF3269460B48B0
:100EA000006809F08DFA0128F6D100BF00BF08489C
:100EB00000F04EFDC4B2002CF9D09DF80C306A460B
:100EC0000348029907F0E4FDE6E7000084010020F2
:100ED0004802002010B5024800F055FD10BD00008A
:100EE00048020020F0B58BB007460C4615461E465A
:100EF00004F0020080B1E8040190E80004F003016E
:100F000040EA41000290F0040390F00004F0030175
:100F100040EA4100049009E068010190A007400FF9
:100F2000029070010390A007400F0490E01006901B
:100F3000C4F3800005900120099000200790012053
:100F400008900E200A9001A9384600F0B1FB08B1C4
:100F500000F0DAFA0BB0F0BD70B504460D4620463D
:100F600001F011F808B100F0CFFA0121204600F09D
:100F7000DFFA08B100F0C8FA0221204600F0D8FAE2
:100F800008B100F0C1FA1021204600F0D1FA08B1F2
:100F900000F0BAFA08492068884203D10748056082
:100FA000002070BD06492068884203D105480560CD
:100FB0000020F6E70120F4E700640040AC000020C8
:100FC00000680040B00000202DED048B8EB000BF03
:100FD0000122A549A548006809F0F2F9012876D157
:100FE000A14890F8210001280BD114229E490C3110
:100FF0006846FFF784FA9C480EC89D4805F01AFC25
:1010000099E0994890F8210005280ED1202106A8E2
:10101000FFF7AFFA142209A96846FFF770FA94485F
:1010200006A90EC905F006FC85E08F4890F821005E
:1010300002284DD18C4890ED000A10EE101A084697
:101040000AF04CF941EC190B9FED8A0B53EC102B75
:101050000AF046F841EC180B09F0A0FE824908603E
:10106000084690ED010A10EE101A08460AF036F90B
:1010700041EC190B9FED7F0B53EC102B0AF030F86D
:1010800041EC180B09F08AFE77494860084690ED5C
:10109000050A10EE101A08460AF020F941EC190B67
:1010A0009FED740B53EC102B0AF01AF841EC180B5F
:1010B00009F074FE6C49486114220C316846FFF750
:1010C0001EFA69480EC86A4805F0B4FB33E0C5E073
:1010D000654890F8210070B9202106A8FFF749FA69
:1010E000142209A96846FFF70AFA614806A90EC941
:1010F00005F0A0FB1FE05C4890F8210006280BD10A
:10110000142259490C316846FFF7F9F956480EC8C0
:10111000574805F08FFB0EE0202106A8FFF729FABB
:10112000142209A96846FFF7EAF9514806A90EC931
:1011300005F080FB00BF4C4890F82200022805D142
:101140009FED4E0A4E4806F019FC37E0464890F8ED
:101150002200032806D14B4890ED000A484806F0CB
:101160000DFC2BE0404890F82200042805D19FEDAB
:10117000460A434806F002FC20E03B4890F8220073
:1011800028B99FED3E0A3E4806F0F8FB16E03648C7
:1011900090F8220001280CD13948083090ED050A5A
:1011A0003A4880ED000A90ED000A354806F058F9FB
:1011B00004E09FED320A324806F0E0FB2A4890F83E
:1011C000230038B99FED2D0A002211462C4806F065
:1011D000B9F919E0244890F82300012814D12248D5
:1011E00090F8240040B92A4890ED000A012200211D
:1011F000234806F0A7F907E0254890ED000A0122F0
:1012000011461F4806F09EF9174890F8250001285E
:1012100005D19FED1A0A1A4806F066FA0EE0124848
:1012200090F8250028B99FED1B0A154806F05CFAD6
:1012300004E09FED120A124806F0C0F80A4890F840
:101240002700012806D1DFED0D0A9FED0C0A03F0FF
:1012500035FB00E000BF064805F0B8F804F0F2FBEB
:10126000012007F074FCB3E6285D00209401002003
:1012700070550020333333333333D33F0000000045
:10128000985800200C02002000402F44FC01002050
:10129000000200200000C8C210B5024800F014FF90
:1012A00010BD00009406002010B5024800F00CFFAD
:1012B00010BD00005404002010B5024800F004FFE7
:1012C00010BD0000F406002010B5024800F0FCFE3E
:1012D00010BD0000B404002010B5024800F0F4FE78
:1012E00010BD0000D405002010B5024800F0ECFE4F
:1012F00010BD00003406002010B5024800F0E4FEE6
:1013000010BD00005407002010B5024800F0DCFEBC
:1013100010BD00007405002010B5024800F0D4FE96
:1013200010BD0000B407002010B5024800F0CCFE4C
:1013300010BD00001405002001460878103818235D
:10134000B0FBF3F20848805CC865032A05D9086839
:101350006FF30900001D886503E008686FF309005A
:101360008865886D70470000ACB400080146002015
:101370008A6A8B69CBB932B1012A0DD0022A03D017
:10138000032A10D10EE000BFCB6A03F08073B3F1E3
:10139000807F00D1012007E0CB6AB3F1C07F00D18C
:1013A000012001E000E000BF34E08B69B3F5005F8D
:1013B0001AD132B1012A07D0022A03D0032A11D14F
:1013C0000AE000BF01200EE0CB6A03F08073B3F1A6
:1013D000807F00D1012006E0CB6AB3F1C07F00D14D
:1013E000012000E000BF15E032B1012A05D0022A39
:1013F00004D0032A0CD103E000BF00BF012008E0A5
:10140000CB6A03F08073B3F1807F00D1012000E04C
:1014100000BF00BF704730B50468246824F48024FE
:1014200005682C60046863608468402C04D10468FB
:10143000A2600468E16003E00468A1600468E260FF
:1014400030BD000010B500221021082008F07CFDFE
:101450002049086000221021082008F075FD1E496F
:10146000086000220C21042008F06EFD1B49086072
:1014700000220C21042008F067FD194908600022B1
:101480002021042008F060FD1649086000222C216C
:10149000042008F059FD14490860002204210220AC
:1014A00008F052FD1149086000220121084608F0A9
:1014B0004BFD0F49086000220F21012008F044FD78
:1014C0000C49086000220F21012008F03DFD0A4967
:1014D000086010BD800100208401002088010020E8
:1014E0008C01002090010020940100209801002030
:1014F000A40100209C010020A0010020704710B52D
:10150000802000F0CBFF10BD72B600BFFEE700BF29
:10151000FEE70000044800680068406A0349096863
:10152000C1EB014108447047B8000020B40000201E
:1015300010B5024692F82030012B01D0022B06D1C3
:1015400010684069084314686061002010BD506A4B
:1015500040F4802050620120F8E7F0B504460D46C3
:101560001E4694F8207020688368A86800B900E0DF
:1015700000BF012F01D0022F7CD103F0806030B971
:1015800003F0006018B903F08050002873D0C3F353
:101590000161022905D9606A40F4000060620120FF
:1015A000F0BD012088403060A86860B9B5F800C07F
:1015B000E86840EA4C5C206800F5C07000EB011060
:1015C000C0F800C00FE0D5E901C040EACC00D5F872
:1015D0000CC040EA0C00D4F800C00CF5C07C0CEB49
:1015E000011CCCF80000D5F810C0206800F5C070D0
:1015F00000EB0110C0F804C0287D01280ED120683E
:1016000000F5C07000EB0110406840F4807C206859
:1016100000F5C07000EB0110C0F804C0D0790006DE
:1016200092F806C040EA0C4092F805C040EA0C2C43
:1016300010794CEA000C206800F5C07000EB011036
:10164000C0F80CC0D078000692F802C040EA0C4006
:1016500092F801C040EA0C2092F800C040EA0C0069
:10166000D4F800C00CF5C07C0CEB011CCCF80800D1
:10167000206801E016E00FE000F5C07000EB0110FB
:10168000006840F0010C206800F5C07000EB01100C
:10169000C0F800C0002083E7606A40F40010606278
:1016A00001207DE7606A40F480206062012077E7D6
:1016B000F0B504460A46216894F82050012D01D067
:1016C000022D7ED1424901F50071086840F0010009
:1016D0000860086820F47C5008600868566A40EA90
:1016E00006200860107D00F01F06012000FA06F3B6
:1016F000C8699843C861A1F50071D069C8B9D1F82B
:101700000C029843C1F80C02908880B2968940EA96
:10171000064601F51070576940F83760108880B2AE
:10172000168940EA064601F51070576900EBC700BC
:101730004660D069012819D1D1F80C021843C1F8CC
:101740000C02908880B2168840EA064601F51070B7
:10175000576940F83760908980B2168940EA06469A
:1017600001F51070576900EBC7004660906928B911
:10177000D1F804029843C1F8040204E0D1F804024D
:101780001843C1F80402106928B9D1F8140298432B
:10179000C1F8140204E0D1F814021843C1F814028D
:1017A000106A012804D1D1F81C021843C1F81C02A8
:1017B000D1F8000220F00100C1F800020020F0BDC5
:1017C000FFE7606A40F4802060620120F7E70000D4
:1017D00000640040704770B5044694F82050012D15
:1017E00001D0022D7DD151B92068C06800F00300FE
:1017F00080B9606A40F400106062012070BD20680A
:10180000006900F0030028B9606A40F400106062CB
:101810000120F3E7206800F5D87000EB01100068A4
:1018200000F004009060906840B9206800F5D8701E
:1018300000EB01100068400D106007E0206800F523
:10184000D87000EB01100068C0085060206800F5F7
:10185000D87000EB0110006800F00200D060206832
:1018600000F5D87000EB0110406800F00F00106127
:10187000206800F5D87000EB0110406800F47F404C
:10188000000A9061206800F5D87000EB01104068F4
:10189000000C5061206800F5D87000EB01108068E2
:1018A0001870206800F5D87000EB0110806800F413
:1018B0007F40000A5870206800F5D87000EB0110D6
:1018C000806800F47F00000C9870206800F5D870E4
:1018D00000EB01108068000ED870206800F5D87009
:1018E00000E02FE000EB0110C0681871206800F5DF
:1018F000D87000EB0110C06800F47F40000A5871F6
:10190000206800F5D87000EB0110C06800F47F007B
:10191000000C9871206800F5D87000EB0110C068C9
:10192000000ED87131B92068C06840F020002668E8
:10193000F06005E02068006940F020002668306112
:1019400000205BE7606A40F480206062012055E778
:101950000146002091F82020012A01D0022A11D14D
:101960000B689B6803F0806303B1401C0B689B68A5
:1019700003F0006303B1401C0B689B6803F08053C5
:1019800003B1401C70472DE9F05F04460025206834
:1019900046692068D0F80490206887682068D0F8ED
:1019A0000CA02068D0F810B02068D0F8188006F09D
:1019B0000100002855D007F00100C0B101202168C6
:1019C000886007F0020018B1204600F00CFB0EE022
:1019D00007F0040010B145F4006508E007F00800C6
:1019E00010B145F4805502E0204600F0FBFA07F400
:1019F0008070C8B14FF480702168886007F400706F
:101A000018B1204600F0F1FA0EE007F4806010B142
:101A100045F4005508E007F4006010B145F4804536
:101A200002E0204600F0E0FA07F48030C8B14FF43D
:101A300080302168886007F4003018B1204600F03B
:101A4000D6FA0EE007F4802010B145F4004508E016
:101A500007F4002010B145F4803502E0204600F084
:101A6000C5FA06F0080038B10AF0100020B145F4BC
:101A7000007510202168C86006F0040040B10AF02B
:101A8000080028B108202168C860204600F01EFA2E
:101A900006F0020038B12068C06800F0030010B101
:101AA000204600F015FA06F0400038B10BF01000A7
:101AB00020B145F4806510202168086106F02000FF
:101AC00040B10BF0080028B10820216808612046C9
:101AD00000F02AFA06F0100038B12068006900F022
:101AE000030010B1204600F021FA06F4003040B1A6
:101AF00009F0100028B1102021684860204600F04D
:101B000041FA06F4803040B109F0080028B10820FD
:101B100021684860204600F06BFA06F4004088B364
:101B200009F0040078B306F4807020B108F00100D9
:101B300008B145F0010506F4007020B108F002007C
:101B400008B145F0020506F4806020B108F00400F9
:101B500008B145F0040506F40060A0B108F070007B
:101B600088B108F07000402817D006DC10280BD090
:101B700020280CD0302819D10CE0502810D0602833
:101B800014D110E01DE019E045F008050FE045F024
:101B900010050CE045F0200509E045F0400506E0A1
:101BA00045F0800503E045F4807500E000BF00BF0C
:101BB0002068806920F07000216888610420216815
:101BC00048602DB1606A284360622046FFF702FE3C
:101BD000BDE8F09F70B504460CB9012070BD94F8C3
:101BE000200010B9204600F0AFF82068006840F0EF
:101BF00001002168086000F059FD05460DE000F085
:101C000055FD401B0A2808D9606A40F40030606224
:101C1000052084F820000120E0E72068406800F0FB
:101C200001000028EBD02068006820F00200216845
:101C3000086000F03BFD05460DE000F037FD401B5D
:101C40000A2808D9606A40F400306062052084F8F0
:101C500020000120C2E72068406800F00200002850
:101C6000EBD1207E012806D12068006840F080007A
:101C70002168086005E02068006820F08000216885
:101C80000860607E012806D12068006840F04000AE
:101C90002168086005E02068006820F040002168A5
:101CA0000860A07E012806D12068006840F020006E
:101CB0002168086005E02068006820F020002168A5
:101CC0000860E07E012806D12068006820F010003E
:101CD0002168086005E02068006840F01000216875
:101CE0000860207F012806D12068006840F00800C5
:101CF0002168086005E02068006820F0080021687D
:101D00000860607F012806D12068006840F0040068
:101D10002168086005E02068006820F00400216860
:101D20000860D4E902010843216908436169084356
:101D30006168491E08432168C86100206062012073
:101D400084F82000002049E710B586B0044614212D
:101D500001A8FEF70EFC57492068884249D1564831
:101D60000068401C544908600846006801280FD1EB
:101D700000BF002000905148006840F000704F49BB
:101D800008600846006800F00070009000BF00BFC7
:101D900000BF0020009049481038006840F008005B
:101DA0004649103908600846006800F008000090B5
:101DB00000BF00BF0320019002200290002003908A
:101DC000032004900920059001A93D4800F074FB10
:101DD00000220521132000F02DFD132000F01AFD34
:101DE00000220521142000F025FD142000F012FD32
:101DF0005DE034492068884259D100BF002000903E
:101E00002E48006840F080602C4908600846006851
:101E100000F08060009000BF00BF27480068401CB1
:101E2000254908600846006801280FD100BF00203E
:101E300000902248006840F0007020490860084681
:101E4000006800F00070009000BF00BF00BF0020DD
:101E500000901A481038006840F002001749103905
:101E600008600846006800F00200009000BF00BF54
:101E70004FF4405001900220029000200390032074
:101E800004900920059001A90F4800F015FB0022DD
:101E900005213F2000F0CEFC3F2000F0BBFC0022DB
:101EA0000521402000F0C6FC402000F0B3FC06B045
:101EB00010BD0000006400401800002040380240BF
:101EC000000C02400068004000040240704700001F
:101ED00010B504460F4884420BD10F4BA3F11C02EE
:101EE00000212046FFF777FC0B481C380B49096896
:101EF00088470B4884420BD1074BA3F11C020021F9
:101F00002046FFF768FC04481C38064909688847E2
:101F100010BD0000200200206C510020AC00002009
:101F200048020020B00000207047000010B50446B1
:101F30000F4884420BD10F4BA3F11C020121204614
:101F4000FFF749FC0B481C380B49096888470B48C8
:101F500084420BD1074BA3F11C0201212046FFF75D
:101F60003AFC04481C3806490968884710BD00003F
:101F70002002002090510020AC00002048020020E8
:101F8000B0000020704770B5044694F82000012886
:101F900022D1022084F820002068006820F001008F
:101FA0002168086000F082FB05460DE000F07EFB32
:101FB000401B0A2808D9606A40F40030606205209E
:101FC00084F82000012070BD2068406800F0010006
:101FD0000028EBD16062F6E7606A40F4002060629E
:101FE0000120F0E7704770477047704770477047AF
:101FF000704770B50446A56D00F058FB064694F88E
:102000003500022808D08020606500BF002084F8D9
:10201000340000BF012070BD2068006820F0160069
:10202000216808602068406920F0800021684861CC
:10203000206C08B9A06C28B12068006820F0080066
:10204000216808602068006820F0010021680860AD
:1020500010E000F02BFB801B05280BD920206065C9
:10206000032084F8350000BF002084F8340000BF4E
:102070000320D0E72068006800F001000028E8D1C4
:1020800094F85C103F208840A860012084F8350057
:1020900000BF002084F8340000BF00BFBBE701464A
:1020A00091F83500022803D0802048650120704750
:1020B000052081F835000868006820F001000A68F2
:1020C00010600020F3E70000F8B5044600200090FF
:1020D0008C4800684FF41651B0FBF1F7A56D2E68DF
:1020E00094F85C1008208840304098B1206800685F
:1020F00000F0040070B12068006820F0040021683E
:10210000086094F85C1008208840A860606D40F07A
:102110000100606594F85C1001208840304068B18F
:102120002068406900F0800040B194F85C10012004
:102130008840A860606D40F00200606594F85C1013
:1021400004208840304068B12068006800F0020038
:1021500040B194F85C1004208840A860606D40F0A5
:102160000400606594F85C1010208840304078B31B
:102170002068006800F0080050B394F85C1010204C
:102180008840A8602068006800F4802080B1206842
:10219000006800F4002028B9206CC8B12046216CEA
:1021A000884715E0A06C98B12046A16C88470FE0E5
:1021B0002068006800F4807028B92068006820F06A
:1021C000080021680860206C10B12046216C884707
:1021D00094F85C10202088403040002865D02068AA
:1021E000006800F0100000285FD094F85C102020F8
:1021F0008840A86094F83500052828D12068006838
:1022000020F01600216808602068406920F08000F6
:1022100021684861206C08B9A06C28B1206800686A
:1022200020F008002168086094F85C103F20884086
:10223000A860012084F8350000BF002084F8340035
:1022400000BF206D10B12046216D8847F8BD206881
:10225000006800F4802080B12068006800F400204D
:1022600028B9606C10B12046616C88471DE0E06BB6
:10227000D8B12046E16B884717E02068006800F479
:10228000807068B92068006820F01000216808603C
:10229000012084F8350000BF002084F8340000BF1E
:1022A000E06B10B12046E16B8847606D38B3606D1C
:1022B00000F00100F0B1052084F8350020680068C6
:1022C00020F001002168086000BF0098401C0090C9
:1022D000B84200D905E02068006800F0010000283D
:1022E000F3D100BF012084F8350000BF002084F83E
:1022F000340000BFE06C10B12046E16C884700BF9D
:10230000A4E70000280000202DE9F0410446002544
:1023100000F0CCF9074614B90120BDE8F081606AED
:1023200000B100BF022084F8350000BF002084F80F
:10233000340000BF2068006820F0010021680860B8
:102340000AE000F0B3F9C01B052805D9202060651C
:10235000032084F83500E0E72068006800F0010001
:102360000028EED12068056821480540D4E9010124
:102370000843E16808432169084361690843A1698A
:102380000843E1690843216A08430543606A042859
:1023900003D1D4E90B010843054320680560206898
:1023A000456925F00705606A0543606A04280DD178
:1023B000A06A0543E06A48B12046FEF7D7FF28B17E
:1023C00040206065012084F83500A6E7206845615B
:1023D0002046FEF7B1FF064694F85C103F20884087
:1023E000B06000206065012084F83500002094E78B
:1023F0003F8010F02DE9F04704460D4616461F4673
:102400004FF00008D4F8589000BF94F83400012829
:1024100002D10220BDE8F087012084F8340000BF1B
:1024200094F83500012825D1022084F835000020D9
:1024300060653B46324629462046FEF7ECFF94F89D
:102440005C103F208840C9F808002068006840F010
:10245000160021680860206C28B12068006840F0F0
:102460000800216808602068006840F001002168C9
:10247000086006E000BF002084F8340000BF4FF081
:1024800002084046C6E7000010B5044680222146F7
:10249000014804F02FFF10BD4C52002010B5044637
:1024A00004480068204020B1024804602046FFF73D
:1024B000EBFF10BD143C0140F8B502460B46002569
:1024C000002400200021D6E0012606FA01F51E684E
:1024D00006EA0504AC4274D11E7906F00306012E0B
:1024E00004D01E7906F00306022E13D190684F0027
:1024F0000326BE40B0434F00DE68BE4030439060CC
:10250000506801268E40B0431E79C6F300168E40F7
:10251000304350601E7906F00306032E09D0D068C0
:102520004F000326BE40B0434F009E68BE4030437C
:10253000D0601E7906F00306022E13D1CF0802F1F7
:10254000200656F827004E07F70E0F26BE40B04370
:102550004F07FF0E1E69BE403043CF0802F1200630
:1025600046F8270010684F000326BE40B0431E798E
:1025700006F003064F00BE40304310605E6806F46C
:102580004036002E76D000BF002600963C4E3668BE
:1025900046F480463A4F3E603E46366806F4804632
:1025A000009600BF00BF374E8F0856F827008E07F1
:1025B000370F0F26BE40B043334EB24202D1002641
:1025C00024E057E0314EB24201D101261EE0304EE8
:1025D000B24201D1022619E02E4EB24201D10326A9
:1025E00014E02D4EB24201D104260FE02B4EB24230
:1025F00001D105260AE02A4EB24201D1062605E0A5
:10260000284EB24201D1072600E008268F073F0F6F
:10261000BE4030431B4E8F0846F82700224E3068DC
:10262000A0435E6806F4801606B120431E4E30605B
:10263000361D3068A0435E6806F4001606B12043DC
:10264000194E361D3060184E361F3068A0435E6844
:1026500006F4003606B12043134E361F3060361F95
:102660003068A0435E6806F4803606B120430E4E03
:10267000083E3060491C1029FFF426AFF8BD000069
:102680004438024008380140000002400004024083
:1026900000080240000C02400010024000140240FA
:1026A00000180240001C0240083C0140014800683C
:1026B000704700001C0000200348006803490978A7
:1026C00008440149086070471C00002024000020D5
:1026D00010B50D48006840F400700B4908600846CA
:1026E000006840F4806008600846006840F480702C
:1026F0000860032000F0DCF80F2000F007F800F07D
:102700005FF8002010BD0000003C02402DE9F041C0
:1027100088B004460027B84600BF00200190234837
:10272000006840F00200214908600846006800F097
:102730000200019000BF00BF02A903A800F08EF9BB
:10274000069F1FB900F0B2F9054602E000F0AEF9AD
:1027500045001748B5FBF0F0A0F1010815481649EF
:10276000086040F2E7311448C160C0F804800021DD
:1027700001618160816100F0BBFC064696B90E489C
:1027800000F026FD06466EB91D2000F043F8102C1F
:1027900007D2002221461D2000F04CF807480460B3
:1027A00000E00126304608B0BDE8F0814038024024
:1027B00040420F00000400401408002020000020C8
:1027C00008B500BF002000901148006840F4804028
:1027D0000F4908600846006800F48040009000BF80
:1027E00000BF00BF00200090081F006840F080502C
:1027F000091F08600846006800F08050009000BF84
:1028000000BF00220F21901E00F014F808BD000048
:102810004438024001460846002809DB00F01F0347
:1028200001229A4043099B0003F1E023C3F80021F1
:1028300000BF70472DE9F05F80460D461646002721
:1028400005F01EFC074639462A46334601F00700CC
:10285000C0F1070ABAF1040F02D94FF0040A01E0EF
:10286000C0F1070AD14600F1040ABAF1070F02D2FB
:102870004FF0000A01E0A0F1030AD4464FF0010A2C
:102880000AFA09FAAAF1010A0AEA020A0AFA0CFA91
:102890004FF0010B0BFA0CFBABF1010B0BEA030B36
:1028A0004AEA0B042146404605F0F2FBBDE8F09FE2
:1028B00000BF00F00702064B19684FF6FF031940EE
:1028C000044B0B4343EA0221014B196000BF7047E0
:1028D0000CED00E00000FA0570B504460D460CB999
:1028E000012070BD5848006800F00700A84209D2D6
:1028F00055490D700846006800F00700A84201D055
:102900000120EEE7207800F0020002281DD1207897
:1029100000F00400042805D14C48006840F4E05061
:102920004A490860207800F00800082805D1474887
:10293000006840F46040454908604448006820F061
:10294000F000A168084341490860207800F00100C8
:10295000A8B36068012807D13C4808380068C0F374
:102960004040B8B90120BCE76068022802D0606826
:10297000032807D1354808380068C0F3406048B9DB
:102980000120AEE7314808380068C0F3400008B9BC
:102990000120A6E72D48006820F003006168084385
:1029A0002A490860FFF782FE064609E0FFF77EFE2F
:1029B000801B41F28831884202D9032091E707E069
:1029C0002248006800F00C006168B0EB810FEDD187
:1029D0001D48006800F00700A84209D91A490D7087
:1029E0000846006800F00700A84201D0012078E7FF
:1029F000207800F00400042807D11448006820F46F
:102A0000E050E168084311490860207800F00800B0
:102A1000082808D10D48006820F46040216940EA88
:102A2000C1000A49086000F061F808490968C1F36B
:102A30000311074A515CC84006490860064800680F
:102A4000FFF764FE00204CE7003C024008380240DB
:102A5000B4B4000828000020200000200F220260EB
:102A60000D4A126802F0030242600B4A126802F03B
:102A7000F0028260084A126802F4E052C260064A1C
:102A8000126802F46042D2080261044A126802F03D
:102A900007020A607047000008380240003C02400C
:102AA00001480068704700002800002000B5FFF7CB
:102AB000F7FF04490968C1F38221034A515CC84009
:102AC00000BD000008380240C4B4000800B5FFF79C
:102AD000E7FF04490968C1F34231034A515CC84029
:102AE00000BD000008380240C4B400082DE9F047DA
:102AF000002400250026A1462548006800F00C00AF
:102B000020B1042805D008283AD105E0DFF88490E8
:102B100039E0DFF8849036E01D48001F006800F0BF
:102B20003F041B48001F006800F4800078B11A4879
:102B30001749091F0968C1F38811A0FB01700146FC
:102B4000224600233846FDF707FC05460EE01148F3
:102B50000F49091F0968C1F38811A0FB01700146E4
:102B6000224600233846FDF7F7FB05460848001FBC
:102B70000068C0F30140401C4600B5FBF6F902E0D6
:102B8000DFF8109000BF00BF4846BDE8F0870000A6
:102B9000083802400024F40000127A00F8B5044618
:102BA0000CB90120F8BD207800F00100002874D095
:102BB000F948006800F00C0004280DD0F6480068C1
:102BC00000F00C00082813D1F348001F006800F43F
:102BD0008000B0F5800F0BD1EF4808380068C0F3D3
:102BE0004040002859D06068002856D10120D9E71C
:102BF00000BF6068B0F5803F08D1E748083800683A
:102C000040F48030E449083908601EE06068B0F59F
:102C1000A02F0DD1E0480838006840F48020DE493C
:102C2000083908600846006840F4803008600CE00D
:102C3000D9480838006820F48030D749083908603E
:102C40000846006820F48020086000BF606890B1EA
:102C5000FFF72CFD054606E0FFF728FD401B642822
:102C600001D903209EE7CC4808380068C0F34040F3
:102C70000028F1D011E0FFF719FD054606E0FFF747
:102C800015FD401B642801D903208BE7C248083892
:102C90000068C0F340400028F1D1207800F0020025
:102CA00002285FD1BC48006800F00C0058B1BA4857
:102CB000006800F00C0008281CD1B748001F00680D
:102CC00000F48000B0B9B44808380068C0F3400090
:102CD00020B1E068012801D0012063E7AE48083840
:102CE000006820F0F800216940EAC100AA490839CB
:102CF000086037E0E06800B30120A8490860FFF7EA
:102D0000D5FC054606E0FFF7D1FC401B022801D99F
:102D1000032047E7A04808380068C0F340000028B7
:102D2000F1D09D480838006820F0F800216940EA99
:102D3000C10099490839086014E0002097490860EB
:102D4000FFF7B4FC054606E0FFF7B0FC401B022885
:102D500001D9032026E7904808380068C0F34000F6
:102D60000028F1D1207800F0080008282CD16069F3
:102D7000A8B101208A490860FFF798FC054606E0E3
:102D8000FFF794FC401B022801D903200AE7824880
:102D90006C300068C0F340000028F1D014E000203F
:102DA0007F490860FFF782FC054606E0FFF77EFCDE
:102DB000401B022801D90320F4E677486C300068F4
:102DC000C0F340000028F1D1207800F0040004286E
:102DD00070D1002770483830006800F0805090B9FA
:102DE00000BF002000906C483830006840F08050F0
:102DF0006949383108600846006800F0805000904A
:102E000000BF00BF01276748006800F48070B0B9B8
:102E10006448006840F4807062490860FFF746FC2F
:102E2000054606E0FFF742FC401B022801D90320BB
:102E3000B8E65C48006800F480700028F2D000BF5B
:102E4000A068012808D154486830006840F00100AB
:102E50005149683108601DE0A06805280DD14E4831
:102E60006830006840F004004B496831086008464B
:102E7000006840F0010008600CE0474868300068D6
:102E800020F001004449683108600846006820F0DD
:102E90000400086000BFA068A8B1FFF707FC054662
:102EA00009E0FFF703FC401B41F28831884202D958
:102EB000032077E626E0384868300068C0F3400019
:102EC0000028EED013E0FFF7F1FB054608E0FFF71E
:102ED000EDFB401B41F28831884201D9032061E6B5
:102EE0002D4868300068C0F340000028EFD1012F62
:102EF00007D129483830006820F080502649383101
:102F0000086000BFA069002845D02348006800F091
:102F10000C0008285DD0A069022845D100201F4977
:102F20000866FFF7C3FB054606E0FFF7BFFB401B43
:102F3000022801D9032035E6174808380068C0F395
:102F400040600028F1D1D4E907010843616A40EAF2
:102F500081110122A06AC2EB500041EA00412C20FD
:102F6000005D41EA00600C49091F086001200B491F
:102F70000866FFF79BFB054606E0FFF797FB401B43
:102F8000022801D903200DE6034808380068C0F381
:102F900040600028F1D049E0083802400000474274
:102FA000800E474200700040002021490866FFF76C
:102FB0007DFB054606E0FFF779FB401B022801D99F
:102FC0000320EFE51B480068C0F340600028F2D101
:102FD0002CE0A069012800D1E4E51648001D066830
:102FE000A069012820D006F48001E06981421BD14C
:102FF00006F03F01206A814216D147F6C07030408A
:10300000616AB0EB811F0FD106F440310122A06A42
:10301000C2EB5000B1EB004F06D106F070612C20DE
:10302000005DB1EB006F01D00120BBE50020B9E5E8
:1030300000004742003802407047704730B50246F2
:103040000B4600BF92F83C00012801D1022030BDA0
:10305000012082F83C0000BF022082F83D00106889
:1030600044681068816824F070041868044310688C
:103070004460184D1068A8421BD01068B0F1804F12
:1030800017D0154D1068A84213D0144D1068A842EF
:103090000FD0134D1068A8420BD0124D1068A842F3
:1030A00007D0114D1068A84203D0104D1068A842F7
:1030B00005D121F08001586801431068816001202A
:1030C00082F83D0000BF002082F83C0000BF00BF36
:1030D000BDE700000000014000040040000800407F
:1030E000000C004000040140004001400018004076
:1030F00010B504460CB9012010BD94F83D0028B964
:10310000002084F83C00204600F026F8022084F8D5
:103110003D00211D206801F093FD012084F8460048
:1031200000BF84F83E0001213F2001554020015599
:103130004120015500BF00BF012084F84200432018
:103140000155442001554520015500BF012084F858
:103150003D000020D0E7000038B50446194920683A
:10316000884218D100BF002000901748006840F046
:103170000400154908600846006800F0040000904B
:1031800000BF00BF002205211E20FFF753FB1E20B9
:10319000FFF740FB15E00D492068884211D100BFC0
:1031A000002000900848001D006840F400300649E7
:1031B000091D08600846006800F40030009000BF58
:1031C00000BF38BD000800404038024000440140C4
:1031D000014691F83D00012801D0012070470220EE
:1031E00081F83D000868C06840F001000B68D860B5
:1031F0001A4B086898421BD00868B0F1804F17D06E
:10320000174B0868984213D0164B086898420FD0A5
:10321000154B086898420BD0144B0868984207D0A9
:10322000134B0868984203D0124B086898420CD19F
:103230000868806800F00702062A0CD00868006859
:1032400040F001000B68186005E00868006840F075
:1032500001000B6818600020C0E70000000001407A
:103260000004004000080040000C00400004014041
:1032700000400140001800402DE9F04104460D4691
:10328000002700BF94F83C00012802D10220BDE8CD
:10329000F081012084F83C0000BF022084F83D004A
:1032A0002068866826F0770626F47F4620688660C8
:1032B0002868502833D00CDC202850D004DC0028AB
:1032C0004BD0102851D149E0302849D040284CD16A
:1032D00039E060282DD0702807D0B0F5805F03D08A
:1032E000B0F5005F41D10DE041E0D5E902136A6815
:1032F000206801F022FD2068866846F07706206885
:10330000866034E0D5E902136A68206801F015FD93
:103310002068806840F480402168886027E0EA687F
:103320006968206801F0FAFD5021206801F010FD65
:103330001DE0EA686968206801F003FE60212068EA
:1033400001F006FD13E0EA686968206801F0E6FD17
:103350004021206801F0FCFC09E000BF00BF00BF75
:103360002968206801F0F4FC01E0012700BF00BFDC
:10337000012084F83D0000BF002084F83C0000BF1D
:10338000384684E7704710B5044620680069C0F3EA
:103390004000D8B12068C068C0F34000B0B16FF001
:1033A000020021680861012020772068806900F010
:1033B000030018B12046FFF7E5FF05E0204600F0C6
:1033C000DDF8204600F091F90020207720680069A0
:1033D000C0F38000D8B12068C068C0F38000B0B1ED
:1033E0006FF004002168086102202077206880695E
:1033F00000F4407018B12046FFF7C4FF05E02046F6
:1034000000F0BCF8204600F070F90020207720681A
:103410000069C0F3C000D8B12068C068C0F3C00024
:10342000B0B16FF00800216808610420207720689F
:10343000C06900F0030018B12046FFF7A3FF05E0C4
:10344000204600F09BF8204600F04FF9002020773E
:1034500020680069C0F30010D8B12068C068C0F3CC
:103460000010B0B16FF010002168086108202077CB
:103470002068C06900F4407018B12046FFF782FF51
:1034800005E0204600F07AF8204600F02EF90020F2
:1034900020772068006900F0010058B12068C068FA
:1034A00000F0010030B16FF0010021680861204692
:1034B00000F0A2F920680069C0F3C01058B120687C
:1034C000C068C0F3C01030B16FF08000216808619F
:1034D0002046FFF7B1FD20680069C0F3801058B1A5
:1034E0002068C068C0F3801030B16FF040002168E0
:1034F0000861204600F094F920680069C0F340108C
:1035000058B12068C068C0F3401030B16FF020009F
:10351000216808612046FFF790FD10BD10B586B008
:103520000446142101A8FDF724F8114920688842B7
:103530001CD100BF002000900E48006840F0200021
:103540000C4908600846006800F02000009000BFA9
:1035500000BF4020019002200290002003900490C0
:103560000320059001A90448FEF7A6FF06B010BD90
:1035700000440140303802400014024070472DE9F9
:10358000F04104460D461646002700BF94F83C0063
:10359000012802D10220BDE8F081012084F83C001E
:1035A00000BF36B1042E1BD0082E31D00C2E5ED1B8
:1035B00045E02946206801F0D5FB2068806940F08D
:1035C0000800216888612068806920F00400216873
:1035D000886120688069296908432168886148E01A
:1035E0002946206801F0F6FB2068806940F40060FD
:1035F000216888612068806920F480602168886182
:1036000020688069296940EA01202168886130E0EA
:103610002946206801F01CFC2068C06940F00800C1
:103620002168C8612068C06920F004002168C86171
:103630002068C069296908432168C86119E02946E2
:10364000206801F041FC2068C06940F400602168F6
:10365000C8612068C06920F480602168C861206862
:10366000C069296940EA01202168C86101E0012799
:1036700000BF00BF00BF002084F83C0000BF3846F8
:1036800089E710B504460CB9012010BD94F83D003F
:1036900028B9002084F83C00204600F025F80220DC
:1036A00084F83D00211D206801F0CAFA012084F849
:1036B000460000BF84F83E0001213F200155402014
:1036C00001554120015500BF00BF012084F8420090
:1036D00043200155442001554520015500BF0120DC
:1036E00084F83D000020D0E77047704770B504466D
:1036F0000D4615B994F83E000BE0042D02D13F2091
:10370000005D06E0082D02D14020005D01E041206F
:10371000005D012801D0012070BD1DB9022084F890
:103720003E000EE0042D03D102213F20015508E0A8
:10373000082D03D102214020015502E00221412041
:10374000015501222946206801F0E6FA2349206844
:10375000884203D022492068884201D1012000E03C
:10376000002028B12068406C40F400402168486483
:103770001A49206888421BD02068B0F1804F17D0CA
:1037800018492068884213D01749206888420FD012
:103790001649206888420BD011492068884207D01A
:1037A00013492068884203D01249206888420CD10E
:1037B0002068806800F00706062E0CD0206800689C
:1037C00040F001002168086005E02068006840F0D2
:1037D00001002168086000209EE700000000014011
:1037E000000401400004004000080040000C0040BC
:1037F000004001400018004010B50446064920680A
:10380000884201D1FEF758FF04492068884201D15F
:1038100002F0C6F810BD000000040040000800409F
:103820007047704770B50446002520684069C0F3B2
:10383000C01594F83D00212817D1B5B100BF00BFD5
:103840002168143151E8001F21F0800021681431F3
:1038500041E80002002AF3D100BF606B10B1606B39
:10386000FEF7C7FB204601F0B0FC20684069C0F3BA
:10387000801594F83E00222817D1B5B100BF00BFD3
:103880002168143151E8001F21F0400021681431F3
:1038900041E80002002AF3D100BFA06B10B1A06B79
:1038A000FEF7A7FB204601F04AFC002070BD7047E0
:1038B0002DE9F84F0446206805682068C66820682E
:1038C00047694FF00009CA4605F00F09B9F1000F2A
:1038D0000AD105F0200038B106F0200020B12046C2
:1038E00001F086FCBDE8F88FB9F1000F7CD007F03D
:1038F000010018B906F49070002875D005F0010099
:1039000030B106F4807018B1206C40F001002064E2
:1039100005F0040030B107F0010018B1206C40F050
:103920000200206405F0020030B107F0010018B178
:10393000206C40F00400206405F0080048B106F057
:10394000200010B907F0010018B1206C40F0080009
:103950002064206C002846D005F0200028B106F035
:10396000200010B1204601F043FC20684069C0F3FC
:10397000801A206C00F0080010B9BAF1000F2DD0A9
:10398000204601F0DCFB2068406900F04000402840
:1039900020D100BF00BF2168143151E8001F21F081
:1039A00040002168143141E80002002AF3D100BF31
:1039B000A06B50B17548A16B0865A06BFEF76FFB5B
:1039C00088B1A06B016D88470DE02046FFF76FFFBF
:1039D00009E009E02046FFF76AFF04E02046FFF710
:1039E00066FF002020647DE7206B012876D105F07A
:1039F0001000002872D006F010000028FAD000BF96
:103A000000200090206800680090206840680090C6
:103A100000BF00BF2068406900F0400040285ED130
:103A2000A06B006840681FFA80F8B8F1000F54D00E
:103A3000A08D404551DDA4F82E80A06BC069B0F583
:103A4000807F43D000BF00BF21680C3151E8001FC8
:103A500021F4807021680C3141E80002002AF3D182
:103A600000BF00BF00BF2168143151E8001F21F0E2
:103A700001002168143141E80002002AF3D100BF9F
:103A800000BF00BF2168143151E8001F21F0400041
:103A90002168143141E80002002AF3D100BF202040
:103AA00084F83E000020206300BF00BF21680C3175
:103AB00051E8001F21F0100021680C3141E800029C
:103AC000002AF3D100BFA06BFEF793FAA08DE28D20
:103AD000801A81B22046FFF7A4FE03E740E0A08DE4
:103AE000E18D401A1FFA80F8E08DC0B3B8F1000FE5
:103AF00035D000BF00BF21680C3151E8001F21F410
:103B0000907021680C3141E80002002AF3D100BF17
:103B100000BF00BF2168143151E8001F21F00100EF
:103B20002168143141E80002002AF3D100BF2020AF
:103B300084F83E000020206300BF00BF21680C31E4
:103B400051E8001F21F0100021680C3141E800020B
:103B5000002AF3D100BF41462046FFF762FEC1E6CE
:103B600005F0800030B106F0800018B1204601F069
:103B700039FDB7E605F0400030B106F0400018B15D
:103B8000204601F012FBADE600BFABE6A54F0008F2
:103B900010B504460CB9012010BDA06900B100E0C9
:103BA00000BF94F83D0028B9002084F83C0020466E
:103BB00000F028F8242084F83D002068C06820F434
:103BC00000502168C860204601F08EFB2068006923
:103BD00020F49040216808612068406920F02A00A4
:103BE000216848612068C06840F400502168C860BE
:103BF00000202064202084F83D0084F83E0000204E
:103C0000CAE7000010B586B00446142101A8FCF7ED
:103C1000B0FCF7492068884275D100BF00200090B1
:103C2000F448006840F40020F24908600846006843
:103C300000F40020009000BF00BF00BF00200090F3
:103C4000EC481038006840F00400EA491039086078
:103C50000846006800F00400009000BF00BF4FF469
:103C60004060019002200290012003900320049004
:103C70000820059001A9E048FEF71EFCDF48E04956
:103C80000860400548600021DD488160C1604FF454
:103C900080610161002141618161C1610162416214
:103CA000FEF732FB08B1FDF72FFC00BFD448A0633C
:103CB000846300BFD1483030D24908604FF00060C3
:103CC00048604021CF4881600021C1604FF480618D
:103CD0000161002141618161C16101624162FEF7C0
:103CE00013FB08B1FDF710FC00BFC6486063846396
:103CF00000BF002205213420FEF79CFD3420FEF792
:103D000089FD13E2FFE7C0492068884278D100BFEF
:103D100000200090B748001D006840F01000B54931
:103D2000091D08600846006800F01000009000BF00
:103D300000BF00BF00200090AE481038006840F07F
:103D40000100AC49103908600846006800F0010025
:103D5000009000BF00BF4FF4C060019002200290AD
:103D600000200390032004900720059001A9A74894
:103D7000FEF7A2FBA648A74908604FF00060486024
:103D80004021A44881600021C1604FF4806101613D
:103D9000002141618161C16101624162FEF7B4FAB3
:103DA00008B1FDF7B1FB00BF9A486063846300BFB0
:103DB00097487838984908604FF0006048600021C3
:103DC00095488160C1604FF48061016100214161CB
:103DD0008161C16101624162FEF796FA08B1FDF7A7
:103DE00093FB00BF8C48A063846300BF00220521C1
:103DF0002520FEF71FFD2520FEF70CFD96E1FFE7CD
:103E000086492068884276D100BF0020009079481A
:103E1000006840F40030774908600846006800F404
:103E20000030009000BF00BF00BF0020009071482C
:103E30001038006840F008006E49103908600846E4
:103E4000006800F00800009000BF00BF60200190F3
:103E50000220029000200390032004900720059088
:103E600001A96F48FEF728FB644848306D49086097
:103E70004FF00060486000216A488160C1604FF4E3
:103E800080610161002141618161C1610162416222
:103E9000FEF73AFA08B1FDF737FB00BF6148A063AF
:103EA000846300BF554860305F4908604FF0006090
:103EB000486040215C4881600021C1604FF480610E
:103EC0000161002141618161C16101624162FEF7CE
:103ED0001BFA08B1FDF718FB00BF53486063846309
:103EE00000BF002205212620FEF7A4FC2620FEF7B5
:103EF00091FC1BE1FFE74D492068884276D100BF65
:103F0000002000903B48006840F480203949086058
:103F10000846006800F48020009000BF00BF00BF8A
:103F20000020009033481038006840F0020031490A
:103F3000103908600846006800F00200009000BFD9
:103F400000BF4FF4406001900220029000200390D7
:103F5000032004900720059001A93548FEF7ACFA2C
:103F600026481838334908604FF000604860002147
:103F700030488160C1604FF480610161002141617E
:103F80008161C16101624162FEF7BEF908B1FDF7CE
:103F9000BBFA00BF2748A063846300BF17481830EE
:103FA000254908604FF00060486040212248816048
:103FB0000021C1604FF48061016100214161816194
:103FC000C16101624162FEF79FF908B1FDF79CFAF9
:103FD00000BF19486063846300BF002205212720C9
:103FE000FEF728FC2720FEF715FC9FE026E00000E6
:103FF000004C00404038024000080240406002404F
:1040000054040020B40400200010014000000240CD
:10401000B8640240140500207405002000440040EC
:10402000000C0240D4050020340600200048004067
:104030000004024094060020F40600203C49206859
:10404000884273D100BF002000903A48006840F0D9
:104050002000384908600846006800F02000009001
:1040600000BF00BF00BF0020009032481438006835
:1040700040F040002F49143908600846006800F0FD
:104080004000009000BF00BF4FF484400190022028
:10409000029001200390032004900820059001A9BC
:1040A0002548FEF709FA254825490860800548603B
:1040B000002123488160C1604FF4806101610021CB
:1040C00041618161C16101624162FEF71DF908B180
:1040D000FDF71AFA00BF1A48A063846300BF1748AF
:1040E0007830184908604FF020604860402115483A
:1040F00081600021C1604FF4806101610021416154
:104100008161C16101624162FEF7FEF808B1FDF70D
:10411000FBF900BF0B486063846300BF00220521E8
:104120004720FEF787FB4720FEF774FB06B010BD63
:104130000014014044380240001802402864024044
:1041400054070020B407002070B504460D461646FB
:1041500094F83E00202816D105B10EB9012070BD9B
:1041600000BF94F83C00012801D10220F7E70120AC
:1041700084F83C0000BF00202063324629462046D8
:1041800001F0C8F9EBE70220E9E7704770472DE935
:10419000F84F04460E46174699464FF0000A94F829
:1041A0003D0020285AD106B117B90120BDE8F88F8B
:1041B00000BF94F83C00012801D10220F6E701205D
:1041C00084F83C0000BF00202064212084F83D00DA
:1041D000FEF76CFA8246A784E784A068B0F5805F9A
:1041E00004D1206910B90025B04602E035464FF0F1
:1041F000000800BF002084F83C0000BF1BE05346CD
:10420000002280212046CDF8009001F01BFA08B171
:104210000320CBE745B9B8F80000C0F308002168D7
:10422000486008F1020803E02878216848606D1CA6
:10423000E08C401EE084E08C0028E0D15346002250
:1042400040212046CDF8009001F0FCF908B1032090
:10425000ACE7202084F83D000020A7E70220A5E776
:10426000F7B50446154694F83D00202846D101983C
:1042700000B10DB90120FEBD00BF94F83C0001283B
:1042800001D10220F7E7012084F83C0000BF01982B
:104290002062A584E58400202064212084F83D006C
:1042A0001748616BC8631748616B08641648616BF7
:1042B000C8640020616B086501AE23681A1D31686F
:1042C0002B46606BFEF796F86FF04000216808609F
:1042D00000BF002084F83C0000BF00BF00BF216881
:1042E000143151E8001F41F080002168143141E889
:1042F0000002002AF3D100BF0020BCE70220BAE789
:10430000D950000831510008B94F00087047704774
:1043100000BFFEE738B504460D460020009002239A
:104320006A4621460948006805F0CCFF01280BD1F8
:10433000009838B14FF0805005490860BFF34F8FA7
:10434000BFF36F8F012038BD0020FCE7A0010020E3
:1043500004ED00E038B504460D460020009002232D
:104360006A4621460948006805F0ACFF01280BD1D8
:10437000009838B14FF0805005490860BFF34F8F67
:10438000BFF36F8F012038BD0020FCE79C010020A7
:1043900004ED00E000BF012004F0D9FBFBE70000C2
:1043A00010B50E480E4908600320486000210C48F3
:1043B0008160C1604FF4002101614FF440114161FF
:1043C0000021017641768176C17601774177FDF74C
:1043D00001FC08B1FDF798F810BD00000064004032
:1043E0002002002010B50E480E49086003204860E6
:1043F00000210C488160C1604FF4002101614FF43D
:10440000401141610021017641768176C1760177C4
:104410004177FDF7DFFB08B1FDF776F810BD00002E
:10442000006800404802002008B500BF002000904E
:104430003648006840F48000344908600846006847
:1044400000F48000009000BF00BF00BF002000907B
:104450000846006840F4001008600846006800F450
:104460000010009000BF00BF002205210C20FEF7C5
:10447000E1F90C20FEF7CEF9002205210D20FEF710
:10448000D9F90D20FEF7C6F9002205210E20FEF70E
:10449000D1F90E20FEF7BEF9002205210F20FEF70C
:1044A000C9F90F20FEF7B6F9002205211020FEF70A
:1044B000C1F91020FEF7AEF9002205211120FEF708
:1044C000B9F91120FEF7A6F9002205213920FEF7DF
:1044D000B1F93920FEF79EF9002205213A20FEF7B6
:1044E000A9F93A20FEF796F9002205214520FEF7AA
:1044F000A1F94520FEF78EF9002205214620FEF79E
:1045000099F94620FEF786F908BD000030380240D0
:1045100010B5154A0021154804F06EFB14490860D7
:10452000144A0021144804F067FB14490860144A37
:104530000021144804F060FB13490860134A00216D
:10454000134804F059FB13490860134A002113482B
:1045500004F052FB12490860124A0021124804F08C
:104560004BFB1249086010BDD4B30008090E0008C7
:1045700000000020F8B30008C90F00080400002064
:104580001CB40008950E00080800002040B4000884
:10459000B95900080C00002064B400085D09000847
:1045A0001000002088B40008954300081400002083
:1045B00000B587B0142102A8FBF7DBFF00BF002085
:1045C00001903E48006840F004003C4908600846FD
:1045D000006800F00400019000BF00BF00BF002091
:1045E00001900846006840F0200008600846006816
:1045F00000F02000019000BF00BF00BF002001902C
:104600000846006840F0800008600846006800F036
:104610008000019000BF00BF00BF0020019008464D
:10462000006840F0020008600846006800F00200E0
:10463000019000BF00BF00BF002001900846006845
:1046400040F0010008600846006800F00100019099
:1046500000BF00BF00BF002001900846006840F086
:10466000080008600846006800F00800019000BFDC
:1046700000BF00BF002001900846006840F04000E5
:1046800008600846006800F04000019000BF00BFCD
:10469000802002904FF4881003900020049002A91B
:1046A0000748FDF709FF002205211720FEF7C2F891
:1046B0001720FEF7AFF807B000BD00003038024009
:1046C0000014024000B587B01C216846FBF751FF7B
:1046D000154816490860532048600021134881603E
:1046E00040F63301C160002101618161FEF700FDE8
:1046F00008B1FCF709FF0D48FEF7C3FF08B1FCF74E
:1047000003FF60200090002001900290049000229E
:1047100069460648FEF733FF08B1FCF7F5FE03488B
:10472000FEF7FCFE07B000BD00440140B8020020C7
:1047300000B587B00020039004900590069001908A
:104740000290144814490860532048600021124820
:1047500081604FF6FF71C160002101618161FEF748
:10476000C7FC08B1FCF7D0FE4FF48050039003A9BA
:104770000948FEF781FD08B1FCF7C6FE0020019054
:10478000029001A90448FEF759FC08B1FCF7BCFEF1
:1047900007B000BD000800407002002010B50B48B3
:1047A0000B4908604FF4964048600021084881603A
:1047B000C16001610C21416100218161C161FFF78C
:1047C000E7F908B1FCF7A0FE10BD0000004C004066
:1047D0000003002010B50B480B4908604FF4E1308E
:1047E0004860002108488160C16001610C2141617D
:1047F00000218161C161FFF7CBF908B1FCF784FEAC
:1048000010BD0000001001404403002010B50B480B
:104810000B4908604FF4E13048600021084881608E
:10482000C16001610C21416100218161C161FFF71B
:10483000AFF908B1FCF768FE10BD0000004400406D
:104840008803002010B50B480B4908604FF4E13095
:104850004860002108488160C16001610C2141610C
:1048600000218161C161FFF793F908B1FCF74CFEAB
:1048700010BD000000480040CC03002010B50B48DC
:104880000B4908604FF49640486000210848816059
:10489000C16001610C21416100218161C161FFF7AB
:1048A00077F908B1FCF730FE10BD0000001401409C
:1048B0001004002000BFFEE700BFFEE700B52DEDAD
:1048C000028B85B0F0EE408AB0EE608A03208DF84E
:1048D0000800CDED018A9DF804008DF809009DF8CF
:1048E00005008DF80A009DF806008DF80B009DF874
:1048F00007008DF80C008DED018A9DF804008DF8FD
:104900000D009DF805008DF80E009DF806008DF84D
:104910000F009DF807008DF8100001208DF81100A0
:10492000831E0A2202A90348FFF731FC05B0BDEC43
:10493000028B00BDCC0300202DE9F04105460E4658
:1049400014461F46E56066602046FEF7D1FB3946F7
:104950002046FEF7CBFEBDE8F0810000F8B5034627
:104960000D4600240022012666E0082C61D2DFE813
:1049700004F0040E18222C3F4D57985CFC2802D1FD
:10498000601CC4B200E00024501CC2B253E0985C2A
:10499000FB2802D1601CC4B200E00024501CC2B24B
:1049A00049E0985C012802D1601CC4B200E00024F8
:1049B000501CC2B23FE0985C0C2802D1601CC4B20B
:1049C00000E00024501CC2B235E0A5F11001914274
:1049D00000DA0026002006E0995C1A4F3954511C79
:1049E000CAB2411CC8B20C28F6DB611CCCB222E072
:1049F000002006E0995C0DF80010511CCAB2411C61
:104A0000C8B20228F6DB611CCCB214E0985CFD2829
:104A100002D1601CC4B200E00024501CC2B20AE003
:104A2000985CFE2802D1074800F084FF002400268D
:104A300001E0002400BF00BFAA4201DA012E94D099
:104A40000020F8BDC052002070B513460024056850
:104A5000EC6A651C5D436426B5FBF6F211B9056886
:104A60006A630BE0042902D10568AA6306E00829FD
:104A700002D10568EA6301E005682A6470BD10B5DB
:104A80004FF0E020006905F025FE012801D005F077
:104A900041FA10BD00B593B0302107A8FBF769FDBE
:104AA000142102A8FBF765FD00BF002001902448F7
:104AB000006840F08050224908600846006800F015
:104AC0008050019000BF00BF00BF002001901D4832
:104AD000006840F480401B4908600846006800F404
:104AE0008040019000BF00BF0120079000040890A3
:104AF00002200D9041050E9104210F91A8211091E3
:104B0000022111910421129107A8FEF747F808B17C
:104B1000FCF7FAFC0F200290022003900020049082
:104B20004FF4A05005904FF480500690052102A844
:104B3000FDF7D2FE08B1FCF7E7FC13B000BD0000A2
:104B400040380240007000400348006840F47000A4
:104B5000014908607047000088ED00E010B5FCF7DF
:104B600071FC02211F4800F001FA00231E4A49F699
:104B70003F4141F26700FFF7DFFE1C491C48FCF78C
:104B8000EBF91C491C48FCF7E7F900231A461946C3
:104B90001748FCF7A7F900231A460C211448FCF724
:104BA000A1F900231A4672211348FCF79BF9002350
:104BB0001A467E211048FCF795F9104B2322104924
:104BC000104800F0B9FD104B0F221049104800F0BA
:104BD000B3FD104B0F221049104800F0ADFDFCF75B
:104BE000BBF810BD70020020B80200208D0D000837
:104BF00020020020690E0008480200205D490008DC
:104C000008530020CC030020554300082B530020FC
:104C100010040020154300083A5300200003002030
:104C200010B50248FEF7AFFB10BD000014080020CD
:104C300010B50248FEF7A7FB10BD0000700200206F
:104C400010B50268294B98420ED0B0F1804F0BD0BE
:104C5000274B984208D0274B984205D0264B9842C4
:104C600002D0264B984203D122F070024B681A43BF
:104C70001E4B984220D0B0F1804F1DD01C4B984263
:104C80001AD01C4B984217D01B4B984214D01B4B88
:104C9000984211D01A4B98420ED01A4B98420BD022
:104CA000194B984208D0194B984205D0184B98429E
:104CB00002D0184B984203D122F44072CB681A43B9
:104CC00022F080034C6943EA040202608B68C362ED
:104CD0000B688362054B984202D0084B984201D181
:104CE0000B6903630123436110BD00000000014014
:104CF0000004004000080040000C00400004014097
:104D000000400140004401400048014000180040BC
:104D1000001C00400020004030B501F01F050124B8
:104D200004FA05F3046A9C430462046A01F01F0557
:104D300002FA05F52C43046230BD30B50C4681689B
:104D400021F47F4142EA032525432943816030BD98
:104D50000A46816821F0700142F00703194381601F
:104D60007047000030B5056A25F001050562026A4A
:104D70004368846924F0700424F003040D682C4314
:104D800022F002028D682A43104DA84200D103E0B0
:104D90000F4DA84206D100BF22F00802CD682A4379
:104DA00022F00402094DA84202D0094DA84207D1C1
:104DB00023F4807323F400734D692B438D692B43D7
:104DC000436084614D684563026230BD000001406C
:104DD0000004014030B5056A25F010050562026A3D
:104DE0004368846924F4E04424F440740D6844EA80
:104DF000052422F020028D6842EA0512124DA842D5
:104E000000D103E0114DA84207D100BF22F080027B
:104E1000CD6842EA051222F040020B4DA84202D0B2
:104E20000A4DA84209D123F4806323F400634D693D
:104E300043EA85038D6943EA8503436084614D68D5
:104E40008563026230BD00000000014000040140A3
:104E500030B5056A25F480750562026A4368C46945
:104E600024F0700424F003040D682C4322F4007233
:104E70008D6842EA0522124DA84200D103E0114D8F
:104E8000A84207D100BF22F40062CD6842EA0522A1
:104E900022F480620A4DA84202D00A4DA84209D1EC
:104EA00023F4805323F400534D6943EA05138D69BD
:104EB00043EA05134360C4614D68C563026230BDB7
:104EC000000001400004014030B5056A25F480551A
:104ED0000562036A4468C26922F4E04222F4407227
:104EE0000D6842EA052223F400538D6843EA053336
:104EF000084DA84202D0084DA84204D124F48044B1
:104F00004D6944EA85144460C2614D6805640362DA
:104F100030BD0000000001400004014030B50B46E8
:104F20001446026A056A25F001050562816921F0CF
:104F3000F00141EA041122F00A021A43816102627F
:104F400030BD30B50B461446056A25F010050562E4
:104F50008169026A21F4704141EA043122F0A00221
:104F600042EA03128161026230BD000070B504465E
:104F70000D4605480460057101460868FEF728F9EA
:104F800008B1FCF7C4FA70BDB800002010B50348A2
:104F9000FEF78EFC024800F099FC10BD00030020D3
:104FA000C851002070B50546AC6B0020E085E08458
:104FB0002046FEF77CFC70BD70B506460025B46B3C
:104FC00020684069C0F3C01594F83D00212805D140
:104FD00025B10020E084204600F0F7F82068406901
:104FE000C0F3801594F83E00222805D125B1002099
:104FF000E085204600F0A3F8206C40F0100020640B
:105000002046FEF754FC70BD70B50546AC6B2868B1
:10501000006800F48070002842D1E08500BF00BF26
:1050200021680C3151E8001F21F4807021680C3197
:1050300041E80002002AF3D100BF00BF00BF216891
:10504000143151E8001F21F001002168143141E8BA
:105050000002002AF3D100BF00BF00BF2168143155
:1050600051E8001F21F040002168143141E800029E
:10507000002AF3D100BF202084F83E00206B0128D5
:105080000ED100BF00BF21680C3151E8001F21F094
:10509000100021680C3141E80002002AF3D100BF62
:1050A000206B012804D1A18D2046FEF7BAFB02E057
:1050B0002046FFF76AF870BD70B50546AC6B206BF3
:1050C000012805D1A08D41082046FEF7AAFB02E089
:1050D0002046FFF75BF870BD70B50546AC6B2868DD
:1050E000006800F48070F8B90020E08400BF00BFC1
:1050F0002168143151E8001F21F08000216814312B
:1051000041E80002002AF3D100BF00BF00BF2168C0
:105110000C3151E8001F41F0400021680C3141E89A
:105120000002002AF3D102E02046FFF7EFF870BD3D
:1051300070B50446A56B2846FFF7E9F870BD00BFBF
:1051400000BF02680C3252E8002F22F4907102680E
:105150000C3242E80013002BF3D100BF00BF00BFA8
:105160000268143252E8002F22F001010268143262
:1051700042E80013002BF3D100BF016B01290ED1CF
:1051800000BF00BF02680C3252E8002F22F010016D
:1051900002680C3242E80013002BF3D100BF20213B
:1051A00080F83E1000210163704710B50446206866
:1051B000C06820F040002168C860202084F83D00CD
:1051C0002046FFF7A3F8002010BD00BF00BF026813
:1051D0000C3252E8002F22F0C00102680C3242E883
:1051E0000013002BF3D100BF202180F83D10704741
:1051F000F8B5044694F83E00222873D1A068B0F5B3
:10520000805F0CD1206950B90025A66A20684068EB
:10521000C0F308003080A06A801CA06215E0A56A77
:105220000026A068B0F5805F03D0A06828B9206987
:1052300018B920684068287004E02068406800F0D1
:105240007F002870A06A401CA062E08D401E80B2E2
:10525000E085002844D12068C06820F02000216843
:10526000C8602068C06820F480702168C860206829
:10527000406920F0010021684861202084F83E0048
:10528000206B012826D10020206300BF00BF2168C9
:105290000C3151E8001F21F0100021680C3141E869
:1052A0000002002AF3D100BF2068006800F010005F
:1052B00010280AD100BF00200090206800680090EC
:1052C00020684068009000BF00BFA18D2046FEF717
:1052D000A8FA02E02046FEF758FF0020F8BD01E0E2
:1052E0000020FBE70220F9E72DE9F84F044620688B
:1052F000006920F44050E168084321680861216991
:10530000A068084361690843E16908430090206888
:10531000C06849F20C618843009908432168C8605D
:105320002068406920F44070A16908432168486101
:1053300076492068884203D075492068884203D1A5
:10534000FDF7C4FB814602E0FDF7B0FB8146E06952
:10535000B0F5004F6CD102206168A0FB01500346FC
:105360001920A9FB007001462A463846FAF7F4FFD7
:105370006421B0FBF1F04FEA001A02206168A0FB43
:1053800001510B461920A9FB00712A463846FAF74D
:10539000E3FF834602206168A0FB01500346192009
:1053A000A9FB00712A463846FAF7D6FF6421B0FB04
:1053B000F1F000EBC00101EB0010ABEB80003221FB
:1053C00001EBC0006421B0FBF1F000F0F8000AEB43
:1053D000400A02206168A0FB015003461920A9FB86
:1053E000007001462A463846FAF7B6FF8346022087
:1053F0006168A0FB015003461920A9FB00712A46F1
:105400003846FAF7A9FF6421B0FBF1F000EBC001C8
:1054100001EB0010ABEB8000322101EBC0006421F6
:10542000B0FBF1F000F007005044216888606AE0AA
:1054300004206168A0FB015003461920A9FB0070FD
:1054400001462A463846FAF787FF824604206168FB
:10545000A0FB015003461920A9FB007001462A4613
:105460003846FAF779FF6421B0FBF1F000EBC00198
:1054700001EB0010AAEB8000322101EB0010642147
:10548000B0FBF1F000F0F00A04206168A0FB0170AD
:1054900003461920A9FB00513A462846FAF75CFF5B
:1054A0006421B0FBF1F00AEB001A04206168A0FB54
:1054B00001510B461920A9FB00712A463846FAF71C
:1054C0004BFF834604206168A0FB0150034619206E
:1054D000A9FB007001462A463846FAF73DFF6421D1
:1054E000B0FBF1F000EBC00101EB0010ABEB800072
:1054F000322101EB00106421B0FBF1F000F00F004D
:10550000504421688860BDE8F88F00000010014019
:105510000014014077B581B0044615460298A06298
:10552000A58500202064222084F83E002A48A16B33
:10553000C8632A48A16B08642948A16BC86400208D
:10554000A16B086502AE32682368191D2B46A06B5B
:10555000FCF750FF00BF002000902068006800901A
:1055600020684068009000BF00BF00BF002084F8A2
:105570003C0000BF206970B100BF00BF21680C3142
:1055800051E8001F41F4807021680C3141E80002AD
:10559000002AF3D100BF00BF00BF2168143151E8D9
:1055A000001F41F001002168143141E80002002A87
:1055B000F3D100BF00BF00BF2168143151E8001FC4
:1055C00041F040002168143141E80002002AF3D183
:1055D00000BF002004B070BD09500008B950000899
:1055E000B94F0008014691F83D00212828D188686C
:1055F000B0F5805F0BD1086948B90A6A1088C0F31A
:1056000008000B685860086A801C086205E00B6A95
:10561000581C086218780B685860C88C401E80B20D
:10562000C88458B90868C06820F080000B68D8604A
:105630000868C06840F040000B68D86000207047E0
:105640000220FCE72DE9F04104460D461746984636
:10565000069E34E0701C88B32EB1FDF727F8A0EB4E
:105660000800B0422BD900BF00BF21680C3151E8BF
:10567000001F21F4D07021680C3141E80002002A9B
:10568000F3D100BF00BF00BF2168143151E8001FF3
:1056900021F001002168143141E80002002AF3D111
:1056A00000BF202084F83D0084F83E0000BF0020A9
:1056B00084F83C0000BF0320BDE8F081FFE72068CC
:1056C00000682840A84201D1012000E00020B84233
:1056D000C0D00020F0E7000010B50348FEF7E8F85E
:1056E000024800F0F3F810BD440300209851002058
:1056F00010B50348FEF7DCF8024800F0E7F810BDEB
:1057000088030020A851002010B50348FEF7D0F808
:10571000024800F0DBF810BDCC030020B851002097
:1057200010B50348FEF7C4F8024800F0CFF810BDEA
:1057300010040020D8510020F8B504460D46164646
:105740001F460CB9FBF7E0FE5649206888421DD180
:105750005548046085608680394600F02BF900BF0B
:105760000020009020680068009020684068009049
:1057700000BF00BF2068C06840F010002168C8600A
:10578000324629462046FEF7DFFC89E0474920687B
:1057900088421DD14648046085608680394600F005
:1057A00009F900BF00200090206800680090206880
:1057B0004068009000BF00BF2068C06840F0100043
:1057C0002168C860324629462046FEF7BDFC67E0E6
:1057D0003849206888421DD137480460856086803A
:1057E000394600F0E7F800BF00200090206800680C
:1057F000009020684068009000BF00BF2068C0682B
:1058000040F010002168C860324629462046FEF765
:105810009BFC45E02949206888421DD12848046046
:1058200085608680394600F0C5F800BF00200090F2
:1058300020680068009020684068009000BF00BFAA
:105840002068C06840F010002168C86032462946D0
:105850002046FEF779FC23E01A49206888421DD1D2
:105860001948046085608680394600F0A3F800BFBF
:105870000020009020680068009020684068009038
:1058800000BF00BF2068C06840F010002168C860F9
:10589000324629462046FEF757FC01E0FBF734FE6E
:1058A000F8BD000000100140985100200044004065
:1058B000A851002000480040B8510020004C004092
:1058C000C851002000140140D851002010B50446F2
:1058D000206800680068C0F3001010B1204600F096
:1058E00001F810BD38B5044600BF002000902068C4
:1058F000006800680090206800684068009000BF61
:1059000000BF2068FDF78EFFA0882168896B0968B9
:105910004968401A06490880E06818B10988D4E946
:1059200002029047A288A1682068FEF70DFC38BDEE
:10593000C000002090ED000ADFED160A80EE201A6C
:10594000154981ED011A90ED010ADFED120A80EE92
:10595000201A81ED021A90ED020A81ED000A90ED05
:10596000030A81ED030A90ED040A81ED040A91ED2A
:10597000000A0A4981ED020A074991ED010A074927
:1059800081ED000A044991ED020A044981ED010A02
:105990007047000000007A4488520020B452002072
:1059A00002480068401C014908607047B4000020AC
:1059B00000BFFEE7C160704700BF012003F0C7F8D9
:1059C000FBE700000EB51E4991ED000A8DED000ABF
:1059D00091ED010A8DED010A91ED020A8DED020AA9
:1059E00055210170AA2141700C2181709DF8001091
:1059F000C1709DF8011001719DF8021041719DF870
:105A0000031081719DF80410C1719DF80510017299
:105A10009DF8061041729DF8071081729DF80810DC
:105A2000C1729DF8091001739DF80A1041739DF829
:105A30000B1081730D21C1730A2101740EBD00008A
:105A4000B452002010B50448FFF7BCFF11220249F0
:105A50000248FEF705FC10BDD4520020440300208C
:105A60001FB5334890ED000A324880ED000A3048F7
:105A700090ED010A2F4880ED010AD0ED011A90ED5A
:105A8000001A2D48D0ED010A90ED000A00F078F9D7
:105A90008DED020ACDED030ADDED030A9DED020A4C
:105AA00000F099F9254880ED000AC0ED010A90ED5B
:105AB000010A8DED000A90ED000AB1EE400A8DED6D
:105AC000010ADDED010A9DED000A00F084F91C4891
:105AD00080ED000AC0ED010A00F03EF8DDED030A9A
