:020000040800F2
:10000000305E002019030008E33A0008F1360008CA
:10001000E13A0008510D0008AD460008000000005C
:10002000000000000000000000000000590200086D
:10003000B512000800000000B50200082B3B0008C4
:1000400033030008330300083303000833030008B8
:1000500033030008330300083303000833030008A8
:100060003303000833030008330300083303000898
:10007000251100083303000831110008330300087C
:100080003D1100084911000833030008E90D00087C
:10009000550D00083303000833030008B7120008A9
:1000A0003303000833030008330300083303000858
:1000B00033030008813C00088D3C0008330300082E
:1000C0003303000833030008330300083303000838
:1000D00033030008F5430008114400082D440008CC
:1000E0003303000833030008330300083303000818
:1000F0003303000833030008330300083303000808
:1001000033030008330300083303000833030008F7
:1001100033030008330300083303000833030008E7
:10012000330300085511000861110008330300086B
:100130003303000833030008330300086D0E000882
:10014000F50D0008330300083303000833030008EB
:10015000330300086D1100087911000849440008B4
:100160003303000833030008330300083303000897
:1001700033030008330300083303000800000000C5
:10018000330300083303000800F002F800F055F8CC
:100190000AA090E8000C82448344AAF10107DA45E2
:1001A00001D100F04AF8AFF2090EBAE80F0013F0DF
:1001B000010F18BFFB1A43F0010318479C8D000084
:1001C000BC8D00000A4410F8014B14F00F0508BF65
:1001D00010F8015B240908BF10F8014B6D1E05D013
:1001E00010F8013B6D1E01F8013BF9D1641E03D0EC
:1001F000641E01F8015BFBD19142E4D3704700001B
:100200000023002400250026103A28BF78C1FBD81F
:10021000520728BF30C148BF0B6070471FB508F0B8
:1002200006FD9DE8030000F0BFFA00F0CDF91FBD08
:1002300010B5002000F051FA10BD00F0F7FA114699
:10024000FFF7ECFF06F08DF900F02FFB03B4FFF78A
:10025000EFFF03BC00F0E4FA2C4B19680868B0E823
:10026000F04F80F30988BFF36F8F4FF0000080F3E9
:10027000118870470000000008480068006880F39B
:1002800008884FF0000080F3148862B661B6BFF3AF
:100290004F8FBFF36F8F00DF00BF00BF08ED00E09E
:1002A000DFF80C00016841F470010160704700BF85
:1002B00088ED00E0EFF30980BFF36F8F134B1A68EE
:1002C0001EF0100F08BF20ED108A20E9F04F1060DB
:1002D00009B44FF0500080F31188BFF34F8FBFF384
:1002E0006F8F07F07BF84FF0000080F3118809BC96
:1002F00019680868B0E8F04F1EF0100F08BFB0ECA6
:10030000108A80F30988BFF36F8F704728000020A0
:10031000EFF305807047000009488047094800470F
:10032000FEE7FEE7FEE7FEE7FEE7FEE7FEE7FEE7A5
:10033000FEE7FEE704480549054A064B7047000002
:10034000D93B00088901000830580020305E0020A9
:10035000305A0020305A002053EA020C00F0698025
:100360002DE9F04B4FF00006002B1FBFB3FA83F5C9
:1003700003FA05F424FA05F65E4012BF1643B2FAFA
:1003800082F502FA05F4C5F120051EBF22FA05FC2C
:1003900044EA0C04203556EA044C4FEA144418BFD2
:1003A000641C4FF000084FF00009904271EB030C01
:1003B00039D3002919BFB1FA81F701FA07F6B0FA6B
:1003C00080F700FA07F6C7F120071EBF20FA07FCE6
:1003D00046EA0C062037B6FBF4FCA7EB0507103FF6
:1003E00007F01F0BCBF120060CFA0BFB2CFA06F6DC
:1003F00044BFB3460026202FA4BF5E464FF0000B3B
:100400005BEA060C08BF4FF0010B19EB0B09ABFBC5
:10041000027C48EB0608C01B06FB02CC0BFB03CC9E
:1004200071EB0C01C1E70B46024641464846BDE868
:10043000F08B13B54FF000004FF00001AFF30080D8
:10044000BDE81C4070472DE9F041074615460E46B1
:10045000102000F0E1F804000AD06760C4E90265EA
:1004600000F0D6F80168216004600020BDE8F0814A
:100470000120FBE7032A40F2308010F0030C00F06B
:10048000158011F8013BBCF1020F624498BF11F8CE
:1004900001CB00F8013B38BF11F8013BA2F1040287
:1004A00098BF00F801CB38BF00F8013B11F00303FF
:1004B00000F02580083AC0F0088051F8043B083A63
:1004C00051F804CBA0E80810F5E7121D5CBF51F805
:1004D000043B40F8043BAFF30080D20724BF11F87F
:1004E000013B11F801CB48BF11F8012B24BF00F8E4
:1004F000013B00F801CB48BF00F8012B704710B555
:10050000203AC0F00B80B1E81850203AA0E818500B
:10051000B1E81850A0E81850BFF4F5AF5FEA027CCC
:1005200024BFB1E81850A0E8185044BF18C918C03B
:10053000BDE810405FEA827C24BF51F8043B40F8DC
:10054000043B08BF7047D20728BF31F8023B48BFC1
:1005500011F8012B28BF20F8023B48BF00F8012BFF
:10056000704702F0FF0343EA032242EA024200F02E
:10057000D7B84FF0000200B513469446964620398E
:1005800022BFA0E80C50A0E80C50B1F12001BFF44C
:10059000F7AF090728BFA0E80C5048BF0CC05DF8B2
:1005A00004EB890028BF40F8042B08BF704748BF00
:1005B00020F8022B11F0804F18BF00F8012B704774
:1005C000704770477047000070B5064C7C44064D7C
:1005D0007D4403E0206820448047241DAC42F9D1CB
:1005E00070BD0000A8890000C48900002DE9F04119
:1005F00017460E46054633B107FB0354E41B20465D
:10060000B047A542FAD1A5F10800BDE8F08100008D
:10061000004870470458002070B5064600F0A4F862
:10062000056806F10B0020F00704B4429CBF0020CF
:1006300070BD2B466A68BAB11068A04210D304F1AD
:10064000080188423CBF5068586007D351681019B0
:1006500041601168091B016058601460101D70BD75
:1006600013465268002AE7D12146284600F088F850
:100670000028DED170BD70B50446051F00F074F887
:100680000068002C14BF446870BD002C18BFAC4239
:100690003CBF20466468F8D301680A18AA4218BF14
:1006A000456003D12A680546114401602868411954
:1006B000A1421CBF6C6070BD61686960216808441C
:1006C000286070BD10B500F053F8006810BD10B57B
:1006D000044600F04DF8046010BD2DE9F0410646D7
:1006E000FFF796FF8046454613E016B1E068B0423A
:1006F0000ED120682860D4E90101D8F8007088473D
:100700002046FFF7B8FFD8F80000B842EBD100E070
:1007100025462C68002CE8D1BDE8F0814FF000029E
:100720000429C0F0128010F0030C3FF424AFCCF188
:10073000040CBCF1020F18BF00F8012BA8BF20F871
:10074000022BA1EB0C01FFF716BF5FEAC17C24BFAF
:1007500000F8012B00F8012B48BF00F8012B70476F
:1007600000487047CC57002000487047D4570020FD
:1007700000487047CC57002070477047704770475B
:1007800038B504460A4600206946AFF300800028C9
:1007900008BF38BD02460099204600F06CF80120E1
:1007A00038BD012000F0A3B8F8B5AFF300800546CE
:1007B00000200C46102000BF0646A819A0420DD903
:1007C000324669460020AFF30080070008BF00F002
:1007D0008EF80098A04218BF0546C419FFF7C4FF61
:1007E00005600746F01D20F007004619284600F076
:1007F0000AF8B44208BFF8BDA21B31463868BDE80C
:10080000F84000F038B800210160C0E901107047DD
:1008100010207047002801D000F002B87047000097
:1008200001491820ABBEFEE7260002007546FFF71F
:1008300097FFAE4605006946534620F007008546FF
:1008400018B020B5FFF776FDBDE820404FF0000658
:100850004FF000074FF000084FF0000B21F00701A8
:10086000AC46ACE8C009ACE8C009ACE8C009ACE8EB
:10087000C0098D467047034640688C46002818BF63
:1008800088423CBF03464068F8D318681844884241
:1008900007D00CF1030020F00700001D411A521A86
:1008A0000146081D0A60FFF7E6BE10B50446AFF327
:1008B00000802046BDE81040FFF7C8BC70B5054673
:1008C0000C460A2000E06D1C00F018F835B12878BD
:1008D0000028F8D102E0641C00F010F814B1207870
:1008E0000028F8D1BDE870400A2000F007B810B524
:1008F00000F00CF8BDE81040FFF78CBF08B5694662
:100900008DF800000320ABBE08BD704710B501286C
:1009100005D0002103A0FFF7D1FF012010BD09A1E0
:10092000F8E7000053494752544D454D3A204F7562
:1009300074206F662068656170206D656D6F7279D7
:10094000000000003A2048656170206D656D6F728F
:100950007920636F7272757074656400F0B587B04A
:1009600005460E460022002401203BE0052A38D22D
:10097000DFE802F0030A13252E00295D0D2900D1BE
:100980000122641CE4B22DE0295D0A2903D0002273
:10099000641CE4B226E00222FAE7A6F11A018C42B6
:1009A00000DD0020002301A92F5DCF54641CE4B2B8
:1009B0005B1CDBB2182BF7D3521CD2B212E0295DBC
:1009C0000A2903D00022641CE4B20BE00422FAE7F7
:1009D000285D0D2802D101A803F0EEFD00220020C1
:1009E00000E00022B44201D20128BFD007B00020AD
:1009F000F0BD0000C2484FF000072DED048B88B019
:100A00000078C00709D1BE4805F031FA28B1BD48C9
:100A100080F82A70BA48AFF30080BB4DB94E40F25F
:100A2000DC584FF0040A4FF002090124288AA0F292
:100A30007950C72801D2A5F81080688AA0F27950B1
:100A4000C72801D2A5F81280A88AA0F27950C72839
:100A500001D2A5F81480E88AA0F27950C72801D203
:100A6000A5F81680288A30B9688A20B9A88A10B9F2
:100A7000E88A002878D06889A0F57A7007F030FC01
:100A8000B0F5C87F71DD688AA0F2DC50404207F003
:100A90005DFE9FED9E8B53EC182B07F0FFFC9FED46
:100AA0009D9B53EC192B07F069FE07F01DFC70604D
:100AB000288AA0F2DC50404207F048FE53EC182B85
:100AC00007F0ECFC53EC192B07F058FE07F00CFC78
:100AD0003060E88A00EE100AB8EE400A86ED030A9C
:100AE000A0F2DC5007F032FE53EC182B07F0D6FCD6
:100AF0009FED8A1B53EC112B07F040FE07F0F4FB2F
:100B0000B0616889A0F2DC5007F0EAFB322876DA9F
:100B100086F8209086F822702889A0F5FA6007F000
:100B2000DFFB322839DA86F82140E889A0F57A70AF
:100B300007F0D6FB322802DA86F826700AE0E88948
:100B4000A0F5FA6007F0CCFB322803DA86F82640DD
:100B500086F822A0A889A0F57A7007F0C1FB322898
:100B600004DA86F82570B1E0B8E0A3E0A889A0F225
:100B7000DC5007F0B5FB322802DA86F82540A5E004
:100B8000A889A0F5FA6007F0ABFB322802DA86F8F4
:100B900025909BE086F8257098E0A889A0F57A70EA
:100BA00007F09EFB322804DA86F8217086F8297057
:100BB0000FE0A889A0F2DC5007F092FB322804DA9B
:100BC00086F8214086F8297003E086F821A086F88F
:100BD000294096F82100042878D0E889A0F5FA6029
:100BE00007F07EFB322805DA86F8277086F8284061
:100BF0006CE004E086F8274086F8287066E0688993
:100C0000A0F5FA6007F06CFB32285FDA86F8204026
:100C10002889A0F57A7007F063FB322803DA0520F3
:100C200086F8210008E02889A0F5FA6007F058FB53
:100C3000322801DA86F82140E889A0F57A7007F0B9
:100C40004FFB322802DA86F8229009E0E889A0F505
:100C5000FA6007F045FB322802DA032086F822000A
:100C600096F82200032801D002282FD1A889A0F5E8
:100C70007A7007F035FB322804DA86F8237086F89C
:100C8000247023E0A889A0F2DC5007F029FB322869
:100C900004DA86F8234086F8247017E0A889A0F5C6
:100CA000FA6007F01DFB322810DA86F8234086F838
:100CB00024400BE006F8207F7770B770F77037712B
:100CC0007771B771F47137727772203E154800233F
:100CD0001A460C49006806F0E3FC0DE02021684646
:100CE000FFF747FC202210496846FFF708FC202246
:100CF00069460448FFF703FC012005F053FC95E624
:100D00002401002028510020D04F002000000000C6
:100D100000407F400000000000000840000000008C
:100D200000000040040100202C8D000810B50022B6
:100D30001146054802F0E4FE03F0C0FCBDE8104097
:100D4000024805F033B80000D4010020C5120008A5
:100D5000FEE70000014800F071BC00003C010020EB
:100D6000816800291DD1026800F11C01A2F2012254
:100D7000062A16D2DFE802F003060A0E151109480A
:100D800003F012BE07482C3003F00EBE0548583061
:100D900003F00ABE044803F007BE03482C3003F0FA
:100DA00003BE7047B0510020885400201FB50C4C82
:100DB0004FF0FF352A466946206806F083FD01287A
:100DC000F8D1084800F024FCC0B20028F9D00298FD
:100DD0009DF80C3081B26A46024805F0ABFBE9E7AA
:100DE000F00000203C010020014800F027BC00007A
:100DF0003C010020014800F021BC000064010020FB
:100E000010B50446A06804280FD12146074804F015
:100E1000A3FB06482146383004F09EFB21460348D8
:100E2000BDE81040703004F097BB10BDE0540020C6
:100E30001FB50C4C4FF0FF352A466946206806F076
:100E400041FD0128F8D1084800F0E2FBC0B20028BB
:100E5000F9D09DF80C306A460348029905F052FB20
:100E6000EAE70000F400002064010020014800F0DF
:100E7000E5BB00006401002030B58BB08D0701F0A8
:100E800003040CD5D5040195D20042EA4402029233
:100E9000DA040392DA0042EA4402049206E05201C4
:100EA0000192620002925B0103930492CA080692C7
:100EB000C1F3800105910121099100220792089157
:100EC0000E210A9101A900F097FA002801D000F044
:100ED000F5F90BB030BD000070B505460C4628464C
:100EE00000F041FE08B100F0E9F90121284600F0C8
:100EF000F7F908B100F0E2F90221284600F0F0F914
:100F000008B100F0DBF91021284600F0E9F908B13A
:100F100000F0D4F9074A28680749904202D10C60D2
:100F2000002070BD054A904202D14C60002070BD87
:100F3000012070BD00640040A8000020006800404F
:100F40002DED048B8EB06D4E9FED6D8A6D4DDFEDF6
:100F50006E8A9FED6E9A6E4C01226D49306806F0E4
:100F6000B1FC012879D194F82100012820D004286F
:100F70002CD0022839D0032846D0002853D0202175
:100F800006A8FFF7F6FA142209A96846FFF7B7FA90
:100F900006A960480EC903F02FFF94F8220002282A
:100FA00050D0032869D004286DD0002872D076E094
:100FB000574914220C316846FFF7A1FA54484838C3
:100FC00048300EC8534803F017FFE6E7202106A873
:100FD000FFF7CFFA142209A96846FFF790FA06A98D
:100FE0004C480EC903F008FFD7E7202106A8FFF7F9
:100FF000C0FA142209A96846FFF781FA06A94548F4
:101000000EC903F0F9FEC8E7202106A8FFF7B1FAE0
:10101000142209A96846FFF772FA06A93D480EC9CD
:1010200003F0EAFEB9E7202106A8FFF7A2FA14228E
:1010300009A96846FFF763FA06A936480EC903F006
:10104000DBFEAAE7A069B0F17C5F07DDD5ED000A01
:1010500070EE880AC5ED000A09E043E0B0F13F4FA9
:1010600005D9D5ED000A70EEC80AC5ED000A95ED68
:10107000000A294804F094FB11E09FED280A264855
:1010800004F072FC0BE09FED260A234804F06CFC90
:1010900005E0FFE7B0EE680A1F4804F081FB94F812
:1010A000230010B1012808D011E00022B0EE680A38
:1010B0001146194804F0D6FB09E094F82400A8B1C1
:1010C0000122B0EE490A1146134804F0CBFB253447
:1010D00060782078A078253C0E4803F0B5FC0E48D7
:1010E00004F01CFD012005F05DFA35E7B0EE490A79
:1010F00001220021084804F0B5FBE8E704010020C4
:101100000AD7233D300100200000000000606A473C
:10111000A057002058510020805400200000344384
:1011200000009643014800F0ABBD0000AC04002075
:10113000014800F0A5BD00000C050020014800F0AA
:101140009FBD0000EC030020014800F099BD0000A5
:101150004C040020014800F093BD00006C05002005
:10116000014800F08DBD00008C030020014800F014
:1011700087BD0000CC050020014800F081BD0000C3
:101180002C0300200168CAB2103A1823B2FBF3F214
:10119000064B9B5CC3656FF30901032A02D9091D45
:1011A000816500E08165806D70470000F88C000863
:1011B00010B5014600208A6A8B694FF0C074002B7D
:1011C0000ED0B3F5005F1AD062B3012A2AD0022AEA
:1011D00028D0032A03D1C96AC90100D5012010BD56
:1011E0001AB1012A06D0022AF9D1C96AC901F6D575
:1011F000012010BDC96AA142FBD1012010BD52B12E
:10120000012A0AD0022A06D0032AF7D1C96AA142CC
:10121000F4D1012010BD012010BDC96AC901FBD560
:10122000012010BD012010BD30B50468256825F4EB
:1012300080252560046863608368402B04D00368C0
:1012400099600068C26030BD03689A600068C16040
:1012500030BD000010B500221021082006F082F9F0
:10126000134C206000221021082006F07BF96060FA
:1012700000220C21042006F075F9A06000220C2148
:10128000042006F06FF9E06000222021042006F01F
:1012900069F9206100222C21042006F063F96061C5
:1012A00000220421022006F05DF9A06110BD0000BB
:1012B000F00000207047802000F074BE72B6FEE798
:1012C000FEE70000054800680068416A0348001F07
:1012D0000068C0EB0040084470470000B4000020E4
:1012E00090F82020012A07D0022A05D0416A41F453
:1012F0008021416201207047006842690A434261CF
:1013000000207047F0B590F820500468A468012DC3
:1013100007D0022D05D0416A41F4802141620120AD
:10132000F0BD04F0806504F00066354301D1E500AE
:101330005BD5C4F30164022C05D9416A41F4000174
:1013400041620120F0BD0125A5401D608B684FF46E
:10135000C0759BB1CE6805EB041733434E6843EA72
:10136000C6030668F3514FF4C273076803EB041316
:101370000E69FE50097D012909D00DE00E88CB6869
:1013800005EB041743EA46530668F351EBE701689F
:10139000CE5846F48076CE501179D379567941EA09
:1013A000036193791B0443EA062319434FF4C6767D
:1013B000036806EB041699511178D37841EA03616A
:1013C000937852781B0443EA022211434FF4C4730A
:1013D000026803EB0413D150006805EB0411425876
:1013E00042F0010242500020F0BD416A41F4001178
:1013F00041620120F0BD000010B590F82020012AC4
:1014000007D0022A05D0416A41F4802141620120BF
:1014100010BD3C4800F50070026842F00102026015
:10142000026822F47C52026002684B6A42EA03229C
:1014300002600A7D02F01F0301229A40C3699343B0
:10144000C361A0F50070CB69B3B9D0F80C329343F7
:10145000C0F80C328C894B6864F31F434C6900EB75
:10146000C404C4F840320C890B6864F31F434C6910
:1014700000EBC404C4F84432CB69012B16D1D0F878
:101480000C321343C0F80C320C884B6864F31F43D2
:101490004C6900EBC404C4F840320C89CB6864F397
:1014A0001F434C6900EBC404C4F844328B697BB120
:1014B000D0F804321343C0F804320B6973B1D0F88A
:1014C00014321343C0F81432096A01290CD010E019
:1014D000D0F804329343C0F80432EEE7D0F8143267
:1014E0009343C0F81432EFE7D0F81C121143C0F850
:1014F0001C12D0F8001221F00101C0F800120020E7
:1015000010BD000000640040704730B590F82040E6
:10151000012C07D0022C05D0416A41F480214162A0
:10152000012030BD21B104682469A4075FD003E025
:101530000468E468A40754D04FF4D874056804EB39
:1015400001142D5905F004059560F5B305682D5972
:10155000ED08556005682C5904F00204D4604FF47E
:10156000DA74056804EB01142D5905F00F051561B7
:1015700005682D59C5F30725956105682C59240C7C
:1015800054614FF4DC72046802EB0112A4581C7021
:101590000468A458240A5C700468A458240C9C7045
:1015A0000468A258120EDA704FF4DE72046802EB7F
:1015B0000112A4581C710468A458240A5C710468C0
:1015C000A458240C9C71046800E016E0A258120E86
:1015D000DA71B9B10068016941F0200101610020B0
:1015E00030BD416A41F400114162012030BD416AC1
:1015F00041F400114162012030BD05682D596D0D87
:101600001560A7E70068C16841F02001C160E6E706
:101610000246002092F82010012901D002290CD1A5
:1016200011688A68520100D501208A68120100D52C
:10163000401C8968C90000D5401C70472DE9F05F47
:101640000546002428684669D0F804908768D0F8D9
:101650000CA0D0F810B0D0F81880F10748D0F907E6
:1016600014D001218160B80703D5284600F0A8FAFC
:101670000CE0780702D54FF4006407E0380702D584
:101680004FF4805402E0284600F099FAF80516D588
:1016900029684FF480708860B80503D5284600F0AB
:1016A00091FA0CE0780502D544F4005407E03805BF
:1016B00002D544F4804402E0284600F082FAF803A0
:1016C00016D529684FF480308860B80303D52846C2
:1016D00000F07AFA0CE0780302D544F4004407E005
:1016E000380302D544F4803402E0284600F06BFA57
:1016F000300707D55FEACA6004D544F4007429684E
:101700001020C86070074FF0080707D55FEA0A701D
:1017100004D52868C760284600F0C8F9B00706D588
:101720002868C068800702D0284600F0C1F970061A
:1017300007D55FEACB6004D544F4806429681020A3
:101740000861B00607D55FEA0B7004D52868076109
:10175000284600F0D9F9F00606D528680069800708
:1017600002D0284600F0D2F9B00308D55FEAC9607C
:1017700005D5296810204860284600F0F3F9F003E9
:1017800007D55FEA097004D528684760284600F04D
:101790001CFA300446D55FEA497040D5F00504D5FF
:1017A0005FEAC87001D044F00104B00504D55FEAD7
:1017B000887001D544F00204700504D55FEA4870D2
:1017C00001D544F00404300529D518F0700F26D057
:1017D00008F07000402815D006DC102809D0202819
:1017E0000AD0302816D10AE050280ED0602811D136
:1017F0000EE044F008040DE044F010040AE044F068
:10180000200407E044F0400404E044F0800401E0D8
:1018100044F480742868816921F07001816129682D
:1018200004204860002C05D0686A2043686228467E
:10183000FFF76AFEBDE8F09F70B50446002C03D0A8
:1018400094F8200010B104E0012070BD204600F0A3
:101850009DF82068016841F00101016000F096FCEC
:10186000054605260CE000F091FC401B0A2807D92C
:10187000606A40F40030606284F82060012070BD2E
:1018800020684068C007EED02068016821F002019E
:10189000016000F07BFC05460CE000F077FC401B8B
:1018A0000A2807D9606A40F40030606284F820603A
:1018B000012070BD206840688007EED4207E01289A
:1018C0003FD02068016821F080010160607E01281E
:1018D0003DD02068016821F040010160A07E012810
:1018E0003BD02068016821F020010160E07E0128E2
:1018F00039D02068016841F010010160207F012883
:1019000037D02068016821F008010160607F01285C
:1019100035D02068016821F004010160D4E902019A
:101920000843D4E90412114308436168491E08437F
:101930002168C86100206062012084F82000002036
:1019400070BD2068016841F080010160BEE7206839
:10195000016841F040010160C0E72068016841F082
:1019600020010160C2E72068016821F010010160D8
:10197000C4E72068016841F008010160C6E72068FB
:10198000016841F004010160C8E700002DE9F04161
:1019900086B00446142101A8FEF7EBFD3E4B3F4AFA
:1019A000DFF8F080186821683C4C03260227401CB1
:1019B000103200254FF0090C41452FD11860012845
:1019C00007D1106840F000701060106800F00070DF
:1019D0000090206840F008002060206800F00800B7
:1019E00000900196029703950496CDF814C001A9C2
:1019F0002B4800F0E3FA00220521132000F064FCDC
:101A0000132000F053FC00220521142000F05CFCA0
:101A1000142000F04BFC06B0BDE8F081DFF88480B4
:101A20004145F8D1116841F080611160116801F001
:101A3000806100911860012807D1106840F00070A3
:101A40001060106800F000700090206840F0020004
:101A50002060206800F0020000904FF44050019098
:101A6000029703950496CDF814C001A90E4800F022
:101A7000A5FA002205213F2000F026FC3F2000F0BF
:101A800015FC00220521402000F01EFC402000F043
:101A90000DFCC0E700640040140000203038024014
:101AA000000C024000680040000402407047000043
:101AB00070B504461048114D114E84420AD12B4690
:101AC000A5F11C0200212046FFF71FFD3168A5F19A
:101AD0001C0088470B4884420CD1084A2B461C3A0C
:101AE00000212046FFF711FD7168BDE870400348F2
:101AF0001C38084770BD00003C010020644F0020E6
:101B0000A8000020640100207047000070B5044662
:101B10001048114D114E84420AD12B46A5F11C02EA
:101B200001212046FFF7F1FC3168A5F11C00884730
:101B30000B4884420CD1084A2B461C3A012120460E
:101B4000FFF7E3FC7168BDE8704003481C380847A4
:101B500070BD00003C010020884F0020A80000203C
:101B600064010020704770B5044694F820000128F5
:101B700005D0606A40F400206062012070BD022040
:101B800084F820002068016821F00101016000F064
:101B9000FDFA05460DE000F0F9FA401B0A2808D9C5
:101BA000606A40F400306062052084F82000012063
:101BB00070BD20684068C007EDD1606270BD70479D
:101BC0007047704770477047704770472DE9F04184
:101BD0000446A76D00F0DAFA054694F835000026B1
:101BE000022806D08020606584F834600120BDE8BA
:101BF000F0812068016821F01601016020684169C8
:101C000021F080014161206C08B9A06C20B12068EE
:101C1000016821F0080101602068016821F00101DC
:101C200001600BE000F0B2FA401B052806D9202025
:101C300034342062032060702670D8E72068006882
:101C4000C007EFD134343F2094F828108840B860A2
:101C50000120607026700020C9E790F83510022935
:101C600003D08021416501207047052180F835109F
:101C70000068016821F00101016000207047000048
:101C80002DE9F84304464FF00009CDF800906F4865
:101C90004FF416510068B0FBF1F7A56D2E6894F86B
:101CA0005C00082202FA00F1314210D0206801687D
:101CB00049070CD5016821F00401016094F85C002B
:101CC00002FA00F1A960606D40F00100606594F8CF
:101CD0005C104FF0010808FA01F0304208D021688A
:101CE0004969090604D5A860606D40F0020060658E
:101CF00094F85C1004208840304208D021680968BC
:101D0000890704D5A860606D40F00400606594F810
:101D10005C1010208840304220D0216809680907F3
:101D20001CD5A8602068016849030CD50068000331
:101D300004D4216C91B1204688470FE0A16C69B1B1
:101D4000204688470AE00168C90503D4016821F0EC
:101D500008010160216C09B12046884794F85C10A5
:101D60002020884030424CD021680968C90648D5F7
:101D7000A86094F8350005280BD020680168490355
:101D800030D50068000328D4616C51B320468847E1
:101D900037E02068016821F0160101602068416980
:101DA00021F080014161206C08B9A06C20B120684D
:101DB000016821F00801016094F85C103F20884020
:101DC000A86084F8358084F83490216D00293BD0D8
:101DD00001B02046BDE8F0430847E16B09B1204659
:101DE00088470EE00168C90507D4016821F0100199
:101DF000016084F8358084F83490E16B09B12046A5
:101E00008847606D00281FD0606DC00714D0052082
:101E100084F835002068016821F001010160009814
:101E2000401C0090B84203D820680068C007F6D173
:101E300084F8358084F83490E16C002904D001B036
:101E40002046BDE8F0430847BDE8F88324000020A1
:101E50002DE9F041044600F099F905465CB10220F5
:101E600084F83500002684F834602068016821F089
:101E7000010101600DE00120BDE8F08100F086F96C
:101E8000401B052805D920206065032084F8350013
:101E9000F2E720680068C007F0D121680A6820488E
:101EA0000240D4E901031843D4E903352B43184316
:101EB00063691843A3691843E3691843236A184305
:101EC0001043626A042A03D1D4E90B231A43104356
:101ED00008602068406920F00700656A29460543CC
:101EE000012704290DD1A06A0543E06A48B12046C4
:101EF000FFF75EF928B14020606584F83570012055
:101F0000BAE7206845612046FFF73CF994F85C2069
:101F10003F2191408160666584F835700020ABE711
:101F20003F8010F02DE9F04104460025A66D94F89D
:101F3000340001280DD0012084F8340094F8357065
:101F40000020012F07D084F8340002252846BDE880
:101F5000F0810220FBE7022784F835706065204697
:101F6000FFF762F994F85C103F208840B060206869
:101F7000016841F016010160206C20B12068016801
:101F800041F0080101602068016841F00101016031
:101F9000DCE7000001468022014803F0B1BB0000ED
:101FA000D04F002010B504490A68024202D00860F0
:101FB000FFF7F0FF10BD0000143C01402DE9F84F81
:101FC0000022DFF89C914FF0010803274FF00F0C1F
:101FD00009F1040AA9F1040B08FA02F50B682B4079
:101FE000AB426ED10C7904F00304012C01D0022C19
:101FF00015D18668540007FA04FE26EA0E06D1F8C9
:102000000CE00EFA04FE4EEA060EC0F808E0446842
:10201000AC430D79C5F300159540254345600C7917
:10202000E443A40708D0C568540007FA04F6B54392
:102030008E68A6402E43C6600C7904F00304022C7F
:1020400011D1D40800EB8406356A5407E40E0CFA6B
:1020500004FE25EA0E05D1F810E00EFA04FE4EEA61
:10206000050EC6F820E00568540007FA04F6B543EB
:102070000E7906F00306A6402E4306604C6814F461
:10208000403F67D0374C256845F48045256024687B
:1020900004F480440094344C22F003052E19D6F841
:1020A000085894074FEA147E0CFA0EF4A5432F4CFF
:1020B000A04201D1002424E02D4CA04202D10124F1
:1020C0001FE047E02B4CA04201D1022419E02A4C2A
:1020D000A04201D1032414E0284CA04201D10424E1
:1020E0000FE0274CA04201D105240AE0254CA04274
:1020F00001D1062405E0244CA04201D1072400E0D0
:10210000082404FA0EF42C43C6F80848D9F8004015
:102110009C434D68ED0200D51C43C9F80040DAF835
:1021200000409C434D68AD0200D51C43CAF80040F6
:10213000DBF800409C434D68AD0300D51C43CBF851
:102140000040074D083D2C689C434E68F60300D5BF
:102150001C432C60521C102AFFF43EAFBDE8F88FE0
:10216000083C014044380240003001400000024079
:102170000004024000080240000C0240001002402F
:102180000014024000180240001C02400148806810
:10219000704700001800002002488168027811444E
:1021A000816070471800002010B50B48016841F4A9
:1021B00000710160016841F480610160016841F4CF
:1021C00080710160032000F09FF80F2000F006F8F6
:1021D00000F050F8002010BD003C024030B587B040
:1021E000054600241E48016841F0020101600068B4
:1021F00000F00200009001A902A800F03DF9059846
:10220000A8B100F05DF940001649B0FBF1F1491E9C
:102210001648154A026040F2E732C260416004612C
:102220008460846100F0CAFB04461CB115E000F034
:1022300047F9E9E70D4800F013FC04466CB91D208E
:1022400000F034F8102D07D2002229461D2000F09E
:102250003BF80748056000E0012407B0204630BD88
:102260004038024040420F00000400402C0600208D
:102270001C00002082B00C48016841F480410160DC
:10228000006800F4804001900748001F016841F099
:1022900080510160006800F08050019000220F2101
:1022A000901E02B000F010B844380240002809DB4C
:1022B00000F01F02012191404009800000F1E02060
:1022C000C0F8001170470000F0B40D460D4B1B68BC
:1022D000C3F30223C3F10704042C00D90424191DFD
:1022E000072901D2002300E0DB1E012606FA04F1D3
:1022F000491E294099409E40761E16403143F0BC4D
:1023000003F093BD0CED00E000F00701054A1068F2
:102310004FF6FF03184040EA0120034908431060CC
:10232000704700000CED00E00000FA052DE9F047D1
:1023300004460D46002C13D0DFF82891D9F8000090
:10234000EFB200F00700A8420CD289F80070D9F86B
:10235000000000F00700A84204D00120BDE8F0878B
:102360000120FBE72068404E810712D5400703D5C6
:10237000306840F4E05030602078000703D53068C2
:1023800040F4604030603068A16820F0F0000843FD
:1023900030602078C00731D033496068083901289F
:1023A00008D002280BD0032809D0096889070BD46C
:1023B0000120D3E70968890306D40120CEE7096824
:1023C000890101D40120C9E7316821F003010143EB
:1023D0003160FFF7DBFE804641F2883A07E0FFF705
:1023E000D5FEA0EB0800504501D90320B6E73068C0
:1023F000616800F00C00B0EB810FF0D1D9F800005B
:1024000000F00700A84209D989F80070D9F8000047
:1024100000F00700A84201D001209FE72078400784
:1024200005D53068E16820F4E0500843306020783A
:10243000000706D53068216920F4604040EAC100F9
:10244000306000F05DF83168084AC1F30311515C57
:10245000C8400749086007480068FFF7BFFE002032
:102460007CE70000003C024008380240008D000874
:10247000240000201C0000200F2202600B4A136879
:1024800003F003034360136803F0F00383601368F1
:1024900003F4E053C360126802F46042D2080261A0
:1024A0000348006800F007000860704708380240E1
:1024B000003C0240014800687047000024000020F2
:1024C00000B5FFF7F7FF04490968044AC1F3822108
:1024D000515CC84000BD000008380240108D000863
:1024E00000B5FFF7E7FF04490968044AC1F3423128
:1024F000515CC84000BD000008380240108D000843
:1025000010B51748006810F00C01164816D043109B
:10251000042912D0082911D1114C241F216801F07F
:102520003F02216849020AD52068C0F38810A0FB49
:1025300003010023FDF710FF09E0184610BD2168D4
:102540000023C1F38811A1FB0001FDF705FF2168FD
:10255000C1F30141491C4900B0FBF1F010BD00007E
:10256000083802400024F4002DE9F84F0446002CFE
:1025700013D02078DFF8A083C007A8F1040556D057
:1025800008F104000168C1F3810101290CD0006841
:10259000C0F38100022803D00DE00120BDE8F88FD0
:1025A000D8F80000400206D5286880033FD560684F
:1025B00070BB0120F2E76068B0F5803F10D0B0F545
:1025C000A02F12D0286820F480302860286820F4DA
:1025D000802028606068E0B1FFF7D8FD064614E06F
:1025E000286840F480302860F4E7286840F48020B0
:1025F0002860286840F480302860EBE7FFF7C6FDCC
:10260000801B642801D90320C8E728688003F5D51A
:102610000DE0FFF7BBFD064606E0FFF7B7FD801BA8
:10262000642801D90320B9E728688003F5D420780D
:10263000BA4F80074FF0000948D5B748001D016820
:1026400011F00C0F08D00068C0F38100022813D1EC
:10265000D8F8000040020FD42868800704D5E0684D
:10266000012801D0012099E72868216920F0F800AD
:1026700040EAC100286029E0E068B8B10120386074
:10268000FFF784FD064606E0FFF780FD801B022869
:1026900001D9032082E728688007F5D528682169D9
:1026A00020F0F80040EAC10028600FE0C7F8009071
:1026B000FFF76CFD064606E0FFF768FD801B022869
:1026C00001D903206AE728688007F5D4207800073D
:1026D00029D5DFF844A2924861690AF1700A89B1EC
:1026E00001210160FFF752FD064606E0FFF74EFDAF
:1026F000801B022801D9032050E7DAF80000800788
:10270000F4D510E0C0F80090FFF740FD064606E063
:10271000FFF73CFD801B022801D903203EE7DAF8D1
:1027200000008007F4D42078400778D54FF0000AE5
:1027300079483C300068C0000BD477483C300168D1
:1027400041F080510160006800F0805000904FF02F
:10275000010ADFF8D0B1DBF80000C00514D4DBF8C3
:10276000000040F48070CBF80000FFF70FFD064634
:1027700006E0FFF70BFD801B022801D903200DE7BF
:10278000DBF80000C005F4D5634EA0686C36012864
:102790000FD0052812D0306820F00100306030687A
:1027A00020F004003060A068F8B1FFF7EFFC83462A
:1027B00017E0306840F001003060F4E7306840F026
:1027C00004003060306840F001003060EBE7FFF754
:1027D000DDFCA0EB0B0141F28830814201D90320DE
:1027E000DCE630688007F2D510E0FFF7CFFC8346C7
:1027F00009E0FFF7CBFCA0EB0B0141F288308142EE
:1028000001D90320CAE630688007F2D4BAF1010F7B
:1028100005D141483C30016821F080510160A06938
:10282000C0B33D49091D09684FF0FF36C1F381016E
:10283000022946D0022805D0C7F86090FFF7A6FC11
:1028400004463AE0C7F86090FFF7A0FC814607E035
:10285000FFF79CFCA0EB0900022801D903209DE6AC
:1028600028688001F4D4D4E907010843616AA26AA8
:10287000890106EB520241EA0241084394F82C1008
:1028800040EA0160C8F8000001203866FFF77EFCCE
:10289000044607E03DE0FFF779FC001B022801D960
:1028A00003207BE628688001F5D532E0FFF76EFC57
:1028B000001B022801D9032070E628688001F5D4A6
:1028C00027E0012823D0D8F80000E26900F4800155
:1028D00091421AD1226A00F03F01914215D147F688
:1028E000C071626A0140B1EB821F0ED1A26A00F48E
:1028F000403106EB5202B1EB024F06D194F82C1096
:1029000000F07060B0EB016F03D0012046E60120BB
:1029100044E6002042E6000004380240000047423E
:10292000800E4742007000407047704770B590F8C5
:102930003C20012A31D0012680F83C60022280F838
:102940003D2002685468936824F070050C682C439D
:102950005460134C0268A24214D0B2F1804F11D0DF
:10296000104CA2420ED0104CA2420BD00F4CA242EF
:1029700008D00F4CA24205D00E4CA24202D00E4C01
:10298000A24204D123F080034968194391603C308E
:10299000467000210170002070BD022070BD000053
:1029A000000001400004004000080040000C00400E
:1029B00000040140004001400018004010B50446EA
:1029C000002C03D094F83D0010B107E0012010BDA9
:1029D000002084F83C00204600F016F8022084F81D
:1029E0003D00211D206801F057F901203D3460723F
:1029F0006070A070E07020716071A071E071207251
:102A00002070002010BD000008B500681149884200
:102A100012D11148016841F004010160006800F022
:102A200004000090002205211E20FFF74DFCBDE8A8
:102A300008401E20FFF73ABC0849884209D10648E1
:102A4000001D016841F400310160006800F40030AD
:102A5000009008BD0008004040380240004401409A
:102A600090F83D10012901D001207047022180F823
:102A70003D100168CA6842F00102CA60006814494A
:102A8000884214D0B0F1804F11D0124988420ED044
:102A9000114988420BD01149884208D01049884218
:102AA00005D01049884202D00F49884209D1816877
:102AB00001F00701062908D0016841F00101016019
:102AC00003E0016841F0010101600020704700004F
:102AD000000001400004004000080040000C0040DD
:102AE00000040140004001400018004070B5044659
:102AF000002594F83C00012817D0012684F83C609A
:102B0000022084F83D002068826822F0770222F4D7
:102B10007F4282600868502838D00DDC202853D0CE
:102B200005DC90B3102811D14EE0022070BD302892
:102B30004AD040280AD13DE0602831D070280CD01E
:102B4000B0F5805F03D0B0F5005F12D001253C34B2
:102B5000667000202070284670BDCB68D1E9012145
:102B6000206801F00CF92068816841F077018160EC
:102B7000EDE7CB68D1E90121206801F000F9206878
:102B8000816841F480418160E1E71DE0CA684968DD
:102B9000206801F0D7F95021206801F0FAF8D6E753
:102BA000CA684968206801F0DEF96021206801F0F8
:102BB000F0F8CCE7CA684968206801F0C3F9402101
:102BC000206801F0E6F8C2E722680146104601F0ED
:102BD000E0F8BCE7704770B50446206801694FF023
:102BE0000005C943890716D4C168C943890712D4AF
:102BF000E91E01610120207720688069800703D0E9
:102C00002046FFF7E7FF05E0204600F0C5F8204624
:102C100000F055F9257720680169C943490718D4A0
:102C2000C168C943490714D46FF00401016102204F
:102C300020772068806910F4407F03D02046FFF79A
:102C4000C9FF05E0204600F0A7F8204600F037F95C
:102C5000257720680169C943090717D4C168C943AA
:102C6000090713D46FF00801016104202077206860
:102C7000C069800703D02046FFF7ACFF05E020467F
:102C800000F08AF8204600F01AF9257720680169DB
:102C9000C943C90618D4C168C943C90614D46FF022
:102CA00010010161082020772068C06910F4407F7E
:102CB00003D02046FFF78EFF05E0204600F06CF8B9
:102CC000204600F0FCF8257720680169C943C90750
:102CD00008D1C168C943C90704D1891E01612046D2
:102CE00000F05CF920680169C943090609D4C1688C
:102CF000C943090605D46FF0800101612046FFF742
:102D000013FE20680169C943490609D4C168C94353
:102D1000490605D46FF040010161204600F054F9E6
:102D200020680169C94389060BD4C168C943890673
:102D300007D46FF0200101612046BDE87040FFF725
:102D4000F4BD70BD10B586B00446142101A8FDF78E
:102D500010FC0E482168814215D100210C48026800
:102D600042F020020260006800F020000090402045
:102D7000019002200290039104910320059001A983
:102D80000448FFF71BF906B010BD000000440140E5
:102D90003038024000140240704770B504460D46BA
:102DA000002694F83C0001280FD0012084F83C0054
:102DB0006AB1042A1FD0082A32D00C2A44D0012636
:102DC000002084F83C00304670BD022070BD2946CA
:102DD000206800F0E7FF2068816941F00801816107
:102DE0002068816921F004018161206881692A6974
:102DF00011438161E4E72946206801F007F8206863
:102E0000816941F4006181612068816921F48061F8
:102E10008161206881692A6941EA02218161CFE7E5
:102E20002946206801F02CF82068C16941F00801AA
:102E3000C1612068C16921F00401C1612068C169D4
:102E40002A691143C161BBE72946206801F050F8A7
:102E50002068C16941F40061C1612068C16921F441
:102E60008061C1612068C1692A6941EA0221C161AA
:102E7000A6E710B50446002C03D094F83D0010B12D
:102E800007E0012010BD002084F83C00204600F03F
:102E900015F8022084F83D00211D206800F0FCFE9A
:102EA00001203D3460726070A070E070207160712C
:102EB000A071E07120722070002010BD7047704733
:102EC00010B50446002909D004290AD008290BD0DE
:102ED00094F8410001280AD0012010BD94F83E006A
:102EE000F8E794F83F00F5E794F84000F2E7022095
:102EF000A9B3042937D0082938D084F84100012229
:102F0000206800F02FFF1E4920681E4A884201D029
:102F1000904203D1436C43F40043436420688842E9
:102F200013D0B0F1804F10D0174988420DD0174907
:102F300088420AD01649884207D0904205D01549E8
:102F4000884202D01449884213D1816801F00701F8
:102F5000062912D0016841F0010101600DE0FFE790
:102F600084F83E00CBE784F83F00C8E784F84000CF
:102F7000C5E7016841F001010160002010BD0000BB
:102F8000000001400004014000040040000800402F
:102F9000000C0040004001400018004010B50446FD
:102FA00007492068884201D1FFF7F6F805492068F3
:102FB000884203D1BDE8104001F070BB10BD000095
:102FC00000040040000800407047704710B50446F8
:102FD00020684069C0F3C01094F83D10212911D138
:102FE00080B12068143050E8001F21F0800140E8D3
:102FF0000012002AF5D1606B08B1FEF7E7FD20460C
:1030000001F081F820684069C0F3801094F83E1008
:10301000222911D180B12068143050E8001F21F01E
:10302000400140E80012002AF5D1A06B08B1FEF77C
:10303000CDFD204601F033F8002010BD70470000A0
:10304000F8B5044622681068D168536900F00F068D
:10305000002E08D1850606D58D0604D52046BDE88C
:10306000F84001F05EB80025002E66D003F001069E
:1030700001F49077374360D0C20705D0CA0503D565
:10308000226C42F001022264420705D5DA0703D020
:10309000226C42F002022264820705D5DA0703D0CF
:1030A000226C42F004022264020707D501F02002DC
:1030B000324303D0226C42F008022264226C002AC0
:1030C00031D0800604D5880602D5204601F029F8C3
:1030D00020684069C0F38010216C090700D438B320
:1030E000204600F0DCFF2068406940061CD52068BF
:1030F000143050E8001F21F0400140E80012002A7F
:10310000F5D1A06B60B157490165A06BFEF7A5FD35
:10311000002808D0A06B016D01B0BDE8F040084761
:103120002046FFF78BFFF8BD2046FFF787FFF8BD6D
:103130002046FFF783FF2564F8BD236B012B7ED16A
:10314000C3067CD5CB067AD51068506800905069CC
:103150004FF02003400643D5A16B0868406880B259
:103160000028E9D0A28D8242E6D9E085C869B0F591
:10317000807F2DD020680C3050E8001F21F4807132
:1031800040E80012002AF5D12068143050E8001FF2
:1031900021F0010140E80012002AF5D12068143026
:1031A00050E8001F21F0400140E80012002AF5D14C
:1031B00084F83E30256320680C3050E8001F21F071
:1031C000100140E80012002AF5D1A06BFEF7FEFCCA
:1031D000A08DE18D401A81B22046FFF7F6FEF8BDC2
:1031E000A08DE18D401A81B2E08D0028F7D0002932
:1031F000F5D020680C3050E8002F22F4907240E89F
:103200000026002EF5D12068143050E8002F22F05F
:10321000010240E80026002EF5D184F83E302563F7
:1032200020680C3050E8002F22F0100240E8002304
:10323000002BF5D12046FFF7C8FEF8BDFFE70206D8
:1032400006D50A0604D52046BDE8F84001F0A2B82C
:103250004006F2D54806F0D52046BDE8F84000F01B
:1032600045BF0000A93F000870B50446002C04D0FB
:1032700094F83D00002510B106E0012070BD84F8EF
:103280003C50204600F022F8242084F83D002068BD
:10329000C16821F40051C160204600F0A5FF2068FC
:1032A000016921F4904101612068416921F02A01FE
:1032B00041612068C16841F40051C160256420204B
:1032C00084F83D0084F83E00002070BD2DE9F04FE9
:1032D00087B00446142102A8FDF74BF9EB48DFF84C
:1032E000A8931438D4F800A0DFF8A0B30221032279
:1032F0000723DFF89CC34027002506154FF0006820
:10330000CA4562D1DBF8009049F01009CBF8009073
:10331000DBF8009009F01009CDF80490D0F8009087
:1033200049F00109C0F80090006800F00100019028
:1033300050020290039104950592069302A96046FB
:10334000FEF73CFEDFF85093D248C9F80000C9F8F8
:103350000480C9F80870C9F80C50C9F81060C9F8A1
:103360001450C9F81850C9F81C50C9F82050C9F8B1
:1033700024504846FEF76CFD08B1FDF79FFFC4F8E6
:103380003490C9F83840C348C34F78386037386044
:10339000C7F80480BD60FD603E617D61BD61FD6177
:1033A0003D627D623846FEF753FD08B1FDF786FFAA
:1033B000A763BC63002205212520FEF785FF252099
:1033C000FEF774FF07B0BDE8F08FDFF8D0E2DFF85A
:1033D000BC92F245A9F104096DD1D9F800A04AF4D4
:1033E000003AC9F800A0D9F8009009F40039CDF8E6
:1033F0000490D0F8009049F00109C0F800900068EE
:1034000000F0010001900C200290039104950592B8
:10341000069302A96046FEF7D1FDDFF87C92A04832
:1034200009F1C009C9F80000C9F80480C9F80850BA
:10343000C9F80C50C9F81060C9F81450C9F81850F0
:10344000C9F81C50C9F82050C9F824504846FEF766
:10345000FFFC08B1FDF732FFC4F83890C9F83840D6
:103460008F48DFF840921830C9F80000C9F804808E
:10347000C9F80870C9F80C50C9F81060C9F81450A0
:10348000C9F81850C9F81C50C9F82050C9F8245080
:103490004846FEF7DDFC08B1FDF710FFC4F8349094
:1034A000C9F83840002205212620FEF70DFF26200E
:1034B000FEF7FCFE86E7DFF8F0C1E24572D1D9F8ED
:1034C00000C04CF4802CC9F800C0D9F800C00CF43E
:1034D000802CCDF804C0D0F800C04CF0020CC0F82D
:1034E00000C0006800F0020001904FF440600290BC
:1034F000039104950592069302A96C48FEF75EFDC0
:10350000DFF8A091664809F160096038C9F8000049
:10351000C9F80480C9F80850C9F80C50C9F81060FF
:10352000C9F81450C9F81850C9F81C50C9F82050EF
:10353000C9F824504846FEF78BFC08B1FDF7BEFEE3
:10354000C4F83890C9F83840DFF85891544809F168
:10355000C0093038C9F80000C9F80480C9F80870FB
:10356000C9F80C50C9F81060C9F81450C9F81850BF
:10357000C9F81C50C9F82050C9F824504846FEF735
:1035800067FC08B1FDF79AFEC4F83490C9F83840DA
:10359000002205212720FEF797FE2720FEF786FE52
:1035A00010E7FFE7424B9A4584D1DBF8003043F047
:1035B0002003CBF80030DBF8003003F02003019348
:1035C000036843F004030360006800F00400019006
:1035D000C02002900391049505920820069002A94C
:1035E0003448FEF7EBFC2B48DFF8CC809038C8F865
:1035F00000004FF02069C8F80490C8F80850C8F8D7
:103600000C50C8F81060C8F81450C8F81850C8F822
:103610001C50C8F82050C8F824504046FEF718FC4B
:1036200008B1FDF74BFEC4F83880C8F83840DFF821
:103630008880184808F160081838C8F80000C8F8F1
:103640000490C8F80870C8F80C50C8F81060C8F8A2
:103650001450C8F81850C8F81C50C8F82050C8F8C2
:1036600024504046FEF7F4FB08B1FDF727FEC4F8EE
:103670003480C8F83840002205214720FEF724FE98
:103680004720FEF713FE9DE600100140443802403B
:1036900000000240B86402402C03002000440040B7
:1036A000886002404C0400200048004000040240B2
:1036B00000140140000802406C05002090F83E30E4
:1036C000202B01D00220704759B152B190F83C3004
:1036D000012B08D0012380F83C300023036300F065
:1036E0000DBE012070470220704770477047704739
:1036F000FEE7000010B50F480D490160032141604D
:1037000000218160C1604FF4002202614FF4401239
:103710004261017641768176C17601774177FEF785
:103720008BF8002803D0BDE81040FDF7C7BD10BDE1
:10373000006400403C01002010B50F480D490160B5
:103740000321416000218160C1604FF400220261C9
:103750004FF440124261017641768176C17601775D
:103760004177FEF769F8002803D0BDE81040FDF767
:10377000A5BD10BD006800406401002008B52948BF
:10378000016841F480010160016801F48001009149
:10379000016841F400110160006800F4001000901D
:1037A000002205210C20FEF78FFD0C20FEF77EFD88
:1037B000002205210E20FEF787FD0E20FEF776FD84
:1037C000002205211020FEF77FFD1020FEF76EFD80
:1037D000002205211120FEF777FD1120FEF766FD7E
:1037E000002205213920FEF76FFD3920FEF75EFD2E
:1037F000002205213A20FEF767FD3A20FEF756FD2C
:10380000002205214520FEF75FFD4520FEF74EFD15
:10381000002205214620FEF757FDBDE8084046205E
:10382000FEF744BD3038024010B5124A002112485C
:1038300002F0F6FE114C20600E4A0021243210489E
:1038400002F0EEFE60600B4A002148320D4802F0A3
:10385000E7FEA060074A00216C320B4802F0E0FE50
:10386000E060044A00219032084802F0D9FE20614D
:1038700010BD0000448C0008AD0D000800000020C1
:10388000410F0008310E0008B3460008F509000892
:1038900000B587B0142102A8FCF76BFE0021224876
:1038A000026842F004020260026802F0040201921F
:1038B000026842F020020260026802F020020192D7
:1038C000026842F080020260026802F08002019207
:1038D000026842F001020260026802F001020192F5
:1038E000026842F002020260026802F002020192E3
:1038F000026842F008020260006800F008000190CF
:10390000802002904FF488100390049102A9074888
:10391000FEF754FB002205211720FEF7D5FC1720E7
:10392000FEF7C4FC07B000BD30380240001402406E
:1039300010B588B01C2101A8FCF71BFE15481449DE
:103940000160532141600024846040F63301C1606E
:1039500004618461FFF732F808B1FDF7AFFC0D4850
:10396000FFF787FA08B1FDF7A9FC602001900294E7
:1039700003940594002201A90648FFF70EFA08B146
:10398000FDF79CFC0348FFF7DDF908B010BD00000F
:1039900000440140D401002010B586B000240294F8
:1039A000039404940594009401941448124901600E
:1039B0005321416084604FF6FF71C16004618461EE
:1039C000FEF7FCFF08B1FDF779FC4FF48050029040
:1039D00002A90A48FFF78AF808B1FDF76FFC0094C6
:1039E000019469460548FEF7A1FF002801D0FDF7C4
:1039F00065FC06B010BD0000000800408C010020EE
:103A000010B50C480A4901604FF41651416000217D
:103A10008160C16001610C2242618161C161FFF777
:103A200023FC002803D0BDE81040FDF747BC10BDC3
:103A3000001001401C02002010B50C480A4901602A
:103A40004FF4E131416000218160C16001610C22CD
:103A500042618161C161FFF707FC002803D0BDE826
:103A60001040FDF72BBC10BD004400406002002058
:103A700010B50C480A4901604FF4E1314160002162
:103A80008160C16001610C2242618161C161FFF707
:103A9000EBFB002803D0BDE81040FDF70FBC10BDC4
:103AA00000480040A402002010B50C480A490160FB
:103AB0004FF4E131416000218160C16001610C225D
:103AC00042618161C161FFF7CFFB002803D0BDE8EF
:103AD0001040FDF7F3BB10BD00140140E8020020C8
:103AE000FEE7FEE770B514461D46E06061602046C3
:103AF000FEF764FF29462046BDE87040FFF7E0B9B5
:103B00000068C36A5B1C53436422B3FBF2F20029D2
:103B100005D0042905D0082905D002647047426306
:103B2000704782637047C263704710B54FF0E02062
:103B3000006904F003F8012803D0BDE8104003F049
:103B4000FBBC10BD30B593B0302107A8FCF711FDC8
:103B5000142102A8FCF70DFD00251D48016841F065
:103B600080510160006800F08050019019480168A0
:103B700041F480410160006800F480400190012020
:103B800007900004089002240D9480010E900420F8
:103B90000F90A82110911194129007A8FEF7E4FC51
:103BA00008B1FDF78BFB0F200290039404954FF4AE
:103BB000A05005904FF480500690052102A8FEF712
:103BC000B5FB002801D0FDF779FB13B030BD000034
:103BD00040380240007000400248016841F4700122
:103BE0000160704788ED00E010B5FDF733FB02215E
:103BF0001A4800F0CBF90023194A49F63F4141F237
:103C00006700FFF76FFF17491748FDF765F9174978
:103C10001748FDF761F900231A4619461248FDF7C7
:103C20002BF900231A460C210F48FDF725F9002334
:103C30001A4672210E48FDF71FF900231A467E210D
:103C40000B48FDF719F90B4B23220B490B4800F0E9
:103C500009FCBDE81040FDF769B800008C010020A8
:103C6000D4010020610D00083C010020010E000875
:103C7000640100205D09000848500020A4020020D3
:103C80000148FEF7A8BF00002C0600200148FEF7FF
:103C9000A2BF00008C0100202DE9F0410268264DF2
:103CA000264E274FDFF89CC0274B4FF08048A84294
:103CB00009D0404507D0B04205D0B84203D0604596
:103CC00001D0984203D122F070044A682243A842EE
:103CD0001BD0404519D0B04217D0B84215D060452E
:103CE00013D0984211D0194CA0420ED0184CA042CB
:103CF0000BD0184CA04208D0174CA04205D0174C4E
:103D0000A04202D0164CA04203D122F44074CA68EB
:103D100022434C6922F08002224302608A68C26218
:103D20000A688262A84201D0984201D10969016300
:103D300001214161BDE8F081000001400004004024
:103D400000080040000C0040000401400040014019
:103D5000004401400048014000180040001C0040A1
:103D60000020004010B501F01F0101238B40046AC0
:103D70009C430462036A8A401343036210BD10B57A
:103D8000846824F47F4442EA03220A432243826087
:103D900010BD826822F070020A4342F00701816080
:103DA00070470000F0B5026A22F001020262026A66
:103DB0004368846924F0700424F003050C682C43E4
:103DC00022F002058A682A430E4E0F4FB04201D0FE
:103DD000B84205D122F00805CA682A4322F004023D
:103DE000B04201D0B84207D123F4807323F40073AA
:103DF0004D691D438B692B4343608461496841636E
:103E00000262F0BD0000014000040140F0B5026A0A
:103E100022F010020262036A4268846924F4E044DA
:103E200024F440740D6844EA052423F020038D68CF
:103E300043EA0513104D114EA84201D0B04206D1FD
:103E400023F08003CF6843EA071323F04003A8421E
:103E500001D0B04209D122F4806222F400624D699F
:103E600042EA85028D6942EA8502426084614968BE
:103E700081630362F0BD00000000014000040140C6
:103E8000F0B5026A22F480720262026A4368C46971
:103E900024F0700424F003050C682C4322F4007213
:103EA0008D6842EA0522104D104EA84201D0B04262
:103EB00006D122F40062CF6842EA072222F480622F
:103EC000A84201D0B04209D123F4805323F4005317
:103ED0004D6943EA05138D6943EA05134360C461E4
:103EE0004968C1630262F0BD000001400004014066
:103EF00030B5026A22F480520262046A4268C369E1
:103F000023F4E04323F440730D6843EA052324F4CB
:103F100000548D6844EA0534084DA84202D0084D8B
:103F2000A84204D122F480424D6942EA85124260DF
:103F3000C36149680164046230BD000000000140B3
:103F40000004014010B5036A046A24F0010404620D
:103F5000846924F0F00444EA021423F00A020A43BC
:103F60008461026210BD10B5036A23F0100303627E
:103F70008469036A24F4704444EA023223F0A00303
:103F800043EA01118261016210BD000010B5054ACB
:103F900010601171FEF764FD002801D0FDF790F963
:103FA00010BD0000B400002010B5806B0021C18559
:103FB000C184FFF743F810BD70B5846B2068406979
:103FC000C0F3C01094F83D100025212904D118B188
:103FD000E584204600F097F820684069C0F380101F
:103FE00094F83E10222904D118B1E585204600F04E
:103FF00056F8206C40F0100020642046FFF71EF8B1
:1040000070BD10B50146886B09680968C9052FD4D1
:104010000021C18501680C3151E8002F22F4807223
:1040200041E80023002BF5D10168143151E8002F3D
:1040300022F0010241E80023002BF5D10168143180
:1040400051E8002F22F0400241E80023002BF5D177
:10405000202180F83E10016B012909D101680C3143
:1040600051E8002F22F0100241E80023002BF5D187
:10407000016B012902D0FFF738FB10BD818DFEF7DF
:10408000A4FF10BD10B5806B016B012902D0FFF7B2
:104090002DFB10BD818D4908FEF797FF10BD01680B
:1040A0000C3151E8002F22F4907241E80023002BDC
:1040B000F5D10168143151E8002F22F0010241E8E6
:1040C0000023002BF5D1016B012909D101680C31C6
:1040D00051E8002F22F0100241E80023002BF5D117
:1040E000202180F83E1000210163704710B501685F
:1040F000CA6822F04002CA60202180F83D10FFF714
:10410000F6FA002010BD01680C3151E8002F22F0B2
:10411000C00241E80023002BF5D1202180F83D109A
:10412000704708B590F83E10222901D0022008BD42
:1041300082684FF480539A4201D1016921B1816AAA
:104140009A421DD052B10BE0816A02685268C2F3F4
:1041500008020A80816A891C816209E002697AB1D9
:104160000268526802F07F020A70816A491C81620B
:10417000C18D491E0904090CC18505D0002008BD68
:10418000026852680A70F0E70168CA6822F02002EB
:10419000CA600168CA6822F48072CA6001684A690C
:1041A00022F001024A61202180F83E10016B0129B2
:1041B00003D0FFF79AFA002008BD002101630168CF
:1041C0000C3151E8002F22F0100241E80023002BAF
:1041D000F5D101680A68D20602D50A6849680091DB
:1041E000818DFEF7F2FEE6E72DE9F04104462068F6
:1041F0000169E26821F4405111430161A16820691D
:10420000E26901436069104301432068C26849F2D2
:104210000C639A430A43C26020684169A26921F491
:1042200040711143416133492068884202D03249CC
:10423000884202D1FEF754F901E0FEF741F9E16945
:104240000023192764253226B1F5004F28D0616874
:104250008B0F8A00A0FB0701FCF77EF80146B0FB3C
:10426000F5F07A42504301EB800006EB0010B0FB02
:10427000F5F000F0F002B1FBF5F002EB0012B1FB3B
:10428000F5F07B42584301EB800006EB0010B0FBD9
:10429000F5F0216800F00F0010448860BDE8F0815F
:1042A00061684A18A0FB07015B41FCF755F801461D
:1042B000B0FBF5F00201B1FBF5F06FF018035843C5
:1042C00001EB800006EBC000B0FBF5F000F0F80059
:1042D00002EB4002B1FBF5F0584301EB800006EB26
:1042E000C000B0FBF5F0216800F0070010448860C2
:1042F000D4E70000001001400014014037B582B03F
:1043000004461346039AA262A38500252564222051
:1043100084F83E00A16B1C48C863A16B1B4808646D
:10432000A16B1B48C864A06B05652168A06B091DC3
:10433000FDF7F8FD206801684068019084F83C5062
:10434000206948B120680C3050E8001F41F48071AA
:1043500040E80012002AF5D12068143050E8001F10
:1043600041F0010140E80012002AF5D12068143024
:1043700050E8001F41F0400140E80012002AF5D14A
:1043800005B0002030BD0000034000088540000853
:10439000B93F000890F83D10212901D00220704754
:1043A0008168B1F5805F01D1016961B1016A4A1C80
:1043B0000262026809785160C18C491E0904090C27
:1043C000C1840AD013E0016A02680988C1F30801B8
:1043D0005160016A891C0162EEE70168CA6822F037
:1043E0008002CA600068C16841F04001C1600020DD
:1043F0007047000010B50448FEF722FEBDE81040EB
:10440000024800F0AFB800001C020020904F0020CE
:1044100010B50448FEF714FEBDE81040024800F055
:10442000A1B8000060020020A04F002010B5044891
:10443000FEF706FEBDE81040024800F093B8000009
:10444000A4020020B04F002010B50448FEF7F8FD8C
:10445000BDE81040024800F085B80000E8020020E6
:10446000C04F0020F8B504460D4616461F46002CE6
:1044700001D1FCF723FF36492068884215D1354821
:10448000046085608680394600F011F92068016873
:1044900041680091C16841F01001C160324629466F
:1044A0002046BDE8F840FFF709B92B49884216D1EC
:1044B00028481030046085608680394600F0F7F89F
:1044C0002068016841680091C16841F01001C16035
:1044D000324629462046BDE8F840FFF7EFB81F49AD
:1044E000884216D11B48203004608560868039469A
:1044F00000F0DDF82068016841680091C16841F072
:104500001001C160324629462046BDE8F840FFF759
:10451000D5B81349884216D10E4830300460856002
:104520008680394600F0C3F8206801684168009130
:10453000C16841F01001C160324629462046BDE8FD
:10454000F840FFF7BBB8BDE8F840FCF7B7BE000085
:1045500000100140904F00200044004000480040FF
:1045600000140140016809680968C943C90601D4FB
:1045700000F002B87047000038B5044621680868AA
:104580000268406800900846FEF720FD2168A08878
:10459000896B09684968401A81B206480180E2685F
:1045A0000AB1A0689047A288A1682068BDE8384099
:1045B000FFF784B8BC00002070B52DED048B324CA1
:1045C00094ED032A84ED062A94ED041A84ED071A6B
:1045D00090ED000A84ED000AD0ED010AC4ED010A55
:1045E000D0ED020AC4ED020AD0ED031AC4ED031A9D
:1045F000D0ED040AC4ED040AD0ED052AC4ED052A65
:1046000071EEC21AC4ED081A70EEC10AC4ED090AAF
:1046100004F1300585ED020A94ED0A1A31EE211AF3
:1046200084ED0A1A94ED0B1A71EE200AC4ED0B0A00
:10463000DFED169A9FED169A60EE290A80EE890A40
:1046400001F0C6FCA06A04F081FA9FED128B53ECD6
:10465000182B03F07BFE03F047FE286095ED020A5D
:1046600060EE290A80EE890A01F00AFCE06A04F093
:104670006DFA53EC182B03F069FE03F035FE686009
:10468000BDEC048B70BD00000C500020DB0F4940D6
:1046900000003443000000000000000002480168F0
:1046A000491C016070470000B0000020FEE7C160B7
:1046B0007047012001F076FFFBE7000010B52DEDFB
:1046C000048BF3EE042A9FED468AB0EE482AF0EE02
:1046D000481ADFED448AB0EE681A9FED439AB3EEB4
:1046E000040A0021F0EE490A404800F0C3F9F3EE55
:1046F000042AB0EE482AF0EE481AB0EE681AF0EE3E
:10470000490AB2EE080A0121384800F0B3F9F3EE85
:10471000042AB0EE482AF0EE481AB0EE681AF0EE1D
:10472000490AB2EE080A0221304800F0A3F9DFED91
:10473000309A00220123F0EE680AB0EE690A1146B1
:104740002A4800F089F901230022F0EE680AB0EE51
:10475000690A1946254800F07FF901230022F0EE8E
:10476000680AB0EE690A0221204800F075F9F0EEFF
:10477000682AB0EE482AF0EE481AB0EE681AF0EE59
:10478000490AB2EE080A00211A4801F0DEF80022B8
:104790000123F0EE680AB0EE690A1146154801F0EF
:1047A000C1F8F0EE682AB0EE482AF0EE481AB0EEF2
:1047B000681AF0EE490AB2EE080A01210D4801F02C
:1047C000C4F8F0EE680AB0EE690ABDEC048B012370
:1047D0000022BDE810401946064801F0A3B80000C9
:1047E00000008046000000008FC2753C5851002038
:1047F000CDCCCC3D805400200A68431CD35C805C47
:1048000043EA002000B2921C0A60704710B50A68A3
:10481000C31CD35C845C43EA0463441C145D24041D
:10482000801C105C44EA00200343121D0A601846F5
:1048300010BD30B513680D0E5C1C1460C5541368B0
:104840000D0C5C1C1460C55413680D0A5C1C1460CC
:10485000C55413685C1C1460C15430BD10B50446C7
:104860002DED028B4878097840EA01202082217FD3
:1048700000291ED000EE100A216AF8EE400A94EDDD
:10488000060A70EEC00A10EE902A12F16A5F02D991
:10489000491C216215E000EE900AF8EE600A30EE45
:1048A000C00A10EE102AB2F18B4F0ADD491E2162B8
:1048B00007E000EE100AB8EE400A84ED020A01217A
:1048C000217700EE100AB8EE400A84ED060A216A4C
:1048D000D4ED020A00EB413000EE100AB8EEC00A37
:1048E00030EE600ABDEEC08A2068816A20468847A3
:1048F000F8EEC80A206880EE808AC16920468847A1
:1049000000EE100AB8EE400AC8EE000AC4ED050A2F
:10491000BDEC028B10BD70B505462DED028B0C462B
:104920002868C26A284690472868B0EE408AC26A62
:1049300028469047B1EE400AF0EE480A05F10C0017
:1049400003F0B4FC95ED030A2846BDEEC00A10EE54
:10495000101A09B202790825531E032B11D804EB53
:1049600042020B0A02F8023C027904EB420202F80E
:10497000011C0168C96B8847A0602573BDEC028BE0
:1049800070BD531F032BF9D804EB42020B0A02F847
:104990000A3C027904EB420202F8091C0168896BA7
:1049A0008847A0602573E9E770B504460D46206886
:1049B0002946026A2046904720682946426B2046D5
:1049C00090476879297940EA0120E08470BD0000B1
:1049D00010B500F011F8034901600021C18480F88E
:1049E000281010BD0C8E00087047CA78897842EAFA
:1049F000012181847047000001719FED090A80ED5B
:104A0000020A80ED030A0021018280ED050A80ED93
:104A1000060A01770162034A026081847047000040
:104A200000000000548E00089FED051A60EE810A18
:104A30009FED041A20EE011A80EE810A70470000F3
:104A400000007042DA0FC94000F15801014803F03C
:104A5000BFBA00003C010020C1EB011100EBC10016
:104A600080F82C2180F82D3180ED3C0AC0ED3F0A02
:104A70000120704710B5B0EE613AF0EE421AC1EB7A
:104A8000011100EBC100DC30B0EE432A00F00AFC5B
:104A9000012010BD0FB410B504462DED068B204645
:104AA00001F04CF99DED090A9FEDD19BB5EEC00ACE
:104AB000F1EE10FA25DD94EDC1AAB4EECA0AF1EECA
:104AC00010FA1EDB206804F041F841EC180BD4F812
:104AD000E40204F03BF853EC192B03F04FFE53ECC7
:104AE000182B03F04BFE41EC180B1AEE100A04F0E1
:104AF0002DF853EC182B03F029FC03F0F5FB09907B
:104B000053E0B5EEC00AF1EE10FA25D294EDC1AA39
:104B1000B4EECA0AF1EE10FA1ED8206804F016F8B6
:104B200041EC180BD4F8E40204F010F853EC192B04
:104B300003F024FE53EC182B03F020FE41EC180B7D
:104B40001AEE100A04F002F853EC182B03F014FFCD
:104B500003F0CAFB099028E0B5EEC00AF1EE10FAA6
:104B60000FDDD4EDC10AB4EEE00AF1EE10FA08D878
:104B700094EDB90A94ED001A40EE410ACDED090A10
:104B800013E0B5EEC00AF1EE10FA0ED2D4EDC10A70
:104B9000B4EEE00AF1EE10FA07DB94EDB90A94EDF9
:104BA000001A40EE010ACDED090A9DED0A0AB5EEA4
:104BB000C00AF1EE10FA0FDDD4EDC20AB4EEE00A3D
:104BC000F1EE10FA08DB94EDB90A94ED001A40EE0C
:104BD000010ACDED0A0A3DE0B5EEC00AF1EE10FA89
:104BE0000FD2D4EDC20AB4EEE00AF1EE10FA08D802
:104BF00094EDB90A94ED001A40EE410ACDED0A0A8F
:104C000028E0B5EEC00AF1EE10FA0FDDD4EDC20ACD
:104C1000B4EEE00AF1EE10FA08D894EDB90A94ED7A
:104C2000001A40EE410ACDED0A0A13E0B5EEC00AC3
:104C3000F1EE10FA0ED2D4EDC20AB4EEE00AF1EEB3
:104C400010FA07DB94EDB90A94ED001A40EE010A60
:104C5000CDED0A0A202209A904F54170FBF74FFCAB
:104C6000D4F8DC02042853D094EDB80AF3EE030A1A
:104C70002046FFF7D9FEDDED090A9DED0E1AD4EDB1
:104C8000BA1A41EE210A20EE200A84EDB00A94ED12
:104C9000B80AF3EE030A2046FFF7C6FEDDED0A0A66
:104CA00094EDC01AD4EDBF1AF1EE600A60EE810AED
:104CB0009DED091A41EE610A9DED0E1AD4EDBA1A66
:104CC00041EE210A20EE200A84EDB20A94EDB80AE2
:104CD000F3EE030A2046FFF7A7FEDDED0A0A94ED86
:104CE000BD1AD4EDBE1A60EE810A9DED091A41EE9F
:104CF000610A9DED0E1AD4EDBA1A41EE210A20EE9A
:104D0000200A84EDB40ABDEC068B10BC5DF814FBE0
:104D100094EDB80AF3EE030A2046FFF785FE9DEDF9
:104D2000091AD4EDBB0ADDED0A1A21EE201A01EEB4
:104D3000E01ADDED0E0AD4EDBA1A00EEA11A20EE4B
:104D4000010A84EDB00A94EDB80AF3EE030A204696
:104D5000FFF76AFEDDED0A0ADDED091AB1EE601A11
:104D6000D4EDBB0A21EE201A01EEE01ADDED0E0AA9
:104D7000D4EDBA1A00EEA11A20EE010A84EDB20AAF
:104D800094EDB80AF3EE030A2046FFF74DFE9DEDC1
:104D90000A1AD4EDBB0ADDED091A21EE201A01EE44
:104DA000E01ADDED0E0AD4EDBA1A00EEA11A20EEDB
:104DB000010A84EDB40A94EDB80AF3EE030A204622
:104DC000FFF732FE9DED0A1AD4EDBB0ADDED091A9C
:104DD00021EE201A01EEA01ADDED0E0AD4EDBA1A6A
:104DE00000EEA11A20EE010A84EDB60A8BE700005E
:104DF000000000000000E03F0FB470B586B005462B
:104E000014220EA96846FBF77AFB0BA928460EC9A7
:104E1000FFF740FE00241EE004EB440000EBC4005A
:104E200005EB80000646B0F97C0000EE100AC4EBEA
:104E3000041005EBC000B8EEC00A80ED390A05EB9E
:104E4000C40191EDB00A80ED3A0ADC3000F036FA88
:104E500086ED190A641CD5F8DC02A042DCDC06B041
:104E600070BC5DF814FB000070B504462DED048B9A
:104E7000B0EE408AB0EE609A0D46F0EE418A2022F4
:104E80003D4904F10800FBF73AFB3B492022203161
:104E900004F12800FBF733FB012104F15800FFF770
:104EA00097FD022104F18400FFF792FD032104F134
:104EB000B000FFF78DFD04237822304904F1DC00B7
:104EC00000F0C3FFA0F1DC040020C4F8DC029FED79
:104ED0002C0A84EDB80A9FED2B0A84EDB90A9FEDE8
:104EE0002A0A84EDBA0ADFED299AB0EE690A00F0C9
:104EF00083FF84EDBB0AB0EE690A00F07FFF84ED0A
:104F0000BC0ADFED239AB0EE690A00F075FF84ED6C
:104F1000BD0AB0EE690A00F071FF84EDBE0ADFED54
:104F20001D9AB0EE690A00F067FF84EDBF0AB0EE8B
:104F3000690A00F063FF84EDC00A0F492022403166
:104F400004F54170FBF7DBFA04F52F7484ED098A50
:104F5000C4ED0A8A84ED0B9A2562012020600220AC
:104F6000A060032020610420A061A4F52F74BDEC93
:104F7000048B204670BD00004C8D0008C954000809
:104F8000E3A59B3D000000009318A43EDA0F493FC3
:104F9000910A063F910A863F10B5044603232C224E
:104FA000034904F15800FBF721FB204610BD000027
:104FB000E949000870B504462DED068BF0EE408AF5
:104FC000B0EE608AF0EE419A94ED120AB4EE480A0F
:104FD000F1EE10FA06D194ED110AB4EE680AF1EE82
:104FE00010FA07D02068816820468847C4ED118AEE
:104FF00084ED128A94F8210000287CD194F82000D6
:105000009FED7DAA38EE689AF0EE00AA012588BBD4
:1050100084ED018AC4ED028A94ED090A4FF07E51B5
:1050200010EE100A88420FDCD4ED0A0A10EE900A46
:10503000884209DCB5EEC00AF1EE10FA04D3F5EEB1
:10504000C00AF1EE10FA06D2B0EE4A0A84ED040A64
:10505000BDEC068B70BDB5EEC00AF1EE10FA0AD1B8
:10506000F5EEC00AF1EE10FA05D194ED0B0A84EDCD
:10507000040AEDE754E0F4EE488AF1EE10FA04D1A8
:10508000B0EE4A0A84ED040AE2E7B0EE490A03F002
:105090001FF984ED0C0AD4ED090A60EE200AC4ED74
:1050A0000D0A94ED0A1A20EE011A84ED0E1A30EE64
:1050B000600A30EE410A84ED0F0A94ED0B0AD4ED3C
:1050C000031A60EEAA0A20EE000AB0EE402A01EEB2
:1050D000E12AC2EE201AC4ED051A61EE2A0A80EE1A
:1050E000201A84ED061AB5EEC09AF1EE10FA06DD2C
:1050F000F4EEC89A00E07BE0F1EE10FA09DCB5EEC0
:10510000C09AF1EE10FA09D2F4EEC89AF1EE10FA54
:1051100004D2B0EE4A0A84ED040A99E784F82050DC
:10512000B5EEC09AF1EE10FA06DD39EEE80A03F0AA
:10513000CFF884ED100A05E038EEE90A03F0C8F86C
:1051400084ED100A94ED100AD4ED0D0AB4EEE00AD5
:10515000F1EE10FA10D2D4ED050A60EEAA0A60EE64
:10516000800A94ED030A40EE000AB0EE600A00F0F7
:1051700047FE84ED040A21E094ED0F1A70EE811AC7
:10518000F4EEC01AF1EE10FA04DD94ED0B0A84ED92
:10519000040A13E030EE600AD4ED0B1AD4ED060ACF
:1051A00061EEA11A30EE410A60EEAA0A40EEC01A82
:1051B000B0EE610A00F024FE84ED040AB5EEC09A58
:1051C000F1EE10FA05D294ED040AB1EE400A84ED36
:1051D000040A39EEC80A03F07BF8D4ED070AB4EEEE
:1051E000E00AF1EE10FA03D284ED04AA84F821500B
:1051F00094ED040A2CE7000000000000002100F8F4
:10520000201F417070470000DFED0A2AC0ED042A1C
:10521000002180F8201080F821100749016080EDFE
:10522000090AC0ED0A0A80ED0B1AC0ED031A80EDE1
:10523000072A704700000000948E000800B5014660
:10524000084600F005F808465DF804EB00F007B8E2
:10525000D0ED010AC0ED020A80ED010A704790ED21
:10526000010AD0ED000AF7EE001A90ED021A20EEC6
:10527000200A71EEE00A01EE200A704780ED000A74
:105280009FED030A80ED020A80ED010A70470000DD
:105290000000000000F8501F427000ED0F0A40EDC2
:1052A0000C0A704780ED0D0AC0ED0E0A80ED0F1A52
:1052B000C0ED111A80ED102A7047000010B50446A9
:1052C0002DED028B204600F039FD9FED7E8A20B146
:1052D000B0EE480ABDEC028B10BD94ED030AD4ED8C
:1052E000020A30EE600A84ED0C0A02F0F1FFD4ED00
:1052F000120AB4EEE00AF1EE10FA04D2B0EE480A57
:1053000084ED040AE6E794ED0C0A04F11400FFF7BB
:1053100095FF84ED0C0A94F8510050B1D4ED0D0ABC
:10532000D4ED151A20EE801A00EEE11A84ED1B1A56
:1053300005E0D4ED0D0A60EE800AC4ED1B0A94ED81
:105340000E1AB5EEC01AF1EE10FA18D010B184EDB5
:10535000190A07E0D4ED190AD4ED001A40EE210A2B
:10536000C4ED190A94ED110A04F16400C0EE010ABB
:10537000F1EE401A81EE810A02F086FF01E084ED31
:10538000198A94ED0C0A02F0A3FFD4ED130AB4EECF
:10539000E00AF1EE10FA10D294ED0E0AD4ED190ADB
:1053A00020EE200A84ED1A0AD4ED110A04F16800F7
:1053B000B1EE600A02F068FF01E084ED1A8A94F809
:1053C0005000B0EE000AE0B194F8510070B1D4ED95
:1053D000020A94ED181A70EE810A94ED171A41EE44
:1053E000400A94ED001A80EE810A26E094ED020A4C
:1053F000D4ED170A94ED001A70EE600A80EE810A6F
:105400001BE094F8510070B1D4ED0C0A94ED161A1B
:1054100070EE810A94ED151A41EE400A94ED001ADF
:1054200080EE810A09E094ED0C0AD4ED150A94EDA2
:10543000001A70EE600A80EE810A04F12000FFF786
:10544000FDFED4ED0F0A20EE800A84ED1C0AD4ED97
:10545000150AC4ED160AD4ED0C0AC4ED150AD4EDF4
:10546000170AC4ED180AD4ED020AC4ED170A94F81D
:10547000510070B1D4ED1B0A94ED1A1A70EE810A36
:1054800030EE800AD4ED1D0A30EE200A84ED040AC5
:1054900009E0D4ED1B0A94ED1A1A70EE810A30EE81
:1054A000800A84ED040A94ED040A84ED1D0AD4ED0B
:1054B000100A04F11000B1EE600A02F0E5FE94ED6E
:1054C000040A07E70000000010B52DED028B9FEDE8
:1054D000208A80ED028A80ED038A80ED048AB7EE8F
:1054E000000A1430FFF7CAFE1438B7EE000A203065
:1054F000FFF7C4FE0021017380ED048A80ED058A68
:1055000080ED068A80ED078A80ED088A80ED098AA1
:1055100080ED0A8A9FED0F0A80ED0B0A80F83010AB
:1055200080F8311080ED0D8A80ED0E8A80ED0F8AB3
:1055300080ED108A80ED118A80ED128A80ED138A49
:1055400080ED148A80ED158A2038BDEC028B10BDE9
:10555000000000000000C8430A7980F82720037982
:105560009A4206D14A68120A028502681C31D26842
:1055700010477047CA798979DFED060A42EA0121AE
:1055800000EE101AB8EE400A80EE201A80ED051ADF
:10559000704700000000484270B504460D460020E8
:1055A000E06204F12C010E462846FFF72FF9A08493
:1055B00031462846FFF720F900EE100ADFED0B0A0E
:1055C000B8EEC00A20EE200A84ED0C0A31462846C7
:1055D000FFF712F900EE100ADFED050AB8EEC00A77
:1055E00080EE201A84ED0D1A70BD00000000C84244
:1055F00000007A4438B50B460821197390F826202C
:105600000021062A13D2DFE802F0120313233547E4
:105610000091017941F44071996090ED030A6A4666
:105620001846BDEEC00A10EE101AFFF702F938BD99
:105630000091017941F48071996090ED030A6A4606
:105640001846BDEEC00A10EE101AFFF7F2F838BD8A
:1056500000910179996090ED030ADFED170A6A461F
:10566000184620EE200ABDEEC00A10EE101AFFF711
:10567000E0F838BD0091017941F48061996090EDC6
:10568000030A0E486A46BDEEC00A10EE101A4143E6
:105690001846FFF7CEF838BD0091017941F400714A
:1056A000996090ED030A6A461846BDEEC00A10EEF6
:1056B000101AFFF7BEF838BD0050C34740420F0034
:1056C000028D092A04D0102A05D10268126A1047F7
:1056D0000268526B1047704710B5FFF78DF9054906
:1056E00001600021C1629FED040A80ED0C0A80ED8B
:1056F0000D0A10BDA88E00080000000070470000D1
:1057000010B50446914208D1E069A06123480068C1
:105710008047E061218B401AA08494F82000002289
:10572000012140F63403012807D0A08C984203D30E
:1057300004F8201F6270A27010BDA08C984203D3A1
:1057400004F8212F617010BDA0F2B63140F24C4335
:1057500099421FD894F821104B1C04EB410184F8A6
:105760002130C88494F821000828ECD30834E08B59
:105770002081208C6081A08CA081608CE081E08CF5
:105780002080208D6080608DA080A08DE0802276BA
:10579000627610BD84F8202010BD0000C0000020FB
:1057A00070B504462DED028B04F5C47594F81C0306
:1057B0009FED278A002809D0D4ED420AF4EEC00AF2
:1057C000F1EE10FA21D2B0EE600A25E0204600F09A
:1057D000D3F99FED200A00220121F0EE400A28466D
:1057E000FFF758FDF0EE480ABDEC028B28469FED0E
:1057F0001A1ABDE87040F0EE412A9FED182ADFED3D
:10580000181AB2EE040AFFF74DBDB5EEC00AF1EE6C
:1058100010FA01D2B0EE480A84ED650A94ED070A49
:1058200084ED640A2846FFF749FD84ED470AB4F980
:105830002C0000EE100AB8EEC00A84ED460A04F50A
:105840008870FFF73BFD84ED050ABDEC028B70BD4F
:1058500000000000CDCCCC3DCDCC4C3E0000F04350
:105860000000F04270B504462DED028B1646B0EEF6
:10587000408A94F81C03002846D004F51E709FED62
:10588000270ADFED278A04F50075B9B194ED121AE5
:10589000F0EE400AB0EE680AFFF78CFB84ED830A55
:1058A000B4F9580000EE100AB8EEC00A84ED820A7E
:1058B0002846FFF703FD84ED100A14E094ED121A58
:1058C000F0EE680AFFF776FB84ED830AB4F958001E
:1058D00000EE100AB8EEC00A84ED820A2846FFF7EF
:1058E000EDFC84ED100A96B1B1EE480A84ED1B0A76
:1058F00084ED298AB0EE000AF8EE080A28EE000AC4
:1059000080EE201A84ED371ABDEC028B70BDC4ED19
:105910001B8AC4ED298AC4ED378AF5E7000061C40B
:105920000000000010B514461A46002907D00129CE
:1059300004D1214600F50070FFF7ACFC10BD2146F4
:1059400000F58870FFF7A6FC10BD10B5002906D041
:10595000012903D100F50070FFF7A4FC10BD00F58C
:105960008870FFF79FFC10BD2DE9F04104462DED36
:10597000068BB0EE408A01254FF0000894F81C0316
:10598000DFED5E8A5E4E04F5C477002809D094ED01
:10599000420AB4EEC80AF1EE10FA29D2B0EE408AFB
:1059A0002DE0204600F0E8F8002201219FED550A85
:1059B0003846F0EE400AFFF76DFC9FED531AF0EE0B
:1059C000412A9FED522ADFED521AF0EE680AB2EE3C
:1059D000040A3846FFF766FC94ED070A86ED010AD3
:1059E00084F81C5386F80080BDEC068BBDE8F0817E
:1059F000B5EEC08AF1EE10FA01D2B0EE688AD4EDAD
:105A0000078A38EE689A307810B9C6ED018A357089
:105A100096ED010A78EE409AB0EE490A02F058FC81
:105A200010EE100AB0F17E5F01DA012500E00025DA
:105A300025B186F8008084EDC68AD5E7B0EE690A04
:105A400002F046FC10EE100A3249884210DDB0EE3A
:105A5000490A02F03DFCB0EE40AAB0EE690A02F03D
:105A600037FCCAEE000AB7EE000A30EE600A01E029
:105A7000B7EE000A10EE100A2749884201DA012128
:105A800000E000211E482438C0ED069A8170C0ED68
:105A9000088A457094EDC50A80ED040A80ED078AF6
:105AA0003278027080ED059A002A9DD061B194EDA4
:105AB000071A96ED010AF0EE480A04F53170FFF777
:105AC00079FA84ED470A0AE084ED658A94ED070AC5
:105AD00084ED640A3846FFF7F1FB84ED470AB4F918
