:020000040800F2
:1000000048630020C5030008D7680008015E0008A7
:10001000A5680008812600088D7A0008000000000D
:1000200000000000000000000000000005030008C0
:10003000C52F000800000000610300082D6A0008B9
:10004000DF030008DF030008DF030008DF03000808
:10005000DF030008DF030008DF030008DF030008F8
:10006000DF030008DF030008DF030008DF030008E8
:10007000612D0008712D0008812D0008912D0008C8
:10008000A12D0008B12D0008DF030008512700084A
:1000900085260008DF030008DF030008C72F0008DB
:1000A000DF030008DF030008DF030008DF030008A8
:1000B000DF030008D16B0008E16B0008DF030008D4
:1000C000DF030008DF030008DF030008DF03000888
:1000D000DF03000889760008A1760008B9760008D9
:1000E000DF030008DF030008DF030008DF03000868
:1000F000DF030008DF030008DF030008DF03000858
:10010000DF030008DF030008DF030008DF03000847
:100110003D6F0008DF030008DF030008DF0300086D
:10012000DF030008C12D0008D12D0008DF030008FF
:10013000DF030008DF030008DF030008DD270008F5
:1001400061270008DF030008DF030008DF03000861
:10015000DF030008E12D0008F12D0008D17600082A
:10016000DF030008DF030008DF030008DF030008E7
:10017000DF030008DF030008DF03000800000000C1
:10018000DF030008DF03000800F002F800F0ABF81E
:100190000AA090E8000C82448344AAF10107DA45E2
:1001A00001D100F0A0F8AFF2090EBAE80F0013F089
:1001B000010F18BFFB1A43F00103184700DB0000D2
:1001C00020DB00000A4410F8014B14F00F0508BFB3
:1001D00010F8015B240908BF10F8014B6D1E05D013
:1001E00010F8013B6D1E01F8013BF9D1641E03D0EC
:1001F000641E01F8015BFBD19142E4D3704700001B
:100200000023002400250026103A28BF78C1FBD81F
:10021000520728BF30C148BF0B6070476E2900F0FD
:10022000CB83702900F0158566290DF0FE816529C4
:100230000DF0FB8167290DF0F88161290DF0F78140
:1002400003681B0A28BF41F08001692900F0788308
:10025000642900F07583752900F072836F2900F01E
:10026000A284782900F0E184E92900F03D84E429A2
:1002700000F03A84F52900F03784EF2900F09F84DC
:10028000F82900F0E0840368DB0928BF41F0800111
:10029000632901F08182732901F08682E32901F04C
:1002A0009182F32901F09682002070471FB50DF06E
:1002B000B2F99DE8030000F003FE01F0E9FA040042
:1002C000002000210CF01AFB401C6060002000217F
:1002D0000CF0FEFAE06000F047FA1FBD10B50020F8
:1002E00000F086FD10BD01F0A5FA1146FFF7DEFF14
:1002F0000AF004FA01F09CFB03B4FFF7EFFF03BC24
:1003000001F092FA2C4B19680868B0E8F04F80F3BE
:100310000988BFF36F8F4FF0000080F3118870479A
:100320000000000008480068006880F308884FF06B
:10033000000080F3148862B661B6BFF34F8FBFF33D
:100340006F8F00DF00BF00BF08ED00E0DFF80C009A
:10035000016841F470010160704700BF88ED00E062
:10036000EFF30980BFF36F8F134B1A681EF0100F65
:1003700008BF20ED108A20E9F04F106009B44FF05B
:10038000500080F31188BFF34F8FBFF36F8F0BF0D6
:100390006DFB4FF0000080F3118809BC19680868F4
:1003A000B0E8F04F1EF0100F08BFB0EC108A80F3D9
:1003B0000988BFF36F8F70472C000020EFF3058092
:1003C000704700000948804709480047FEE7FEE7FC
:1003D000FEE7FEE7FEE7FEE7FEE7FEE7FEE7FEE7F5
:1003E00004480549054A064B70470000F96A0008B1
:1003F00089010008485D002048630020485F002014
:10040000485F002053EA020C00F069802DE9F04BB0
:100410004FF00006002B1FBFB3FA83F503FA05F473
:1004200024FA05F65E4012BF1643B2FA82F502FACC
:1004300005F4C5F120051EBF22FA05FC44EA0C04B0
:10044000203556EA044C4FEA144418BF641C4FF0A0
:1004500000084FF00009904271EB030C39D30029DA
:1004600019BFB1FA81F701FA07F6B0FA80F700FA7E
:1004700007F6C7F120071EBF20FA07FC46EA0C0664
:100480002037B6FBF4FCA7EB0507103F07F01F0B66
:10049000CBF120060CFA0BFB2CFA06F644BFB34650
:1004A0000026202FA4BF5E464FF0000B5BEA060C2F
:1004B00008BF4FF0010B19EB0B09ABFB027C48EBBB
:1004C0000608C01B06FB02CC0BFB03CC71EB0C0136
:1004D000C1E70B46024641464846BDE8F08B13B5DE
:1004E0004FF000004FF00001AFF30080BDE81C406A
:1004F000704700007CB51D4616460C00009001D0E8
:100500002044401E074B7B442A46694601903046F2
:1005100000F06BFA05461CB10020694600F078FA3D
:1005200028467CBD110500002DE9F041074615461F
:100530000E46102000F040F904000AD06760C4E9BC
:10054000026500F035F90168216004600020BDE813
:10055000F0810120FBE710B5431C02E010F8011BFD
:1005600071B18107FAD14FF0013202C88C1A8C4365
:1005700014EAC211F9D0C01A0A0603D0C01E10BD79
:10058000C01A10BD0A0401D0801E10BD0902FCD0A3
:10059000401E10BD032A40F2308010F0030C00F022
:1005A000158011F8013BBCF1020F624498BF11F8AD
:1005B00001CB00F8013B38BF11F8013BA2F1040266
:1005C00098BF00F801CB38BF00F8013B11F00303DE
:1005D00000F02580083AC0F0088051F8043B083A42
:1005E00051F804CBA0E80810F5E7121D5CBF51F8E4
:1005F000043B40F8043BAFF30080D20724BF11F85E
:10060000013B11F801CB48BF11F8012B24BF00F8C2
:10061000013B00F801CB48BF00F8012B704710B533
:10062000203AC0F00B80B1E81850203AA0E81850EA
:10063000B1E81850A0E81850BFF4F5AF5FEA027CAB
:1006400024BFB1E81850A0E8185044BF18C918C01A
:10065000BDE810405FEA827C24BF51F8043B40F8BB
:10066000043B08BF7047D20728BF31F8023B48BFA0
:1006700011F8012B28BF20F8023B48BF00F8012BDE
:10068000704702F0FF0343EA032242EA024200F00D
:10069000D2BB4FF0000200B513469446964620396F
:1006A00022BFA0E80C50A0E80C50B1F12001BFF42B
:1006B000F7AF090728BFA0E80C5048BF0CC05DF891
:1006C00004EB890028BF40F8042B08BF704748BFDF
:1006D00020F8022B11F0804F18BF00F8012B704753
:1006E0004FF0013C50F8042B51F8043B9A4221D1C1
:1006F000A2EB0C03934313EACC1317D150F8042B4D
:1007000051F8043B9A4215D1A2EB0C03934313EA30
:10071000CC130BD150F8042B51F8043B9A4209D169
:10072000A2EB0C03934313EACC13DBD04FF0000091
:10073000704700BFD01A01BAB1FA81F101F0180177
:1007400022FA01F0CB40C1F12001DBB2C0B2C01AE5
:100750002CFA01F3D11A914311EAC311E6D1704783
:10076000704770477047000070B5064C7C44064DDA
:100770007D4403E0206820448047241DAC42F9D129
:1007800070BD000098D60000B4D600002DE9F041FD
:1007900017460E46054633B107FB0354E41B2046BB
:1007A000B047A542FAD1A5F10800BDE8F0810000EC
:1007B00000487047205D002070B5064600F060FBE1
:1007C000056806F10B0020F00704B4429CBF00202E
:1007D00070BD2B466A68BAB11068A04210D304F10C
:1007E000080188423CBF5068586007D3516810190F
:1007F00041601168091B016058601460101D70BDD4
:1008000013465268002AE7D12146284600F044FBEF
:100810000028DED170BD70B50446051F00F030FB26
:100820000068002C14BF446870BD002C18BFAC4297
:100830003CBF20466468F8D301680A18AA4218BF72
:10084000456003D12A6805461144016028684119B2
:10085000A1421CBF6C6070BD61686960216808447A
:10086000286070BD10B500F00FFB006810BD10B51A
:10087000044600F009FB046010BD70B504468569AC
:100880000068C10601D5302600E02026C00707D049
:1008900070BDD4E9012130469047206A401C206297
:1008A0006D1EF6D570BD70B5044685690078C00729
:1008B00007D170BDD4E9012120209047206A401C57
:1008C00020626D1EF6D570BD09684A0501D540B29B
:1008D0007047C905FCD500B2704709684A0501D5C3
:1008E000C0B27047C905FCD580B2704770B50C46E0
:1008F0000546012A05D02878800600D5EA6900233C
:1009000002E0012305E05B1C934202D2E05C002878
:10091000F9D1A869E618C01AA861286A18442862A3
:100920002846FFF7AAFF04E0D5E9012114F8010BDE
:100930009047B442F8D32846FFF7B5FF70BD0000DA
:100940002DE9F0410646002410687529314616A5A8
:1009500010D0FFF7B9FF002802DA404213A507E0E4
:1009600031688A0701D512A502E0490704D511A50F
:10097000012401E0FFF7B1FF00210A2206F124075C
:1009800009E0B0FBF2FCB0FBF2F302FB1C003030DC
:1009900078541846491C0028F3D123462A4630468D
:1009A000BDE8F04100F007BB000000002D00000092
:1009B0002B0000002000000011680268006A530547
:1009C00001D508700AE0D30501D5088006E01306BA
:1009D00003D5C217C1E9000200E00860012070479A
:1009E00001694A1C02610878704700B58FB0CDE9F3
:1009F00001310021059105497944CDE903101146E3
:100A0000684600F031F90FB000BD0000E5FFFFFFC0
:100A10000A6802F8010B0A607047D1E900239A4284
:100A200002D2531C0B601070704700002DE9FF5F6D
:100A300015468A460446DFF8AC80F8440027D8E91A
:100A400000103E46CDE9001010E03AF816106A4654
:100A500002A800F0C3FE411C07D02178890603D507
:100A6000E269391891420DD80744761C2078800637
:100A700002D5E069B84205DDAE42E6DB3AF8160081
:100A80000028E2D1A069C01BA0612046FFF7F5FE57
:100A9000D8E90010CDE90010002017E03AF818104E
:100AA0006A4602A800F09AFEB0F1FF3F81460BD0E3
:100AB00000250DF1080B05E0D4E901211BF8050024
:100AC00090476D1C4D45F7D308F10100B0428046B8
:100AD000E4DB206A384420622046FFF7E4FEBDE8EC
:100AE000FF9F000062CF00002DE9F0418046D21D3B
:100AF00022F007020025D2E90002F52915A614D03C
:100B0000011E72F1000106DA0023D0EB030063EB53
:100B1000020211A608E0D8F800108B0701D50FA635
:100B200002E0490701D50EA601251146002408F16F
:100B3000240704E000F0FAF930323A55641C50EA18
:100B40000102F7D12B46324621464046BDE8F0412E
:100B500000F031BA000000002D0000002B00000062
:100B60002000000030B4002100F1240408E002F06D
:100B70000705D208303542EA4372DB086554491C48
:100B800052EA0305F3D10468002310A2250707D514
:100B9000A40600D421B1C46901230DA2641EC4615E
:100BA00030BC00F008BA10B5044621461068FFF7C3
:100BB00094FE02462046BDE810400023D2E7D21D35
:100BC00022F00701D1E90023CCE70000000000007B
:100BD00030000000F0B40D460188090502D5214C13
:100BE0007C4402E01F4C7C440E34002100F12406BA
:100BF00008E002F00F071209E75D42EA03721B09E1
:100C00007754491C52EA0307F3D1027800231207F4
:100C100004D5702D06D009B1022311342246F0BC50
:100C200000F0C9B901231034F8E770B504460D4649
:100C300021461068FFF751FE024629462046BDE8CE
:100C400070400023C6E7D21D22F00703D3E900233A
:100C5000C0E70368126843F0200303600823C36100
:100C60000023B7E7C4CD00002DE9F05F89460446B4
:100C70004FF0000ADFF874B1FB44C0F820A0204612
:100C8000E1688847002874D0252806D0D4E90121DE
:100C90009047206A401C2062F1E700265F4620460C
:100CA000E16888472028054607DB312D05D27819F1
:100CB00010F8200C08B10643F1E7B00701D526F083
:100CC0000406C4F81CA00027C4F818A02A2D09D0D7
:100CD000284609F0D1FC38B304EB8708303DC8F84A
:100CE000185019E059F8041B204604EB8702916163
:100CF000E1688847012F054618D1E069002820DA0D
:100D000026F020061DE0D8F8180000EB800005EB67
:100D100040003038C8F818002046E168884705468A
:100D200009F0AAFC0028EED1012F0AD02E2D08D1FF
:100D30002046E16888477F1C0546022F46F02006C2
:100D4000C4DBA069002803DA404246F00106A06136
:100D5000F00701D026F010066C2D0BD0682D09D0BD
:100D60004C2D39D06A2D35D0742D35D07A2D33D015
:100D700016E038E0E1682F4620468847B84205462D
:100D800009D16C2F26D04FF48060E16806432046DD
:100D90008847054604E06C2F1AD04FF48070064354
:100DA0000DB3A5F14100192802D8203546F400669C
:100DB0004A462946204626604E46FFF72FFA80B164
:100DC00001280BD0F61D26F0070000F1080956E7B0
:100DD0004020E4E78020D8E70020D6E706F10409A8
:100DE0004DE7284652E7206ABDE8F09F54CD000049
:100DF0002DE9F0410646FFF7DBFC8046454613E04F
:100E000016B1E068B0420ED120682860D4E9010133
:100E1000D8F8007088472046FFF7FDFCD8F800009E
:100E2000B842EBD100E025462C68002CE8D1BDE8A3
:100E3000F0814FF000020429C0F0128010F0030C82
:100E40003FF429ACCCF1040CBCF1020F18BF00F840
:100E5000012BA8BF20F8022BA1EB0C01FFF71BBC54
:100E60005FEAC17C24BF00F8012B00F8012B48BFCA
:100E700000F8012B7047000000487047E85C002034
:100E800000487047F05C002000487047E85C002094
:100E9000704770477047704738B504460A460020CF
:100EA0006946AFF30080002808BF38BD02460099AC
:100EB000204600F0F1FC012038BD012000F0DABD31
:100EC000F8B5AFF30080054600200C46102000BFA7
:100ED0000646A819A0420DD9324669460020AFF354
:100EE0000080070008BF00F0C5FD0098A04218BFB1
:100EF0000546C419FFF7C4FF05600746F01D20F042
:100F000007004619284600F00AF8B44208BFF8BDA9
:100F1000A21B31463868BDE8F84000F0BDBC002196
:100F20000160C0E9011070471020704730B5B0F182
:100F30000A024FEA900E71F100034EEA817EB0EB97
:100F40000E0061EB91014FEA101E4EEA017E10EB9C
:100F50000E0041EB11114FEA102E4EEA016E10EB1C
:100F60000E0041EB11214FEA104E4EEA014E10EBFC
:100F70000E0041EB1141401841F100014FEAD00051
:100F800040EA41704FEAD10110EB80054FEA81043D
:100F900044EA907444EB01046D1944EB0404521BC1
:100FA000A3414FF0000348BF0A3200D530BD401CBA
:100FB00041F1000130BD2DE9F0470D4699469246BA
:100FC000044600F124080168880604D5E06921F090
:100FD0001001216000E00120A84201DD471B00E074
:100FE0000027A1697A1902EB0900081AA06120788C
:100FF000C00602D42046FFF740FC002608E0D4E9F2
:1010000001211AF806009047206A401C761C2062D5
:101010004E45F4DB2078C0060AD52046FFF72DFCAC
:1010200006E0D4E9012130209047206A401C20626C
:10103000381EA7F10107F4DC07E0D4E9012118F814
:1010400005009047206A401C2062281EA5F101057A
:10105000F3DC2046FFF727FC2078000602D50220AB
:10106000BDE8F0870120FBE770472DE9FF4F0C46F4
:101070001E464FF0FF378BB0D2E90001DDF86080EB
:101080000A908A46C1F30A5505B93D460021084633
:101090004FF00000BAF1000F00F4400005DA00EB59
:1010A00080004FF4400101EA50004FEA9059B9F135
:1010B000010F00DDB9460A9850EA4A000ED044F606
:1010C0001050A5F2FF3545432F14B8F1000F1ED084
:1010D0007542291E1EDDC9F100021CE0B8F1010FA6
:1010E0004FF0000001D0302103E0F24305E021542D
:1010F000401CB042FBDB30460022002121540B99FA
:10110000C1F80880C1E900200FB0BDE8F08FBD1B19
:101110006D1CDEE74A4600DA694206A800F016FCBC
:1011200006AB93E8070003AB83E8070050460A9933
:1011300000F0D8FC8DE80700A0F500501F380090A3
:101140000398002D0ADD42F21F014A46084400239D
:1011500003A90390684600F041FF09E0A0F50050A4
:101160004A461F38002303A90390684600F04BFF4E
:101170008DE807000004000C03D04FF0FF30410859
:1011800000E01046B8F1000F03D00022009215468F
:101190001EE0751E05D4FFF7C9FE303262556D1E84
:1011A000F9D5B3460122084302D000227F1C04E097
:1011B0002078302801D100227F1E002A099784D090
:1011C0001DE0112D07DAFFF7B1FE303262556D1CBC
:1011D00050EA0102F5D1084302D00098C8B10EE0F0
:1011E0000021681E05E0235C625C63542254401EAB
:1011F000491C8142F7DBAB46A81B401E099000202A
:1012000004F80B000B98099AC0F80880C0E9002B7D
:101210007AE711264FF0000857E72DE9F04F88468E
:101220000446D21D22F0070191B0D1E90001CDE9B9
:101230000A0108F08CFC02460B98C00F01D02D204B
:1012400007E02068810701D52B2002E0202101EA78
:10125000C000032A099001D0072A05DB0346414656
:10126000204600F033FB0BE12078800601D5E069D1
:1012700000E00620B8F1650F814606D0B8F1660F90
:1012800018D0B8F1670F70D131E00020B9F1110F1B
:10129000009001DB112301E009F101030AAA01A971
:1012A0000CA8FFF7E2FEDDE90C70002609F101054C
:1012B000834647E001204B4600904FF000470AAAC2
:1012C00001A90CA8FFF7D1FEDDE90DB00C995D4630
:1012D000002610B909F101000D18B9EB050003D47F
:1012E000C0F1FF3609F10105A5EB09002BE0B9F1CA
:1012F000010F01DA4FF001090020B9F1110F009040
:10130000484601DD112300E003460AAA01A90CA802
:10131000FFF7ABFEDDE90C704D46002683462078D2
:1013200000070AD4AB4500DA5D4601A8012D04DDB3
:10133000411911F8011C302907D04F4502DA17F185
:10134000040F04DA012082460FE06D1EEEE7002F45
:1013500002DCED1B3E4403E0781CA84200DD7D1C4E
:10136000B81B00F1010A4FF000472078000703D4B2
:10137000AA4501DB4FF0FF3A0021B7F1004F0DF114
:1013800043088DF8431024D002202B23002F01DACC
:101390007F422D230A21021EA0F1010000DC5FB173
:1013A00097FBF1FC97FBF1F201FB1C7C17460CF15B
:1013B000300C08F801CDEEE7A8F101000370218898
:1013C000090501D5452100E06521A0F1010800F8DB
:1013D000011C09980FA9A1EB0807FF1D00B101200E
:1013E000411901EBEA70A1693844081A401EA06156
:1013F0002078C00602D42046FFF73FFA099828B1AA
:10140000D4E901219047206A401C20622078C00660
:1014100022D52046FFF731FA1EE0002E04DBB3454B
:1014200002DD01A8805D00E03020D4E90121904771
:10143000206A401C2062761CAAF101005FEA000AC3
:101440000AD100F025FAC0680168405CD4E90121A6
:101450009047206A401C2062281EA5F10105DCDCB3
:1014600007E0D4E9012118F8010B9047206A401CDD
:101470002062381EA7F10107F3DC2046FFF713FABC
:10148000032011B041E600002DE9F04F04460D465F
:10149000D21D22F0070089B0D0E9009748463946AE
:1014A00008F055FB0246F80F01D02D2307E0206815
:1014B000810701D52B2302E0202101EAC0038DF82A
:1014C00020300BB1012000E00020032A824601D029
:1014D000072A04DB2946204600F0F8F93FE120788E
:1014E000800601D40D2500E0E569C7F30A560D2DED
:1014F00049DA00214FEA175B08464FF00000002F41
:1015000000F4400007DA00EB80004FF4400100EBEC
:10151000D07001EA60008115012901DD4FF0FF3133
:1015200000224FEA850CBCF1180F06D31346ACF12C
:1015300018004FF08052C24003E04FF4801323FAAA
:101540000CF30CF10C0CBCF1200F04D3ACF1200C0B
:1015500009FA0CF001E007FA0CF000294FF00048FE
:1015600001DD18B90FE00ED140450CD319EB02098B
:101570005F4121B9404502D19F4329EA0209BBEBF3
:10158000175F00D0761C2088000502D57B48784480
:1015900002E07A487844193808AA302302F80A3061
:1015A000037C0AF10101002E0AF1020A53546A4633
:1015B00002DC4FF0300101E04FF031014FF0010843
:1015C0008DF8001002D0A6F2FF3603E059EA470179
:1015D00000D06B4E002D02DC2178090704D54FF0B6
:1015E00002082E218DF80110C44600210BE0C7F33C
:1015F00003433F01C35C491C6D1E02F808300529F6
:1016000008F1010801DA002DF1DC00210CE000EB0B
:101610001973491C1B786D1E082902F808304FEA1F
:10162000091908F1010801DA002DF0DC21688B06A8
:1016300002D516E0A8F10108E04505DD02EB08033C
:1016400013F8013C302BF5D0B8F1000F09DD02EBA7
:10165000080313F8013C2E2B03D1090701D4A8F18C
:101660000108002D05DD3E2102F808106D1E08F16D
:101670000108407C002E02F8080008F1010804DA95
:101680002D20764202F8080002E02B2002F8080024
:101690000A214FF47A70864208F101080BDB96FBB1
:1016A000F0F3303302F8083096FBF0F308F101084C
:1016B00000FB136601E0642E0CDB642096FBF0F364
:1016C000303302F8083096FBF0F308F1010800FB14
:1016D000136601E00A2E06DB96FBF1F0303002F8CB
:1016E000080008F1010896FBF1F001FB10603030B2
:1016F00002F80800A16908F1010808EB050202EBF5
:101700000A00081AA0612078C00602D42046FFF71C
:10171000B4F8216A08AE01EB0A00206204E0D4E9C3
:10172000012116F8010B9047BAF1010AF7D220788F
:10173000C00602D52046FFF7A0F86E4609E016F86D
:10174000010B3E280FD0D4E901219047206A401CAC
:101750002062B8F10108F2D22046FFF7A4F809B0E0
:101760000320BDE8F08F206A2844206203E0D4E91A
:101770000121302090476D1EEBD3F8E785C40000AF
:1017800002FCFFFF10B5436913B1AFF3008001E025
:10179000FFF7ACF8012010BD127800F124010A70A7
:1017A00000224A700122EDE711684FF0FF32E9E7AD
:1017B00010B5436913B1AFF3008001E0FFF736F9CC
:1017C000012010BD128800F1240182840022C2840D
:1017D0000122EDE711684FF0FF32E9E770B51646D8
:1017E0000C46054600F04CF8036893F80101012807
:1017F00006D0FF2C0FD8185D68B101202C7070BD89
:10180000D3F807013246214603F207130344284662
:10181000BDE8704018474FF0FF3070BD002801D080
:1018200000F002B87047000001491820ABBEFEE787
:10183000260002007546FFF71FFBAE46050069460D
:10184000534620F00700854618B020B5FEF7C8FDC6
:10185000BDE820404FF000064FF000074FF00008B1
:101860004FF0000B21F00701AC46ACE8C009ACE832
:10187000C009ACE8C009ACE8C0098D46704700005B
:1018800010B500F005F8001D10BD00BF71B00000DC
:1018900000487047085D0020034640688C460028D9
:1018A00018BF88423CBF03464068F8D31868184404
:1018B000884207D00CF1030020F00700001D411AF8
:1018C000521A0146081D0A60FEF7A5BF2DE9F04136
:1018D0001F46044603260168072A01F4006004DB62
:1018E00008B116A505E016A503E008B115A500E0AE
:1018F00015A521F010002060A069C01EA0610FB1E5
:10190000401EA0612046FEF7B8FF4FB1D4E9012187
:1019100038469047206A401C2062C01C206206E0C6
:10192000206AFAE7D4E9012115F8010B9047761EE9
:10193000F8D22046FEF7B7FFBDE8F0814E414E00D9
:101940006E616E00494E4600696E66002DE9F047F3
:10195000814616468AB0354878440DC88DE80D009A
:1019600032487844801C03AC0DC884E80D0041F671
:101970009B300844372190FBF1F290FBF1F5A5F183
:10198000800501FB12041B3C02D56442012000E0EB
:101990000020DFF898A080460027FA44AAF1BE0A8A
:1019A0000EE0E0070AD03246684607EB4701012304
:1019B0000AEB810100F027FB8DE8070064107F1C13
:1019C000002CEED1194F7F44AE3F19E0E80715D047
:1019D00007EB04100DF1180A90E80E008AE80E00DB
:1019E000C068F04201D1981908903246012306A937
:1019F00003A800F008FB03AB83E807006D10641C2C
:101A0000002DE3D14FF0010332466946B8F1000FD3
:101A100003A802D000F0E2FA01E000F0F4FAC9E90C
:101A20000001C9F808200AB0BDE8F0874CC10000E9
:101A300010B50446AFF300802046BDE81040FEF725
:101A40005BBC70B505460C460A2000E06D1C00F03A
:101A500018F835B128780028F8D102E0641C00F0AD
:101A600010F814B120780028F8D1BDE870400A20A1
:101A700000F007B810B500F00DF8BDE81040FFF712
:101A8000CDBE08B569468DF800000320ABBE08BD89
:101A90007047000010B5012805D0002103A0FFF712
:101AA000D0FF012010BD09A1F8E7000053494752BB
:101AB000544D454D3A204F7574206F66206865611E
:101AC00070206D656D6F7279000000003A204865E6
:101AD0006170206D656D6F727920636F72727570C1
:101AE000746564005FEA400C08BF91F0000F4FEA94
:101AF0008C234FEAC12243EA51514FEA1C5018BFD0
:101B000000F5F0404FEA300018BF41F000415FEAB5
:101B10006C5C00F02980BCF1FF3F08BF40F08040C2
:101B20007047130C06BF12044FF0100C4FF0000C5E
:101B3000130E04BF12020CF1080C130F04BF1201A4
:101B40000CF1040C930F04BF92000CF1020CD30FA4
:101B500004BF52000CF1010C11464FF00002A0F13D
:101B60001F00A0EB0C00704711F0004F08BF70473A
:101B700031F000413FF4D5AF0B0C06BF09044FF024
:101B8000100C4FF0000C0B0E04BF09020CF1080CF6
:101B90000B0F04BF09010CF1040C8B0F04BF89006B
:101BA0000CF1020CCB0F04BF49000CF1010CCCF17D
:101BB0002003A0EB0C0022FA03F302FA0CF241EA34
:101BC000030100F10100704720F07F4C80EA030020
:101BD00023F07F47ACEB070303F57C5300F0004094
:101BE00003F1FF032DE980494FEA154B09B44FEA91
:101BF000144325EA0B4E24EA03480FF2042606EBB1
:101C0000132749083E785FEA320203FB0667C7F5EF
:101C1000000707FB06F64FEA54374FEAD64606F1AF
:101C2000020607FB066CCCF1005C4FEA1C472CEA6D
:101C3000074C07FB06F40CFB06F504EB15464FEAD0
:101C4000961634BF00204FF000404FEAD13706FB14
:101C500007FC4FEA1C4C0CFB0BF7D21B03FB0CF7E9
:101C600061EB07010CFB0EF7B0EB074072EB17427C
:101C70000CFB08F734BFA2EB0742B2EB074261EB63
:101C800017414FEA0C444FEA910706FB07FC4FEA65
:101C90001C4C0CFB0BF7B0EBC74072EB573203FB4D
:101CA0000CF734BFA2EBC742B2EBC74261EB57312E
:101CB0000CFB0EF7B0EBC70072EB57720CFB08F78A
:101CC00034BFA2EBC702B2EBC70261EB5771039FAF
:101CD0004FEA816141EA921104EBCC044FEAD1371B
:101CE0004FEA826206FB07FC42EA90124FEA8060EC
:101CF0004FEA1C4C0CFB0BF7D21B03FB0CF761EB00
:101D000007010CFB0EF7B0EB074072EB17420CFB20
:101D100008F734BFA2EB0742B2EB074261EB174171
:101D20004FEA8C554FEA910704EB9C2406FB07FC15
:101D30004FEA1C4C0CFB0BF7B0EBC74072EB573271
:101D400003FB0CF734BFA2EBC742B2EBC74261EB17
:101D500057310CFB0EF7B0EBC70072EB57720CFB60
:101D600008F734BFA2EBC702B2EBC70261EB5771B1
:101D700015EB4C254FEA816141EA92114FEA8262EC
:101D80004FEAD13742EA901206FB07FC44F1000407
:101D90004FEA80604FEA1C4C0CFB0BF7D21B03FB95
:101DA0000CF761EB07010CFB0EF7B0EB074072EB91
:101DB00017420CFB08F734BFA2EB0742B2EB074215
:101DC00061EB174115EB1C154FEA813141EA924155
:101DD0004FEA823242EA90424FEA80304FEA0C7674
:101DE00044F1000448EA03434EEA0B484FF0000E6A
:101DF000B2EB080C71EB030724BF624639464EEB89
:101E00000E0E4FF0000B0018524149414BEB0B0BEB
:101E1000B2EB080C71EB03077BF1000B24BF6246A9
:101E200039464EEB0E0E4FF0000B0018524149415F
:101E30004BEB0B0BB2EB080C71EB03077BF1000BC8
:101E400024BF624639464EEB0E0E51EA020718BF18
:101E500046F0010616EB0E7655F1000254F1000132
:101E600003D5BDE88901BDE80088BDE88901BDE86A
:101E70000048B619524141EB0101A3F1010370473B
:101E800080807F7E7D7C7B7A7978777676757473B7
:101E9000727171706F6E6E6D6C6C6B6A6A69686876
:101EA000676666656464636362616160605F5F5E0C
:101EB0005E5D5D5C5C5B5B5A5A5959585857575682
:101EC00056555555545453535252525151505050E7
:101ED0004F4F4F4E4E4D4D4D4C4C4C4B4B4B4A4A39
:101EE0004A4949494848484747474746464645457D
:101EF00045444444444343434342424242414141B6
:101F0000002B9C4630D477002BD01CB54FEA370706
:101F100003B44FF010004FF01001BAF1000F06D0DB
:101F2000BCF1000FDCBF40F0080040F008014FF0AA
:101F300000000FBCBDE810400BF1010BBBF1010F1D
:101F400008BF5FEA170722BF12F1010211F1010178
:101F50004FF0004143F1000300F0004043EA00006D
:101F60007047F9D35708D0E746EA064613F1400F09
:101F70004FEA16461FDD13F1200FDFBF16430A4656
:101F8000002120335B42BED0C3F1200746EA06465B
:101F900002FA07F74FEA164646EA0706C3F120079A
:101FA00022FA03F201FA07F721FA03F14FF00003D6
:101FB00042EA0702A7E746EA020646EA06464FEA71
:101FC000164646EA0106BCBF46EA0646360C4FF006
:101FD00000034FF000024FF0000194E72DE9804C20
:101FE0009A46934670B491E8380007C831EA400C2D
:101FF00048BF34EA430C03D5FFF7E6FDFFF780FF47
:10200000F0BCBDE8008C2DE9804C9A46934670B434
:1020100091E8380007C810F0804F08BF13F0804FD8
:1020200003D100F005F8FFF76BFFF0BCBDE8008CB2
:1020300020F07F4780EA030023F07F4C07EB0C037E
:10204000A3F57C5300F00040A3F1FE0392F0000FD3
:1020500000F0B38095F0000F00F077802DE9014982
:102060004FEA11404FEA144621EA004800FB06FC03
:1020700024EA064708FB06F607FB08F800FB07F70B
:1020800018EB06484CEB164C4FEA124B18EB07487E
:102090004FEA15464CEB174022EA0B4E0BFB06FCB1
:1020A00025EA06470EFB06F607FB0EFE0BFB07F7BD
:1020B0001EEB064E4CEB164C4FF000061EEB074E87
:1020C0004CEB174B18EB0B0840F1000018EB0E0B14
:1020D00058EB000840F100008F1A4FF000013CBFA0
:1020E000C943661B14BFB5EB040C00213CBFC943B8
:1020F000F61B4FEA17444EEA8E0E27EA04454FEAD4
:102100001C4704FB07622CEA074C05FB07F70CFB96
:1021100005F604FB0CFC16EB074642EB174216EBE8
:102120000C4642EB1C421BEB060658EB02024141F7
:1021300046EA9E0601D5BDE80189B619524141EB38
:102140000101A3F10103BDE801894FEA14454FEAFB
:10215000114724EA054621EA074C05FB07F406FB74
:1021600007F70CFB06F105FB0CFC11EB074144EBF8
:1021700017444FEA124711EB0C4144EB1C4422EA8E
:10218000074C05FB07F206FB07F70CFB06F605FB01
:102190000CFC16EB074642EB174216EB0C4642EBE3
:1021A0001C456A1854F1000148BF7047B6195241E6
:1021B00041EB0101A3F10103704795F0000F37D007
:1021C0004FEA11424FEA144721EA024624EA074C3B
:1021D00002FB07F106FB07F70CFB06F402FB0CFC05
:1021E00014EB074441EB17414FEA154714EB0C443D
:1021F00041EB1C4125EA074C02FB07F506FB07F7FC
:102200000CFB06F602FB0CFC16EB074645EB1745EC
:1022100016EB0C4645EB1C42121951F1000148BF68
:102220007047B619524141EB0101A3F10103704718
:102230004FEA14454FEA114724EA054621EA074CC4
:1022400005FB07F106FB07F70CFB06F24FF0000653
:1022500005FB0CFC12EB074241EB174112EB0C4261
:1022600051EB1C4148BF7047921841EB0101A3F1AB
:10227000010370472DED068B88B0EE48007800F022
:10228000010050B9EB4807F0BBFC30B1EA4800212F
:1022900080F82810E748AFF3008000BFE748008AC5
:1022A000B0F5AF6F08DDE548008AB0F5C86F03DA16
:1022B00040F2DC50E1490882E048408AB0F5AF6F57
:1022C00008DDDE48408AB0F5C86F03DA40F2DC5022
:1022D000DA494882D948808AB0F5AF6F08DDD7481F
:1022E000808AB0F5C86F03DA40F2DC50D3498882A7
:1022F000D248C08AB0F5AF6F08DDD048C08AB0F5CB
:10230000C86F03DA40F2DC50CC49C882CB48008A5F
:1023100048B9CA48408A30B9C848808A18B9C748FD
:10232000C08A00287DD0C5494989A1F57A700AF094
:10233000C8FCB0F5C87F75DDC049498A40F2DC525F
:10234000501A0AF0F7FE41EC1A0B9FEDBD0B53EC4F
:10235000102B0AF097FD41EC190B9FEDBB0B53ECD2
:10236000102B0AF0FFFE41EC180B0AF0B1FCB24949
:102370004860B249098A40F2DC52501A0AF0DAFE8B
:1023800041EC1A0B9FEDAE0B53EC102B0AF07AFDCB
:1023900041EC190B9FEDAC0B53EC102B0AF0E2FE55
:1023A00041EC180B0AF094FCA3490860A349898A00
:1023B000A1F2DC500AF0BEFE41EC1A0B9FEDA00B1F
:1023C00053EC102B0AF05EFD41EC190B9FEDA00BB6
:1023D00053EC102B0AF0C6FE41EC180B0AF078FC07
:1023E000954948619549C98AA1F2DC500AF0A2FEDC
:1023F00041EC1A0B9FED920B53EC102B0AF042FDAF
:1024000041EC190B9FED920B53EC102B0AF0AAFE36
:1024100041EC180B0AF05CFC8749886187494989BF
:1024200001E0F4E0D7E0A1F2DC500AF04AFC3228E7
:1024300048DA0220804981F8200080490989A1F505
:102440007A700AF03EFC322826DA01207A4981F8B7
:102450002100002081F82200012081F825000020C1
:1024600081F826007549C989A1F57A700AF029FC1E
:10247000322804DA0020704981F82700BFE06F4954
:10248000C989A1F5FA600AF01CFC3228F6DA0120AD
:10249000694981F82700B2E068490989A1F5FA6025
:1024A0000AF00FFC3228E9DA0220634981F82100A2
:1024B000042081F82200002081F82500012081F805
:1024C00026009CE05D494989A1F5FA600AF0F9FB14
:1024D0003228D3DA0120584981F820005749098968
:1024E000A1F5FA600AF0EDFB322804DA0620524921
:1024F00081F821000BE051490989A1F57A700AF0B1
:10250000E0FB322803DA02204B4981F821004A48D7
:1025100090F82100062819D14849C989A1F57A7097
:102520000AF0CFFB322804DA0220434981F8220066
:1025300019E04249C989A1F5FA600AF0C2FB3228C4
:1025400011DA03203C4981F822000CE03A4890F867
:102550002100012807D1384981F82200002081F8A4
:10256000230081F82400344890F82200032804D086
:10257000314890F82200022841D130498989A1F5DB
:102580007A700AF09EFB322806DA00202A4981F888
:10259000230081F8240032E028498989A1F2DC5027
:1025A0000AF08FFB322807DA0120234981F8230043
:1025B000002081F8240022E020498989A1F5FA60F1
:1025C0000AF07FFB32281ADA01201B4981F8230028
:1025D00081F8240013E00020174981F8200081F8D9
:1025E000210081F8220081F8230081F824000120D5
:1025F00081F82500002081F8260081F827000023BB
:102600001A460D491448006809F030FC0EE02021FC
:102610006846FEF73EF8202210496846FDF7FFFFA6
:10262000202269460448FDF7FAFF00BF012008F0A8
:1026300089F833E65C01002080530020D851002047
:102640000000000000407F40000000000000084043
:1026500000000000000000403001002040D70008CA
:1026600010B500221146044804F0C5F905F018FA27
:10267000024807F087F910BD440200200530000829
:1026800000BFFEE710B5024800F0F5FE10BD0000E7
:10269000AC01002010B50446A06898BB2068A0F2E9
:1026A000012007282DD2DFE800F0040A112C181EA3
:1026B000250004F11C01144805F007FC21E004F199
:1026C0001C0111482C3005F000FC1AE004F11C013B
:1026D0000D48583005F0F9FB13E004F11C010B48DC
:1026E00005F0F3FB0DE004F11C0108482C3005F067
:1026F000ECFB06E004F11C010448583005F0E5FB52
:1027000000BF00BF10BD0000405500201858002039
:102710001FB500BF4FF0FF3269460B48006809F053
:10272000F7FC0128F6D100BF084800F089FEC4B2CA
:10273000002CF9D09DF80C30029881B26A4603480B
:1027400007F0BFFFE6E700001C010020AC010020FD
:1027500010B5024800F08FFE10BD0000AC01002053
:1027600010B5024800F087FE10BD0000D401002023
:1027700010B50446A06804280DD12146064806F08D
:10278000D1FA21460448383006F0CCFA21460248F6
:10279000703006F0C7FA10BD9C5800201FB500BF6E
:1027A0004FF0FF3269460B48006809F0B1FC012880
:1027B000F6D100BF00BF084800F042FEC4B2002CB2
:1027C000F9D09DF80C306A460348029907F05BFF88
:1027D000E6E7000020010020D401002010B50248E7
:1027E00000F049FE10BD0000D4010020F0B58BB010
:1027F00007460C4615461E4604F0020080B1E80468
:102800000190E80004F0030140EA41000290F00466
:102810000390F00004F0030140EA4100049009E055
:1028200068010190A007400F029070010390A0077B
:10283000400F0490E0100690C4F380000590012042
:10284000099000200790012008900E200A9001A90D
:10285000384600F0A5FC08B100F0BAFB0BB0F0BDA3
:1028600070B504460D46204601F005F908B100F0A8
:10287000AFFB0121204600F0D3FB08B100F0A8FB1C
:102880000221204600F0CCFB08B100F0A1FB102192
:10289000204600F0C5FB08B100F09AFB084920680B
:1028A000884203D107480560002070BD06492068B2
:1028B000884203D1054805600020F6E70120F4E7CF
:1028C00000640040AC00002000680040B000002020
:1028D0002DED048B8EB003200823FE4AFE490090A4
:1028E000FE4805F0E4FF02200823FD4AFD49009060
:1028F000FA4805F0DCFF01200823FB4AFB49009061
:10290000F64805F0D4FF00BF0122F949F9480068F4
:1029100009F0FEFB012872D1F74890ED010AF0EEB4
:10292000401A90ED000AB0EE401AF449F448D0ED98
:10293000000AF44890ED000AE84805F03DFFEF4832
:10294000D0ED000AB0EE600AEF48D0ED000AFDEECF
:10295000E00A10EE900A05F0A3F900EE100AB8EEB6
:10296000C00AE94880ED000AE448D0ED000AB0EE64
:10297000600AE548D0ED000AFDEEE00A10EE901A7C
:10298000D64805F06DFFDD4880ED020AD84890F882
:10299000210001280BD11422D5490C316846FDF7DE
:1029A0003EFED3480EC8D94805F03DFCC4E0D048EF
:1029B00090F8210005280ED1202106A8FDF769FE18
:1029C000142209A96846FDF72AFED04806A90EC9B7
:1029D00005F029FCB0E0C64890F8210003280FD18B
:1029E000202106A8FDF755FE142209A96846FDF727
:1029F00016FEC64806A90EC905F015FC9CE063E169
:102A0000BB4890F8210002284CD1B94890ED000A4B
:102A100010EE101A08460AF08DFD41EC190B9FEDDF
:102A2000BC0B53EC102B0AF09DFB41EC180B0AF089
:102A30004FF9AF490860084690ED010A10EE101AF0
:102A400008460AF077FD41EC190B9FEDB10B53ECF2
:102A5000102B0AF087FB41EC180B0AF039F9A44956
:102A60004860084690ED050A10EE101A08460AF074
:102A700061FD41EC190B9FEDA60B53EC102B0AF0F6
:102A800071FB41EC180B0AF023F9994948611422B3
:102A90000C316846FDF7C3FD95480EC89B4805F00C
:102AA000C2FB49E0924890F8210004280ED1202171
:102AB00006A8FDF7EEFD142209A96846FDF7AFFD53
:102AC000924806A90EC905F0AEFB35E0884890F89B
:102AD000210070B9202106A8FDF7DBFD142209A909
:102AE0006846FDF79CFD894806A90EC905F09BFBC9
:102AF00022E07F4890F8210006280ED1202106A868
:102B0000FDF7C7FD142209A96846FDF788FD7F4837
:102B100006A90EC905F087FB0EE0202106A8FDF7E7
:102B2000B8FD142209A96846FDF779FD774806A982
:102B30000EC905F078FB00BF6D4890F8220002280E
:102B40002DD16B4890ED060AF6EE000AB4EEE00ACD
:102B5000F1EE10FA09DD704890ED000ADFED6F0A22
:102B600030EE200A80ED000A12E0614890ED060A7E
:102B7000FEEE000AB4EEE00AF1EE10FA08D2664862
:102B800090ED000ADFED650A30EE600A80ED000A84
:102B9000614890ED000A624806F0BAFA36E05448FF
:102BA00090F82200032805D19FED5E0A5C4806F0EC
:102BB000AFFA2BE04E4890F82200042805D19FED93
:102BC0005A0A574806F018FC20E0494890F82200BD
:102BD00028B99FED560A524806F09AFA16E0444882
:102BE00090F8220001280CD14D48083090ED050ADC
:102BF0004F4880ED000A90ED000A494806F088FA37
:102C000004E09FED4A0A464806F0F6FB384890F883
:102C1000230038B99FED450A00221146404806F0CE
:102C2000E9FA19E0324890F82300012814D130481D
:102C300090F8240040B93F4890ED000A012200219D
:102C4000374806F0D7FA07E03A4890ED000A01222B
:102C50001146334806F0CEFA254890F825000128A1
:102C600004D100212E4806F0FFF90CE0204890F82E
:102C7000250020B901212A4806F0F6F903E00021D9
:102C8000274806F0F1F91A4890F82700012808D1E2
:102C900029490870002301222848006809F0E6F855
:102CA0000CE0134890F8270040B900202249087032
:102CB000002301222148006809F0D8F8134805F0E4
:102CC0007BF9174806F0B2FC1A4800680AF032FC9B
:102CD00036E00000E0D7000860D70008785C0020EC
:102CE00020D90008A0D8000880D8000800D8000823
:102CF0004C5C00203001002040520020A45C0020E9
:102D0000800100207C01002084010020E854002084
:102D1000333333333333D33F700100200AD7233D9D
:102D2000105800200000A042000096430000000060
:102D300074010020780100208C0100204001002057
:102D400041EC180B53EC182B03A007F0ADFD01204C
:102D500007F0F8FCD8E5000025660D0A0000000029
:102D600010B5024800F028FF10BD0000200600202A
:102D700010B5024800F020FF10BD0000E003002065
:102D800010B5024800F018FF10BD000080060020BA
:102D900010B5024800F010FF10BD000040040020F4
:102DA00010B5024800F008FF10BD000060050020CB
:102DB00010B5024800F000FF10BD0000C005002063
:102DC00010B5024800F0F8FE10BD0000E00600203B
:102DD00010B5024800F0F0FE10BD00000005002014
:102DE00010B5024800F0E8FE10BD000040070020CA
:102DF00010B5024800F0E0FE10BD0000A004002065
:102E00000146087810381823B0FBF3F20848805CBC
:102E1000C865032A05D908686FF30900001D886595
:102E200003E008686FF309008865886D704700004B
:102E30000CD70008014600208A6A8B69CBB932B1F1
:102E4000012A0DD0022A03D0032A10D10EE000BFC0
:102E5000CB6A03F08073B3F1807F00D1012007E0DB
:102E6000CB6AB3F1C07F00D1012001E000E000BFD8
:102E700034E08B69B3F5005F1AD132B1012A07D073
:102E8000022A03D0032A11D10AE000BF01200EE07C
:102E9000CB6A03F08073B3F1807F00D1012006E09C
:102EA000CB6AB3F1C07F00D1012000E000BF15E084
:102EB00032B1012A05D0022A04D0032A0CD103E042
:102EC00000BF00BF012008E0CB6A03F08073B3F1BC
:102ED000807F00D1012000E000BF00BF704730B507
:102EE0000468246824F4802405682C600468636006
:102EF0008468402C04D10468A2600468E16003E0A7
:102F00000468A1600468E26030BD000010B50022D2
:102F10001021082008F0C0FE20490860002210217E
:102F2000082008F0B9FE1E49086000220C21042088
:102F300008F0B2FE1B49086000220C21042008F0B2
:102F4000ABFE1949086000222021042008F0A4FEED
:102F50001649086000222C21042008F09DFE144927
:102F6000086000220421022008F096FE1149086042
:102F700000220121084608F08FFE0F490860002258
:102F80000F21012008F088FE0C49086000220F2163
:102F9000012008F081FE0A49086010BD1C010020D4
:102FA0002001002024010020280100202C01002005
:102FB00030010020340100204001002038010020B1
:102FC0003C010020704710B5802000F0DFFF10BDED
:102FD00072B600BFFEE700BFFEE70000064991EDB4
:102FE000020ADFED060A20EE200ADFED050A80EE78
:102FF000201A80ED001A704740520020DB0F494034
:1030000000003443044800680068406A03490968C6
:10301000C1EB014108447047B8000020B400002013
:1030200010B5024692F82030012B01D0022B06D1B8
:1030300010684069084314686061002010BD506A40
:1030400040F4802050620120F8E7F0B504460D46B8
:103050001E4694F8207020688368A86800B900E0D4
:1030600000BF012F01D0022F7CD103F0806030B966
:1030700003F0006018B903F08050002873D0C3F348
:103080000161022905D9606A40F4000060620120F4
:10309000F0BD012088403060A86860B9B5F800C074
:1030A000E86840EA4C5C206800F5C07000EB011055
:1030B000C0F800C00FE0D5E901C040EACC00D5F867
:1030C0000CC040EA0C00D4F800C00CF5C07C0CEB3E
:1030D000011CCCF80000D5F810C0206800F5C070C5
:1030E00000EB0110C0F804C0287D01280ED1206833
:1030F00000F5C07000EB0110406840F4807C20684F
:1031000000F5C07000EB0110C0F804C0D0790006D3
:1031100092F806C040EA0C4092F805C040EA0C2C38
:1031200010794CEA000C206800F5C07000EB01102B
:10313000C0F80CC0D078000692F802C040EA0C40FB
:1031400092F801C040EA0C2092F800C040EA0C005E
:10315000D4F800C00CF5C07C0CEB011CCCF80800C6
:10316000206801E016E00FE000F5C07000EB0110F0
:10317000006840F0010C206800F5C07000EB011001
:10318000C0F800C0002083E7606A40F4001060626D
:1031900001207DE7606A40F480206062012077E7CB
:1031A000F0B504460A46216894F82050012D01D05C
:1031B000022D7ED1424901F50071086840F00100FE
:1031C0000860086820F47C5008600868566A40EA85
:1031D00006200860107D00F01F06012000FA06F3AB
:1031E000C8699843C861A1F50071D069C8B9D1F820
:1031F0000C029843C1F80C02908880B2968940EA8C
:10320000064601F51070576940F83760108880B2A3
:10321000168940EA064601F51070576900EBC700B1
:103220004660D069012819D1D1F80C021843C1F8C1
:103230000C02908880B2168840EA064601F51070AC
:10324000576940F83760908980B2168940EA06468F
:1032500001F51070576900EBC7004660906928B906
:10326000D1F804029843C1F8040204E0D1F8040242
:103270001843C1F80402106928B9D1F81402984320
:10328000C1F8140204E0D1F814021843C1F8140282
:10329000106A012804D1D1F81C021843C1F81C029D
:1032A000D1F8000220F00100C1F800020020F0BDBA
:1032B000FFE7606A40F4802060620120F7E70000C9
:1032C00000640040704770B5044694F82050012D0A
:1032D00001D0022D7DD151B92068C06800F00300F3
:1032E00080B9606A40F400106062012070BD2068FF
:1032F000006900F0030028B9606A40F400106062C1
:103300000120F3E7206800F5D87000EB0110006899
:1033100000F004009060906840B9206800F5D87013
:1033200000EB01100068400D106007E0206800F518
:10333000D87000EB01100068C0085060206800F5EC
:10334000D87000EB0110006800F00200D060206827
:1033500000F5D87000EB0110406800F00F0010611C
:10336000206800F5D87000EB0110406800F47F4041
:10337000000A9061206800F5D87000EB01104068E9
:10338000000C5061206800F5D87000EB01108068D7
:103390001870206800F5D87000EB0110806800F408
:1033A0007F40000A5870206800F5D87000EB0110CB
:1033B000806800F47F00000C9870206800F5D870D9
:1033C00000EB01108068000ED870206800F5D870FE
:1033D00000E02FE000EB0110C0681871206800F5D4
:1033E000D87000EB0110C06800F47F40000A5871EB
:1033F000206800F5D87000EB0110C06800F47F0071
:10340000000C9871206800F5D87000EB0110C068BE
:10341000000ED87131B92068C06840F020002668DD
:10342000F06005E02068006940F020002668306107
:1034300000205BE7606A40F480206062012055E76D
:103440000146002091F82020012A01D0022A11D142
:103450000B689B6803F0806303B1401C0B689B689A
:1034600003F0006303B1401C0B689B6803F08053BA
:1034700003B1401C70472DE9F05F04460025206829
:1034800046692068D0F80490206887682068D0F8E2
:103490000CA02068D0F810B02068D0F8188006F092
:1034A0000100002855D007F00100C0B101202168BB
:1034B000886007F0020018B1204600F00CFB0EE017
:1034C00007F0040010B145F4006508E007F00800BB
:1034D00010B145F4805502E0204600F0FBFA07F4F5
:1034E0008070C8B14FF480702168886007F4007064
:1034F00018B1204600F0F1FA0EE007F4806010B138
:1035000045F4005508E007F4006010B145F480452B
:1035100002E0204600F0E0FA07F48030C8B14FF432
:1035200080302168886007F4003018B1204600F030
:10353000D6FA0EE007F4802010B145F4004508E00B
:1035400007F4002010B145F4803502E0204600F079
:10355000C5FA06F0080038B10AF0100020B145F4B1
:10356000007510202168C86006F0040040B10AF020
:10357000080028B108202168C860204600F01EFA23
:1035800006F0020038B12068C06800F0030010B1F6
:10359000204600F015FA06F0400038B10BF010009C
:1035A00020B145F4806510202168086106F02000F4
:1035B00040B10BF0080028B10820216808612046BE
:1035C00000F02AFA06F0100038B12068006900F017
:1035D000030010B1204600F021FA06F4003040B19B
:1035E00009F0100028B1102021684860204600F042
:1035F00041FA06F4803040B109F0080028B10820F3
:1036000021684860204600F06BFA06F4004088B359
:1036100009F0040078B306F4807020B108F00100CE
:1036200008B145F0010506F4007020B108F0020071
:1036300008B145F0020506F4806020B108F00400EE
:1036400008B145F0040506F40060A0B108F0700070
:1036500088B108F07000402817D006DC10280BD085
:1036600020280CD0302819D10CE0502810D0602828
:1036700014D110E01DE019E045F008050FE045F019
:1036800010050CE045F0200509E045F0400506E096
:1036900045F0800503E045F4807500E000BF00BF01
:1036A0002068806920F0700021688861042021680A
:1036B00048602DB1606A284360622046FFF702FE31
:1036C000BDE8F09F70B504460CB9012070BD94F8B8
:1036D000200010B9204600F0AFF82068006840F0E4
:1036E00001002168086000F059FD05460DE000F07A
:1036F00055FD401B0A2808D9606A40F4003060621A
:10370000052084F820000120E0E72068406800F0F0
:1037100001000028EBD02068006820F0020021683A
:10372000086000F03BFD05460DE000F037FD401B52
:103730000A2808D9606A40F400306062052084F8E5
:1037400020000120C2E72068406800F00200002845
:10375000EBD1207E012806D12068006840F080006F
:103760002168086005E02068006820F0800021687A
:103770000860607E012806D12068006840F04000A3
:103780002168086005E02068006820F0400021689A
:103790000860A07E012806D12068006840F0200063
:1037A0002168086005E02068006820F0200021689A
:1037B0000860E07E012806D12068006820F0100033
:1037C0002168086005E02068006840F0100021686A
:1037D0000860207F012806D12068006840F00800BA
:1037E0002168086005E02068006820F00800216872
:1037F0000860607F012806D12068006840F004005E
:103800002168086005E02068006820F00400216855
:103810000860D4E90201084321690843616908434B
:103820006168491E08432168C86100206062012068
:1038300084F82000002049E710B586B00446142122
:1038400001A8FCF726FF57492068884249D156480D
:103850000068401C544908600846006801280FD1E0
:1038600000BF002000905148006840F000704F49B0
:1038700008600846006800F00070009000BF00BFBC
:1038800000BF0020009049481038006840F0080050
:103890004649103908600846006800F008000090AA
:1038A00000BF00BF0320019002200290002003907F
:1038B000032004900920059001A93D4800F074FB05
:1038C00000220521132000F02DFD132000F01AFD29
:1038D00000220521142000F025FD142000F012FD27
:1038E0005DE034492068884259D100BF0020009033
:1038F0002E48006840F080602C4908600846006847
:1039000000F08060009000BF00BF27480068401CA6
:10391000254908600846006801280FD100BF002033
:1039200000902248006840F0007020490860084676
:10393000006800F00070009000BF00BF00BF0020D2
:1039400000901A481038006840F0020017491039FA
:1039500008600846006800F00200009000BF00BF49
:103960004FF4405001900220029000200390032069
:1039700004900920059001A90F4800F015FB0022D2
:1039800005213F2000F0CEFC3F2000F0BBFC0022D0
:103990000521402000F0C6FC402000F0B3FC06B03A
:1039A00010BD0000006400401800002040380240B4
:1039B000000C024000680040000402407047000014
:1039C00010B504460F4884420BD10F4BA3F11C02E3
:1039D00000212046FFF777FC0B481C380B4909688B
:1039E00088470B4884420BD1074BA3F11C020021EE
:1039F0002046FFF768FC04481C38064909688847D8
:103A000010BD0000AC010020F8500020AC000020E8
:103A1000D4010020B00000207047000010B504461B
:103A20000F4884420BD10F4BA3F11C020121204609
:103A3000FFF749FC0B481C380B49096888470B48BD
:103A400084420BD1074BA3F11C0201212046FFF752
:103A50003AFC04481C3806490968884710BD000034
:103A6000AC0100201C510020AC000020D40100203B
:103A7000B0000020704770B5044694F8200001287B
:103A800022D1022084F820002068006820F0010084
:103A90002168086000F082FB05460DE000F07EFB27
:103AA000401B0A2808D9606A40F400306062052093
:103AB00084F82000012070BD2068406800F00100FB
:103AC0000028EBD16062F6E7606A40F40020606293
:103AD0000120F0E7704770477047704770477047A4
:103AE000704770B50446A56D00F058FB064694F883
:103AF0003500022808D08020606500BF002084F8CF
:103B0000340000BF012070BD2068006820F016005E
:103B1000216808602068406920F0800021684861C1
:103B2000206C08B9A06C28B12068006820F008005B
:103B3000216808602068006820F0010021680860A2
:103B400010E000F02BFB801B05280BD920206065BE
:103B5000032084F8350000BF002084F8340000BF43
:103B60000320D0E72068006800F001000028E8D1B9
:103B700094F85C103F208840A860012084F835004C
:103B800000BF002084F8340000BF00BFBBE701463F
:103B900091F83500022803D0802048650120704745
:103BA000052081F835000868006820F001000A68E7
:103BB00010600020F3E70000F8B5044600200090F4
:103BC0008C4800684FF41651B0FBF1F7A56D2E68D4
:103BD00094F85C1008208840304098B12068006854
:103BE00000F0040070B12068006820F00400216833
:103BF000086094F85C1008208840A860606D40F070
:103C00000100606594F85C1001208840304068B184
:103C10002068406900F0800040B194F85C100120F9
:103C20008840A860606D40F00200606594F85C1008
:103C300004208840304068B12068006800F002002D
:103C400040B194F85C1004208840A860606D40F09A
:103C50000400606594F85C1010208840304078B310
:103C60002068006800F0080050B394F85C10102041
:103C70008840A8602068006800F4802080B1206837
:103C8000006800F4002028B9206CC8B12046216CDF
:103C9000884715E0A06C98B12046A16C88470FE0DA
:103CA0002068006800F4807028B92068006820F05F
:103CB000080021680860206C10B12046216C8847FC
:103CC00094F85C10202088403040002865D020689F
:103CD000006800F0100000285FD094F85C102020ED
:103CE0008840A86094F83500052828D1206800682D
:103CF00020F01600216808602068406920F08000EC
:103D000021684861206C08B9A06C28B1206800685F
:103D100020F008002168086094F85C103F2088407B
:103D2000A860012084F8350000BF002084F834002A
:103D300000BF206D10B12046216D8847F8BD206876
:103D4000006800F4802080B12068006800F4002042
:103D500028B9606C10B12046616C88471DE0E06BAB
:103D6000D8B12046E16B884717E02068006800F46E
:103D7000807068B92068006820F010002168086031
:103D8000012084F8350000BF002084F8340000BF13
:103D9000E06B10B12046E16B8847606D38B3606D11
:103DA00000F00100F0B1052084F8350020680068BB
:103DB00020F001002168086000BF0098401C0090BE
:103DC000B84200D905E02068006800F00100002832
:103DD000F3D100BF012084F8350000BF002084F833
:103DE000340000BFE06C10B12046E16C884700BF92
:103DF000A4E70000280000202DE9F041044600253A
:103E000000F0CCF9074614B90120BDE8F081606AE2
:103E100000B100BF022084F8350000BF002084F804
:103E2000340000BF2068006820F0010021680860AD
:103E30000AE000F0B3F9C01B052805D92020606511
:103E4000032084F83500E0E72068006800F00100F6
:103E50000028EED12068056821480540D4E9010119
:103E60000843E16808432169084361690843A1697F
:103E70000843E1690843216A08430543606A04284E
:103E800003D1D4E90B01084305432068056020688D
:103E9000456925F00705606A0543606A04280DD16D
:103EA000A06A0543E06A48B12046FEF7C3FF28B187
:103EB00040206065012084F83500A6E72068456150
:103EC0002046FEF79DFF064694F85C103F20884090
:103ED000B06000206065012084F83500002094E780
:103EE0003F8010F02DE9F04704460D4616461F4668
:103EF0004FF00008D4F8589000BF94F8340001281F
:103F000002D10220BDE8F087012084F8340000BF10
:103F100094F83500012825D1022084F835000020CE
:103F200060653B46324629462046FEF7D8FF94F8A6
:103F30005C103F208840C9F808002068006840F005
:103F4000160021680860206C28B12068006840F0E5
:103F50000800216808602068006840F001002168BE
:103F6000086006E000BF002084F8340000BF4FF076
:103F700002084046C6E7000010B5044680222146EC
:103F8000014805F00DF810BDD851002010B50446C9
:103F900004480068204020B1024804602046FFF732
:103FA000EBFF10BD143C0140F8B502460B4600255E
:103FB000002400200021D6E0012606FA01F51E6843
:103FC00006EA0504AC4274D11E7906F00306012E00
:103FD00004D01E7906F00306022E13D190684F001C
:103FE0000326BE40B0434F00DE68BE4030439060C1
:103FF000506801268E40B0431E79C6F300168E40ED
:10400000304350601E7906F00306032E09D0D068B5
:104010004F000326BE40B0434F009E68BE40304371
:10402000D0601E7906F00306022E13D1CF0802F1EC
:10403000200656F827004E07F70E0F26BE40B04365
:104040004F07FF0E1E69BE403043CF0802F1200625
:1040500046F8270010684F000326BE40B0431E7983
:1040600006F003064F00BE40304310605E6806F461
:104070004036002E76D000BF002600963C4E3668B3
:1040800046F480463A4F3E603E46366806F4804627
:10409000009600BF00BF374E8F0856F827008E07E6
:1040A000370F0F26BE40B043334EB24202D1002636
:1040B00024E057E0314EB24201D101261EE0304EDD
:1040C000B24201D1022619E02E4EB24201D103269E
:1040D00014E02D4EB24201D104260FE02B4EB24225
:1040E00001D105260AE02A4EB24201D1062605E09A
:1040F000284EB24201D1072600E008268F073F0F65
:10410000BE4030431B4E8F0846F82700224E3068D1
:10411000A0435E6806F4801606B120431E4E306050
:10412000361D3068A0435E6806F4001606B12043D1
:10413000194E361D3060184E361F3068A0435E6839
:1041400006F4003606B12043134E361F3060361F8A
:104150003068A0435E6806F4803606B120430E4EF8
:10416000083E3060491C1029FFF426AFF8BD00005E
:104170004438024008380140000002400004024078
:1041800000080240000C02400010024000140240EF
:1041900000180240001C0240083C01400148006831
:1041A000704700001C00002003480068034909789C
:1041B00008440149086070471C00002024000020CA
:1041C00010B50D48006840F400700B4908600846BF
:1041D000006840F4806008600846006840F4807021
:1041E0000860032000F0DCF80F2000F007F800F072
:1041F0005FF8002010BD0000003C02402DE9F041B6
:1042000088B004460027B84600BF0020019023482C
:10421000006840F00200214908600846006800F08C
:104220000200019000BF00BF02A903A800F08EF9B0
:10423000069F1FB900F0B2F9054602E000F0AEF9A2
:1042400045001748B5FBF0F0A0F1010815481649E4
:10425000086040F2E7311448C160C0F804800021D2
:1042600001618160816100F0BBFC064696B90E4891
:1042700000F026FD06466EB91D2000F043F8102C14
:1042800007D2002221461D2000F04CF807480460A8
:1042900000E00126304608B0BDE8F0814038024019
:1042A00040420F0000040040A00700202000002032
:1042B00008B500BF002000901148006840F480401D
:1042C0000F4908600846006800F48040009000BF75
:1042D00000BF00BF00200090081F006840F0805021
:1042E000091F08600846006800F08050009000BF79
:1042F00000BF00220F21901E00F014F808BD00003E
:104300004438024001460846002809DB00F01F033C
:1043100001229A4043099B0003F1E023C3F80021E6
:1043200000BF70472DE9F05F80460D461646002716
:1043300005F038FC074639462A46334601F00700A7
:10434000C0F1070ABAF1040F02D94FF0040A01E0E4
:10435000C0F1070AD14600F1040ABAF1070F02D2F0
:104360004FF0000A01E0A0F1030AD4464FF0010A21
:104370000AFA09FAAAF1010A0AEA020A0AFA0CFA86
:104380004FF0010B0BFA0CFBABF1010B0BEA030B2B
:104390004AEA0B042146404605F00CFCBDE8F09FBC
:1043A00000BF00F00702064B19684FF6FF031940E3
:1043B000044B0B4343EA0221014B196000BF7047D5
:1043C0000CED00E00000FA0570B504460D460CB98E
:1043D000012070BD5848006800F00700A84209D2CB
:1043E00055490D700846006800F00700A84201D04A
:1043F0000120EEE7207800F0020002281DD120788D
:1044000000F00400042805D14C48006840F4E05056
:104410004A490860207800F00800082805D147487C
:10442000006840F46040454908604448006820F056
:10443000F000A168084341490860207800F00100BD
:10444000A8B36068012807D13C4808380068C0F369
:104450004040B8B90120BCE76068022802D060681B
:10446000032807D1354808380068C0F3406048B9D0
:104470000120AEE7314808380068C0F3400008B9B1
:104480000120A6E72D48006820F00300616808437A
:104490002A490860FFF782FE064609E0FFF77EFE24
:1044A000801B41F28831884202D9032091E707E05E
:1044B0002248006800F00C006168B0EB810FEDD17C
:1044C0001D48006800F00700A84209D91A490D707C
:1044D0000846006800F00700A84201D0012078E7F4
:1044E000207800F00400042807D11448006820F464
:1044F000E050E168084311490860207800F00800A6
:10450000082808D10D48006820F46040216940EA7D
:10451000C1000A49086000F061F808490968C1F360
:104520000311074A515CC840064908600648006804
:10453000FFF764FE00204CE7003C024008380240D0
:1045400014D7000828000020200000200F2202605D
:104550000D4A126802F0030242600B4A126802F030
:10456000F0028260084A126802F4E052C260064A11
:10457000126802F46042D2080261044A126802F032
:1045800007020A607047000008380240003C024001
:1045900001480068704700002800002000B5FFF7C0
:1045A000F7FF04490968C1F38221034A515CC840FE
:1045B00000BD00000838024024D7000800B5FFF70E
:1045C000E7FF04490968C1F34231034A515CC8401E
:1045D00000BD00000838024024D700082DE9F0474C
:1045E000002400250026A1462548006800F00C00A4
:1045F00020B1042805D008283AD105E0DFF88490DE
:1046000039E0DFF8849036E01D48001F006800F0B4
:104610003F041B48001F006800F4800078B11A486E
:104620001749091F0968C1F38811A0FB01700146F1
:10463000224600233846FBF7E5FE05460EE011480A
:104640000F49091F0968C1F38811A0FB01700146D9
:10465000224600233846FBF7D5FE05460848001FD2
:104660000068C0F30140401C4600B5FBF6F902E0CB
:10467000DFF8109000BF00BF4846BDE8F08700009B
:10468000083802400024F40000127A00F8B504460D
:104690000CB90120F8BD207800F00100002874D08A
:1046A000F948006800F00C0004280DD0F6480068B6
:1046B00000F00C00082813D1F348001F006800F434
:1046C0008000B0F5800F0BD1EF4808380068C0F3C8
:1046D0004040002859D06068002856D10120D9E711
:1046E00000BF6068B0F5803F08D1E748083800682F
:1046F00040F48030E449083908601EE06068B0F595
:10470000A02F0DD1E0480838006840F48020DE4931
:10471000083908600846006840F4803008600CE002
:10472000D9480838006820F48030D7490839086033
:104730000846006820F48020086000BF606890B1DF
:10474000FFF72CFD054606E0FFF728FD401B642817
:1047500001D903209EE7CC4808380068C0F34040E8
:104760000028F1D011E0FFF719FD054606E0FFF73C
:1047700015FD401B642801D903208BE7C248083887
:104780000068C0F340400028F1D1207800F002001A
:1047900002285FD1BC48006800F00C0058B1BA484C
:1047A000006800F00C0008281CD1B748001F006802
:1047B00000F48000B0B9B44808380068C0F3400085
:1047C00020B1E068012801D0012063E7AE48083835
:1047D000006820F0F800216940EAC100AA490839C0
:1047E000086037E0E06800B30120A8490860FFF7DF
:1047F000D5FC054606E0FFF7D1FC401B022801D995
:10480000032047E7A04808380068C0F340000028AC
:10481000F1D09D480838006820F0F800216940EA8E
:10482000C10099490839086014E0002097490860E0
:10483000FFF7B4FC054606E0FFF7B0FC401B02287A
:1048400001D9032026E7904808380068C0F34000EB
:104850000028F1D1207800F0080008282CD16069E8
:10486000A8B101208A490860FFF798FC054606E0D8
:10487000FFF794FC401B022801D903200AE7824875
:104880006C300068C0F340000028F1D014E0002034
:104890007F490860FFF782FC054606E0FFF77EFCD3
:1048A000401B022801D90320F4E677486C300068E9
:1048B000C0F340000028F1D1207800F00400042863
:1048C00070D1002770483830006800F0805090B9EF
:1048D00000BF002000906C483830006840F08050E5
:1048E0006949383108600846006800F0805000903F
:1048F00000BF00BF01276748006800F48070B0B9AE
:104900006448006840F4807062490860FFF746FC24
:10491000054606E0FFF742FC401B022801D90320B0
:10492000B8E65C48006800F480700028F2D000BF50
:10493000A068012808D154486830006840F00100A0
:104940005149683108601DE0A06805280DD14E4826
:104950006830006840F004004B4968310860084640
:10496000006840F0010008600CE0474868300068CB
:1049700020F001004449683108600846006820F0D2
:104980000400086000BFA068A8B1FFF707FC054657
:1049900009E0FFF703FC401B41F28831884202D94D
:1049A000032077E626E0384868300068C0F340000E
:1049B0000028EED013E0FFF7F1FB054608E0FFF713
:1049C000EDFB401B41F28831884201D9032061E6AA
:1049D0002D4868300068C0F340000028EFD1012F57
:1049E00007D129483830006820F0805026493831F6
:1049F000086000BFA069002845D02348006800F087
:104A00000C0008285DD0A069022845D100201F496C
:104A10000866FFF7C3FB054606E0FFF7BFFB401B38
:104A2000022801D9032035E6174808380068C0F38A
:104A300040600028F1D1D4E907010843616A40EAE7
:104A400081110122A06AC2EB500041EA00412C20F2
:104A5000005D41EA00600C49091F086001200B4914
:104A60000866FFF79BFB054606E0FFF797FB401B38
:104A7000022801D903200DE6034808380068C0F376
:104A800040600028F1D049E0083802400000474269
:104A9000800E474200700040002021490866FFF761
:104AA0007DFB054606E0FFF779FB401B022801D994
:104AB0000320EFE51B480068C0F340600028F2D1F6
:104AC0002CE0A069012800D1E4E51648001D066825
:104AD000A069012820D006F48001E06981421BD141
:104AE00006F03F01206A814216D147F6C07030407F
:104AF000616AB0EB811F0FD106F440310122A06A38
:104B0000C2EB5000B1EB004F06D106F070612C20D3
:104B1000005DB1EB006F01D00120BBE50020B9E5DD
:104B200000004742003802407047704730B50246E7
:104B30000B4600BF92F83C00012801D1022030BD95
:104B4000012082F83C0000BF022082F83D0010687E
:104B500044681068816824F0700418680443106881
:104B60004460184D1068A8421BD01068B0F1804F07
:104B700017D0154D1068A84213D0144D1068A842E4
:104B80000FD0134D1068A8420BD0124D1068A842E8
:104B900007D0114D1068A84203D0104D1068A842EC
:104BA00005D121F08001586801431068816001201F
:104BB00082F83D0000BF002082F83C0000BF00BF2B
:104BC000BDE7000000000140000400400008004074
:104BD000000C00400004014000400140001800406B
:104BE00010B504460CB9012010BD94F83D0028B959
:104BF000002084F83C00204600F026F8022084F8CB
:104C00003D00211D206801F0F3FF012084F84600DB
:104C100000BF84F83E0001213F200155402001558E
:104C20004120015500BF00BF012084F8420043200D
:104C30000155442001554520015500BF012084F84D
:104C40003D000020D0E7000038B50446194920682F
:104C5000884218D100BF002000901748006840F03B
:104C60000400154908600846006800F00400009040
:104C700000BF00BF002205211E20FFF753FB1E20AE
:104C8000FFF740FB15E00D492068884211D100BFB5
:104C9000002000900848001D006840F400300649DC
:104CA000091D08600846006800F40030009000BF4D
:104CB00000BF38BD000800404038024000440140B9
:104CC000014691F83D00012801D0012070470220E3
:104CD00081F83D000868C06840F001000B68D860AA
:104CE0001A4B086898421BD00868B0F1804F17D063
:104CF000174B0868984213D0164B086898420FD09B
:104D0000154B086898420BD0144B0868984207D09E
:104D1000134B0868984203D0124B086898420CD194
:104D20000868806800F00702062A0CD0086800684E
:104D300040F001000B68186005E00868006840F06A
:104D400001000B6818600020C0E70000000001406F
:104D50000004004000080040000C00400004014036
:104D600000400140001800402DE9F04104460D4686
:104D7000002700BF94F83C00012802D10220BDE8C2
:104D8000F081012084F83C0000BF022084F83D003F
:104D90002068866826F0770626F47F4620688660BD
:104DA0002868502833D00CDC202850D004DC0028A0
:104DB0004BD0102851D149E0302849D040284CD15F
:104DC00039E060282DD0702807D0B0F5805F03D07F
:104DD000B0F5005F41D10DE041E0D5E902136A680A
:104DE000206801F082FF2068866846F07706206818
:104DF000866034E0D5E902136A68206801F075FF27
:104E00002068806840F480402168886027E0EA6874
:104E10006968206802F05AF85021206801F070FF9C
:104E20001DE0EA686968206802F063F86021206884
:104E300001F066FF13E0EA686968206802F046F84E
:104E40004021206801F05CFF09E000BF00BF00BF07
:104E50002968206801F054FF01E0012700BF00BF6E
:104E6000012084F83D0000BF002084F83C0000BF12
:104E7000384684E7704710B5044620680069C0F3DF
:104E80004000D8B12068C068C0F34000B0B16FF0F6
:104E9000020021680861012020772068806900F005
:104EA000030018B12046FFF7E5FF05E0204600F0BB
:104EB000DDF8204600F091F9002020772068006995
:104EC000C0F38000D8B12068C068C0F38000B0B1E2
:104ED0006FF0040021680861022020772068806953
:104EE00000F4407018B12046FFF7C4FF05E02046EB
:104EF00000F0BCF8204600F070F900202077206810
:104F00000069C0F3C000D8B12068C068C0F3C00019
:104F1000B0B16FF008002168086104202077206894
:104F2000C06900F0030018B12046FFF7A3FF05E0B9
:104F3000204600F09BF8204600F04FF90020207733
:104F400020680069C0F30010D8B12068C068C0F3C1
:104F50000010B0B16FF010002168086108202077C0
:104F60002068C06900F4407018B12046FFF782FF46
:104F700005E0204600F07AF8204600F02EF90020E7
:104F800020772068006900F0010058B12068C068EF
:104F900000F0010030B16FF0010021680861204687
:104FA00000F0A2F920680069C0F3C01058B1206871
:104FB000C068C0F3C01030B16FF080002168086194
:104FC0002046FFF7B1FD20680069C0F3801058B19A
:104FD0002068C068C0F3801030B16FF040002168D5
:104FE0000861204600F094F920680069C0F3401081
:104FF00058B12068C068C0F3401030B16FF0200095
:10500000216808612046FFF790FD10BD10B586B0FD
:105010000446142101A8FBF73CFB11492068884293
:105020001CD100BF002000900E48006840F0200016
:105030000C4908600846006800F02000009000BF9E
:1050400000BF4020019002200290002003900490B5
:105050000320059001A90448FEF7A6FF06B010BD85
:1050600000440140303802400014024070472DE9EE
:10507000F04104460D461646002700BF94F83C0058
:10508000012802D10220BDE8F081012084F83C0013
:1050900000BF36B1042E1BD0082E31D00C2E5ED1AD
:1050A00045E02946206801F035FE2068806940F01F
:1050B0000800216888612068806920F00400216868
:1050C000886120688069296908432168886148E00F
:1050D0002946206801F056FE2068806940F400608F
:1050E000216888612068806920F480602168886177
:1050F00020688069296940EA01202168886130E0E0
:105100002946206801F07CFE2068C06940F0080054
:105110002168C8612068C06920F004002168C86166
:105120002068C069296908432168C86119E02946D7
:10513000206801F0A1FE2068C06940F40060216889
:10514000C8612068C06920F480602168C861206857
:10515000C069296940EA01202168C86101E001278E
:1051600000BF00BF00BF002084F83C0000BF3846ED
:1051700089E710B504460CB9012010BD94F83D0034
:1051800028B9002084F83C00204600F025F80220D1
:1051900084F83D00211D206801F02AFD012084F8DB
:1051A000460000BF84F83E0001213F200155402009
:1051B00001554120015500BF00BF012084F8420085
:1051C00043200155442001554520015500BF0120D1
:1051D00084F83D000020D0E77047704770B5044662
:1051E0000D4615B994F83E000BE0042D02D13F2086
:1051F000005D06E0082D02D14020005D01E0412065
:10520000005D012801D0012070BD1DB9022084F885
:105210003E000EE0042D03D102213F20015508E09D
:10522000082D03D102214020015502E00221412036
:10523000015501222946206801F046FD23492068D6
:10524000884203D022492068884201D1012000E031
:10525000002028B12068406C40F400402168486478
:105260001A49206888421BD02068B0F1804F17D0BF
:1052700018492068884213D01749206888420FD007
:105280001649206888420BD011492068884207D00F
:1052900013492068884203D01249206888420CD103
:1052A0002068806800F00706062E0CD02068006891
:1052B00040F001002168086005E02068006840F0C7
:1052C00001002168086000209EE700000000014006
:1052D000000401400004004000080040000C0040B1
:1052E000004001400018004010B5044606492068FF
:1052F000884201D1FEF758FF04492068884201D155
:1053000002F0BCFB10BD000000040040000800409B
:105310007047704770B50446002520684069C0F3A7
:10532000C01594F83D00212817D1B5B100BF00BFCA
:105330002168143151E8001F21F0800021681431E8
:1053400041E80002002AF3D100BF606B10B1606B2E
:10535000FEF7C7FB204601F010FF20684069C0F34C
:10536000801594F83E00222817D1B5B100BF00BFC8
:105370002168143151E8001F21F0400021681431E8
:1053800041E80002002AF3D100BFA06B10B1A06B6E
:10539000FEF7A7FB204601F0AAFE002070BD704773
:1053A0002DE9F84F0446206805682068C668206823
:1053B00047694FF00009CA4605F00F09B9F1000F1F
:1053C0000AD105F0200038B106F0200020B12046B7
:1053D00001F0E6FEBDE8F88FB9F1000F7CD007F0D0
:1053E000010018B906F49070002875D005F001008E
:1053F00030B106F4807018B1206C40F001002064D8
:1054000005F0040030B107F0010018B1206C40F045
:105410000200206405F0020030B107F0010018B16D
:10542000206C40F00400206405F0080048B106F04C
:10543000200010B907F0010018B1206C40F00800FE
:105440002064206C002846D005F0200028B106F02A
:10545000200010B1204601F0A3FE20684069C0F38F
:10546000801A206C00F0080010B9BAF1000F2DD09E
:10547000204601F03CFE2068406900F040004028D2
:1054800020D100BF00BF2168143151E8001F21F076
:1054900040002168143141E80002002AF3D100BF26
:1054A000A06B50B17548A16B0865A06BFEF76FFB50
:1054B00088B1A06B016D88470DE02046FFF76FFFB4
:1054C00009E009E02046FFF76AFF04E02046FFF705
:1054D00066FF002020647DE7206B012876D105F06F
:1054E0001000002872D006F010000028FAD000BF8B
:1054F00000200090206800680090206840680090BC
:1055000000BF00BF2068406900F0400040285ED125
:10551000A06B006840681FFA80F8B8F1000F54D003
:10552000A08D404551DDA4F82E80A06BC069B0F578
:10553000807F43D000BF00BF21680C3151E8001FBD
:1055400021F4807021680C3141E80002002AF3D177
:1055500000BF00BF00BF2168143151E8001F21F0D7
:1055600001002168143141E80002002AF3D100BF94
:1055700000BF00BF2168143151E8001F21F0400036
:105580002168143141E80002002AF3D100BF202035
:1055900084F83E000020206300BF00BF21680C316A
:1055A00051E8001F21F0100021680C3141E8000291
:1055B000002AF3D100BFA06BFEF793FAA08DE28D15
:1055C000801A81B22046FFF7A4FE03E740E0A08DD9
:1055D000E18D401A1FFA80F8E08DC0B3B8F1000FDA
:1055E00035D000BF00BF21680C3151E8001F21F405
:1055F000907021680C3141E80002002AF3D100BF0D
:1056000000BF00BF2168143151E8001F21F00100E4
:105610002168143141E80002002AF3D100BF2020A4
:1056200084F83E000020206300BF00BF21680C31D9
:1056300051E8001F21F0100021680C3141E8000200
:10564000002AF3D100BF41462046FFF762FEC1E6C3
:1056500005F0800030B106F0800018B1204601F05E
:1056600099FFB7E605F0400030B106F0400018B1F0
:10567000204601F072FDADE600BFABE6556F0008B5
:1056800010B504460CB9012010BDA06900B100E0BE
:1056900000BF94F83D0028B9002084F83C00204663
:1056A00000F028F8242084F83D002068C06820F429
:1056B00000502168C860204601F0EEFD20680069B6
:1056C00020F49040216808612068406920F02A0099
:1056D000216848612068C06840F400502168C860B3
:1056E00000202064202084F83D0084F83E00002043
:1056F000CAE7000010B586B00446142101A8FAF7E5
:10570000C8FFF7492068884275D100BF002000908B
:10571000F448006840F40020F24908600846006838
:1057200000F40020009000BF00BF00BF00200090E8
:10573000EC481038006840F00400EA49103908606D
:105740000846006800F00400009000BF00BF4FF45E
:1057500040600190022002900120039003200490F9
:105760000820059001A9E048FEF71EFCDF48E0494B
:105770000860400548600021DD488160C1604FF449
:1057800080610161002141618161C1610162416209
:10579000FEF732FB08B1FDF71BFC00BFD448A06345
:1057A000846300BFD1483030D24908604FF00060B8
:1057B00048604021CF4881600021C1604FF4806182
:1057C0000161002141618161C16101624162FEF7B5
:1057D00013FB08B1FDF7FCFB00BFC64860638463A0
:1057E00000BF002205213420FEF79CFD3420FEF787
:1057F00089FD13E2FFE7C0492068884278D100BFE5
:1058000000200090B748001D006840F01000B54926
:10581000091D08600846006800F01000009000BFF5
:1058200000BF00BF00200090AE481038006840F074
:105830000100AC49103908600846006800F001001A
:10584000009000BF00BF4FF4C060019002200290A2
:1058500000200390032004900720059001A9A74889
:10586000FEF7A2FBA648A74908604FF00060486019
:105870004021A44881600021C1604FF48061016132
:10588000002141618161C16101624162FEF7B4FAA8
:1058900008B1FDF79DFB00BF9A486063846300BFB9
:1058A00097487838984908604FF0006048600021B8
:1058B00095488160C1604FF48061016100214161C0
:1058C0008161C16101624162FEF796FA08B1FDF79C
:1058D0007FFB00BF8C48A063846300BF00220521CA
:1058E0002520FEF71FFD2520FEF70CFD96E1FFE7C2
:1058F00086492068884276D100BF00200090794810
:10590000006840F40030774908600846006800F4F9
:105910000030009000BF00BF00BF00200090714821
:105920001038006840F008006E49103908600846D9
:10593000006800F00800009000BF00BF60200190E8
:10594000022002900020039003200490072005907D
:1059500001A96F48FEF728FB644848306D4908608C
:105960004FF00060486000216A488160C1604FF4D8
:1059700080610161002141618161C1610162416217
:10598000FEF73AFA08B1FDF723FB00BF6148A063B8
:10599000846300BF554860305F4908604FF0006085
:1059A000486040215C4881600021C1604FF4806103
:1059B0000161002141618161C16101624162FEF7C3
:1059C0001BFA08B1FDF704FB00BF53486063846312
:1059D00000BF002205212620FEF7A4FC2620FEF7AA
:1059E00091FC1BE1FFE74D492068884276D100BF5A
:1059F000002000903B48006840F48020394908604E
:105A00000846006800F48020009000BF00BF00BF7F
:105A10000020009033481038006840F002003149FF
:105A2000103908600846006800F00200009000BFCE
:105A300000BF4FF4406001900220029000200390CC
:105A4000032004900720059001A93548FEF7ACFA21
:105A500026481838334908604FF00060486000213C
:105A600030488160C1604FF4806101610021416173
:105A70008161C16101624162FEF7BEF908B1FDF7C3
:105A8000A7FA00BF2748A063846300BF17481830F7
:105A9000254908604FF0006048604021224881603D
:105AA0000021C1604FF48061016100214161816189
:105AB000C16101624162FEF79FF908B1FDF788FA02
:105AC00000BF19486063846300BF002205212720BE
:105AD000FEF728FC2720FEF715FC9FE026E00000DB
