:020000040800F2
:10000000C85F0020C5030008675400087550000849
:10001000655400084D250008E1600008000000005C
:1000200000000000000000000000000005030008C0
:10003000A12B00080000000061030008875500089C
:10004000DF030008DF030008DF030008DF03000808
:10005000DF030008DF030008DF030008DF030008F8
:10006000DF030008DF030008DF030008DF030008E8
:10007000112A0008DF0300081D2A0008DF0300081A
:10008000292A0008352A0008DF030008F1250008A6
:1000900051250008DF030008DF030008A32B000838
:1000A000DF030008DF030008DF030008DF030008A8
:1000B000DF030008DD560008E9560008DF030008EA
:1000C000DF030008DF030008DF030008DF03000888
:1000D000DF0300089D5E0008B95E0008D55E0008D9
:1000E000DF030008DF030008DF030008DF03000868
:1000F000DF030008DF030008DF030008DF03000858
:10010000DF030008DF030008DF030008DF03000847
:10011000DF030008DF030008DF030008DF03000837
:10012000DF030008412A00084D2A0008DF03000809
:10013000DF030008DF030008DF030008752600085E
:10014000FD250008DF030008DF030008DF030008C7
:10015000DF030008592A0008652A0008F15E00083C
:10016000DF030008DF030008DF030008DF030008E7
:10017000DF030008DF030008DF03000800000000C1
:10018000DF030008DF03000800F002F800F0ABF81E
:100190000AA090E8000C82448344AAF10107DA45E2
:1001A00001D100F0A0F8AFF2090EBAE80F0013F089
:1001B000010F18BFFB1A43F00103184758A50000B0
:1001C00078A500000A4410F8014B14F00F0508BF91
:1001D00010F8015B240908BF10F8014B6D1E05D013
:1001E00010F8013B6D1E01F8013BF9D1641E03D0EC
:1001F000641E01F8015BFBD19142E4D3704700001B
:100200000023002400250026103A28BF78C1FBD81F
:10021000520728BF30C148BF0B6070476E2900F0FD
:100220008B83702900F0D58466290AF064806529E3
:100230000AF0618067290AF05E8061290AF05D801A
:1002400003681B0A28BF41F08001692900F0388348
:10025000642900F03583752900F032836F2900F09E
:100260006284782900F0A184E92900F0FD83E42963
:1002700000F0FA83F52900F0F783EF2900F05F849E
:10028000F82900F0A0840368DB0928BF41F0800151
:10029000632901F04182732901F04682E32901F0CC
:1002A0005182F32901F05682002070471FB50AF0F1
:1002B00018F89DE8030000F0C3FD01F0A9FA04005E
:1002C0000020002109F05AFB401C60600020002142
:1002D00009F03EFBE06000F007FA1FBD10B50020FA
:1002E00000F046FD10BD01F065FA1146FFF7DEFF94
:1002F00007F05EFE01F05CFB03B4FFF7EFFF03BC09
:1003000001F052FA2C4B19680868B0E8F04F80F3FE
:100310000988BFF36F8F4FF0000080F3118870479A
:100320000000000008480068006880F308884FF06B
:10033000000080F3148862B661B6BFF34F8FBFF33D
:100340006F8F00DF00BF00BF08ED00E0DFF80C009A
:10035000016841F470010160704700BF88ED00E062
:10036000EFF30980BFF36F8F134B1A681EF0100F65
:1003700008BF20ED108A20E9F04F106009B44FF05B
:10038000500080F31188BFF34F8FBFF36F8F08F0D9
:100390006DFD4FF0000080F3118809BC19680868F2
:1003A000B0E8F04F1EF0100F08BFB0EC108A80F3D9
:1003B0000988BFF36F8F704728000020EFF3058096
:1003C000704700000948804709480047FEE7FEE7FC
:1003D000FEE7FEE7FEE7FEE7FEE7FEE7FEE7FEE7F5
:1003E00004480549054A064B704700003556000889
:1003F00089010008C8590020C85F0020C85B0020A0
:10040000C85B002053EA020C00F069802DE9F04B34
:100410004FF00006002B1FBFB3FA83F503FA05F473
:1004200024FA05F65E4012BF1643B2FA82F502FACC
:1004300005F4C5F120051EBF22FA05FC44EA0C04B0
:10044000203556EA044C4FEA144418BF641C4FF0A0
:1004500000084FF00009904271EB030C39D30029DA
:1004600019BFB1FA81F701FA07F6B0FA80F700FA7E
:1004700007F6C7F120071EBF20FA07FC46EA0C0664
:100480002037B6FBF4FCA7EB0507103F07F01F0B66
:10049000CBF120060CFA0BFB2CFA06F644BFB34650
:1004A0000026202FA4BF5E464FF0000B5BEA060C2F
:1004B00008BF4FF0010B19EB0B09ABFB027C48EBBB
:1004C0000608C01B06FB02CC0BFB03CC71EB0C0136
:1004D000C1E70B46024641464846BDE8F08B13B5DE
:1004E0004FF000004FF00001AFF30080BDE81C406A
:1004F000704700007CB51D4616460C00009001D0E8
:100500002044401E074B7B442A46694601903046F2
:1005100000F02BFA05461CB10020694600F038FABD
:1005200028467CBD910400002DE9F04107461546A0
:100530000E46102000F000F904000AD06760C4E9FC
:10054000026500F0F5F80168216004600020BDE854
:10055000F0810120FBE710B5431C02E010F8011BFD
:1005600071B18107FAD14FF0013202C88C1A8C4365
:1005700014EAC211F9D0C01A0A0603D0C01E10BD79
:10058000C01A10BD0A0401D0801E10BD0902FCD0A3
:10059000401E10BD032A40F2308010F0030C00F022
:1005A000158011F8013BBCF1020F624498BF11F8AD
:1005B00001CB00F8013B38BF11F8013BA2F1040266
:1005C00098BF00F801CB38BF00F8013B11F00303DE
:1005D00000F02580083AC0F0088051F8043B083A42
:1005E00051F804CBA0E80810F5E7121D5CBF51F8E4
:1005F000043B40F8043BAFF30080D20724BF11F85E
:10060000013B11F801CB48BF11F8012B24BF00F8C2
:10061000013B00F801CB48BF00F8012B704710B533
:10062000203AC0F00B80B1E81850203AA0E81850EA
:10063000B1E81850A0E81850BFF4F5AF5FEA027CAB
:1006400024BFB1E81850A0E8185044BF18C918C01A
:10065000BDE810405FEA827C24BF51F8043B40F8BB
:10066000043B08BF7047D20728BF31F8023B48BFA0
:1006700011F8012B28BF20F8023B48BF00F8012BDE
:10068000704702F0FF0343EA032242EA024200F00D
:1006900092BB4FF0000200B51346944696462039AF
:1006A00022BFA0E80C50A0E80C50B1F12001BFF42B
:1006B000F7AF090728BFA0E80C5048BF0CC05DF891
:1006C00004EB890028BF40F8042B08BF704748BFDF
:1006D00020F8022B11F0804F18BF00F8012B704753
:1006E000704770477047000070B5064C7C44064D5B
:1006F0007D4403E0206820448047241DAC42F9D1AA
:1007000070BD000070A100008CA100002DE9F04137
:1007100017460E46054633B107FB0354E41B20463B
:10072000B047A542FAD1A5F10800BDE8F08100006C
:1007300000487047A059002070B5064600F060FBE5
:10074000056806F10B0020F00704B4429CBF0020AE
:1007500070BD2B466A68BAB11068A04210D304F18C
:10076000080188423CBF5068586007D3516810198F
:1007700041601168091B016058601460101D70BD54
:1007800013465268002AE7D12146284600F044FB70
:100790000028DED170BD70B50446051F00F030FBA7
:1007A0000068002C14BF446870BD002C18BFAC4218
:1007B0003CBF20466468F8D301680A18AA4218BFF3
:1007C000456003D12A680546114401602868411933
:1007D000A1421CBF6C6070BD6168696021680844FB
:1007E000286070BD10B500F00FFB006810BD10B59B
:1007F000044600F009FB046010BD70B5044685692D
:100800000068C10601D5302600E02026C00707D0C9
:1008100070BDD4E9012130469047206A401C206217
:100820006D1EF6D570BD70B5044685690078C007A9
:1008300007D170BDD4E9012120209047206A401CD7
:1008400020626D1EF6D570BD09684A0501D540B21B
:100850007047C905FCD500B2704709684A0501D543
:10086000C0B27047C905FCD580B2704770B50C4660
:100870000546012A05D02878800600D5EA690023BC
:1008800002E0012305E05B1C934202D2E05C0028F9
:10089000F9D1A869E618C01AA861286A1844286224
:1008A0002846FFF7AAFF04E0D5E9012114F8010B5F
:1008B0009047B442F8D32846FFF7B5FF70BD00005B
:1008C0002DE9F0410646002410687529314616A529
:1008D00010D0FFF7B9FF002802DA404213A507E065
:1008E00031688A0701D512A502E0490704D511A590
:1008F000012401E0FFF7B1FF00210A2206F12407DD
:1009000009E0B0FBF2FCB0FBF2F302FB1C0030305C
:1009100078541846491C0028F3D123462A4630460D
:10092000BDE8F04100F007BB000000002D00000012
:100930002B0000002000000011680268006A5305C7
:1009400001D508700AE0D30501D5088006E013063A
:1009500003D5C217C1E9000200E00860012070471A
:1009600001694A1C02610878704700B58FB0CDE973
:1009700001310021059105497944CDE90310114663
:10098000684600F031F90FB000BD0000E5FFFFFF41
:100990000A6802F8010B0A607047D1E900239A4205
:1009A00002D2531C0B601070704700002DE9FF5FEE
:1009B00015468A460446DFF8AC80F8440027D8E99B
:1009C00000103E46CDE9001010E03AF816106A46D5
:1009D00002A800F0C3FE411C07D02178890603D588
:1009E000E269391891420DD80744761C20788006B8
:1009F00002D5E069B84205DDAE42E6DB3AF8160002
:100A00000028E2D1A069C01BA0612046FFF7F5FED7
:100A1000D8E90010CDE90010002017E03AF81810CE
:100A20006A4602A800F09AFEB0F1FF3F81460BD063
:100A300000250DF1080B05E0D4E901211BF80500A4
:100A400090476D1C4D45F7D308F10100B042804638
:100A5000E4DB206A384420622046FFF7E4FEBDE86C
:100A6000FF9F0000AA9A00002DE9F0418046D21DA8
:100A700022F007020025D2E90002F52915A614D0BC
:100A8000011E72F1000106DA0023D0EB030063EBD4
:100A9000020211A608E0D8F800108B0701D50FA6B6
:100AA00002E0490701D50EA601251146002408F1F0
:100AB000240704E000F0FAF930323A55641C50EA99
:100AC0000102F7D12B46324621464046BDE8F041AF
:100AD00000F031BA000000002D0000002B000000E3
:100AE0002000000030B4002100F1240408E002F0EE
:100AF0000705D208303542EA4372DB086554491CC9
:100B000052EA0305F3D10468002310A2250707D594
:100B1000A40600D421B1C46901230DA2641EC461DE
:100B200030BC00F008BA10B5044621461068FFF743
:100B300094FE02462046BDE810400023D2E7D21DB5
:100B400022F00701D1E90023CCE7000000000000FB
:100B500030000000F0B40D460188090502D5214C93
:100B60007C4402E01F4C7C440E34002100F124063A
:100B700008E002F00F071209E75D42EA03721B0961
:100B80007754491C52EA0307F3D102780023120775
:100B900004D5702D06D009B1022311342246F0BCD1
:100BA00000F0C9B901231034F8E770B504460D46CA
:100BB00021461068FFF751FE024629462046BDE84F
:100BC00070400023C6E7D21D22F00703D3E90023BB
:100BD000C0E70368126843F0200303600823C36181
:100BE0000023B7E70C9900002DE9F05F8946044621
:100BF0004FF0000ADFF874B1FB44C0F820A0204693
:100C0000E1688847002874D0252806D0D4E901215E
:100C10009047206A401C2062F1E700265F4620468C
:100C2000E16888472028054607DB312D05D2781971
:100C300010F8200C08B10643F1E7B00701D526F003
:100C40000406C4F81CA00027C4F818A02A2D09D057
:100C5000284607F077F938B304EB8708303DC8F829
:100C6000185019E059F8041B204604EB87029161E3
:100C7000E1688847012F054618D1E069002820DA8D
:100C800026F020061DE0D8F8180000EB800005EBE8
:100C900040003038C8F818002046E168884705460B
:100CA00007F050F90028EED1012F0AD02E2D08D1DF
:100CB0002046E16888477F1C0546022F46F0200643
:100CC000C4DBA069002803DA404246F00106A061B7
:100CD000F00701D026F010066C2D0BD0682D09D03E
:100CE0004C2D39D06A2D35D0742D35D07A2D33D096
:100CF00016E038E0E1682F4620468847B8420546AE
:100D000009D16C2F26D04FF48060E168064320465D
:100D10008847054604E06C2F1AD04FF480700643D4
:100D20000DB3A5F14100192802D8203546F400661C
:100D30004A462946204626604E46FFF76FFA80B1A4
:100D400001280BD0F61D26F0070000F1080956E730
:100D50004020E4E78020D8E70020D6E706F1040928
:100D60004DE7284652E7206ABDE8F09F9C980000B6
:100D70002DE9F0410646FFF7DBFC8046454613E0CF
:100D800016B1E068B0420ED120682860D4E90101B4
:100D9000D8F8007088472046FFF7FDFCD8F800001F
:100DA000B842EBD100E025462C68002CE8D1BDE824
:100DB000F0814FF000020429C0F0128010F0030C03
:100DC0003FF469ACCCF1040CBCF1020F18BF00F881
:100DD000012BA8BF20F8022BA1EB0C01FFF75BBC95
:100DE0005FEAC17C24BF00F8012B00F8012B48BF4B
:100DF00000F8012B70470000004870476859002038
:100E0000004870477059002000487047685900201A
:100E1000704770477047704738B504460A4600204F
:100E20006946AFF30080002808BF38BD024600992C
:100E3000204600F0F1FC012038BD012000F0DABDB1
:100E4000F8B5AFF30080054600200C46102000BF27
:100E50000646A819A0420DD9324669460020AFF3D4
:100E60000080070008BF00F0C5FD0098A04218BF31
:100E70000546C419FFF7C4FF05600746F01D20F0C2
:100E800007004619284600F00AF8B44208BFF8BD2A
:100E9000A21B31463868BDE8F84000F0BDBC002117
:100EA0000160C0E9011070471020704730B5B0F103
:100EB0000A024FEA900E71F100034EEA817EB0EB18
:100EC0000E0061EB91014FEA101E4EEA017E10EB1D
:100ED0000E0041EB11114FEA102E4EEA016E10EB9D
:100EE0000E0041EB11214FEA104E4EEA014E10EB7D
:100EF0000E0041EB1141401841F100014FEAD000D2
:100F000040EA41704FEAD10110EB80054FEA8104BD
:100F100044EA907444EB01046D1944EB0404521B41
:100F2000A3414FF0000348BF0A3200D530BD401C3A
:100F300041F1000130BD2DE9F0470D46994692463A
:100F4000044600F124080168880604D5E06921F010
:100F50001001216000E00120A84201DD471B00E0F4
:100F60000027A1697A1902EB0900081AA06120780C
:100F7000C00602D42046FFF740FC002608E0D4E972
:100F800001211AF806009047206A401C761C206256
:100F90004E45F4DB2078C0060AD52046FFF72DFC2D
:100FA00006E0D4E9012130209047206A401C2062ED
:100FB000381EA7F10107F4DC07E0D4E9012118F895
:100FC00005009047206A401C2062281EA5F10105FB
:100FD000F3DC2046FFF727FC2078000602D502202C
:100FE000BDE8F0870120FBE770472DE9FF4F0C4675
:100FF0001E464FF0FF378BB0D2E90001DDF860806C
:101000000A908A46C1F30A5505B93D4600210846B3
:101010004FF00000BAF1000F00F4400005DA00EBD9
:1010200080004FF4400101EA50004FEA9059B9F1B5
:10103000010F00DDB9460A9850EA4A000ED044F686
:101040001050A5F2FF3545432F14B8F1000F1ED004
:101050007542291E1EDDC9F100021CE0B8F1010F26
:101060004FF0000001D0302103E0F24305E02154AD
:10107000401CB042FBDB30460022002121540B997A
:10108000C1F80880C1E900200FB0BDE8F08FBD1B9A
:101090006D1CDEE74A4600DA694206A800F016FC3D
:1010A00006AB93E8070003AB83E8070050460A99B4
:1010B00000F018FD8DE80700A0F500501F380090E3
:1010C0000398002D0ADD42F21F014A46084400231E
:1010D00003A90390684600F081FF09E0A0F50050E5
:1010E0004A461F38002303A90390684600F08BFF8F
:1010F0008DE807000004000C03D04FF0FF304108DA
:1011000000E01046B8F1000F03D00022009215460F
:101110001EE0751E05D4FFF7C9FE303262556D1E04
:10112000F9D5B3460122084302D000227F1C04E017
:101130002078302801D100227F1E002A099784D010
:101140001DE0112D07DAFFF7B1FE303262556D1C3C
:1011500050EA0102F5D1084302D00098C8B10EE070
:101160000021681E05E0235C625C63542254401E2B
:10117000491C8142F7DBAB46A81B401E09900020AA
:1011800004F80B000B98099AC0F80880C0E9002BFE
:101190007AE711264FF0000857E72DE9F04F88460F
:1011A0000446D21D22F0070191B0D1E90001CDE93A
:1011B0000A0106F02FFB02460B98C00F01D02D202C
:1011C00007E02068810701D52B2002E0202101EAF9
:1011D000C000032A099001D0072A05DB03464146D7
:1011E000204600F033FB0BE12078800601D5E06952
:1011F00000E00620B8F1650F814606D0B8F1660F11
:1012000018D0B8F1670F70D131E00020B9F1110F9B
:10121000009001DB112301E009F101030AAA01A9F1
:101220000CA8FFF7E2FEDDE90C70002609F10105CC
:10123000834647E001204B4600904FF000470AAA42
:1012400001A90CA8FFF7D1FEDDE90DB00C995D46B0
:10125000002610B909F101000D18B9EB050003D4FF
:10126000C0F1FF3609F10105A5EB09002BE0B9F14A
:10127000010F01DA4FF001090020B9F1110F0090C0
:10128000484601DD112300E003460AAA01A90CA883
:10129000FFF7ABFEDDE90C704D4600268346207853
:1012A00000070AD4AB4500DA5D4601A8012D04DD34
:1012B000411911F8011C302907D04F4502DA17F106
:1012C000040F04DA012082460FE06D1EEEE7002FC6
:1012D00002DCED1B3E4403E0781CA84200DD7D1CCF
:1012E000B81B00F1010A4FF000472078000703D433
:1012F000AA4501DB4FF0FF3A0021B7F1004F0DF195
:1013000043088DF8431024D002202B23002F01DA4C
:101310007F422D230A21021EA0F1010000DC5FB1F3
:1013200097FBF1FC97FBF1F201FB1C7C17460CF1DB
:10133000300C08F801CDEEE7A8F101000370218818
:10134000090501D5452100E06521A0F1010800F85B
:10135000011C09980FA9A1EB0807FF1D00B101208E
:10136000411901EBEA70A1693844081A401EA061D6
:101370002078C00602D42046FFF73FFA099828B12A
:10138000D4E901219047206A401C20622078C006E1
:1013900022D52046FFF731FA1EE0002E04DBB345CC
:1013A00002DD01A8805D00E03020D4E901219047F2
:1013B000206A401C2062761CAAF101005FEA000A44
:1013C0000AD100F025FAC0680168405CD4E9012127
:1013D0009047206A401C2062281EA5F10105DCDC34
:1013E00007E0D4E9012118F8010B9047206A401C5E
:1013F0002062381EA7F10107F3DC2046FFF713FA3D
:10140000032011B041E600002DE9F04F04460D46DF
:10141000D21D22F0070089B0D0E90097484639462E
:1014200006F0F8F90246F80F01D02D2307E02068F6
:10143000810701D52B2302E0202101EAC0038DF8AA
:1014400020300BB1012000E00020032A824601D0A9
:10145000072A04DB2946204600F0F8F93FE120780E
:10146000800601D40D2500E0E569C7F30A560D2D6D
:1014700049DA00214FEA175B08464FF00000002FC1
:1014800000F4400007DA00EB80004FF4400100EB6D
:10149000D07001EA60008115012901DD4FF0FF31B4
:1014A00000224FEA850CBCF1180F06D31346ACF1AD
:1014B00018004FF08052C24003E04FF4801323FA2B
:1014C0000CF30CF10C0CBCF1200F04D3ACF1200C8C
:1014D00009FA0CF001E007FA0CF000294FF000487F
:1014E00001DD18B90FE00ED140450CD319EB02090C
:1014F0005F4121B9404502D19F4329EA0209BBEB74
:10150000175F00D0761C2088000502D57B48784400
:1015100002E07A487844193808AA302302F80A30E1
:10152000037C0AF10101002E0AF1020A53546A46B3
:1015300002DC4FF0300101E04FF031014FF00108C3
:101540008DF8001002D0A6F2FF3603E059EA4701F9
:1015500000D06B4E002D02DC2178090704D54FF036
:1015600002082E218DF80110C44600210BE0C7F3BC
:1015700003433F01C35C491C6D1E02F80830052976
:1015800008F1010801DA002DF1DC00210CE000EB8C
:101590001973491C1B786D1E082902F808304FEAA0
:1015A000091908F1010801DA002DF0DC21688B0629
:1015B00002D516E0A8F10108E04505DD02EB0803BD
:1015C00013F8013C302BF5D0B8F1000F09DD02EB28
:1015D000080313F8013C2E2B03D1090701D4A8F10D
:1015E0000108002D05DD3E2102F808106D1E08F1EE
:1015F0000108407C002E02F8080008F1010804DA16
:101600002D20764202F8080002E02B2002F80800A4
:101610000A214FF47A70864208F101080BDB96FB31
:10162000F0F3303302F8083096FBF0F308F10108CC
:1016300000FB136601E0642E0CDB642096FBF0F3E4
:10164000303302F8083096FBF0F308F1010800FB94
:10165000136601E00A2E06DB96FBF1F0303002F84B
:10166000080008F1010896FBF1F001FB1060303032
:1016700002F80800A16908F1010808EB050202EB75
:101680000A00081AA0612078C00602D42046FFF79D
:10169000B4F8216A08AE01EB0A00206204E0D4E944
:1016A000012116F8010B9047BAF1010AF7D2207810
:1016B000C00602D52046FFF7A0F86E4609E016F8EE
:1016C000010B3E280FD0D4E901219047206A401C2D
:1016D0002062B8F10108F2D22046FFF7A4F809B061
:1016E0000320BDE8F08F206A2844206203E0D4E99B
:1016F0000121302090476D1EEBD3F8E7CD8F00001D
:1017000002FCFFFF10B5436913B1AFF3008001E0A5
:10171000FFF7ACF8012010BD127800F124010A7027
:1017200000224A700122EDE711684FF0FF32E9E72D
:1017300010B5436913B1AFF3008001E0FFF736F94C
:10174000012010BD128800F1240182840022C2848D
:101750000122EDE711684FF0FF32E9E770B5164658
:101760000C46054600F04CF8036893F80101012887
:1017700006D0FF2C0FD8185D68B101202C7070BD09
:10178000D3F807013246214603F2071303442846E3
:10179000BDE8704018474FF0FF3070BD002801D001
:1017A00000F002B87047000001491820ABBEFEE708
:1017B000260002007546FFF71FFBAE46050069468E
:1017C000534620F00700854618B020B5FEF708FE06
:1017D000BDE820404FF000064FF000074FF0000832
:1017E0004FF0000B21F00701AC46ACE8C009ACE8B3
:1017F000C009ACE8C009ACE8C0098D4670470000DC
:1018000010B500F005F8001D10BD00BF718100008B
:101810000048704788590020034640688C460028DD
:1018200018BF88423CBF03464068F8D31868184484
:10183000884207D00CF1030020F00700001D411A78
:10184000521A0146081D0A60FEF7A5BF2DE9F041B6
:101850001F46044603260168072A01F4006004DBE2
:1018600008B116A505E016A503E008B115A500E02E
:1018700015A521F010002060A069C01EA0610FB165
:10188000401EA0612046FEF7B8FF4FB1D4E9012108
:1018900038469047206A401C2062C01C206206E047
:1018A000206AFAE7D4E9012115F8010B9047761E6A
:1018B000F8D22046FEF7B7FFBDE8F0814E414E005A
:1018C0006E616E00494E4600696E66002DE9F04774
:1018D000814616468AB0354878440DC88DE80D001B
:1018E00032487844801C03AC0DC884E80D0041F6F2
:1018F0009B300844372190FBF1F290FBF1F5A5F104
:10190000800501FB12041B3C02D56442012000E06B
:101910000020DFF898A080460027FA44AAF1BE0A0A
:101920000EE0E0070AD03246684607EB4701012384
:101930000AEB810100F067FB8DE8070064107F1C53
:10194000002CEED1194F7F44AE3F19E0E80715D0C7
:1019500007EB04100DF1180A90E80E008AE80E005B
:10196000C068F04201D1981908903246012306A9B7
:1019700003A800F048FB03AB83E807006D10641C6C
:10198000002DE3D14FF0010332466946B8F1000F54
:1019900003A802D000F022FB01E000F034FBC9E90B
:1019A0000001C9F808200AB0BDE8F087948C000057
:1019B00010B50446AFF300802046BDE81040FEF7A6
:1019C0009BBC70B505460C460A2000E06D1C00F07B
:1019D00018F835B128780028F8D102E0641C00F02E
:1019E00010F814B120780028F8D1BDE870400A2022
:1019F00000F007B810B500F00DF8BDE81040FFF793
:101A0000CDBE08B569468DF800000320ABBE08BD09
:101A10007047000010B5012805D0002103A0FFF792
:101A2000D0FF012010BD09A1F8E70000534947523B
:101A3000544D454D3A204F7574206F66206865619E
:101A400070206D656D6F7279000000003A20486566
:101A50006170206D656D6F727920636F7272757041
:101A6000746564004FF0013C50F8042B51F8043BBE
:101A70009A4221D1A2EB0C03934313EACC1317D162
:101A800050F8042B51F8043B9A4215D1A2EB0C03F9
:101A9000934313EACC130BD150F8042B51F8043BB9
:101AA0009A4209D1A2EB0C03934313EACC13DBD087
:101AB0004FF00000704700BFD01A01BAB1FA81F1AF
:101AC00001F0180122FA01F0CB40C1F12001DBB294
:101AD000C0B2C01A2CFA01F3D11A914311EAC31112
:101AE000E6D170475FEA400C08BF91F0000F4FEA63
:101AF0008C234FEAC12243EA51514FEA1C5018BFD0
:101B000000F5F0404FEA300018BF41F000415FEAB5
:101B10006C5C00F02980BCF1FF3F08BF40F08040C2
:101B20007047130C06BF12044FF0100C4FF0000C5E
:101B3000130E04BF12020CF1080C130F04BF1201A4
:101B40000CF1040C930F04BF92000CF1020CD30FA4
:101B500004BF52000CF1010C11464FF00002A0F13D
:101B60001F00A0EB0C00704711F0004F08BF70473A
:101B700031F000413FF4D5AF0B0C06BF09044FF024
:101B8000100C4FF0000C0B0E04BF09020CF1080CF6
:101B90000B0F04BF09010CF1040C8B0F04BF89006B
:101BA0000CF1020CCB0F04BF49000CF1010CCCF17D
:101BB0002003A0EB0C0022FA03F302FA0CF241EA34
:101BC000030100F10100704720F07F4C80EA030020
:101BD00023F07F47ACEB070303F57C5300F0004094
:101BE00003F1FF032DE980494FEA154B09B44FEA91
:101BF000144325EA0B4E24EA03480FF2042606EBB1
:101C0000132749083E785FEA320203FB0667C7F5EF
:101C1000000707FB06F64FEA54374FEAD64606F1AF
:101C2000020607FB066CCCF1005C4FEA1C472CEA6D
:101C3000074C07FB06F40CFB06F504EB15464FEAD0
:101C4000961634BF00204FF000404FEAD13706FB14
:101C500007FC4FEA1C4C0CFB0BF7D21B03FB0CF7E9
:101C600061EB07010CFB0EF7B0EB074072EB17427C
:101C70000CFB08F734BFA2EB0742B2EB074261EB63
:101C800017414FEA0C444FEA910706FB07FC4FEA65
:101C90001C4C0CFB0BF7B0EBC74072EB573203FB4D
:101CA0000CF734BFA2EBC742B2EBC74261EB57312E
:101CB0000CFB0EF7B0EBC70072EB57720CFB08F78A
:101CC00034BFA2EBC702B2EBC70261EB5771039FAF
:101CD0004FEA816141EA921104EBCC044FEAD1371B
:101CE0004FEA826206FB07FC42EA90124FEA8060EC
:101CF0004FEA1C4C0CFB0BF7D21B03FB0CF761EB00
:101D000007010CFB0EF7B0EB074072EB17420CFB20
:101D100008F734BFA2EB0742B2EB074261EB174171
:101D20004FEA8C554FEA910704EB9C2406FB07FC15
:101D30004FEA1C4C0CFB0BF7B0EBC74072EB573271
:101D400003FB0CF734BFA2EBC742B2EBC74261EB17
:101D500057310CFB0EF7B0EBC70072EB57720CFB60
:101D600008F734BFA2EBC702B2EBC70261EB5771B1
:101D700015EB4C254FEA816141EA92114FEA8262EC
:101D80004FEAD13742EA901206FB07FC44F1000407
:101D90004FEA80604FEA1C4C0CFB0BF7D21B03FB95
:101DA0000CF761EB07010CFB0EF7B0EB074072EB91
:101DB00017420CFB08F734BFA2EB0742B2EB074215
:101DC00061EB174115EB1C154FEA813141EA924155
:101DD0004FEA823242EA90424FEA80304FEA0C7674
:101DE00044F1000448EA03434EEA0B484FF0000E6A
:101DF000B2EB080C71EB030724BF624639464EEB89
:101E00000E0E4FF0000B0018524149414BEB0B0BEB
:101E1000B2EB080C71EB03077BF1000B24BF6246A9
:101E200039464EEB0E0E4FF0000B0018524149415F
:101E30004BEB0B0BB2EB080C71EB03077BF1000BC8
:101E400024BF624639464EEB0E0E51EA020718BF18
:101E500046F0010616EB0E7655F1000254F1000132
:101E600003D5BDE88901BDE80088BDE88901BDE86A
:101E70000048B619524141EB0101A3F1010370473B
:101E800080807F7E7D7C7B7A7978777676757473B7
:101E9000727171706F6E6E6D6C6C6B6A6A69686876
:101EA000676666656464636362616160605F5F5E0C
:101EB0005E5D5D5C5C5B5B5A5A5959585857575682
:101EC00056555555545453535252525151505050E7
:101ED0004F4F4F4E4E4D4D4D4C4C4C4B4B4B4A4A39
:101EE0004A4949494848484747474746464645457D
:101EF00045444444444343434342424242414141B6
:101F0000002B9C4630D477002BD01CB54FEA370706
:101F100003B44FF010004FF01001BAF1000F06D0DB
:101F2000BCF1000FDCBF40F0080040F008014FF0AA
:101F300000000FBCBDE810400BF1010BBBF1010F1D
:101F400008BF5FEA170722BF12F1010211F1010178
:101F50004FF0004143F1000300F0004043EA00006D
:101F60007047F9D35708D0E746EA064613F1400F09
:101F70004FEA16461FDD13F1200FDFBF16430A4656
:101F8000002120335B42BED0C3F1200746EA06465B
:101F900002FA07F74FEA164646EA0706C3F120079A
:101FA00022FA03F201FA07F721FA03F14FF00003D6
:101FB00042EA0702A7E746EA020646EA06464FEA71
:101FC000164646EA0106BCBF46EA0646360C4FF006
:101FD00000034FF000024FF0000194E72DE9804C20
:101FE0009A46934670B491E8380007C831EA400C2D
:101FF00048BF34EA430C03D5FFF7E6FDFFF780FF47
:10200000F0BCBDE8008C2DE9804C9A46934670B434
:1020100091E8380007C810F0804F08BF13F0804FD8
:1020200003D100F005F8FFF76BFFF0BCBDE8008CB2
:1020300020F07F4780EA030023F07F4C07EB0C037E
:10204000A3F57C5300F00040A3F1FE0392F0000FD3
:1020500000F0B38095F0000F00F077802DE9014982
:102060004FEA11404FEA144621EA004800FB06FC03
:1020700024EA064708FB06F607FB08F800FB07F70B
:1020800018EB06484CEB164C4FEA124B18EB07487E
:102090004FEA15464CEB174022EA0B4E0BFB06FCB1
:1020A00025EA06470EFB06F607FB0EFE0BFB07F7BD
:1020B0001EEB064E4CEB164C4FF000061EEB074E87
:1020C0004CEB174B18EB0B0840F1000018EB0E0B14
:1020D00058EB000840F100008F1A4FF000013CBFA0
:1020E000C943661B14BFB5EB040C00213CBFC943B8
:1020F000F61B4FEA17444EEA8E0E27EA04454FEAD4
:102100001C4704FB07622CEA074C05FB07F70CFB96
:1021100005F604FB0CFC16EB074642EB174216EBE8
:102120000C4642EB1C421BEB060658EB02024141F7
:1021300046EA9E0601D5BDE80189B619524141EB38
:102140000101A3F10103BDE801894FEA14454FEAFB
:10215000114724EA054621EA074C05FB07F406FB74
:1021600007F70CFB06F105FB0CFC11EB074144EBF8
:1021700017444FEA124711EB0C4144EB1C4422EA8E
:10218000074C05FB07F206FB07F70CFB06F605FB01
:102190000CFC16EB074642EB174216EB0C4642EBE3
:1021A0001C456A1854F1000148BF7047B6195241E6
:1021B00041EB0101A3F10103704795F0000F37D007
:1021C0004FEA11424FEA144721EA024624EA074C3B
:1021D00002FB07F106FB07F70CFB06F402FB0CFC05
:1021E00014EB074441EB17414FEA154714EB0C443D
:1021F00041EB1C4125EA074C02FB07F506FB07F7FC
:102200000CFB06F602FB0CFC16EB074645EB1745EC
:1022100016EB0C4645EB1C42121951F1000148BF68
:102220007047B619524141EB0101A3F10103704718
:102230004FEA14454FEA114724EA054621EA074CC4
:1022400005FB07F106FB07F70CFB06F24FF0000653
:1022500005FB0CFC12EB074241EB174112EB0C4261
:1022600051EB1C4148BF7047921841EB0101A3F1AB
:1022700001037047A1484FF000042DED048B88B096
:102280000078C00709D19D4805F011FB28B19C4892
:1022900080F828409948AFF300809A4D984E40F25C
:1022A000DC584FF002090127288AA0F27950C7288C
:1022B00001D2A5F81080688AA0F27950C72801D20F
:1022C000A5F81280A88AA0F27950C72801D2A5F8F3
:1022D0001480E88AA0F27950C72801D2A5F81680A8
:1022E000288A30B9688A20B9A88A10B9E88A0028F3
:1022F00075D06889A0F57A7007F0DEFCB0F5C87F6C
:102300006EDD688AA0F2DC50404207F063FE9FED6C
:102310007E8B53EC182B07F005FD9FED7D9B53EC56
:10232000192B07F06FFE07F0CBFC7060288AA0F233
:10233000DC50404207F04EFE53EC182B07F0F2FC45
:1023400053EC192B07F05EFE07F0BAFC3060A88A48
:10235000A0F2DC5007F03EFE53EC182B07F0E2FC35
:102360009FED6D9B53EC192B07F04CFE07F0A8FC7A
:102370007061E88AA0F2DC5007F02CFE53EC182BB9
:1023800007F0D0FC53EC192B07F03CFE07F098FC4B
:10239000B0616889A0F2DC5007F08EFC322820DAA8
:1023A00086F820902889A0F57A7007F085FC3228FD
:1023B00006DA06F8217F747037717471213E82E06D
:1023C0002889A0F5FA6007F077FC32287BDA06F856
:1023D000219F0420707034717771213E73E07AE0A0
:1023E00067E06889A0F5FA6007F066FC32286ADACF
:1023F00086F820702889A0F5FA6007F05DFC322885
:1024000003DA062086F8210008E02889A0F57A7012
:1024100007F052FC322801DA86F8219096F8210064
:10242000062802D0012815D019E0E889A0F57A70B5
:1024300007F042FC322802DA86F822900FE0E889A1
:10244000A0F5FA6007F038FC322808DA032086F895
:10245000220004E006F8227F7470B470223E96F8E1
:102460002200032801D002282DD1A889A0F57A7076
:1024700007F022FC322804DA86F8234086F824404C
:1024800021E0A889A0F2DC5007F016FC322804DA1B
:1024900086F8237086F8244015E0A889A0F5FA6034
:1024A00007F00AFC32280EDA86F8237086F82470CA
:1024B00009E006F8204F7470B470F47034717771CD
:1024C000B471F471203E164800231A460C49006886
:1024D00006F02EFE0DE020216846FEF7DAF82022F5
:1024E00010496846FEF79BF8202269460448FEF72B
:1024F00096F8012005F07DFDD6E6000028010020B9
:10250000A8510020405000200000000000407F4003
:102510000000000000000840000000000000004033
:1025200008010020E8A3000810B500221146054864
:1025300003F014F803F0DCFDBDE81040024805F09C
:102540003DB90000E0010020B12B0008FEE70000CB
:10255000014800F0E9BC0000480100208168002922
:1025600022D1026800F11C01A2F20122072A1BD22B
:10257000DFE802F004070B1A0F1216000B4803F0F5
:1025800047BF0A482C3003F043BF0848583003F0D7
:102590003FBF074803F03CBF05482C3003F038BF6D
:1025A0000348583003F034BF704700003052002019
:1025B000085500201FB50C4C4FF0FF352A466946E0
:1025C000206806F0C7FE0128F8D1084800F096FC04
:1025D000C0B20028F9D002989DF80C3081B26A464A
:1025E000024805F0CEFCE9E7F40000204801002095
:1025F000014800F099BC000048010020014800F0AB
:1026000093BC00007001002010B50446A0680428A7
:102610000FD12146074804F0CDFB0648214638304B
:1026200004F0C8FB21460348BDE81040703004F0B8
:10263000C1BB10BD8C5500201FB50C4C4FF0FF35B1
:102640002A466946206806F085FE0128F8D1084828
:1026500000F054FCC0B20028F9D09DF80C306A4656
:102660000348029905F075FCEAE70000F800002035
:1026700070010020014800F057BC000070010020EC
:1026800030B58BB08D0701F003040CD5D50401954E
:10269000D20042EA44020292DA040392DA0042EAE9
:1026A0004402049206E052010192620002925B0130
:1026B00003930492CA080692C1F380010591012197
:1026C00009910022079208910E210A9101A900F0B8
:1026D00009FB002801D000F067FA0BB030BD000004
:1026E00070B505460C46284600F0B3FE08B100F070
:1026F0005BFA0121284600F069FA08B100F054FAAB
:102700000221284600F062FA08B100F04DFA1021CB
:10271000284600F05BFA08B100F046FA074A28683C
:102720000749904202D10C60002070BD054A9042DA
:1027300002D14C60002070BD012070BD00640040DB
:10274000A8000020006800402DED048B8EB0A54C41
:10275000A34F04F10C08A4F164069FEDA39ADFEDEA
:10276000A39AA34D01229F49386806F0F3FD012882
:102770007DD194F82100012831D005283BD00328D1
:1027800048D0022855D0042872D0002871D00628DD
:1027900070D0202106A8FDF77CFF142209A9684605
:1027A000FDF73DFF06A993480EC903F054FF94F8C6
:1027B000220002287DD003287CD004287BD000286A
:1027C0007AD0012879D0B0EE690A8B4804F0ACFDCC
:1027D00094F82300002871D0012870D0D4E014228E
:1027E00041466846FDF71BFFD6E91A238148716E02
:1027F00003F031FFDBE7202106A8FDF74AFF142292
:1028000009A96846FDF70BFF06A97A480EC903F02F
:1028100022FFCCE7202106A8FDF73BFF142209A9DF
:102820006846FDF7FCFE06A972480EC903F013FFC7
:10283000BDE7206807F0E4FC9FED708B53EC182B8C
:1028400007F0E0FB07F03CFA2060606807F0D8FC76
:1028500053EC182B07F0D6FB07F032FA6060606982
:1028600007F0CEFC53EC182B07F0CCFB03E0A1E003
:1028700010E025E033E007F023FA606114224146BE
:102880006846FDF7CCFED6E91A235A48716E03F06C
:10289000E2FE8CE7202106A8FDF7FBFE142209A921
:1028A0006846FDF7BCFE06A952480EC903F0D3FEE8
:1028B0007DE723E03CE041E046E04BE052E059E0B8
:1028C000202106A8FDF7E5FE142209A96846FDF7B8
:1028D000A6FE06A947480EC903F0BDFE67E7202102
:1028E00006A8FDF7D6FE142209A96846FDF797FE53
:1028F00006A940480EC903F0AEFE58E7A069B0F142
:102900007C5F06DD95ED000A30EE090A85ED000AD0
:1029100008E0B0F13F4F05D995ED000A30EE490AC5
:1029200085ED000A95ED000A334804F0BDFB4FE742
:102930009FED340A304804F0B7FB49E79FED320AB7
:102940002D4804F0F1FC43E7B0EE690A2A4804F090
:10295000ABFB3DE7284890ED070A85ED010A04F03E
:10296000A3FB35E70022B0EE690A1146224804F0C5
:10297000FDFB09E094F8240000B3012295ED020A62
:1029800011461D4804F0F2FB94F8250001281DD0E3
:1029900008B30021184804F031FB164803F088FD05
:1029A000154804F0A1FD1448B0F9B000414217A049
:1029B00005F0BCFB012005F01CFBD3E695ED020AF7
:1029C000012200210C4804F0D1FBDDE700210A4878
:1029D00004F014FBE1E70121074804F00FFBDCE7FA
:1029E000080100203C5900200AD7233D00000000C8
:1029F00034010020D85100200055002033333333F8
:102A00003333D33F000048420000964325640A0058
:102A1000014800F0ABBD0000B8040020014800F000
:102A2000A5BD000018050020014800F09FBD000072
:102A3000F8030020014800F099BD00005804002070
:102A4000014800F093BD000078050020014800F027
:102A50008DBD000098030020014800F087BD0000F4
:102A6000D8050020014800F081BD00003803002097
:102A70000168CAB2103A1823B2FBF3F2064B9B5C12
:102A8000C3656FF30901032A02D9091D816500E0BE
:102A90008165806D70470000B4A3000810B5014641
:102AA00000208A6A8B694FF0C074002B0ED0B3F5FA
:102AB000005F1AD062B3012A2AD0022A28D0032A42
:102AC00003D1C96AC90100D5012010BD1AB1012A7C
:102AD00006D0022AF9D1C96AC901F6D5012010BD74
:102AE000C96AA142FBD1012010BD52B1012A0AD00E
:102AF000022A06D0032AF7D1C96AA142F4D10120E3
:102B000010BD012010BDC96AC901FBD5012010BD4F
:102B1000012010BD30B50468256825F480252560A6
:102B2000046863608368402B04D003689960006880
:102B3000C26030BD03689A600068C16030BD0000AB
:102B400010B500221021082006F054FA134C206022
:102B500000221021082006F04DFA606000220C21AE
:102B6000042006F047FAA06000220C21042006F0A1
:102B700041FAE06000222021042006F03BFA2061A7
:102B800000222C21042006F035FA60610022042185
:102B9000022006F02FFAA06110BD0000F400002012
:102BA0007047802000F074BE72B6FEE7FEE70000BA
:102BB000054800680068416A0348001F0068C0EBD0
:102BC0000040084470470000B400002090F8202026
:102BD000012A07D0022A05D0416A41F480214162CE
:102BE00001207047006842690A4342610020704733
:102BF000F0B590F820500468A468012D07D0022D8C
:102C000005D0416A41F4802141620120F0BD04F009
:102C1000806504F00066354301D1E5005BD5C4F35F
:102C20000164022C05D9416A41F40001416201208E
:102C3000F0BD0125A5401D608B684FF4C0759BB1A8
:102C4000CE6805EB041733434E6843EAC6030668B3
:102C5000F3514FF4C273076803EB04130E69FE507F
:102C6000097D012909D00DE00E88CB6805EB04171A
:102C700043EA46530668F351EBE70168CE5846F441
:102C80008076CE501179D379567941EA03619379F0
:102C90001B0443EA062319434FF4C676036806EB88
:102CA000041699511178D37841EA036193785278E8
:102CB0001B0443EA022211434FF4C473026803EB7E
:102CC0000413D150006805EB0411425842F0010290
:102CD00042500020F0BD416A41F4001141620120E0
:102CE000F0BD000010B590F82020012A07D0022A7C
:102CF00005D0416A41F480214162012010BD3C4869
:102D000000F50070026842F001020260026822F4DD
:102D10007C52026002684B6A42EA032202600A7D2A
:102D200002F01F0301229A40C3699343C361A0F5D7
:102D30000070CB69B3B9D0F80C329343C0F80C32B1
:102D40008C894B6864F31F434C6900EBC404C4F8DE
:102D500040320C890B6864F31F434C6900EBC404D8
:102D6000C4F84432CB69012B16D1D0F80C3213438E
:102D7000C0F80C320C884B6864F31F434C6900EBBD
:102D8000C404C4F840320C89CB6864F31F434C6917
:102D900000EBC404C4F844328B697BB1D0F8043230
:102DA0001343C0F804320B6973B1D0F814321343E3
:102DB000C0F81432096A01290CD010E0D0F80432AE
:102DC0009343C0F80432EEE7D0F814329343C0F8CE
:102DD0001432EFE7D0F81C121143C0F81C12D0F8DF
:102DE000001221F00101C0F80012002010BD000007
:102DF00000640040704730B590F82040012C07D0A7
:102E0000022C05D0416A41F480214162012030BD8D
:102E100021B104682469A4075FD003E00468E46872
:102E2000A40754D04FF4D874056804EB01142D594D
:102E300005F004059560F5B305682D59ED0855605A
:102E400005682C5904F00204D4604FF4DA74056864
:102E500004EB01142D5905F00F05156105682D5976
:102E6000C5F30725956105682C59240C54614FF46E
:102E7000DC72046802EB0112A4581C700468A458A8
:102E8000240A5C700468A458240C9C700468A2583E
:102E9000120EDA704FF4DE72046802EB0112A458CD
:102EA0001C710468A458240A5C710468A458240C9A
:102EB0009C71046800E016E0A258120EDA71B9B1F4
:102EC0000068016941F020010161002030BD416AC4
:102ED00041F400114162012030BD416A41F400110A
:102EE0004162012030BD05682D596D0D1560A7E7C1
:102EF0000068C16841F02001C160E6E70246002099
:102F000092F82010012901D002290CD111688A6899
:102F1000520100D501208A68120100D5401C896841
:102F2000C90000D5401C70472DE9F05F054600241C
:102F300028684669D0F804908768D0F80CA0D0F8CB
:102F400010B0D0F81880F10748D0F90714D001214B
:102F50008160B80703D5284600F0A8FA0CE078078E
:102F600002D54FF4006407E0380702D54FF48054CF
:102F700002E0284600F099FAF80516D529684FF4C2
:102F800080708860B80503D5284600F091FA0CE0FF
:102F9000780502D544F4005407E0380502D544F41E
:102FA000804402E0284600F082FAF80316D529682A
:102FB0004FF480308860B80303D5284600F07AFAD1
:102FC0000CE0780302D544F4004407E0380302D54E
:102FD00044F4803402E0284600F06BFA300707D54D
:102FE0005FEACA6004D544F4007429681020C86000
:102FF00070074FF0080707D55FEA0A7004D5286804
:10300000C760284600F0C8F9B00706D52868C06830
:10301000800702D0284600F0C1F9700607D55FEAA4
:10302000CB6004D544F48064296810200861B006A0
:1030300007D55FEA0B7004D528680761284600F0C1
:10304000D9F9F00606D528680069800702D028461D
:1030500000F0D2F9B00308D55FEAC96005D5296848
:1030600010204860284600F0F3F9F00307D55FEA26
:10307000097004D528684760284600F01CFA30041F
:1030800046D55FEA497040D5F00504D55FEAC870BF
:1030900001D044F00104B00504D55FEA887001D581
:1030A00044F00204700504D55FEA487001D544F08D
:1030B0000404300529D518F0700F26D008F07000F0
:1030C000402815D006DC102809D020280AD0302846
:1030D00016D10AE050280ED0602811D10EE044F03D
:1030E00008040DE044F010040AE044F0200407E076
:1030F00044F0400404E044F0800401E044F48074AF
:103100002868816921F07001816129680420486084
:10311000002C05D0686A204368622846FFF76AFEE3
:10312000BDE8F09F70B50446002C03D094F8200051
:1031300010B104E0012070BD204600F09DF8206829
:10314000016841F00101016000F096FC054605268A
:103150000CE000F091FC401B0A2807D9606A40F49B
:103160000030606284F82060012070BD20684068F3
:10317000C007EED02068016821F00201016000F074
:103180007BFC05460CE000F077FC401B0A2807D9C1
:10319000606A40F40030606284F82060012070BDF5
:1031A000206840688007EED4207E01283FD0206848
:1031B000016821F080010160607E01283DD0206817
:1031C000016821F040010160A07E01283BD0206809
:1031D000016821F020010160E07E012839D02068DB
:1031E000016841F010010160207F012837D020687C
:1031F000016821F008010160607F012835D0206856
:10320000016821F004010160D4E902010843D4E916
:103210000412114308436168491E08432168C861CC
:1032200000206062012084F82000002070BD20682A
:10323000016841F080010160BEE72068016841F04B
:1032400040010160C0E72068016841F02001016091
:10325000C2E72068016821F010010160C4E720681E
:10326000016841F008010160C6E72068016841F08B
:1032700004010160C8E700002DE9F04186B0044672
:10328000142101A8FDF705FA3E4B3F4ADFF8F08014
:10329000186821683C4C03260227401C1032002588
:1032A0004FF0090C41452FD11860012807D1106853
:1032B00040F000701060106800F00070009020680E
:1032C00040F008002060206800F00800009001969F
:1032D000029703950496CDF814C001A92B4800F07D
:1032E000E3FA00220521132000F064FC132000F013
:1032F00053FC00220521142000F05CFC142000F097
:103300004BFC06B0BDE8F081DFF884804145F8D180
:10331000116841F080611160116801F080610091D5
:103320001860012807D1106840F000701060106824
:1033300000F000700090206840F0020020602068DB
:1033400000F0020000904FF4405001900297039566
:103350000496CDF814C001A90E4800F0A5FA002289
:1033600005213F2000F026FC3F2000F015FC002244
:103370000521402000F01EFC402000F00DFCC0E7BD
:10338000006400401400002030380240000C02406D
:1033900000680040000402407047000070B5044619
:1033A0001048114D114E84420AD12B46A5F11C0242
:1033B00000212046FFF71FFD3168A5F11C0088475A
:1033C0000B4884420CD1084A2B461C3A0021204667
:1033D000FFF711FD7168BDE8704003481C380847CD
:1033E00070BD000048010020704F0020A8000020A0
:1033F000700100207047000070B504461048114D60
:10340000114E84420AD12B46A5F11C02012120460F
:10341000FFF7F1FC3168A5F11C0088470B48844296
:103420000CD1084A2B461C3A01212046FFF7E3FC49
:103430007168BDE8704003481C38084770BD000043
:1034400048010020944F0020A800002070010020B7
:10345000704770B5044694F82000012805D0606AD2
:1034600040F400206062012070BD022084F820003A
:103470002068016821F00101016000F0FDFA0546B5
:103480000DE000F0F9FA401B0A2808D9606A40F400
:1034900000306062052084F82000012070BD2068A3
:1034A0004068C007EDD1606270BD704770477047DB
:1034B00070477047704770472DE9F0410446A76D8B
:1034C00000F0DAFA054694F835000026022806D006
:1034D0008020606584F834600120BDE8F0812068B8
:1034E000016821F0160101602068416921F0800126
:1034F0004161206C08B9A06C20B12068016821F0FE
:10350000080101602068016821F0010101600BE001
:1035100000F0B2FA401B052806D92020343420627E
:10352000032060702670D8E720680068C007EFD1DC
:1035300034343F2094F828108840B860012060702F
:1035400026700020C9E790F83510022903D08021A9
:10355000416501207047052180F835100068016839
:1035600021F0010101600020704700002DE9F843BF
:1035700004464FF00009CDF800906F484FF4165103
:103580000068B0FBF1F7A56D2E6894F85C00082286
:1035900002FA00F1314210D02068016849070CD5C9
:1035A000016821F00401016094F85C0002FA00F166
:1035B000A960606D40F00100606594F85C104FF008
:1035C000010808FA01F0304208D02168496909066B
:1035D00004D5A860606D40F00200606594F85C104E
:1035E00004208840304208D021680968890704D542
:1035F000A860606D40F00400606594F85C101020D5
:103600008840304220D02168096809071CD5A8608D
:103610002068016849030CD50068000304D4216CBC
:1036200091B1204688470FE0A16C69B120468847D8
:103630000AE00168C90503D4016821F008010160AE
:10364000216C09B12046884794F85C1020208840FE
:1036500030424CD021680968C90648D5A86094F862
:10366000350005280BD020680168490330D5006873
:10367000000328D4616C51B32046884737E02068A6
:10368000016821F0160101602068416921F0800184
:103690004161206C08B9A06C20B12068016821F05C
:1036A0000801016094F85C103F208840A86084F80D
:1036B000358084F83490216D00293BD001B020463C
:1036C000BDE8F0430847E16B09B1204688470EE0AA
:1036D0000168C90507D4016821F01001016084F870
:1036E000358084F83490E16B09B120468847606DDD
:1036F00000281FD0606DC00714D0052084F8350065
:103700002068016821F0010101600098401C0090D0
:10371000B84203D820680068C007F6D184F8358025
:1037200084F83490E16C002904D001B02046BDE853
:10373000F0430847BDE8F883240000202DE9F0415C
:10374000044600F099F905465CB1022084F8350082
:10375000002684F834602068016821F001010160CE
:103760000DE00120BDE8F08100F086F9401B05283E
:1037700005D920206065032084F83500F2E7206831
:103780000068C007F0D121680A6820480240D4E9E7
:1037900001031843D4E903352B43184363691843E5
:1037A000A3691843E3691843236A18431043626A04
:1037B000042A03D1D4E90B231A431043086020687C
:1037C000406920F00700656A29460543012704295E
:1037D0000DD1A06A0543E06A48B12046FFF75EF9C3
:1037E00028B14020606584F835700120BAE7206870
:1037F00045612046FFF73CF994F85C203F21914059
:103800008160666584F835700020ABE73F8010F07A
:103810002DE9F04104460025A66D94F834000128F6
:103820000DD0012084F8340094F835700020012F69
:1038300007D084F8340002252846BDE8F081022034
:10384000FBE7022784F8357060652046FFF762F9D0
:1038500094F85C103F208840B0602068016841F017
:1038600016010160206C20B12068016841F0080158
:1038700001602068016841F001010160DCE700009F
:1038800001468022014803F069BB0000405000203F
:1038900010B504490A68024202D00860FFF7F0FF41
:1038A00010BD0000143C01402DE9F84F0022DFF864
:1038B0009C914FF0010803274FF00F0C09F1040A07
:1038C000A9F1040B08FA02F50B682B40AB426ED14C
:1038D0000C7904F00304012C01D0022C15D1866868
:1038E000540007FA04FE26EA0E06D1F80CE00EFAA0
:1038F00004FE4EEA060EC0F808E04468AC430D79B9
:10390000C5F300159540254345600C79E443A407B1
:1039100008D0C568540007FA04F6B5438E68A6407F
:103920002E43C6600C7904F00304022C11D1D40894
:1039300000EB8406356A5407E40E0CFA04FE25EA0F
:103940000E05D1F810E00EFA04FE4EEA050EC6F898
:1039500020E00568540007FA04F6B5430E7906F036
:103960000306A6402E4306604C6814F4403F67D01F
:10397000374C256845F480452560246804F480446C
:103980000094344C22F003052E19D6F808589407F9
:103990004FEA147E0CFA0EF4A5432F4CA04201D13D
:1039A000002424E02D4CA04202D101241FE047E076
:1039B0002B4CA04201D1022419E02A4CA04201D193
:1039C000032414E0284CA04201D104240FE0274C2A
:1039D000A04201D105240AE0254CA04201D10624D1
:1039E00005E0244CA04201D1072400E0082404FA99
:1039F0000EF42C43C6F80848D9F800409C434D68A3
:103A0000ED0200D51C43C9F80040DAF800409C43A1
:103A10004D68AD0200D51C43CAF80040DBF80040F9
:103A20009C434D68AD0300D51C43CBF80040074DC7
:103A3000083D2C689C434E68F60300D51C432C605F
:103A4000521C102AFFF43EAFBDE8F88F083C01403D
:103A500044380240003001400000024000040240AF
:103A600000080240000C0240001002400014024016
:103A700000180240001C02400148806870470000A6
:103A80001800002002488168027811448160704764
:103A90001800002010B50B48016841F40071016066
:103AA000016841F480610160016841F48071016046
:103AB000032000F09FF80F2000F006F800F050F807
:103AC000002010BD003C024030B587B00546002400
:103AD0001E48016841F002010160006800F0020028
:103AE000009001A902A800F03DF90598A8B100F0E6
:103AF0005DF940001649B0FBF1F1491E1648154A20
:103B0000026040F2E732C260416004618460846117
:103B100000F0CAFB04461CB115E000F047F9E9E7E4
:103B20000D4800F013FC04466CB91D2000F034F879
:103B3000102D07D2002229461D2000F03BF807482F
:103B4000056000E0012407B0204630BD4038024047
:103B500040420F0000040040380600201C000020F6
:103B600082B00C48016841F480410160006800F4B3
:103B7000804001900748001F016841F080510160BA
:103B8000006800F08050019000220F21901E02B0CA
:103B900000F010B844380240002809DB00F01F0292
:103BA000012191404009800000F1E020C0F800119F
:103BB00070470000F0B40D460D4B1B68C3F30223A1
:103BC000C3F10704042C00D90424191D072901D2CC
:103BD000002300E0DB1E012606FA04F1491E2940FD
:103BE00099409E40761E16403143F0BC03F03DBE26
:103BF0000CED00E000F00701054A10684FF6FF03E6
:103C0000184040EA01200349084310607047000053
:103C10000CED00E00000FA052DE9F04704460D46E2
:103C2000002C13D0DFF82891D9F80000EFB200F093
:103C30000700A8420CD289F80070D9F8000000F003
:103C40000700A84204D00120BDE8F0870120FBE76F
:103C50002068404E810712D5400703D5306840F4F4
:103C6000E05030602078000703D5306840F46040B1
:103C700030603068A16820F0F000084330602078A0
:103C8000C00731D0334960680839012808D00228BC
:103C90000BD0032809D0096889070BD40120D3E78A
:103CA0000968890306D40120CEE70968890101D497
:103CB0000120C9E7316821F0030101433160FFF7BA
:103CC000DBFE804641F2883A07E0FFF7D5FEA0EB25
:103CD0000800504501D90320B6E73068616800F05C
:103CE0000C00B0EB810FF0D1D9F8000000F0070014
:103CF000A84209D989F80070D9F8000000F007003F
:103D0000A84201D001209FE72078400705D5306800
:103D1000E16820F4E050084330602078000706D5C1
:103D20003068216920F4604040EAC100306000F052
:103D30005DF83168084AC1F30311515CC840074976
:103D4000086007480068FFF7BFFE00207CE700001E
:103D5000003C024008380240BCA3000824000020B8
:103D60001C0000200F2202600B4A136803F00303BB
:103D70004360136803F0F0038360136803F4E053B7
:103D8000C360126802F46042D2080261034800680E
:103D900000F007000860704708380240003C02400D
:103DA00001480068704700002400002000B5FFF7BC
:103DB000F7FF04490968044AC1F38221515CC840F5
:103DC00000BD000008380240CCA3000800B5FFF792
:103DD000E7FF04490968044AC1F34231515CC84015
:103DE00000BD000008380240CCA3000810B51748F9
:103DF000006810F00C01164816D04310042912D0A8
:103E0000082911D1114C241F216801F03F022168BB
:103E100049020AD52068C0F38810A0FB03010023E3
:103E2000FCF7F0FA09E0184610BD21680023C1F341
:103E30008811A1FB0001FCF7E5FA2168C1F30141FB
:103E4000491C4900B0FBF1F010BD000008380240E9
:103E50000024F4002DE9F84F0446002C13D02078FC
:103E6000DFF8A083C007A8F1040556D008F10400CC
:103E70000168C1F3810101290CD00068C0F3810001
:103E8000022803D00DE00120BDE8F88FD8F800002B
:103E9000400206D5286880033FD5606870BB0120CA
:103EA000F2E76068B0F5803F10D0B0F5A02F12D0D7
:103EB000286820F480302860286820F4802028605A
:103EC0006068E0B1FFF7D8FD064614E0286840F4CA
:103ED00080302860F4E7286840F480202860286853
:103EE00040F480302860EBE7FFF7C6FD801B6428B4
:103EF00001D90320C8E728688003F5D50DE0FFF756
:103F0000BBFD064606E0FFF7B7FD801B642801D91C
:103F10000320B9E728688003F5D42078BA4F8007DA
:103F20004FF0000948D5B748001D016811F00C0F8B
:103F300008D00068C0F38100022813D1D8F800002F
:103F400040020FD42868800704D5E068012801D01A
:103F5000012099E72868216920F0F80040EAC100B3
:103F6000286029E0E068B8B101203860FFF784FDDF
:103F7000064606E0FFF780FD801B022801D90320DA
:103F800082E728688007F5D52868216920F0F800C5
:103F900040EAC10028600FE0C7F80090FFF76CFD11
:103FA000064606E0FFF768FD801B022801D90320C2
:103FB0006AE728688007F5D42078000729D5DFF85C
:103FC00044A2924861690AF1700A89B10121016035
:103FD000FFF752FD064606E0FFF74EFD801B022864
:103FE00001D9032050E7DAF800008007F4D510E08B
:103FF000C0F80090FFF740FD064606E0FFF73CFDE5
:10400000801B022801D903203EE7DAF80000800770
:10401000F4D42078400778D54FF0000A79483C3036
:104020000068C0000BD477483C30016841F08051F3
:104030000160006800F0805000904FF0010ADFF846
:10404000D0B1DBF80000C00514D4DBF8000040F468
:104050008070CBF80000FFF70FFD064606E0FFF783
:104060000BFD801B022801D903200DE7DBF80000BF
:10407000C005F4D5634EA0686C3601280FD0052822
:1040800012D0306820F001003060306820F0040069
:104090003060A068F8B1FFF7EFFC834617E03068A6
:1040A00040F001003060F4E7306840F00400306018
:1040B000306840F001003060EBE7FFF7DDFCA0EB7B
:1040C0000B0141F28830814201D90320DCE63068DF
:1040D0008007F2D510E0FFF7CFFC834609E0FFF739
:1040E000CBFCA0EB0B0141F28830814201D90320C7
:1040F000CAE630688007F2D4BAF1010F05D1414811
:104100003C30016821F080510160A069C0B33D4995
:10411000091D09684FF0FF36C1F38101022946D01D
:10412000022805D0C7F86090FFF7A6FC04463AE0E5
:10413000C7F86090FFF7A0FC814607E0FFF79CFC02
:10414000A0EB0900022801D903209DE62868800120
:10415000F4D4D4E907010843616AA26A890106EB35
:10416000520241EA0241084394F82C1040EA0160EF
:10417000C8F8000001203866FFF77EFC044607E01F
:104180003DE0FFF779FC001B022801D903207BE604
:1041900028688001F5D532E0FFF76EFC001B02288D
:1041A00001D9032070E628688001F5D427E00128B2
:1041B00023D0D8F80000E26900F4800191421AD1BE
:1041C000226A00F03F01914215D147F6C071626A40
:1041D0000140B1EB821F0ED1A26A00F4403106EB20
:1041E0005202B1EB024F06D194F82C1000F070602F
:1041F000B0EB016F03D0012046E6012044E6002029
:1042000042E600000438024000004742800E474268
:10421000007000407047704770B590F83C20012A4C
:1042200031D0012680F83C60022280F83D200268EF
:104230005468936824F070050C682C435460134C48
:104240000268A24214D0B2F1804F11D0104CA242A9
:104250000ED0104CA2420BD00F4CA24208D00F4CF3
:10426000A24205D00E4CA24202D00E4CA24204D172
:1042700023F080034968194391603C304670002167
:104280000170002070BD022070BD000000000140E0
:104290000004004000080040000C00400004014001
:1042A000004001400018004010B50446002C03D027
:1042B00094F83D0010B107E0012010BD002084F803
:1042C0003C00204600F016F8022084F83D00211D35
:1042D000206801F00FFA01203D3460726070A07018
:1042E000E07020716071A071E07120722070002078
:1042F00010BD000008B500681149884212D111486C
:10430000016841F004010160006800F004000090C1
:10431000002205211E20FFF74DFCBDE808401E20AD
:10432000FFF73ABC0849884209D10648001D0168D8
:1043300041F400310160006800F40030009008BDD5
:1043400000080040403802400044014090F83D1011
:10435000012901D001207047022180F83D10016839
:10436000CA6842F00102CA6000681449884214D049
:10437000B0F1804F11D0124988420ED011498842C5
:104380000BD01149884208D01049884205D0104905
:10439000884202D00F49884209D1816801F00701A3
:1043A000062908D0016841F00101016003E00168BD
:1043B00041F0010101600020704700000000014051
:1043C0000004004000080040000C004000040140D0
:1043D000004001400018004070B50446002594F8E4
:1043E0003C00012817D0012684F83C60022084F8A4
:1043F0003D002068826822F0770222F47F428260CA
:104400000868502838D00DDC202853D005DC90B344
:10441000102811D14EE0022070BD30284AD040282B
:104420000AD13DE0602831D070280CD0B0F5805F13
:1044300003D0B0F5005F12D001253C346670002037
:104440002070284670BDCB68D1E90121206801F0B9
:10445000C4F92068816841F077018160EDE7CB689D
:10446000D1E90121206801F0B8F92068816841F4A0
:1044700080418160E1E71DE0CA684968206801F079
:104480008FFA5021206801F0B2F9D6E7CA6849686E
:10449000206801F096FA6021206801F0A8F9CCE7C5
:1044A000CA684968206801F07BFA4021206801F061
:1044B0009EF9C2E722680146104601F098F9BCE770
:1044C000704770B50446206801694FF00005C94384
:1044D000890716D4C168C943890712D4E91E01614E
:1044E0000120207720688069800703D02046FFF7ED
:1044F000E7FF05E0204600F0C5F8204600F055F93A
:10450000257720680169C943490718D4C168C943A0
:10451000490714D46FF0040101610220207720685C
:10452000806910F4407F03D02046FFF7C9FF05E003
:10453000204600F0A7F8204600F037F925772068DC
:104540000169C943090717D4C168C943090713D4CE
:104550006FF008010161042020772068C06980079E
:1045600003D02046FFF7ACFF05E0204600F08AF8B4
:10457000204600F01AF9257720680169C943C90669
:1045800018D4C168C943C90614D46FF01001016181
:10459000082020772068C06910F4407F03D02046AF
:1045A000FFF78EFF05E0204600F06CF8204600F093
:1045B000FCF8257720680169C943C90708D1C1689B
:1045C000C943C90704D1891E0161204600F05CF986
:1045D00020680169C943090609D4C168C9430906AD
:1045E00005D46FF0800101612046FFF713FE2068BB
:1045F0000169C943490609D4C168C943490605D4BC
:104600006FF040010161204600F054F92068016913
:10461000C94389060BD4C168C943890607D46FF022
:10462000200101612046BDE87040FFF7F4BD70BD78
:1046300010B586B00446142101A8FCF72AF80E48EC
:104640002168814215D100210C48026842F0200205
:104650000260006800F020000090402001900220DD
:104660000290039104910320059001A90448FFF7EB
:104670001BF906B010BD0000004401403038024074
:1046800000140240704770B504460D46002694F8A9
:104690003C0001280FD0012084F83C006AB1042AB4
:1046A0001FD0082A32D00C2A44D00126002084F8DA
:1046B0003C00304670BD022070BD2946206801F0E4
:1046C0009FF82068816941F0080181612068816953
:1046D00021F004018161206881692A6911438161A7
:1046E000E4E72946206801F0BFF82068816941F4B9
:1046F000006181612068816921F4806181612068A5
:1047000081692A6941EA02218161CFE7294620684F
:1047100001F0E4F82068C16941F00801C161206836
:10472000C16921F00401C1612068C1692A6911438E
:10473000C161BBE72946206801F008F92068C1691A
:1047400041F40061C1612068C16921F48061C161E7
:104750002068C1692A6941EA0221C161A6E710B552
:104760000446002C03D094F83D0010B107E001206E
:1047700010BD002084F83C00204600F015F802200F
:1047800084F83D00211D206800F0B4FF01203D3475
:1047900060726070A070E07020716071A071E07153
:1047A00020722070002010BD7047704710B504467D
:1047B000002909D004290AD008290BD094F8410017
:1047C00001280AD0012010BD94F83E00F8E794F8C3
:1047D0003F00F5E794F84000F2E70220A9B304296E
:1047E00037D0082938D084F841000122206800F031
:1047F000E7FF1E4920681E4A884201D0904203D13B
:10480000436C43F4004343642068884213D0B0F102
:10481000804F10D0174988420DD0174988420AD0DE
:104820001649884207D0904205D01549884202D0E7
:104830001449884213D1816801F00701062912D07A
:10484000016841F0010101600DE0FFE784F83E00DE
:10485000CBE784F83F00C8E784F84000C5E701686B
:1048600041F001010160002010BD00000000014086
:10487000000401400004004000080040000C00401B
:10488000004001400018004010B504460749206868
:10489000884201D1FFF7F6F805492068884203D124
:1048A000BDE8104001F014BC10BD00000004004041
:1048B000000800407047704710B504462068406902
:1048C000C0F3C01094F83D10212911D180B12068A7
:1048D000143050E8001F21F0800140E80012002A47
:1048E000F5D1606B08B1FEF7E7FD204601F05FF9F6
:1048F00020684069C0F3801094F83E10222911D13D
:1049000080B12068143050E8001F21F0400140E8D9
:104910000012002AF5D1A06B08B1FEF7CDFD2046AC
:1049200001F011F9002010BD70470000F8B50446F1
:1049300022681068D168536900F00F06002E08D174
:10494000850606D58D0604D52046BDE8F84001F061
:104950003CB90025002E66D003F0010601F49077E3
:10496000374360D0C20705D0CA0503D5226C42F098
:1049700001022264420705D5DA0703D0226C42F017
:1049800002022264820705D5DA0703D0226C42F0C6
:1049900004022264020707D501F02002324303D04B
:1049A000226C42F008022264226C002A31D0800678
:1049B00004D5880602D5204601F007F92068406931
:1049C000C0F38010216C090700D438B3204601F0F1
:1049D000BAF82068406940061CD52068143050E8B9
:1049E000001F21F0400140E80012002AF5D1A06B21
:1049F00060B157490165A06BFEF7A5FD002808D0FE
:104A0000A06B016D01B0BDE8F04008472046FFF7FC
:104A10008BFFF8BD2046FFF787FFF8BD2046FFF764
:104A200083FF2564F8BD236B012B7ED1C3067CD5A3
:104A3000CB067AD510685068009050694FF020037B
:104A4000400643D5A16B0868406880B20028E9D0D1
:104A5000A28D8242E6D9E085C869B0F5807F2DD06D
:104A600020680C3050E8001F21F4807140E80012EB
:104A7000002AF5D12068143050E8001F21F0010110
:104A800040E80012002AF5D12068143050E8001FD9
:104A900021F0400140E80012002AF5D184F83E30B0
:104AA000256320680C3050E8001F21F0100140E819
:104AB0000012002AF5D1A06BFEF7FEFCA08DE18D5F
:104AC000401A81B22046FFF7F6FEF8BDA08DE18DB9
:104AD000401A81B2E08D0028F7D00029F5D0206877
:104AE0000C3050E8002F22F4907240E80026002E8F
:104AF000F5D12068143050E8002F22F0010240E880
:104B00000026002EF5D184F83E30256320680C3055
:104B100050E8002F22F0100240E80023002BF5D1CE
:104B20002046FFF7C8FEF8BDFFE7020606D50A06D5
:104B300004D52046BDE8F84001F080B94006F2D522
:104B40004806F0D52046BDE8F84001F023B8000043
:104B5000055A000870B50446002C04D094F83D00B6
:104B6000002510B106E0012070BD84F83C502046BD
:104B700000F022F8242084F83D002068C16821F468
:104B80000051C160204601F083F82068016921F4DA
:104B9000904101612068416921F02A01416120684A
:104BA000C16841F40051C1602564202084F83D00B3
:104BB00084F83E00002070BD2DE9F04F87B0044618
:104BC000142102A8FBF765FDEB48DFF8A893143821
:104BD000D4F800A0DFF8A0B3022103220723DFF8F6
:104BE0009CC34027002506154FF00068CA4562D1D6
:104BF000DBF8009049F01009CBF80090DBF800904A
:104C000009F01009CDF80490D0F8009049F001099E
:104C1000C0F80090006800F001000190500202907E
:104C2000039104950592069302A96046FEF73CFEA7
:104C3000DFF85093D248C9F80000C9F80480C9F8D9
:104C40000870C9F80C50C9F81060C9F81450C9F8B8
:104C50001850C9F81C50C9F82050C9F824504846CB
:104C6000FEF76CFD08B1FDF79FFFC4F83490C9F85A
:104C70003840C348C34F783860373860C7F804807D
:104C8000BD60FD603E617D61BD61FD613D627D6233
:104C90003846FEF753FD08B1FDF786FFA763BC63F6
:104CA000002205212520FEF785FF2520FEF774FF51
:104CB00007B0BDE8F08FDFF8D0E2DFF8BC92F24534
:104CC000A9F104096DD1D9F800A04AF4003AC9F855
:104CD00000A0D9F8009009F40039CDF80490D0F87C
:104CE000009049F00109C0F80090006800F0010050
:104CF00001900C200290039104950592069302A95D
:104D00006046FEF7D1FDDFF87C92A04809F1C009AA
:104D1000C9F80000C9F80480C9F80850C9F80C5057
:104D2000C9F81060C9F81450C9F81850C9F81C50D7
:104D3000C9F82050C9F824504846FEF7FFFC08B1D6
:104D4000FDF732FFC4F83890C9F838408F48DFF8D3
:104D500040921830C9F80000C9F80480C9F80870FA
:104D6000C9F80C50C9F81060C9F81450C9F81850A7
:104D7000C9F81C50C9F82050C9F824504846FEF71D
:104D8000DDFC08B1FDF710FFC4F83490C9F83840D5
:104D9000002205212620FEF70DFF2620FEF7FCFE4F
:104DA00086E7DFF8F0C1E24572D1D9F800C04CF4D3
:104DB000802CC9F800C0D9F800C00CF4802CCDF8C4
:104DC00004C0D0F800C04CF0020CC0F800C000686D
:104DD00000F0020001904FF44060029003910495AE
:104DE0000592069302A96C48FEF75EFDDFF8A091DC
:104DF000664809F160096038C9F80000C9F8048004
:104E0000C9F80850C9F80C50C9F81060C9F8145016
:104E1000C9F81850C9F81C50C9F82050C9F82450D6
:104E20004846FEF78BFC08B1FDF7BEFEC4F838908B
:104E3000C9F83840DFF85891544809F1C0093038B2
:104E4000C9F80000C9F80480C9F80870C9F80C5006
:104E5000C9F81060C9F81450C9F81850C9F81C50A6
:104E6000C9F82050C9F824504846FEF767FC08B13D
:104E7000FDF79AFEC4F83490C9F8384000220521A5
:104E80002720FEF797FE2720FEF786FE10E7FFE7B4
:104E9000424B9A4584D1DBF8003043F02003CBF835
:104EA0000030DBF8003003F020030193036843F087
:104EB00004030360006800F004000190C020029029
:104EC0000391049505920820069002A93448FEF744
:104ED000EBFC2B48DFF8CC809038C8F800004FF08E
:104EE0002069C8F80490C8F80850C8F80C50C8F8F1
:104EF0001060C8F81450C8F81850C8F81C50C8F80A
:104F00002050C8F824504046FEF718FC08B1FDF7C1
:104F10004BFEC4F83880C8F83840DFF8888018485D
:104F200008F160081838C8F80000C8F80490C8F8FC
:104F30000870C8F80C50C8F81060C8F81450C8F8C9
:104F40001850C8F81C50C8F82050C8F824504046E3
:104F5000FEF7F4FB08B1FDF727FEC4F83480C8F86B
:104F60003840002205214720FEF724FE4720FEF7A7
:104F700013FE9DE60010014044380240000002404C
:104F8000B8640240380300200044004088600240BA
:104F90005804002000480040000402400014014072
:104FA000000802407805002090F83E30202B01D008
:104FB0000220704759B152B190F83C30012B08D013
:104FC000012380F83C300023036300F0EBBE012096
:104FD000704702207047704770470000F7B50446DD
:104FE00094F83D00202801D00220FEBD019999B31C
:104FF00092B394F83C00012831D0012084F83C00A1
:105000002162A284E28400252564212084F83D00E9
:10501000636B1448D863636B13481864636B13485D
:10502000D864606B056526681346361D3246606B92
:10503000FEF7EEFB21686FF04000086084F83C50FA
:105040002068143050E8001F41F0800140E8001251
:10505000002AF5D10020FEBDFFE70120FBE702207A
:10506000F9E70000FB5A00083D5B0008155A0008EC
:1050700070477047FEE7000010B50F480D4901600A
:105080000321416000218160C1604FF40022026170
:105090004FF440124261017641768176C176017704
:1050A0004177FEF73FF8002803D0BDE81040FDF738
:1050B0007BBD10BD006400404801002010B50F48C2
:1050C0000D4901600321416000218160C1604FF4FE
:1050D000002202614FF440124261017641768176EE
:1050E000C17601774177FEF71DF8002803D0BDE8AF
:1050F0001040FDF759BD10BD006800407001002050
:1051000008B52948016841F480010160016801F493
:1051100080010091016841F400110160006800F411
:1051200000100090002205210C20FEF743FD0C200A
:10513000FEF732FD002205210E20FEF73BFD0E207A
:10514000FEF72AFD002205211020FEF733FD102076
:10515000FEF722FD002205211120FEF72BFD112074
:10516000FEF71AFD002205213920FEF723FD392024
:10517000FEF712FD002205213A20FEF71BFD3A2022
:10518000FEF70AFD002205214520FEF713FD45200C
:10519000FEF702FD002205214620FEF70BFDBDE8CB
:1051A00008404620FEF7F8BC3038024010B5124ADD
:1051B0000021124802F05CFF114C20600E4A0021D1
:1051C0002432104802F054FF60600B4A002148323C
:1051D0000D4802F04DFFA060074A00216C320B48D9
:1051E00002F046FFE060044A00219032084802F0D5
:1051F0003FFF206110BD000000A30008B525000896
:10520000000000204927000839260008E760000850
:105210007522000800B587B0142102A8FBF739FAFF
:1052200000212248026842F004020260026802F093
:1052300004020192026842F020020260026802F059
:1052400020020192026842F080020260026802F0CD
:1052500080020192026842F001020260026802F0DC
:1052600001020192026842F002020260026802F04A
:1052700002020192026842F008020260006800F037
:1052800008000190802002904FF488100390049150
:1052900002A90748FEF708FB002205211720FEF7A8
:1052A00089FC1720FEF778FC07B000BD30380240BB
:1052B0000014024010B588B01C2101A8FBF7E9F9E1
:1052C000154814490160532141600024846040F670
:1052D0003301C16004618461FEF7E6FF08B1FDF7A8
:1052E00063FC0D48FFF73BFA08B1FDF75DFC602059
:1052F0000190029403940594002201A90648FFF747
:10530000C2F908B1FDF750FC0348FFF791F908B066
:1053100010BD000000440140E001002010B586B03F
:105320000024029403940494059400940194144876
:10533000124901605321416084604FF6FF71C160E2
:1053400004618461FEF7B0FF08B1FDF72DFC4FF456
:105350008050029002A90A48FFF73EF808B1FDF715
:1053600023FC0094019469460548FEF755FF002888
:1053700001D0FDF719FC06B010BD00000008004088
:105380009801002010B50C480A4901604FF4E13142
:10539000416000218160C16001610C224261816134
:1053A000C161FFF7D7FB002803D0BDE81040FDF72F
:1053B000FBBB10BD001001402802002010B50C48B6
:1053C0000A4901604FF4E131416000218160C16010
:1053D00001610C2242618161C161FFF7BBFB0028C2
:1053E00003D0BDE81040FDF7DFBB10BD0044004016
:1053F0006C02002010B50C480A4901604FF4E131FD
:10540000416000218160C16001610C2242618161C3
:10541000C161FFF79FFB002803D0BDE81040FDF7F6
:10542000C3BB10BD00480040B002002010B50C48BE
:105430000A4901604FF4E131416000218160C1609F
:1054400001610C2242618161C161FFF783FB002889
:1054500003D0BDE81040FDF7A7BB10BD001401400C
:10546000F4020020FEE7FEE770B514461D46E0603A
:1054700061602046FEF718FF29462046BDE87040CF
:10548000FFF794B9F8B504460E4600230022012523
:105490005BE0082B58D2DFE803F0040B141D26381C
:1054A000454EA05CFC2800D10123521CD2B24CE036
:1054B000A05CFB2803D00023521CD2B245E002239B
:1054C000FAE7A05C012803D00023521CD2B23CE0D2
:1054D0000323FAE7A05C142803D00023521CD2B2A5
:1054E00033E00423FAE7A6F11800824200DD00252C
:1054F00000201949A75C0F54521CD2B2401CC0B204
:105500001428F7D35B1CDBB21FE000206946A75CC0
:105510000F54521CD2B2401CC0B20228F7D35B1CFD
:10552000DBB212E0A05CFD2803D00023521CD2B2F3
:105530000BE00723FAE7A05CFE2802D1064800F042
:105540008FFD0023002500E00023B24201D2012D8F
:105550009FD00020F8BD0000B45000200068C36A4E
:105560005B1C53436422B3FBF2F2002905D00429EB
:1055700005D0082905D002647047426370478263F2
:105580007047C263704710B54FF0E020006904F027
:105590001DF8012803D0BDE8104003F015BD10BD73
:1055A00030B593B0302107A8FBF773F8142102A897
:1055B000FBF76FF800251D48016841F0805101603C
:1055C000006800F0805001901948016841F4804162
:1055D0000160006800F48040019001200790000401
:1055E000089002240D9480010E9004200F90A821B1
:1055F00010911194129007A8FEF72CFC08B1FDF74A
:10560000D3FA0F200290039404954FF4A050059014
:105610004FF480500690052102A8FEF7FDFA0028FD
:1056200001D0FDF7C1FA13B030BD00004038024090
:10563000007000400248016841F470010160704749
:1056400088ED00E010B5FDF77BFA02211A4800F062
:10565000CBF90023194A49F63F4141F26700FFF7B1
:1056600003FF17491748FDF73BF817491748FDF79F
:1056700037F800231A4619461248FDF701F80023AF
:105680001A460C210F48FCF7FBFF00231A46722133
:105690000E48FCF7F5FF00231A467E210B48FCF765
:1056A000EFFF0B4B23220B490B4800F02FFCBDE80A
:1056B0001040FCF739BF000098010020E0010020F5
:1056C0005D2500084801002009260008700100201F
:1056D00085540008C8500020B00200200148FEF7A1
:1056E000F0BE0000380600200148FEF7EABE0000C8
:1056F000980100202DE9F0410268264D264E274FE3
:10570000DFF89CC0274B4FF08048A84209D04045A5
:1057100007D0B04205D0B84203D0604501D09842CE
:1057200003D122F070044A682243A8421BD04045AE
:1057300019D0B04217D0B84215D0604513D0984266
:1057400011D0194CA0420ED0184CA0420BD0184CCE
:10575000A04208D0174CA04205D0174CA04202D05E
:10576000164CA04203D122F44074CA6822434C690B
:1057700022F08002224302608A68C2620A68826262
:10578000A84201D0984201D1096901630121416118
:10579000BDE8F08100000140000400400008004026
:1057A000000C004000040140004001400044014062
:1057B0000048014000180040001C0040002000404C
:1057C00010B501F01F0101238B40046A9C43046261
:1057D000036A8A401343036210BD10B5846824F441
:1057E0007F4442EA03220A432243826010BD82685A
:1057F00022F070020A4342F0070181607047000006
:10580000F0B5026A22F001020262026A436884690A
:1058100024F0700424F003050C682C4322F00205E8
:105820008A682A430E4E0F4FB04201D0B84205D1CC
:1058300022F00805CA682A4322F00402B04201D0CF
:10584000B84207D123F4807323F400734D691D43DC
:105850008B692B4343608461496841630262F0BDF8
:105860000000014000040140F0B5026A22F010027D
:105870000262036A4268846924F4E04424F44074B8
:105880000D6844EA052423F020038D6843EA0513DC
:10589000104D114EA84201D0B04206D123F0800332
:1058A000CF6843EA071323F04003A84201D0B04277
:1058B00009D122F4806222F400624D6942EA850235
:1058C0008D6942EA850242608461496881630362AE
:1058D000F0BD00000000014000040140F0B5026A84
:1058E00022F480720262026A4368C46924F0700480
:1058F00024F003050C682C4322F400728D6842EA00
:105900000522104D104EA84201D0B04206D122F41B
:105910000062CF6842EA072222F48062A84201D0E6
:10592000B04209D123F4805323F400534D6943EA74
:1059300005138D6943EA05134360C4614968C16377
:105940000262F0BD000001400004014030B5026A6F
:1059500022F480520262046A4268C36923F4E0437D
:1059600023F440730D6843EA052324F400548D6842
:1059700044EA0534084DA84202D0084DA84204D19B
:1059800022F480424D6942EA85124260C36149684F
:105990000164046230BD00000000014000040140C9
:1059A00010B5036A046A24F001040462846924F0D7
:1059B000F00444EA021423F00A020A4384610262FA
:1059C00010BD10B5036A23F0100303628469036AF3
:1059D00024F4704444EA023223F0A00343EA0111A4
:1059E0008261016210BD000010B5054A106011719E
:1059F000FEF7ACFC002801D0FDF7D8F810BD000080
:105A0000B400002010B5806B0021C185C184FEF771
:105A10008BFF10BD70B5846B20684069C0F3C01067
:105A200094F83D100025212904D118B1E5842046C1
:105A300000F0BDF820684069C0F3801094F83E1073
:105A4000222904D118B1E585204600F07CF8206CAD
:105A500040F0100020642046FEF766FF70BD10B5D0
:105A60000146886B09680968C9052FD40021C185E2
:105A700001680C3151E8002F22F4807241E80023C4
:105A8000002BF5D10168143151E8002F22F00102FA
:105A900041E80023002BF5D10168143151E8002FB3
:105AA00022F0400241E80023002BF5D1202180F8AC
:105AB0003E10016B012909D101680C3151E8002F1A
:105AC00022F0100241E80023002BF5D1016B0129DF
:105AD00002D0FFF780FA10BD818DFEF7ECFE10BDFD
