:020000040800F2
:100000000862002019030008B14B0008C94100082C
:10001000894B0008310E00087D5B000800000000DD
:10002000000000000000000000000000590200086D
:10003000E914000800000000B50200080D4C00089B
:1000400033030008330300083303000833030008B8
:1000500033030008330300083303000833030008A8
:100060003303000833030008330300086512000857
:10007000751200088512000895120008A5120008E4
:10008000B5120008C512000833030008850E0008E9
:10009000350E00083303000833030008EB14000892
:1000A0003303000833030008330300083303000858
:1000B00033030008614D0008714D00083303000848
:1000C0003303000833030008330300083303000838
:1000D00033030008855700089D57000833030008C4
:1000E0003303000833030008330300083303000818
:1000F000330300083303000833030008D512000857
:1001000033030008330300083303000833030008F7
:10011000CD50000833030008330300083303000800
:1001200033030008E5120008F51200083303000845
:10013000330300083303000833030008E50E00080A
:10014000950E00083303000833030008330300084A
:10015000330300080513000815130008B5570008FD
:100160003303000833030008330300083303000897
:1001700033030008330300083303000800000000C5
:10018000330300083303000800F002F800F055F8CC
:100190000AA090E8000C82448344AAF10107DA45E2
:1001A00001D100F04AF8AFF2090EBAE80F0013F0DF
:1001B000010F18BFFB1A43F00103184778BA00007B
:1001C00098BA00000A4410F8014B14F00F0508BF5C
:1001D00010F8015B240908BF10F8014B6D1E05D013
:1001E00010F8013B6D1E01F8013BF9D1641E03D0EC
:1001F000641E01F8015BFBD19142E4D3704700001B
:100200000023002400250026103A28BF78C1FBD81F
:10021000520728BF30C148BF0B6070471FB50BF0B5
:100220009AFA9DE8030000F0BFFA00F0CDF91FBD77
:1002300010B5002000F051FA10BD00F0F7FA114699
:10024000FFF7ECFF08F03BFB00F02FFB03B4FFF7D8
:10025000EFFF03BC00F0E4FA2C4B19680868B0E823
:10026000F04F80F30988BFF36F8F4FF0000080F3E9
:10027000118870470000000008480068006880F39B
:1002800008884FF0000080F3148862B661B6BFF3AF
:100290004F8FBFF36F8F00DF00BF00BF08ED00E09E
:1002A000DFF80C00016841F470010160704700BF85
:1002B00088ED00E0EFF30980BFF36F8F134B1A68EE
:1002C0001EF0100F08BF20ED108A20E9F04F1060DB
:1002D00009B44FF0500080F31188BFF34F8FBFF384
:1002E0006F8F09F035FC4FF0000080F3118809BCD6
:1002F00019680868B0E8F04F1EF0100F08BFB0ECA6
:10030000108A80F30988BFF36F8F70472C0000209C
:10031000EFF305807047000009488047094800470F
:10032000FEE7FEE7FEE7FEE7FEE7FEE7FEE7FEE7A5
:10033000FEE7FEE704480549054A064B7047000002
:10034000D94C000889010008085C002008620020E0
:10035000085E0020085E002053EA020C00F069806D
:100360002DE9F04B4FF00006002B1FBFB3FA83F5C9
:1003700003FA05F424FA05F65E4012BF1643B2FAFA
:1003800082F502FA05F4C5F120051EBF22FA05FC2C
:1003900044EA0C04203556EA044C4FEA144418BFD2
:1003A000641C4FF000084FF00009904271EB030C01
:1003B00039D3002919BFB1FA81F701FA07F6B0FA6B
:1003C00080F700FA07F6C7F120071EBF20FA07FCE6
:1003D00046EA0C062037B6FBF4FCA7EB0507103FF6
:1003E00007F01F0BCBF120060CFA0BFB2CFA06F6DC
:1003F00044BFB3460026202FA4BF5E464FF0000B3B
:100400005BEA060C08BF4FF0010B19EB0B09ABFBC5
:10041000027C48EB0608C01B06FB02CC0BFB03CC9E
:1004200071EB0C01C1E70B46024641464846BDE868
:10043000F08B13B54FF000004FF00001AFF30080D8
:10044000BDE81C4070472DE9F041074615460E46B1
:10045000102000F0E1F804000AD06760C4E90265EA
:1004600000F0D6F80168216004600020BDE8F0814A
:100470000120FBE7032A40F2308010F0030C00F06B
:10048000158011F8013BBCF1020F624498BF11F8CE
:1004900001CB00F8013B38BF11F8013BA2F1040287
:1004A00098BF00F801CB38BF00F8013B11F00303FF
:1004B00000F02580083AC0F0088051F8043B083A63
:1004C00051F804CBA0E80810F5E7121D5CBF51F805
:1004D000043B40F8043BAFF30080D20724BF11F87F
:1004E000013B11F801CB48BF11F8012B24BF00F8E4
:1004F000013B00F801CB48BF00F8012B704710B555
:10050000203AC0F00B80B1E81850203AA0E818500B
:10051000B1E81850A0E81850BFF4F5AF5FEA027CCC
:1005200024BFB1E81850A0E8185044BF18C918C03B
:10053000BDE810405FEA827C24BF51F8043B40F8DC
:10054000043B08BF7047D20728BF31F8023B48BFC1
:1005500011F8012B28BF20F8023B48BF00F8012BFF
:10056000704702F0FF0343EA032242EA024200F02E
:10057000D7B84FF0000200B513469446964620398E
:1005800022BFA0E80C50A0E80C50B1F12001BFF44C
:10059000F7AF090728BFA0E80C5048BF0CC05DF8B2
:1005A00004EB890028BF40F8042B08BF704748BF00
:1005B00020F8022B11F0804F18BF00F8012B704774
:1005C000704770477047000070B5064C7C44064D7C
:1005D0007D4403E0206820448047241DAC42F9D1CB
:1005E00070BD000084B60000A0B600002DE9F04107
:1005F00017460E46054633B107FB0354E41B20465D
:10060000B047A542FAD1A5F10800BDE8F08100008D
:1006100000487047E05B002070B5064600F0A4F883
:10062000056806F10B0020F00704B4429CBF0020CF
:1006300070BD2B466A68BAB11068A04210D304F1AD
:10064000080188423CBF5068586007D351681019B0
:1006500041601168091B016058601460101D70BD75
:1006600013465268002AE7D12146284600F088F850
:100670000028DED170BD70B50446051F00F074F887
:100680000068002C14BF446870BD002C18BFAC4239
:100690003CBF20466468F8D301680A18AA4218BF14
:1006A000456003D12A680546114401602868411954
:1006B000A1421CBF6C6070BD61686960216808441C
:1006C000286070BD10B500F053F8006810BD10B57B
:1006D000044600F04DF8046010BD2DE9F0410646D7
:1006E000FFF796FF8046454613E016B1E068B0423A
:1006F0000ED120682860D4E90101D8F8007088473D
:100700002046FFF7B8FFD8F80000B842EBD100E070
:1007100025462C68002CE8D1BDE8F0814FF000029E
:100720000429C0F0128010F0030C3FF424AFCCF188
:10073000040CBCF1020F18BF00F8012BA8BF20F871
:10074000022BA1EB0C01FFF716BF5FEAC17C24BFAF
:1007500000F8012B00F8012B48BF00F8012B70476F
:1007600000487047A85B002000487047B05B00203D
:1007700000487047A85B002070477047704770477B
:1007800038B504460A4600206946AFF300800028C9
:1007900008BF38BD02460099204600F06CF80120E1
:1007A00038BD012000F0A3B8F8B5AFF300800546CE
:1007B00000200C46102000BF0646A819A0420DD903
:1007C000324669460020AFF30080070008BF00F002
:1007D0008EF80098A04218BF0546C419FFF7C4FF61
:1007E00005600746F01D20F007004619284600F076
:1007F0000AF8B44208BFF8BDA21B31463868BDE80C
:10080000F84000F038B800210160C0E901107047DD
:1008100010207047002801D000F002B87047000097
:1008200001491820ABBEFEE7260002007546FFF71F
:1008300097FFAE4605006946534620F007008546FF
:1008400018B020B5FFF776FDBDE820404FF0000658
:100850004FF000074FF000084FF0000B21F00701A8
:10086000AC46ACE8C009ACE8C009ACE8C009ACE8EB
:10087000C0098D467047034640688C46002818BF63
:1008800088423CBF03464068F8D318681844884241
:1008900007D00CF1030020F00700001D411A521A86
:1008A0000146081D0A60FFF7E6BE10B50446AFF327
:1008B00000802046BDE81040FFF7C8BC70B5054673
:1008C0000C460A2000E06D1C00F018F835B12878BD
:1008D0000028F8D102E0641C00F010F814B1207870
:1008E0000028F8D1BDE870400A2000F007B810B524
:1008F00000F00CF8BDE81040FFF78CBF08B5694662
:100900008DF800000320ABBE08BD704710B501286C
:1009100005D0002103A0FFF7D1FF012010BD09A1E0
:10092000F8E7000053494752544D454D3A204F7562
:1009300074206F662068656170206D656D6F7279D7
:10094000000000003A2048656170206D656D6F728F
:100950007920636F72727570746564002DE9F041DF
:1009600086B005460F46002600244FF0010844E0FB
:10097000052E3FD2DFE806F0030D172B3500285D6A
:100980000D2802D1701CC6B200E00026601CC4B263
:1009900032E0285D0A2802D1701CC6B200E00026B1
:1009A000601CC4B228E0A7F11A01A14201DA4FF09D
:1009B0000008002006E0295D0DF80010611CCCB293
:1009C000411CC8B21828F6DB711CCEB214E0285DB9
:1009D0000A2802D1701CC6B200E00026601CC4B216
:1009E0000AE0285D0D2802D1684604F0EDFF0026DC
:1009F000B04601E0002600BF00BFBC4202DAB8F1F9
:100A0000010FB5D0002006B0BDE8F0812DED068BBA
:100A100088B0F448007800F0010050B9F14806F0C1
:100A200081FE30B1F048002180F82810ED48AFF386
:100A3000008000BFED48008AB0F5AF6F08DDEB48DD
:100A4000008AB0F5C86F03DA40F2DC50E74908824B
:100A5000E648408AB0F5AF6F08DDE448408AB0F55B
:100A6000C86F03DA40F2DC50E0494882DF48808AF0
:100A7000B0F5AF6F08DDDD48808AB0F5C86F03DAE6
:100A800040F2DC50D9498882D848C08AB0F5AF6FAF
:100A900008DDD648C08AB0F5C86F03DA40F2DC50F2
:100AA000D249C882D148008A48B9D048408A30B972
:100AB000CE48808A18B9CD48C08A00287DD0CB495D
:100AC0004989A1F57A700AF042F9B0F5C87F75DD61
:100AD000C649498A40F2DC52501A0AF0ACFB41EC9C
:100AE0001A0B9FEDC30B53EC102B0AF01DFA41ECCF
:100AF000190B9FEDC10B53EC102B0AF0C7FB41EC17
:100B0000180B0AF037F9B8494860B849098A40F229
:100B1000DC52501A0AF08FFB41EC1A0B9FEDB40B1C
:100B200053EC102B0AF000FA41EC190B9FEDB20BBD
:100B300053EC102B0AF0AAFB41EC180B0AF01AF93F
:100B4000A9490860A949898AA1F2DC500AF073FB1F
:100B500041EC1A0B9FEDA60B53EC102B0AF0E4F9B5
:100B600041EC190B9FEDA60B53EC102B0AF08EFBFA
:100B700041EC180B0AF0FEF89B4948619B49C98A71
:100B8000A1F2DC500AF057FB41EC1A0B9FED980BD9
:100B900053EC102B0AF0C8F941EC190B9FED980BA0
:100BA00053EC102B0AF072FB41EC180B0AF0E2F840
:100BB0008D4988618D49498901E000E1E3E0A1F2B6
:100BC000DC500AF0C4F832284BDA0220864981F85A
:100BD000200086490989A1F57A700AF0B8F8322810
:100BE00026DA0120804981F82100002081F82200C6
:100BF000012081F82500002081F826007B49C98961
:100C0000A1F57A700AF0A3F8322804DA00207649B8
:100C100081F82700CBE07549C989A1F5FA600AF08F
:100C200096F83228F6DA01206F4981F82700BEE0F5
:100C30006E490989A1F5FA600AF089F83228E9DAE3
:100C40000020694981F82700022081F82100042052
:100C500081F82200002081F82500012081F826007B
:100C6000A5E062494989A1F5FA600AF070F83228D6
:100C7000D0DA01205C4981F82000002081F82700AB
:100C8000012081F82500002081F8260057490989B4
:100C9000A1F5FA600AF05BF8322804DA062052491E
:100CA00081F821000BE051490989A1F57A700AF019
:100CB0004EF8322803DA01204B4981F821004A48D6
:100CC00090F82100062819D14849C989A1F57A7000
:100CD0000AF03DF8322804DA0220434981F8220064
:100CE00019E04249C989A1F5FA600AF030F83228C2
:100CF00011DA03203C4981F822000CE03A4890F8D0
:100D00002100012807D1384981F82200002081F80C
:100D1000230081F82400344890F82200032804D0EE
:100D2000314890F82200022841D130498989A1F543
:100D30007A700AF00CF8322806DA00202A4981F885
:100D4000230081F8240032E028498989A1F2DC508F
:100D500009F0FDFF322807DA0120234981F823003A
:100D6000002081F8240022E020498989A1F5FA6059
:100D700009F0EDFF32281ADA01201B4981F823001F
:100D800081F8240013E00020174981F8200081F841
:100D9000210081F8220081F8230081F8240001203D
:100DA00081F82500002081F8260081F82700002323
:100DB0001A460D491448006809F0CAF80EE02021CF
:100DC0006846FFF7D6FB202210496846FFF797FBDD
:100DD000202269460448FFF792FB00BF012007F07C
:100DE00094FD27E644010020B45300203C5200202B
:100DF0000000000000407F400000000000000840AC
:100E000000000000000000401801002078B8000831
:100E100010B500221146044803F0DDFE04F0BEFECA
:100E2000024806F08DFB10BD0802002001150008E5
:100E300000BFFEE710B5024800F0F4FC10BD000052
:100E4000700100201FB500BF4FF0FF3269460B480C
:100E5000006809F0CFF90128F6D100BF084800F07A
:100E6000C6FCC4B2002CF9D09DF80C30029881B2B7
:100E70006A46034807F0FAFCE6E700000401002098
:100E80007001002010B5024800F0CCFC10BD00003D
:100E90007001002010B5024800F0C4FC10BD000035
:100EA000980100201FB500BF4FF0FF3269460B4884
:100EB000006809F09FF90128F6D100BF00BF08487B
:100EC00000F095FCC4B2002CF9D09DF80C306A46B5
:100ED0000348029907F0ACFCE6E700000801002097
:100EE0009801002010B5024800F09CFC10BD0000E5
:100EF000980100202DED048B8EB000BF0122CA495D
:100F0000CA48006809F076F901287CD1C64890F8F3
:100F1000210001280BD11422C3490C316846FFF788
:100F2000EEFAC1480EC8C24805F0B3F8B1E0BE48B9
:100F300090F8210005280ED1202106A8FFF719FB03
:100F4000142209A96846FFF7DAFAB94806A90EC9BA
:100F500005F09FF89DE0B44890F8210003280ED1D9
:100F6000202106A8FFF705FB142209A96846FFF710
:100F7000C6FAAF4806A90EC905F08BF889E0AA4861
:100F800090F8210002284ED1A74890ED000A10EEFB
:100F9000101A08460AF06EFB41EC190B9FEDA50BE9
:100FA00053EC102B0AF072F941EC180B09F0E2FE39
:100FB0009D490860084690ED010A10EE101A084697
:100FC0000AF058FB41EC190B9FED9A0B53EC102BD8
:100FD0000AF05CF941EC180B09F0CCFE924948602C
:100FE000084690ED050A10EE101A08460AF042FB7A
:100FF00041EC190B9FED8F0B53EC102B0AF046F9C7
:1010000041EC180B00E00AE109F0B4FE86494861A2
:1010100014220C316846FFF772FA83480EC88448E0
:1010200005F037F835E0804890F8210004280ED10B
:10103000202106A8FFF79DFA142209A96846FFF7A8
:101040005EFA7B4806A90EC905F023F821E0764830
:1010500090F8210070B9202106A8FFF78AFA14221F
:1010600009A96846FFF74BFA714806A90EC905F0B1
:1010700010F80EE0202106A8FFF77BFA142209A938
:101080006846FFF73CFA6A4806A90EC905F001F860
:1010900000BF654890F8220002282DD1624890EDEB
:1010A000060AF6EE000AB4EEE00AF1EE10FA09DDE7
:1010B000624890ED000ADFED620A30EE200A80ED12
:1010C000000A12E0584890ED060AFEEE000AB4EE5F
:1010D000E00AF1EE10FA08D2584890ED000ADFED70
:1010E000580A30EE600A80ED000A544890ED000A7C
:1010F000544805F0F5FD36E04B4890F822000328EF
:1011000005D19FED510A4F4805F0EAFD2BE0464816
:1011100090F82200042805D19FED4C0A494805F0BB
:1011200049FF20E0404890F8220028B99FED480A86
:10113000444805F0D5FD16E03B4890F82200012810
:101140000CD14048083090ED050A424880ED000A75
:1011500090ED000A3B4805F0C3FD04E09FED3C0A1A
:10116000384805F027FF304890F8230038B99FED44
:10117000380A00221146334805F01AFE17E02A48C3
:1011800090F82300012812D1274890F8240038B99C
:101190009FED310A012200212A4805F009FE06E0F0
:1011A0009FED2D0A01221146264805F001FE1E483A
:1011B00090F82500012804D10021224805F040FDC7
:1011C0000CE0194890F8250020B901211D4805F0D0
:1011D00037FD03E000211B4805F032FD124890F86E
:1011E0002700012808D11D490870002301221C484E
:1011F000006808F0ADFE0CE00B4890F8270040B9FD
:10120000002016490870002301221548006808F0E4
:101210009FFE074804F006FE0A4805F0E5FF01209E
:1012200007F073FB6AE60000445B00201801002011
:10123000E0530020333333333333D33F50010020A6
:101240000AD7233D085700200000A0420000964323
:1012500000000000540100200000FA465C0100205C
:101260002801002010B5024800F04EFE10BD00001D
:10127000A804002010B5024800F046FE10BD000092
:10128000E806002010B5024800F03EFE10BD000048
:10129000E803002010B5024800F036FE10BD000043
:1012A0004807002010B5024800F02EFE10BD0000D7
:1012B0004804002010B5024800F026FE10BD0000D2
:1012C0002806002010B5024800F01EFE10BD0000E8
:1012D0008806002010B5024800F016FE10BD000080
:1012E0000805002010B5024800F00EFE10BD0000F9
:1012F000A807002010B5024800F006FE10BD00004F
:10130000C805002010B5024800F0FEFD10BD000029
:101310000808002010B5024800F0F6FD10BD0000DE
:10132000680500200146087810381823B0FBF3F256
:101330000848805CC865032A05D908686FF309006E
:10134000001D886503E008686FF309008865886DF3
:101350007047000044B80008014600208A6A8B6983
:10136000CBB932B1012A0DD0022A03D0032A10D101
:101370000EE000BFCB6A03F08073B3F1807F00D131
:10138000012007E0CB6AB3F1C07F00D1012001E06A
:1013900000E000BF34E08B69B3F5005F1AD132B1D1
:1013A000012A07D0022A03D0032A11D10AE000BF84
:1013B00001200EE0CB6A03F08073B3F1807F00D18F
:1013C000012006E0CB6AB3F1C07F00D1012000E02C
:1013D00000BF15E032B1012A05D0022A04D0032A49
:1013E0000CD103E000BF00BF012008E0CB6A03F08E
:1013F0008073B3F1807F00D1012000E000BF00BF07
:10140000704730B50468246824F4802405682C6093
:10141000046863608468402C04D10468A260046896
:10142000E16003E00468A1600468E26030BD000090
:1014300010B500221021082008F0A0FC2049086007
:1014400000221021082008F099FC1E4908600022A3
:101450000C21042008F092FC1B49086000220C219A
:10146000042008F08BFC1949086000222021042088
:1014700008F084FC1649086000222C21042008F0A2
:101480007DFC1449086000220421022008F076FC4B
:101490001149086000220F21012008F06FFC0F495C
:1014A000086000220F21012008F068FC0C49086048
:1014B00000220121084608F061FC0A49086010BDBD
:1014C00004010020080100200C0100201001002070
:1014D00014010020180100201C0100202001002020
:1014E0002401002028010020704710B5802000F062
:1014F00009FF10BD72B600BFFEE700BFFEE70000A7
:10150000044800680068406A03490968C1EB01416A
:1015100008447047B8000020B4000020F0B504462D
:101520000D461E4694F8207020688368A86800B9AC
:1015300000E000BF012F01D0022F7CD103F08060BA
:1015400030B903F0006018B903F08050002873D060
:10155000C3F30161022905D9606A40F400006062AA
:101560000120F0BD012088403060A86860B9B5F85E
:1015700000C0E86840EA4C5C206800F5C07000EBF1
:101580000110C0F800C00FE0D5E901C040EACC006E
:10159000D5F80CC040EA0C00D4F800C00CF5C07CB3
:1015A0000CEB011CCCF80000D5F810C0206800F549
:1015B000C07000EB0110C0F804C0287D01280ED1D6
:1015C000206800F5C07000EB0110406840F4807C9A
:1015D000206800F5C07000EB0110C0F804C0D0799D
:1015E000000692F806C040EA0C4092F805C040EAB6
:1015F0000C2C10794CEA000C206800F5C07000EB50
:101600000110C0F80CC0D078000692F802C040EA81
:101610000C4092F801C040EA0C2092F800C040EA69
:101620000C00D4F800C00CF5C07C0CEB011CCCF80D
:101630000800206801E016E00FE000F5C07000EB44
:101640000110006840F0010C206800F5C07000EB4C
:101650000110C0F800C0002083E7606A40F4001069
:10166000606201207DE7606A40F4802060620120B2
:1016700077E7704770B5044694F82050012D01D0EB
:10168000022D7DD151B92068C06800F0030080B9F7
:10169000606A40F400106062012070BD206800693B
:1016A00000F0030028B9606A40F400106062012075
:1016B000F3E7206800F5D87000EB0110006800F037
:1016C00004009060906840B9206800F5D87000EB85
:1016D00001100068400D106007E0206800F5D87028
:1016E00000EB01100068C0085060206800F5D87059
:1016F00000EB0110006800F00200D060206800F5E7
:10170000D87000EB0110406800F00F0010612068F5
:1017100000F5D87000EB0110406800F47F40000A2B
:101720009061206800F5D87000EB01104068000C53
:101730005061206800F5D87000EB011080681870C7
:10174000206800F5D87000EB0110806800F47F403D
:10175000000A5870206800F5D87000EB011080680E
:1017600000F47F00000C9870206800F5D87000EB42
:1017700001108068000ED870206800F5D87000E075
:101780002FE000EB0110C0681871206800F5D870D8
:1017900000EB0110C06800F47F40000A5871206817
:1017A00000F5D87000EB0110C06800F47F00000C59
:1017B0009871206800F5D87000EB0110C068000E29
:1017C000D87131B92068C06840F020002668F06008
:1017D00005E02068006940F02000266830610020A4
:1017E0005BE7606A40F480206062012055E70146B3
:1017F000002091F82020012A01D0022A11D10B6883
:101800009B6803F0806303B1401C0B689B6803F086
:10181000006303B1401C0B689B6803F0805303B165
:10182000401C70472DE9F05F04460025206846699A
:101830002068D0F80490206887682068D0F80CA051
:101840002068D0F810B02068D0F8188006F00100A9
:10185000002855D007F00100C0B101202168886040
:1018600007F0020018B1204600F0DEFA0EE007F0A3
:10187000040010B145F4006508E007F0080010B15D
:1018800045F4805502E0204600F0CDFA07F4807060
:10189000C8B14FF480702168886007F4007018B1F7
:1018A000204600F0C3FA0EE007F4806010B145F462
:1018B000005508E007F4006010B145F4804502E0EF
:1018C000204600F0B2FA07F48030C8B14FF48030FF
:1018D0002168886007F4003018B1204600F0A8FAAB
:1018E0000EE007F4802010B145F4004508E007F44D
:1018F000002010B145F4803502E0204600F097FA50
:1019000006F0080038B10AF0100020B145F4007567
:1019100010202168C86006F0040040B10AF00800F9
:1019200028B108202168C860204600F01FFA06F0A0
:10193000020038B12068C06800F0030010B12046F2
:1019400000F016FA06F0400038B10BF0100020B19C
:1019500045F4806510202168086106F0200040B140
:101960000BF0080028B1082021680861204600F02B
:101970002BFA06F0100038B12068006900F003006F
:1019800010B1204600F022FA06F4003040B109F010
:10199000100028B1102021684860204600F042FA6B
:1019A00006F4803040B109F0080028B10820216811
:1019B0004860204600F03DFA06F4004088B309F084
:1019C000040078B306F4807020B108F0010008B17B
:1019D00045F0010506F4007020B108F0020008B1DE
:1019E00045F0020506F4806020B108F0040008B15B
:1019F00045F0040506F40060A0B108F0700088B15D
:101A000008F07000402817D006DC10280BD02028E2
:101A10000CD0302819D10CE0502810D0602814D1F7
:101A200010E01DE019E045F008050FE045F0100555
:101A30000CE045F0200509E045F0400506E045F0E2
:101A4000800503E045F4807500E000BF00BF20681A
:101A5000806920F070002168886104202168486056
:101A60002DB1606A284360622046FFF702FEBDE8A0
:101A7000F09F70B504460CB9012070BD94F82000A9
:101A800010B9204600F0B0F82068006840F001006E
:101A90002168086000F03EFD05460DE000F03AFDCB
:101AA000401B0A2808D9606A40F4003060620520B3
:101AB00084F820000120E0E72068406800F0010081
:101AC0000028EBD02068006820F002002168086040
:101AD00000F020FD05460DE000F01CFD401B0A282B
:101AE00008D9606A40F400306062052084F8200064
:101AF0000120C2E72068406800F002000028EBD116
:101B0000207E012806D12068006840F0800021680E
:101B1000086005E02068006820F080002168086007
:101B2000607E012806D12068006840F040002168EE
:101B3000086005E02068006820F040002168086027
:101B4000A07E012806D12068006840F020002168AE
:101B5000086005E02068006820F020002168086027
:101B6000E07E012806D12068006820F0100021687E
:101B7000086005E02068006840F0100021680860F7
:101B8000207F012806D12068006840F00800216805
:101B9000086005E02068006820F0080021680860FF
:101BA000607F012806D12068006840F004002168A9
:101BB000086005E02068006820F0040021680860E3
:101BC000D4E9020108432169084361690843616857
:101BD000491E08432168C86100206062012084F822
:101BE0002000002049E7000010B586B0044614210B
:101BF00001A8FEF7BEFC57492068884249D15648E3
:101C00000068401C544908600846006801280FD14C
:101C100000BF002000905148006840F000704F491C
:101C200008600846006800F00070009000BF00BF28
:101C300000BF0020009049481038006840F00800BC
:101C40004649103908600846006800F00800009016
:101C500000BF00BF032001900220029000200390EB
:101C6000032004900920059001A93D4800F058FB8D
:101C700000220521132000F011FD132000F0FEFCCE
:101C800000220521142000F009FD142000F0F6FCCC
:101C90005DE034492068884259D100BF002000909F
:101CA0002E48006840F080602C49086008460068B3
:101CB00000F08060009000BF00BF27480068401C13
:101CC000254908600846006801280FD100BF0020A0
:101CD00000902248006840F00070204908600846E3
:101CE000006800F00070009000BF00BF00BF00203F
:101CF00000901A481038006840F002001749103967
:101D000008600846006800F00200009000BF00BFB5
:101D10004FF44050019002200290002003900320D5
:101D200004900920059001A90F4800F0F9FA00225B
:101D300005213F2000F0B2FC3F2000F09FFC002274
:101D40000521402000F0AAFC402000F097FC06B0DE
:101D500010BD000000640040180000204038024020
:101D6000000C024000680040000402407047000080
:101D700010B504460F4884420BD10F4BA3F11C024F
:101D800000212046FFF776FC0B481C380B490968F8
:101D900088470B4884420BD1074BA3F11C0200215A
:101DA0002046FFF767FC04481C3806490968884745
:101DB00010BD000070010020C0510020AC000020C8
:101DC00098010020B00000207047000010B50446C4
:101DD0000F4884420BD10F4BA3F11C020121204676
:101DE000FFF748FC0B481C380B49096888470B482B
:101DF00084420BD1074BA3F11C0201212046FFF7BF
:101E000039FC04481C3806490968884710BD0000A1
:101E100070010020E4510020AC0000209801002057
:101E2000B000002070477047704770477047704798
:101E30007047704770B50446A56D00F06BFB064611
:101E400094F83500022808D08020606500BF00208B
:101E500084F8340000BF012070BD2068006820F0C5
:101E60001600216808602068406920F08000216821
:101E70004861206C08B9A06C28B12068006820F087
:101E80000800216808602068006820F001002168CF
:101E9000086010E000F03EFB801B05280BD92020D5
:101EA0006065032084F8350000BF002084F834000A
:101EB00000BF0320D0E72068006800F00100002880
:101EC000E8D194F85C103F208840A860012084F895
:101ED000350000BF002084F8340000BF00BFBBE71E
:101EE000014691F83500022803D080204865012082
:101EF0007047052081F835000868006820F001006F
:101F00000A6810600020F3E7F8B50446002000904E
:101F10008C4800684FF41651B0FBF1F7A56D2E68A0
:101F200094F85C1008208840304098B12068006820
:101F300000F0040070B12068006820F004002168FF
:101F4000086094F85C1008208840A860606D40F03C
:101F50000100606594F85C1001208840304068B151
:101F60002068406900F0800040B194F85C100120C6
:101F70008840A860606D40F00200606594F85C10D5
:101F800004208840304068B12068006800F00200FA
:101F900040B194F85C1004208840A860606D40F067
:101FA0000400606594F85C1010208840304078B3DD
:101FB0002068006800F0080050B394F85C1010200E
:101FC0008840A8602068006800F4802080B1206804
:101FD000006800F4002028B9206CC8B12046216CAC
:101FE000884715E0A06C98B12046A16C88470FE0A7
:101FF0002068006800F4807028B92068006820F02C
:10200000080021680860206C10B12046216C8847C8
:1020100094F85C10202088403040002865D020686B
:10202000006800F0100000285FD094F85C102020B9
:102030008840A86094F83500052828D120680068F9
:1020400020F01600216808602068406920F08000B8
:1020500021684861206C08B9A06C28B1206800682C
:1020600020F008002168086094F85C103F20884048
:10207000A860012084F8350000BF002084F83400F7
:1020800000BF206D10B12046216D8847F8BD206843
:10209000006800F4802080B12068006800F400200F
:1020A00028B9606C10B12046616C88471DE0E06B78
:1020B000D8B12046E16B884717E02068006800F43B
:1020C000807068B92068006820F0100021680860FE
:1020D000012084F8350000BF002084F8340000BFE0
:1020E000E06B10B12046E16B8847606D38B3606DDE
:1020F00000F00100F0B1052084F835002068006888
:1021000020F001002168086000BF0098401C00908A
:10211000B84200D905E02068006800F001000028FE
:10212000F3D100BF012084F8350000BF002084F8FF
:10213000340000BFE06C10B12046E16C884700BF5E
:10214000A4E70000280000202DE9F0410446002506
:1021500000F0E0F9074614B90120BDE8F081606A9B
:1021600000B100BF022084F8350000BF002084F8D1
:10217000340000BF2068006820F00100216808607A
:102180000AE000F0C7F9C01B052805D920206065CA
:10219000032084F83500E0E72068006800F00100C3
:1021A0000028EED12068056821480540D4E90101E6
:1021B0000843E16808432169084361690843A1694C
:1021C0000843E1690843216A08430543606A04281B
:1021D00003D1D4E90B01084305432068056020685A
:1021E000456925F00705606A0543606A04280DD13A
:1021F000A06A0543E06A48B12046FFF7ADF828B170
:1022000040206065012084F83500A6E7206845611C
:102210002046FFF787F8064694F85C103F20884078
:10222000B06000206065012084F83500002094E74C
:102230003F8010F02DE9F04704460D4616461F4634
:102240004FF00008D4F8589000BF94F834000128EB
:1022500002D10220BDE8F087012084F8340000BFDD
:1022600094F83500012825D1022084F8350000209B
:1022700060653B46324629462046FFF7C2F894F88F
:102280005C103F208840C9F808002068006840F0D2
:10229000160021680860206C28B12068006840F0B2
:1022A0000800216808602068006840F0010021688B
:1022B000086006E000BF002084F8340000BF4FF043
:1022C00002084046C6E7000070B5044600F022F957
:1022D00006462546681C10B104480078054400BF36
:1022E00000F018F9801BA842FAD370BD240000202A
:1022F00010B5044680222146014804F03DFC10BD83
:102300003C52002010B5044604480068204020B12B
:10231000024804602046FFF7EBFF10BD143C01406B
:10232000F8B502460B460025002400200021D6E027
:10233000012606FA01F51E6806EA0504AC4274D1CE
:102340001E7906F00306012E04D01E7906F003065E
:10235000022E13D190684F000326BE40B0434F00B9
:10236000DE68BE4030439060506801268E40B04326
:102370001E79C6F300168E40304350601E7906F079
:102380000306032E09D0D0684F000326BE40B04399
:102390004F009E68BE403043D0601E7906F00306B1
:1023A000022E13D1CF0802F1200656F827004E075F
:1023B000F70E0F26BE40B0434F07FF0E1E69BE400A
:1023C0003043CF0802F1200646F8270010684F007E
:1023D0000326BE40B0431E7906F003064F00BE4000
:1023E000304310605E6806F44036002E76D000BFA1
:1023F000002600963C4E366846F480463A4F3E60D2
:102400003E46366806F48046009600BF00BF374E51
:102410008F0856F827008E07370F0F26BE40B043AF
:10242000334EB24202D1002624E057E0314EB24290
:1024300001D101261EE0304EB24201D1022619E040
:102440002E4EB24201D1032614E02D4EB24201D1EC
:1024500004260FE02B4EB24201D105260AE02A4E97
:10246000B24201D1062605E0284EB24201D107262C
:1024700000E008268F073F0FBE4030431B4E8F08F9
:1024800046F82700224E3068A0435E6806F48016A6
:1024900006B120431E4E3060361D3068A0435E6892
:1024A00006F4001606B12043194E361D3060184E52
:1024B000361F3068A0435E6806F4003606B120433C
:1024C000134E361F3060361F3068A0435E6806F436
:1024D000803606B120430E4E083E3060491C10295C
:1024E000FFF426AFF8BD0000443802400838014030
:1024F000000002400004024000080240000C0240BC
:10250000001002400014024000180240001C02406B
:10251000083C014001480068704700001C00002092
:102520000348006803490978084401490860704776
:102530001C0000202400002010B50D48006840F465
:1025400000700B4908600846006840F4806008602D
:102550000846006840F480700860032000F0DCF852
:10256000042000F007F800F05FF8002010BD000024
:10257000003C02402DE9F04188B004460027B846EF
:1025800000BF002001902348006840F0020021496C
:1025900008600846006800F00200019000BF00BF1C
:1025A00002A903A800F08EF9069F1FB900F0B2F946
:1025B000054602E000F0AEF945001748B5FBF0F023
:1025C000A0F1010815481649086040F2E7311448A7
:1025D000C160C0F80480002101618160816100F068
:1025E000BBFC064696B90E4800F026FD06466EB9BD
:1025F0001D2000F043F8102C07D2002221461D2098
:1026000000F04CF80748046000E00126304608B0AE
:10261000BDE8F0814038024040420F000004004015
:10262000680800202000002008B500BF00200090AE
:102630001148006840F480400F490860084600686F
:1026400000F48040009000BF00BF00BF0020009059
:10265000081F006840F08050091F086008460068A5
:1026600000F08050009000BF00BF00220F21901E9C
:1026700000F014F808BD0000443802400146084646
:10268000002809DB00F01F0301229A4043099B0048
:1026900003F1E023C3F8002100BF70472DE9F05F8C
:1026A00080460D461646002705F00EF807463946C7
:1026B0002A46334601F00700C0F1070ABAF1040FB9
:1026C00002D94FF0040A01E0C0F1070AD14600F137
:1026D000040ABAF1070F02D24FF0000A01E0A0F19C
:1026E000030AD4464FF0010A0AFA09FAAAF1010ACC
:1026F0000AEA020A0AFA0CFA4FF0010B0BFA0CFB79
:10270000ABF1010B0BEA030B4AEA0B0421464046EE
:1027100004F0E2FFBDE8F09F00BF00F00702064BA7
:1027200019684FF6FF031940044B0B4343EA02219B
:10273000014B196000BF70470CED00E00000FA0586
:1027400070B504460D460CB9012070BD58480068AC
:1027500000F00700A84209D255490D7008460068EC
:1027600000F00700A84201D00120EEE7207800F039
:10277000020002281DD1207800F00400042805D1B1
:102780004C48006840F4E0504A490860207800F066
:102790000800082805D14748006840F460404549D2
:1027A00008604448006820F0F000A16808434149EF
:1027B0000860207800F00100A8B36068012807D104
:1027C0003C4808380068C0F34040B8B90120BCE775
:1027D0006068022802D06068032807D135480838AD
:1027E0000068C0F3406048B90120AEE731480838BE
:1027F0000068C0F3400008B90120A6E72D48006832
:1028000020F00300616808432A490860FFF782FE50
:10281000064609E0FFF77EFE801B41F288318842C0
:1028200002D9032091E707E02248006800F00C007D
:102830006168B0EB810FEDD11D48006800F0070022
:10284000A84209D91A490D700846006800F007002F
:10285000A84201D0012078E7207800F00400042885
:1028600007D11448006820F4E050E168084311499A
:102870000860207800F00800082808D10D4800689A
:1028800020F46040216940EAC1000A49086000F074
:1028900061F808490968C1F30311074A515CC8404F
:1028A0000649086006480068FFF764FE00204CE710
:1028B000003C0240083802404CB8000828000020C4
:1028C000200000200F2202600D4A126802F003026D
:1028D00042600B4A126802F0F0028260084A1268F5
:1028E00002F4E052C260064A126802F46042D20862
:1028F0000261044A126802F007020A607047000091
:1029000008380240003C024001480068704700005F
:102910002800002000B5FFF7F7FF04490968C1F35C
:102920008221034A515CC84000BD000008380240C3
:102930005CB8000800B5FFF7E7FF04490968C1F378
:102940004231034A515CC84000BD000008380240D3
:102950005CB800082DE9F047002400250026A146B8
:102960002548006800F00C0020B1042805D0082894
:102970003AD105E0DFF8849039E0DFF8849036E062
:102980001D48001F006800F03F041B48001F00683E
:1029900000F4800078B11A481749091F0968C1F38B
:1029A0008811A0FB01700146224600233846FDF73E
:1029B000D3FC05460EE011480F49091F0968C1F311
:1029C0008811A0FB01700146224600233846FDF71E
:1029D000C3FC05460848001F0068C0F30140401CC6
:1029E0004600B5FBF6F902E0DFF8109000BF00BF2B
:1029F0004846BDE8F0870000083802400024F40093
:102A000000127A00F8B504460CB90120F8BD207810
:102A100000F00100002874D0F948006800F00C00B4
:102A200004280DD0F648006800F00C00082813D1E7
:102A3000F348001F006800F48000B0F5800F0BD150
:102A4000EF4808380068C0F34040002859D060685B
:102A5000002856D10120D9E700BF6068B0F5803F5B
:102A600008D1E7480838006840F48030E449083964
:102A700008601EE06068B0F5A02F0DD1E04808386E
:102A8000006840F48020DE49083908600846006884
:102A900040F4803008600CE0D9480838006820F421
:102AA0008030D749083908600846006820F4802043
:102AB000086000BF606890B1FFF72CFD054606E096
:102AC000FFF728FD401B642801D903209EE7CC486E
:102AD00008380068C0F340400028F1D011E0FFF74B
:102AE00019FD054606E0FFF715FD401B642801D9D6
:102AF00003208BE7C24808380068C0F34040002834
:102B0000F1D1207800F0020002285FD1BC480068B3
:102B100000F00C0058B1BA48006800F00C0008281A
:102B20001CD1B748001F006800F48000B0B9B44859
:102B300008380068C0F3400020B1E068012801D0E7
:102B4000012063E7AE480838006820F0F8002169EA
:102B500040EAC100AA490839086037E0E06800B3DC
:102B60000120A8490860FFF7D5FC054606E0FFF7FD
:102B7000D1FC401B022801D9032047E7A0480838B0
:102B80000068C0F340000028F1D09D480838006874
:102B900020F0F800216940EAC1009949083908602D
:102BA00014E0002097490860FFF7B4FC054606E0F2
:102BB000FFF7B0FC401B022801D9032026E790480C
:102BC00008380068C0F340000028F1D1207800F0F8
:102BD000080008282CD16069A8B101208A49086042
:102BE000FFF798FC054606E0FFF794FC401B02281F
:102BF00001D903200AE782486C300068C0F3400026
:102C00000028F1D014E000207F490860FFF782FC23
:102C1000054606E0FFF77EFC401B022801D9032091
:102C2000F4E677486C300068C0F340000028F1D12A
:102C3000207800F00400042870D100277048383054
:102C4000006800F0805090B900BF002000906C48F0
:102C50003830006840F080506949383108600846D3
:102C6000006800F08050009000BF00BF0127674857
:102C7000006800F48070B0B96448006840F4807067
:102C800062490860FFF746FC054606E0FFF742FC94
:102C9000401B022801D90320B8E65C48006800F414
:102CA00080700028F2D000BFA068012808D15448E5
:102CB0006830006840F001005149683108601DE04B
:102CC000A06805280DD14E486830006840F0040027
:102CD0004B49683108600846006840F00100086010
:102CE0000CE047486830006820F001004449683132
:102CF00008600846006820F00400086000BFA06873
:102D0000A8B1FFF707FC054609E0FFF703FC401BED
:102D100041F28831884202D9032077E626E038481C
:102D200068300068C0F340000028EED013E0FFF7E1
:102D3000F1FB054608E0FFF7EDFB401B41F288314F
:102D4000884201D9032061E62D4868300068C0F34D
:102D500040000028EFD1012F07D129483830006802
:102D600020F0805026493831086000BFA069002853
:102D700045D02348006800F00C0008285DD0A06909
:102D8000022845D100201F490866FFF7C3FB05460E
:102D900006E0FFF7BFFB401B022801D9032035E600
:102DA000174808380068C0F340600028F1D1D4E922
:102DB00007010843616A40EA81110122A06AC2EB5F
:102DC000500041EA00412C20005D41EA00600C49BE
:102DD000091F086001200B490866FFF79BFB0546A9
:102DE00006E0FFF797FB401B022801D903200DE600
:102DF000034808380068C0F340600028F1D049E07B
:102E00000838024000004742800E474200700040F0
:102E1000002021490866FFF77DFB054606E0FFF725
:102E200079FB401B022801D90320EFE51B4800680D
:102E3000C0F340600028F2D12CE0A069012800D145
:102E4000E4E51648001D0668A069012820D006F4B4
:102E50008001E06981421BD106F03F01206A814276
:102E600016D147F6C0703040616AB0EB811F0FD1B8
:102E700006F440310122A06AC2EB5000B1EB004FD2
:102E800006D106F070612C20005DB1EB006F01D01F
:102E90000120BBE50020B9E50000474200380240B0
:102EA0007047704730B502460B4600BF92F83C00B1
:102EB000012801D1022030BD012082F83C0000BF72
:102EC000022082F83D00106844681068816824F090
:102ED00070041868044310684460184D1068A842D4
:102EE0001BD01068B0F1804F17D0154D1068A84264
:102EF00013D0144D1068A8420FD0134D1068A8428B
:102F00000BD0124D1068A84207D0114D1068A8428E
:102F100003D0104D1068A84205D121F080015868F7
:102F2000014310688160012082F83D0000BF00204D
:102F300082F83C0000BF00BFBDE700000000014078
:102F40000004004000080040000C00400004014064
:102F5000004001400018004010B504460CB90120A3
:102F600010BD94F83D0028B9002084F83C002046AC
:102F700000F026F8022084F83D00211D206801F0B1
:102F8000FFFE012084F8460000BF84F83E000121C6
:102F90003F200155402001554120015500BF00BF91
:102FA000012084F84200432001554420015545206A
:102FB000015500BF012084F83D000020D0E700004B
:102FC00038B5044619492068884218D100BF00204E
:102FD00000901748006840F0040015490860084652
:102FE000006800F00400009000BF00BF002205212F
:102FF0001E20FFF753FB1E20FFF740FB15E00D4995
:103000002068884211D100BF002000900848001DB0
:10301000006840F400300649091D08600846006851
:1030200000F40030009000BF00BF38BD0008004031
:103030004038024000440140014691F83D0001281B
:1030400001D001207047022081F83D000868C06867
:1030500040F001000B68D8601A4B086898421BD0FA
:103060000868B0F1804F17D0174B0868984213D00A
:10307000164B086898420FD0154B086898420BD041
:10308000144B0868984207D0134B0868984203D045
:10309000124B086898420CD10868806800F007025B
:1030A000062A0CD00868006840F001000B68186020
:1030B00005E00868006840F001000B681860002017
:1030C000C0E700000000014000040040000800408C
:1030D000000C004000040140004001400018004086
:1030E0002DE9F04104460D46002700BF94F83C004E
:1030F000012802D10220BDE8F081012084F83C00C3
:1031000000BF022084F83D002068866826F077061C
:1031100026F47F46206886602868502833D00CDC6F
:10312000202850D004DC00284BD0102851D149E091
:10313000302849D040284CD139E060282DD0702863
:1031400007D0B0F5805F03D0B0F5005F41D10DE04E
:1031500041E0D5E902136A68206801F08EFE20681C
:10316000866846F077062068866034E0D5E9021369
:103170006A68206801F081FE2068806840F4804021
:103180002168886027E0EA686968206801F066FFC6
:103190005021206801F07CFE1DE0EA686968206823
:1031A00001F06FFF6021206801F072FE13E0EA6811
:1031B0006968206801F052FF4021206801F068FE34
:1031C00009E000BF00BF00BF2968206801F060FE71
:1031D00001E0012700BF00BF012084F83D0000BFCF
:1031E000002084F83C0000BF384684E7704710B5E3
:1031F000044620680069C0F34000D8B12068C06868
:10320000C0F34000B0B16FF00200216808610120F6
:1032100020772068806900F0030018B12046FFF78E
:10322000E5FF05E0204600F0DDF8204600F091F9CA
:103230000020207720680069C0F38000D8B12068A2
:10324000C068C0F38000B0B16FF00400216808616D
:10325000022020772068806900F4407018B1204671
:10326000FFF7C4FF05E0204600F0BCF8204600F060
:1032700070F90020207720680069C0F3C000D8B141
:103280002068C068C0F3C000B0B16FF008002168CA
:103290000861042020772068C06900F0030018B19D
:1032A0002046FFF7A3FF05E0204600F09BF82046EC
:1032B00000F04FF90020207720680069C0F300106B
:1032C000D8B12068C068C0F30010B0B16FF0100032
:1032D00021680861082020772068C06900F44070E8
:1032E00018B12046FFF782FF05E0204600F07AF88B
:1032F000204600F02EF9002020772068006900F0B9
:10330000010058B12068C06800F0010030B16FF0D2
:10331000010021680861204600F0A2F920680069D8
:10332000C0F3C01058B12068C068C0F3C01030B1FD
:103330006FF08000216808612046FFF7B1FD20682A
:103340000069C0F3801058B12068C068C0F38010D5
:1033500030B16FF0400021680861204600F094F918
:1033600020680069C0F3401058B12068C068C0F3FD
:10337000401030B16FF02000216808612046FFF74F
:1033800090FD10BD10B586B00446142101A8FDF7CC
:10339000F0F81149206888421CD100BF002000903D
:1033A0000E48006840F020000C490860084600689C
:1033B00000F02000009000BF00BF402001900220DC
:1033C00002900020039004900320059001A9044876
:1033D000FEF7A6FF06B010BD0044014030380240A1
:1033E0000014024070472DE9F04104460D46164690
:1033F000002700BF94F83C00012802D10220BDE85C
:10340000F081012084F83C0000BF36B1042E1BD0AF
:10341000082E31D00C2E5ED145E02946206801F0FF
:1034200041FD2068806940F00800216888612068BB
:10343000806920F00400216888612068806929691A
:1034400008432168886148E02946206801F062FD50
:103450002068806940F40060216888612068806984
:1034600020F480602168886120688069296940EAC9
:1034700001202168886130E02946206801F088FD3C
:103480002068C06940F008002168C8612068C069F0
:1034900020F004002168C8612068C06929690843D8
:1034A0002168C86119E02946206801F0ADFD206857
:1034B000C06940F400602168C8612068C06920F4D8
:1034C00080602168C8612068C069296940EA0120DC
:1034D0002168C86101E0012700BF00BF00BF0020D4
:1034E00084F83C0000BF384689E710B504460CB9A3
:1034F000012010BD94F83D0028B9002084F83C005C
:10350000204600F025F8022084F83D00211D2068A7
:1035100001F036FC012084F8460000BF84F83E002C
:1035200001213F200155402001554120015500BF98
:1035300000BF012084F8420043200155442001557A
:103540004520015500BF012084F83D000020D0E750
:103550007047704770B504460D4615B994F83E00A3
:103560000BE0042D02D13F20005D06E0082D02D1C2
:103570004020005D01E04120005D012801D00120D4
:1035800070BD1DB9022084F83E000EE0042D03D169
:1035900002213F20015508E0082D03D102214020DF
:1035A000015502E0022141200155012229462068EF
:1035B00001F052FC23492068884203D02249206848
:1035C000884201D1012000E0002028B12068406C31
:1035D00040F40040216848641A49206888421BD0A2
:1035E0002068B0F1804F17D018492068884213D066
:1035F0001749206888420FD01649206888420BD0AE
:1036000011492068884207D013492068884203D0B6
:103610001249206888420CD12068806800F00706B3
:10362000062E0CD02068006840F001002168086078
:1036300005E02068006840F0010021680860002073
:103640009EE700000000014000040140000400402B
:1036500000080040000C00400040014000180040FD
:1036600010B5044606492068884201D1FEF758FF8C
:1036700004492068884201D102F078FA10BD0000A8
:1036800000040040000800407047704770B50446D1
:10369000002520684069C0F3C01594F83D0021283A
:1036A00017D1B5B100BF00BF2168143151E8001F28
:1036B00021F080002168143141E80002002AF3D192
:1036C00000BF606B10B1606BFEF7B4FB204601F0E9
:1036D0001CFE20684069C0F3801594F83E00222843
:1036E00017D1B5B100BF00BF2168143151E8001FE8
:1036F00021F040002168143141E80002002AF3D192
:1037000000BFA06B10B1A06BFEF794FB204601F048
:10371000B6FD002070BD70472DE9F84F04462068C3
:1037200005682068C668206847694FF00009CA46E6
:1037300005F00F09B9F1000F0AD105F0200038B1EA
:1037400006F0200020B1204601F0F2FDBDE8F88F20
:10375000B9F1000F7CD007F0010018B906F49070A1
:10376000002875D005F0010030B106F4807018B162
:10377000206C40F00100206405F0040030B107F037
:10378000010018B1206C40F00200206405F0020036
:1037900030B107F0010018B1206C40F00400206443
:1037A00005F0080048B106F0200010B907F001004C
:1037B00018B1206C40F008002064206C002846D02E
:1037C00005F0200028B106F0200010B1204601F0DD
:1037D000AFFD20684069C0F3801A206C00F008003B
:1037E00010B9BAF1000F2DD0204601F048FD206835
:1037F000406900F04000402820D100BF00BF216890
:10380000143151E8001F21F040002168143141E8D3
:103810000002002AF3D100BFA06B50B17548A16B24
:103820000865A06BFEF75CFB88B1A06B016D884753
:103830000DE02046FFF76FFF09E009E02046FFF7A3
:103840006AFF04E02046FFF766FF002020647DE762
:10385000206B012876D105F01000002872D006F008
:1038600010000028FAD000BF0020009020680068F7
:10387000009020684068009000BF00BF2068406949
:1038800000F0400040285ED1A06B006840681FFA3D
:1038900080F8B8F1000F54D0A08D404551DDA4F858
:1038A0002E80A06BC069B0F5807F43D000BF00BF01
:1038B00021680C3151E8001F21F4807021680C311F
:1038C00041E80002002AF3D100BF00BF00BF216819
:1038D000143151E8001F21F001002168143141E842
:1038E0000002002AF3D100BF00BF00BF21681431DD
:1038F00051E8001F21F040002168143141E8000226
:10390000002AF3D100BF202084F83E00002020636D
:1039100000BF00BF21680C3151E8001F21F01000EA
:1039200021680C3141E80002002AF3D100BFA06BEE
:10393000FEF780FAA08DE28D801A81B22046FFF753
:10394000A4FE03E740E0A08DE18D401A1FFA80F845
:10395000E08DC0B3B8F1000F35D000BF00BF2168C3
:103960000C3151E8001F21F4907021680C3141E8BE
:103970000002002AF3D100BF00BF00BF216814314C
:1039800051E8001F21F001002168143141E80002D4
:10399000002AF3D100BF202084F83E0000202063DD
:1039A00000BF00BF21680C3151E8001F21F010005A
:1039B00021680C3141E80002002AF3D100BF4146E2
:1039C0002046FFF762FEC1E605F0800030B106F048
:1039D000800018B1204601F0A5FEB7E605F04000D2
:1039E00030B106F0400018B1204601F07EFCADE693
:1039F00000BFABE6E550000810B504460CB9012045
:103A000010BDA06900B100E000BF94F83D0028B9E6
:103A1000002084F83C00204600F028F8242084F898
:103A20003D002068C06820F400502168C86020462E
:103A300001F0FAFC2068006920F4904021680861D8
:103A40002068406920F02A00216848612068C06829
:103A500040F400502168C86000202064202084F8D1
:103A60003D0084F83E000020CAE7000010B586B093
:103A70000446142101A8FCF77CFDFE492068884219
:103A800075D100BF00200090FB48006840F4002082
:103A9000F94908600846006800F40020009000BF63
:103AA00000BF00BF00200090F3481038006840F0CD
:103AB0000400F149103908600846006800F004006D
:103AC000009000BF00BF4FF44060019002200290C0
:103AD00000200390032004900820059001A9E748E6
:103AE000FEF71EFCE648E7490860400548600021F3
:103AF000E4488160C1604FF480610161002141614F
:103B00008161C16101624162FEF71EFB08B1FDF7F0
:103B1000F1FC00BFDB48A063846300BFD8483030AD
:103B2000D94908604FF0006048604021D648816064
:103B30000021C1604FF48061016100214161816118
:103B4000C16101624162FEF7FFFA08B1FDF7D2FCE4
:103B500000BFCD486063846300BF0022052134208C
:103B6000FEF79CFD3420FEF789FD98E2FFE7C74988
:103B7000206888427ED100BF00200090BE480068C7
:103B800040F48010BC4908600846006800F48010CA
:103B9000009000BF00BF00BF00200090B648103862
:103BA000006840F00400B449103908600846006815
:103BB00000F00400009000BF00BF00BF0020009094
:103BC0000846006840F0080008600846006800F0F9
:103BD0000800009000BF00BF8814019002200290EE
:103BE00000200390032004900820059001A9A34819
:103BF000FEF796FB04200190022002900020039023
:103C0000032004900820059001A9A148FEF788FB35
:103C10009B4830389F490860C005486000219D4896
:103C20008160C1604FF48061016100214161816167
:103C3000C16101624162FEF787FA08B1FDF75AFCE3
:103C400000BF9448A063846300BF8D4878309249D8
:103C500008604FF00060486040218F48816000217B
:103C6000C1604FF480610161002141618161C161E6
:103C7000016200E00AE04162FEF766FA08B1FDF772
:103C800039FC00BF84486063846308E2834920688C
:103C9000884278D100BF002000907748001D00685E
:103CA00040F010007449091D08600846006800F0E3
:103CB0001000009000BF00BF00BF002000906E48C1
:103CC0001038006840F001006B4910390860084660
:103CD000006800F00100009000BF00BF4FF4C0601A
:103CE00001900220029000200390032004900720FE
:103CF000059001A96A48FEF713FB6A486A49086003
:103D00004FF0006048604021674881600021C16039
:103D10004FF480610161002141618161C1610162F3
:103D20004162FEF711FA08B1FDF7E4FB00BF5E48FF
:103D30006063846300BF5B4878385C4908604FF07B
:103D400000604860002159488160C1604FF4806183
:103D50000161002141618161C16101624162FEF73F
:103D6000F3F908B1FDF7C6FB00BF5048A0638463B8
:103D700000BF002205212520FEF790FC2520FEF73C
:103D80007DFC8CE1FFE74A492068884270D100BF82
:103D9000002000903848006840F400303649086040
:103DA0000846006800F40030009000BF00BF00BF6C
:103DB0000020009030481038006840F008002E497C
:103DC000103908600846006800F00800009000BF45
:103DD00000BF602001900220029000200390032089
:103DE00004900720059001A92948FEF799FA244874
:103DF0004830304908604FF00060486000212D488D
:103E00008160C1604FF48061016100214161816185
:103E1000C16101624162FEF797F908B1FDF76AFBE3
:103E200000BF2448A063846300BF15486030224966
:103E300008604FF00060486040211F488160002109
:103E4000C1604FF480610161002141618161C16104
:103E500001624162FEF778F908B1FDF74BFB00BF44
:103E600015486063846300BF00220521262025E0F9
:103E70002AE00000004C00404038024000080240A8
:103E800040600240E8030020480400200050004049
:103E9000000C0240A804002008050020001001408A
:103EA00000000240B864024068050020C8050020F8
:103EB000004400402806002088060020FEF7EEFBA4
:103EC0002620FEF7DBFBEAE07649206888426CD1C9
:103ED00000BF002000907448006840F480207249C0
:103EE00008600846006800F48020009000BF00BF12
:103EF00000BF002000906C481038006840F00200BD
:103F00006949103908600846006800F00200009016
:103F100000BF00BF4FF440600190022002900020DB
:103F20000390032004900720059001A95F48FEF745
:103F3000F7F95F485F4908604FF000604860002172
:103F40005C488160C1604FF4806101610021416182
:103F50008161C16101624162FEF7F6F808B1FDF7C7
:103F6000C9FA00BF5348A063846300BF5048303093
:103F7000514908604FF00060486040214E48816020
:103F80000021C1604FF480610161002141618161C4
:103F9000C16101624162FEF7D7F808B1FDF7AAFAE4
:103FA00000BF45486063846379E0444920688842E3
:103FB00075D100BF002000903B48001D006840F014
:103FC00020003949091D08600846006800F02000FB
:103FD000009000BF00BF00BF0020009032481038A2
:103FE000006840F040003049103908600846006819
:103FF00000F04000009000BF00BF4FF484400190EB
:1040000002200290002003900320049008200590D5
:1040100001A92B48FEF784F92A482B49086080053E
:104020004860002128488160C1604FF480610161CF
:10403000002141618161C16101624162FEF784F842
:1040400008B1FDF757FA00BF1F48A063846300BFA3
:104050001C4878301D4908604FF0206048604021BE
:104060001A4881600021C1604FF480610161002124
:1040700041618161C16101624162FEF765F808B189
:10408000FDF738FA00BF11486063846300BF002267
:1040900005214720FEF702FB4720FEF7EFFA06B0A6
:1040A00010BD0000004800404038024000040240BB
:1040B00028600240E8060020480700200014014064
:1040C0000018024028640240A807002008080020C9
:1040D00070B504460D46164694F83E00202816D1C9
:1040E00005B10EB9012070BD00BF94F83C00012855
:1040F00001D10220F7E7012084F83C0000BF002036
:10410000206332462946204601F0A4FAEBE702205C
:10411000E9E7704770470000F7B50446154694F884
:104120003D00202846D1019800B10DB90120FEBD07
:1041300000BF94F83C00012801D10220F7E70120DC
:1041400084F83C0000BF01982062A584E58400202B
:104150002064212084F83D001748616BC86317482C
:10416000616B08641648616BC8640020616B086568
:1041700001AE23681A1D31682B46606BFEF75AF8B2
:104180006FF040002168086000BF002084F83C0008
:1041900000BF00BF00BF2168143151E8001F41F08B
:1041A00080002168143141E80002002AF3D100BFE9
:1041B0000020BCE70220BAE719520008715200083B
:1041C000F95000087047704700BFFEE770B504461D
:1041D0000D46AA202070552060700120A070E57067
:1041E0000221A01C05F010FA20710D2060710A2038
:1041F000A07170BD1CB504460020009001902146BE
:104200006846FFF7E3FF072269460248FFF784FF8D
:104210001CBD00001C03002070B505460024284684
:1042200000F04AF8044305F1140000F045F8044397
:10423000204670BD70B5044600251B4820601B4811
:104240000068606010202072902060721020A072C0
:104250000020E060002121826182154860611548DC
:104260000168A16110212177902161771021A17748
:1042700000212162A184E18405F064FA1420FEF794
:1042800023F804F1140000F055F805431420FEF75C
:104290001BF8204600F04EF805431420FEF714F8F2
:1042A00005F07AFA284670BD600300202001002046
:1042B00050020020240100202DE9F0410446002591
:1042C00000221B49606805F095FF01282DD1184890
:1042D00080790006164FFF7940EA0740144F3F7A75
:1042E00040EA0720124F7F7A40EA07021048C07A5E
:1042F0000F4FBF7A40EA07230D48067B00210120BB
:1043000005E00B4F3F5C0F44F9B2471CF8B20C2894
:10431000F7DB8E4202D1E260238205E0608A40F042
:104320000407678245F0010500BF2846BDE8F0811B
:10433000705B0020FEB50446002513A207CA8DE875
:104340000700A07A8DF801009DF801009DF8021089
:1043500008449DF8031008449DF8041008449DF893
:10436000051008449DF8061008449DF807100844FD
:10437000C6B28DF8086009226946206800F006FC84
:1043800005432846FEBD0000AA00002000010004ED
:104390000000000038B504460D46002000900223BE
:1043A0006A4621460948006805F0A6FE01280BD19F
:1043B000009838B14FF0805005490860BFF34F8F27
:1043C000BFF36F8F012038BD0020FCE720010020E3
:1043D00004ED00E038B504460D46002000900223AD
:1043E0006A4621460948006805F086FE01280BD17F
:1043F000009838B14FF0805005490860BFF34F8FE7
:10440000BFF36F8F012038BD0020FCE7240100209E
:1044100004ED00E0704770470EB500249FED190AC7
:104420008DED000A1848FFF705FF044300BF012285
:1044300016491748006805F0DDFE0128F7D113483A
:104440000078012819D1002400210F484182C1843D
:10445000FFF7E2FE04436846FFF7DCFF0A48026A02
:10446000C1689DED000A01A800F014F801A8FFF74B
:10447000D2FF1E2004F049FAD9E7012004F045FAE2
:10448000D5E70000E4CB9640805B00206C01002063
:104490002801002070B52DED108B0646B0EE408A45
:1044A0000C4615465448B0F9000004445348B0F98E
:1044B00000000544524890ED000ADFED520A60EE1C
:1044C000200A9FED511A80EE810A30EE080AB0EE04
:1044D000408A4E48B0F9000000EE100AF8EEC00A1B
:1044E00000EE104AB8EE400A80EE801AB0EE419A13
:1044F000B0EE490A03F022F9F0EE408A4448B0F9E0
:104500000000404200EE100AF8EEC00A00EE105A19
:10451000B8EE400A80EE801AB0EE419AB0EE490A39
:1045200003F00CF9B0EE40FA38EE680A10EE101AFB
:10453000084607F09FF841EC1E0BB0EE4E0AF0EE75
:104540006E0A03F039FAB0EE40CAF0EE60CA00EE2F
:10455000104AB8EE400A10EE100A07F08BF841EC52
:104560001D0B53EC1C2B06F091FE41EC1B0B9FED39
:10457000290B53EC102B06F0D7FC41EC1A0B06F07C
:10458000EDFB41EC190B06F0F5FB706038EE4F0ABD
:1045900010EE101A084607F06DF841EC1E0BB0EE55
:1045A0004E0AF0EE6E0A03F007FAB0EE40CAF0EEE3
:1045B00060CA00EE105AB8EE400A10EE100A07F07A
:1045C00059F841EC1D0B53EC1C2B06F05FFE41EC3F
:1045D0001B0B9FED100B53EC102B06F0A5FC41ECD0
:1045E0001A0B06F0BBFB41EC190B06F0C3FB306065
:1045F000BDEC108B70BD0000600100206201002046
:1046000064010020DB0F49400000344368010020B2
:104610006A0100200000000000408F4010B50E48E5
:104620000E4908600320486000210C488160C16089
:104630004FF4002101614FF44011416100210176E6
:1046400041768176C17601774177FDF712FA08B19C
:10465000FCF750FF10BD0000006400407001002016
:1046600010B50E480E4908600320486000210C4830
:104670008160C1604FF4002101614FF4401141613C
:104680000021017641768176C17601774177FDF789
:10469000F0F908B1FCF72EFF10BD000000680040E3
:1046A0009801002008B500BF002000903E48006837
:1046B00040F480003C4908600846006800F480002F
:1046C000009000BF00BF00BF0020009008460068B7
:1046D00040F4001008600846006800F400100090E4
:1046E00000BF00BF002205210B20FDF7D7FF0B20E4
:1046F000FDF7C4FF002205210C20FDF7CFFF0C20A1
:10470000FDF7BCFF002205210D20FDF7C7FF0D209E
:10471000FDF7B4FF002205210E20FDF7BFFF0E209C
:10472000FDF7ACFF002205210F20FDF7B7FF0F209A
:10473000FDF7A4FF002205211020FDF7AFFF102098
:10474000FDF79CFF002205211120FDF7A7FF112096
:10475000FDF794FF002205212F20FDF79FFF2F205A
:10476000FDF78CFF002205213920FDF797FF392046
:10477000FDF784FF002205213A20FDF78FFF3A2044
:10478000FDF77CFF002205214520FDF787FF45202E
:10479000FDF774FF002205214620FDF77FFF46202C
:1047A000FDF76CFF08BD00003038024010B5154A17
:1047B0000021154804F0FEF814490860144A00214D
:1047C000144804F0F7F814490860144A002114480A
:1047D00004F0F0F813490860134A0021134804F06C
:1047E000E9F813490860134A0021134804F0E2F87D
:1047F00012490860124A0021124804F0DBF81249FD
:10480000086010BD6CB70008450E000800000020CD
:1048100090B70008F50E000804000020B4B70008A7
:10482000A50E000808000020D8B70008855B000826
:104830000C000020FCB700080D0A00081000002042
:1048400020B80008194400081400002000B587B003
:10485000142102A8FBF78DFE00BF002001903E4806
:10486000006840F004003C4908600846006800F019
:104870000400019000BF00BF00BF00200190084667
:10488000006840F0200008600846006800F0200042
:10489000019000BF00BF00BF0020019008460068E3
:1048A00040F0800008600846006800F08000019039
:1048B00000BF00BF00BF002001900846006840F024
:1048C000020008600846006800F00200019000BF86
:1048D00000BF00BF002001900846006840F00100C2
:1048E00008600846006800F00100019000BF00BFAA
:1048F00000BF002001900846006840F008000860F2
:104900000846006800F00800019000BF00BF00BF2B
:10491000002001900846006840F04000086008460A
:10492000006800F04000019000BF00BF80200290AE
:104930004FF4881003900020049002A90748FDF767
:10494000EFFC002205211720FDF7A8FE1720FDF738
:1049500095FE07B000BD0000303802400014024050
:1049600000B587B01C216846FBF703FE15481649C1
:1049700008605320486000211348816040F63301ED
:10498000C160002101618161FEF7E6FA08B1FCF720
:10499000B1FD0D48FEF7A9FD08B1FCF7ABFD6020A5
:1049A0000090002001900290049000226946064881
:1049B000FEF719FD08B1FCF79DFD0348FEF7E2FC88
:1049C00007B000BD004401400802002000B587B0D8
:1049D00000200390049005900690019002901448E6
:1049E00014490860532048600021124881604FF646
:1049F000FF71C160002101618161FEF7ADFA08B16C
:104A0000FCF778FD4FF48050039003A90948FEF7A6
:104A100067FB08B1FCF76EFD00200190029001A930
:104A20000448FEF73FFA08B1FCF764FD07B000BD8B
:104A300000080040C001002010B50B480B49086079
:104A40004FF496404860002108488160C1600161D0
:104A50000C21416100218161C161FEF7CDFF08B1E8
:104A6000FCF748FD10BD0000004C00405002002043
:104A700010B50B480B4908604FF4E1304860002145
:104A800008488160C16001610C21416100218161A0
:104A9000C161FEF7B1FF08B1FCF72CFD10BD0000AD
:104AA000005000409402002010B50B480B490860EC
:104AB0004FF416504860002108488160C1600161D0
:104AC0000C21416100218161C161FEF795FF08B1B0
:104AD000FCF710FD10BD000000100140D8020020BE
:104AE00010B50B480B4908604FF4E13048600021D5
:104AF00008488160C16001610C2141610021816130
:104B0000C161FEF779FF08B1FCF7F4FC10BD0000AD
:104B1000004400401C03002010B50B480B490860FE
:104B20004FF496404860002108488160C1600161EF
:104B30000C21416100218161C161FEF75DFF08B177
:104B4000FCF7D8FC10BD00000048004060030020C6
:104B500010B50B480B4908604FF4E1304860002164
:104B600008488160C16001610C21416100218161BF
:104B7000C161FEF741FF08B1FCF7BCFC10BD0000AD
:104B800000140140A403002000BFFEE72DE9F0411E
:104B900004460D4616460027324629462046FFF7B2
:104BA000BBFA074617B90020BDE8F0810120FBE7FA
:104BB00000BFFEE72DE9F04105460E4614461F46AC
:104BC000E56066602046FEF7C7F939462046FEF7E5
:104BD000C1FCBDE8F08170B5134600240568EC6A9D
:104BE000651C5D436426B5FBF6F211B905686A637E
:104BF0000BE0042902D10568AA6306E0082902D166
:104C00000568EA6301E005682A6470BD10B54FF0DD
:104C1000E020006905F078FC012801D005F094F847
:104C200010BD000000B593B0302107A8FBF7A1FC30
:104C3000142102A8FBF79DFC00BF0020019024482E
:104C4000006840F08050224908600846006800F083
:104C50008050019000BF00BF00BF002001901D48A0
:104C6000006840F480401B4908600846006800F472
:104C70008040019000BF00BF012007900004089011
:104C800002200D9041050E9104210F91A821109151
:104C9000022111910421129107A8FDF7B3FE08B17A
:104CA000FCF728FC0F2002900220039000200490C3
:104CB0004FF4A05005904FF480500690052102A8B3
:104CC000FDF73EFD08B1FCF715FC13B000BD000078
:104CD00040380240007000400348006840F4700013
:104CE000014908607047000088ED00E010B5FCF74E
:104CF0009FFB02210F4800F0D9F900230E4A49F624
:104D00003F4141F26700FFF755FF0C4B0F220C4962
:104D10000C4800F05BFD0C4B0F220C490C4800F0D6
:104D200055FD0C4B23220C490C4800F04FFDFCF7BD
:104D30006FF810BDC0010020080200209543000854
:104D4000B452002060030020D5430008C352002065
:104D5000500200205D090008D25200209402002079
:104D600010B50248FEF743FA10BD000068080020A5
:104D700010B50248FEF73BFA10BD0000C00100204C
:104D800010B50268294B98420ED0B0F1804F0BD07D
:104D9000274B984208D0274B984205D0264B984283
:104DA00002D0264B984203D122F070024B681A437E
:104DB0001E4B984220D0B0F1804F1DD01C4B984222
:104DC0001AD01C4B984217D01B4B984214D01B4B47
:104DD000984211D01A4B98420ED01A4B98420BD0E1
:104DE000194B984208D0194B984205D0184B98425D
:104DF00002D0184B984203D122F44072CB681A4378
:104E000022F080034C6943EA040202608B68C362AB
:104E10000B688362054B984202D0084B984201D13F
:104E20000B6903630123436110BD000000000140D2
:104E30000004004000080040000C00400004014055
:104E4000004001400044014000480140001800407B
:104E5000001C00400020004030B501F01F05012477
:104E600004FA05F3046A9C430462046A01F01F0516
:104E700002FA05F52C43046230BD30B50C4681685A
:104E800021F47F4142EA032525432943816030BD57
:104E90000A46816821F0700142F0070319438160DE
:104EA0007047000030B5056A25F001050562026A09
:104EB0004368846924F0700424F003040D682C43D3
:104EC00022F002028D682A43104DA84200D103E06F
:104ED0000F4DA84206D100BF22F00802CD682A4338
:104EE00022F00402094DA84202D0094DA84207D180
:104EF00023F4807323F400734D692B438D692B4396
:104F0000436084614D684563026230BD000001402A
:104F10000004014030B5056A25F010050562026AFB
:104F20004368846924F4E04424F440740D6844EA3E
:104F3000052422F020028D6842EA0512124DA84293
:104F400000D103E0114DA84207D100BF22F080023A
:104F5000CD6842EA051222F040020B4DA84202D071
:104F60000A4DA84209D123F4806323F400634D69FC
:104F700043EA85038D6943EA8503436084614D6894
:104F80008563026230BD0000000001400004014062
:104F900030B5056A25F480750562026A4368C46904
:104FA00024F0700424F003040D682C4322F40072F2
:104FB0008D6842EA0522124DA84200D103E0114D4E
:104FC000A84207D100BF22F40062CD6842EA052260
:104FD00022F480620A4DA84202D00A4DA84209D1AB
:104FE00023F4805323F400534D6943EA05138D697C
:104FF00043EA05134360C4614D68C563026230BD76
:10500000000001400004014030B5056A25F48055D8
:105010000562036A4468C26922F4E04222F44072E5
:105020000D6842EA052223F400538D6843EA0533F4
:10503000084DA84202D0084DA84204D124F480446F
:105040004D6944EA85144460C2614D680564036299
:1050500030BD0000000001400004014030B50B46A7
:105060001446026A056A25F001050562816921F08E
:10507000F00141EA041122F00A021A43816102623E
:1050800030BD30B50B461446056A25F010050562A3
:105090008169026A21F4704141EA043122F0A002E0
:1050A00042EA03128161026230BD000070B504461D
:1050B0000D4605480460057101460868FDF7BCFF10
:1050C00008B1FCF71AFA70BDB800002010B503480B
:1050D000FEF722FB024800F043FC10BD5002002006
:1050E0001C52002070B50546AC6B0020E085E084C2
:1050F0002046FEF710FB70BD70B506460025B46B68
:1051000020684069C0F3C01594F83D00212805D1FE
:1051100025B10020E084204600F0F7F820684069BF
:10512000C0F3801594F83E00222805D125B1002057
:10513000E085204600F0A3F8206C40F010002064C9
:105140002046FEF7E8FA70BD70B50546AC6B2868DE
:10515000006800F48070002842D1E08500BF00BFE5
:1051600021680C3151E8001F21F4807021680C3156
:1051700041E80002002AF3D100BF00BF00BF216850
:10518000143151E8001F21F001002168143141E879
:105190000002002AF3D100BF00BF00BF2168143114
:1051A00051E8001F21F040002168143141E800025D
:1051B000002AF3D100BF202084F83E00206B012894
:1051C0000ED100BF00BF21680C3151E8001F21F053
:1051D000100021680C3141E80002002AF3D100BF21
:1051E000206B012804D1A18D2046FEF74EFA02E083
:1051F0002046FEF78EFF70BD70B50546AC6B206B88
:10520000012805D1A08D41082046FEF73EFA02E0B4
:105210002046FEF77FFF70BD70B50546AC6B286871
:10522000006800F48070F8B90020E08400BF00BF7F
:105230002168143151E8001F21F0800021681431E9
:1052400041E80002002AF3D100BF00BF00BF21687F
:105250000C3151E8001F41F0400021680C3141E859
:105260000002002AF3D102E02046FEF7ABFF70BD3A
:1052700070B50446A56B2846FEF7A5FF70BD00BFBC
:1052800000BF02680C3252E8002F22F490710268CD
:105290000C3242E80013002BF3D100BF00BF00BF67
:1052A0000268143252E8002F22F001010268143221
:1052B00042E80013002BF3D100BF016B01290ED18E
:1052C00000BF00BF02680C3252E8002F22F010012C
:1052D00002680C3242E80013002BF3D100BF2021FA
:1052E00080F83E1000210163704710B50446206825
:1052F000C06820F040002168C860202084F83D008C
:105300002046FEF75FFF002010BD00BF00BF02680F
:105310000C3252E8002F22F0C00102680C3242E841
:105320000013002BF3D100BF202180F83D107047FF
:10533000F8B5044694F83E00222873D1A068B0F571
:10534000805F0CD1206950B90025A66A20684068AA
:10535000C0F308003080A06A801CA06215E0A56A36
:105360000026A068B0F5805F03D0A06828B9206946
:1053700018B920684068287004E02068406800F090
:105380007F002870A06A401CA062E08D401E80B2A1
:10539000E085002844D12068C06820F02000216802
:1053A000C8602068C06820F480702168C8602068E8
:1053B000406920F0010021684861202084F83E0007
:1053C000206B012826D10020206300BF00BF216888
:1053D0000C3151E8001F21F0100021680C3141E828
:1053E0000002002AF3D100BF2068006800F010001E
:1053F00010280AD100BF00200090206800680090AB
:1054000020684068009000BF00BFA18D2046FEF7D5
:105410003CF902E02046FEF77CFE0020F8BD01E0EA
:105420000020FBE70220F9E72DE9F84F0446206849
:10543000006920F44050E16808432168086121694F
:10544000A068084361690843E16908430090206847
:10545000C06849F20C618843009908432168C8601C
:105460002068406920F44070A169084321684861C0
:1054700076492068884203D075492068884203D164
:10548000FDF758FA814602E0FDF744FA8146E069EB
:10549000B0F5004F6CD102206168A0FB01500346BB
:1054A0001920A9FB007001462A463846FAF754FF36
:1054B0006421B0FBF1F04FEA001A02206168A0FB02
:1054C00001510B461920A9FB00712A463846FAF70C
:1054D00043FF834602206168A0FB01500346192068
:1054E000A9FB00712A463846FAF736FF6421B0FB63
:1054F000F1F000EBC00101EB0010ABEB80003221BA
:1055000001EBC0006421B0FBF1F000F0F8000AEB01
:10551000400A02206168A0FB015003461920A9FB44
:10552000007001462A463846FAF716FF83460220E5
:105530006168A0FB015003461920A9FB00712A46AF
:105540003846FAF709FF6421B0FBF1F000EBC00127
:1055500001EB0010ABEB8000322101EBC0006421B5
:10556000B0FBF1F000F007005044216888606AE069
:1055700004206168A0FB015003461920A9FB0070BC
:1055800001462A463846FAF7E7FE8246042061685B
:10559000A0FB015003461920A9FB007001462A46D2
:1055A0003846FAF7D9FE6421B0FBF1F000EBC001F8
:1055B00001EB0010AAEB8000322101EB0010642106
:1055C000B0FBF1F000F0F00A04206168A0FB01706C
:1055D00003461920A9FB00513A462846FAF7BCFEBB
:1055E0006421B0FBF1F00AEB001A04206168A0FB13
:1055F00001510B461920A9FB00712A463846FAF7DB
:10560000ABFE834604206168A0FB015003461920CD
:10561000A9FB007001462A463846FAF79DFE642130
:10562000B0FBF1F000EBC00101EB0010ABEB800030
:10563000322101EB00106421B0FBF1F000F00F000B
:10564000504421688860BDE8F88F000000100140D8
:105650000014014077B581B0044615460298A06257
:10566000A58500202064222084F83E002A48A16BF2
:10567000C8632A48A16B08642948A16BC86400204C
:10568000A16B086502AE32682368191D2B46A06B1A
:10569000FCF7D0FD00BF002000902068006800905B
:1056A00020684068009000BF00BF00BF002084F861
:1056B0003C0000BF206970B100BF00BF21680C3101
:1056C00051E8001F41F4807021680C3141E800026C
:1056D000002AF3D100BF00BF00BF2168143151E898
:1056E000001F41F001002168143141E80002002A46
:1056F000F3D100BF00BF00BF2168143151E8001F83
:1057000041F040002168143141E80002002AF3D141
:1057100000BF002004B070BD49510008F9510008D5
:10572000F9500008014691F83D00212828D18868E9
:10573000B0F5805F0BD1086948B90A6A1088C0F3D8
:1057400008000B685860086A801C086205E00B6A54
:10575000581C086218780B685860C88C401E80B2CC
:10576000C88458B90868C06820F080000B68D86009
:105770000868C06840F040000B68D860002070479F
:105780000220FCE710B50348FDF7C6FF024800F011
:10579000E7F810BDD8020020EC51002010B50348F6
:1057A000FDF7BAFF024800F0DBF810BD1C03002033
:1057B000FC51002010B50348FDF7AEFF024800F091
:1057C000CFF810BDA40300202C520020F8B50446E9
:1057D0000D4616461F460CB9FBF78CFE564920684D
:1057E00088421DD15548046085608680394600F0A6
:1057F000C7F900BF00200090206800680090206872
:105800004068009000BF00BF2068C06840F01000F2
:105810002168C860324629462046FEF759FC89E0D7
:105820004749206888421DD14648046085608680CB
:10583000394600F0A5F900BF0020009020680068FC
:10584000009020684068009000BF00BF2068C068DA
:1058500040F010002168C860324629462046FEF715
:1058600037FC67E03849206888421DD1374804601A
:1058700085608680394600F083F900BF00200090E3
:1058800020680068009020684068009000BF00BF5A
:105890002068C06840F010002168C8603246294680
:1058A0002046FEF715FC45E02949206888421DD1B5
:1058B0002848046085608680394600F061F900BFA1
:1058C00000200090206800680090206840680090E8
:1058D00000BF00BF2068C06840F010002168C860A9
:1058E000324629462046FEF7F3FB23E01A4920689A
:1058F00088421DD11948046085608680394600F0D1
:105900003FF900BF002000902068006800902068E8
:105910004068009000BF00BF2068C06840F01000E1
:105920002168C860324629462046FEF7D1FB01E0D7
:10593000FBF7E0FDF8BD000000100140EC51002035
:1059400000440040FC510020004800400C52002060
:10595000004C00401C520020001401402C5200203A
:1059600010B50446206800680068C0F3001010B14C
:10597000204600F001F810BD38B5044600BF0020F5
:105980000090206800680068009020680068406807
:10599000009000BF00BF2068FDF778FEA088216856
:1059A000896B09684968401A06490880E06818B19F
:1059B0000988D4E902029047A288A1682068FEF70E
:1059C00087FB38BDC000002070B52DED0A8B044662
:1059D000604890ED030A80ED060A90ED040A80ED20
:1059E000070A94ED000A80ED000A94ED010A80EDAB
:1059F000010A94ED020A80ED020A94ED030A80ED9B
:105A0000030A94ED040A80ED040A94ED050A80ED82
:105A1000050A90ED030AD0ED060A30EE600A80ED2B
:105A2000080A90ED040AD0ED070A30EE600A80ED16
:105A3000090A90ED030AD0ED060A30EE600A80ED07
:105A4000080A90ED040AD0ED070A30EE600A80EDF6
:105A5000090A90ED000A404880ED020A3D4890EDA9
:105A60000A0AD0ED080A30EE200A80ED0A0A90ED0D
:105A70000B0AD0ED090A30EE200A80ED0B0A3648F9
:105A800090ED020ADFED350A20EE200ADFED340A40
:105A900080EE201AB0EE418AB0EE480A01F0F0FF25
:105AA00010EE105A284605F0E5FD41EC1C0B9FED69
:105AB0002D0B53EC102B05F0E9FB41EC1A0B25489C
:105AC00090ED0A0A10EE101A084605F0D3FD41ECDD
:105AD0001B0B53EC1A2B05F07FF941EC190B05F069
