:020000040800F2
:1000000040690020E5030008577E00089B6E000849
:10001000257E0008B9330008698F00080000000041
:1000200000000000000000000000000025030008A0
:10003000213E0008000000008103000851800008F4
:10004000FF030008FF030008FF030008FF03000888
:10005000FF030008FF030008FF030008FF03000878
:10006000FF030008FF030008FF030008FF03000868
:10007000893B0008993B0008A93B0008B93B0008F0
:10008000C93B0008D93B0008FF0300089934000869
:10009000BD330008FF030008FF030008233E0008EB
:1000A000FF030008FF030008FF030008FF03000828
:1000B000FF0300082582000835820008FF030008BE
:1000C000FF030008FF030008FF030008FF03000808
:1000D000FF030008898C0008A18C0008B18C00087F
:1000E000FF030008FF030008FF030008FF030008E8
:1000F000FF030008FF030008FF030008FF030008D8
:10010000FF030008FF030008FF030008FF030008C7
:10011000A1850008FF03000845820008FF030008CE
:10012000FF030008E93B0008F93B0008093C000810
:10013000FF030008FF030008FF030008253500083F
:10014000A9340008FF030008FF030008FF030008AC
:10015000FF030008193C0008293C0008C98C00086E
:10016000FF030008FF030008FF030008FF03000867
:10017000FF030008FF030008FF0300080000000061
:10018000FF030008FF03000800F002F800F0BBF8CE
:100190000AA090E8000C82448344AAF10107DA45E2
:1001A00001D100F0B0F8AFF2090EBAE80F0013F079
:1001B000010F18BFFB1A43F0010318477414010024
:1001C000941401000A444FF0000C10F8013B13F0A6
:1001D000070408BF10F8014B1D1108BF10F8015BA0
:1001E000641E05D010F8016B641E01F8016BF9D193
:1001F00013F0080F1EBF10F8014BAD1C0C1B09D1EA
:100200006D1E58BF01F801CBFAD505E014F8016B5B
:1002100001F8016B6D1EF9D59142D6D370470000ED
:100220000023002400250026103A28BF78C1FBD8FF
:10023000520728BF30C148BF0B6070476E2900F0DD
:10024000E783702900F03185662910F0AD856529B6
:1002500010F0AA85672910F0A785612910F0A685FE
:1002600003681B0A28BF41F08001692900F09483CC
:10027000642900F09183752900F08E836F2900F0C6
:10028000BE84782900F0FD84E92900F05984E4292E
:1002900000F05684F52900F05384EF2900F0BB8468
:1002A000F82900F0FC840368DB0928BF41F08001D5
:1002B000632901F03383732901F03883E32901F0C6
:1002C0004383F32901F04883002070471FB510F0E5
:1002D0005EFD9DE8030000F0ADFE01F001FC0400AE
:1002E000002000210FF032FD401C60600020002142
:1002F0000FF016FDE06000F05FFA1FBD10B50020A2
:1003000000F02CFE10BD01F0C5FB1146FFF7DEFF2B
:100310000DF034FB01F03EFF03B4FFF7EFFF03BC29
:1003200001F0B2FB2C4B19680868B0E8F04F80F37D
:100330000988BFF36F8F4FF0000080F3118870477A
:100340000000000008480068006880F308884FF04B
:10035000000080F3148862B661B6BFF34F8FBFF31D
:100360006F8F00DF00BF00BF08ED00E0DFF80C007A
:10037000016841F470010160704700BF88ED00E042
:10038000EFF30980BFF36F8F134B1A681EF0100F45
:1003900008BF20ED108A20E9F04F106009B44FF03B
:1003A000500080F31188BFF34F8FBFF36F8F0EF0B3
:1003B00085FD4FF0000080F3118809BC19680868BA
:1003C000B0E8F04F1EF0100F08BFB0EC108A80F3B9
:1003D0000988BFF36F8F704738000020EFF3058066
:1003E000704700000948804709480047FEE7FEE7DC
:1003F000FEE7FEE7FEE7FEE7FEE7FEE7FEE7FEE7D5
:1004000004480549054A064B704700001D81000855
:1004100089010008406300204069002040650020F9
:100420004065002053EA020C00F069802DE9F04B92
:100430004FF00006002B1FBFB3FA83F503FA05F453
:1004400024FA05F65E4012BF1643B2FA82F502FAAC
:1004500005F4C5F120051EBF22FA05FC44EA0C0490
:10046000203556EA044C4FEA144418BF641C4FF080
:1004700000084FF00009904271EB030C39D30029BA
:1004800019BFB1FA81F701FA07F6B0FA80F700FA5E
:1004900007F6C7F120071EBF20FA07FC46EA0C0644
:1004A0002037B6FBF4FCA7EB0507103F07F01F0B46
:1004B000CBF120060CFA0BFB2CFA06F644BFB34630
:1004C0000026202FA4BF5E464FF0000B5BEA060C0F
:1004D00008BF4FF0010B19EB0B09ABFB027C48EB9B
:1004E0000608C01B06FB02CC0BFB03CC71EB0C0116
:1004F000C1E70B46024641464846BDE8F08B13B5BE
:100500004FF000004FF00001AFF30080BDE81C4049
:10051000704700007CB51D4616460C00009001D0C7
:100520002044401E074B7B442A46694601903046D2
:1005300000F087FA05461CB10020694600F094FAE5
:1005400028467CBD4905000070B5064600F05CF900
:100550000468054630460A22002100F0C7FC2C60E2
:1005600070BD2DE9F041074615460E46102000F0FB
:100570004FF904000AD06760C4E9026500F040F951
:100580000168216004600020BDE8F0810120FBE7E4
:10059000401ECAB210F8011F8A4202D00029F9D1C8
:1005A0000020704710B5431C02E010F8011B71B128
:1005B0008107FAD14FF0013202C88C1A8C4314EA39
:1005C000C211F9D0C01A0A0603D0C01E10BDC01A4D
:1005D00010BD0A0401D0801E10BD0902FCD0401ECF
:1005E00010BD032A40F2308010F0030C00F015809B
:1005F00011F8013BBCF1020F624498BF11F801CB26
:1006000000F8013B38BF11F8013BA2F1040298BF8A
:1006100000F801CB38BF00F8013B11F0030300F0F4
:100620002580083AC0F0088051F8043B083A51F898
:1006300004CBA0E80810F5E7121D5CBF51F8043B9D
:1006400040F8043BAFF30080D20724BF11F8013B10
:1006500011F801CB48BF11F8012B24BF00F8013B72
:1006600000F801CB48BF00F8012B704710B5203AC5
:10067000C0F00B80B1E81850203AA0E81850B1E85B
:100680001850A0E81850BFF4F5AF5FEA027C24BF11
:10069000B1E81850A0E8185044BF18C918C0BDE808
:1006A00010405FEA827C24BF51F8043B40F8043BD1
:1006B00008BF7047D20728BF31F8023B48BF11F886
:1006C000012B28BF20F8023B48BF00F8012B7047E0
:1006D00002F0FF0343EA032242EA024200F061BC57
:1006E0004FF0000200B5134694469646203922BFCB
:1006F000A0E80C50A0E80C50B1F12001BFF4F7AF16
:10070000090728BFA0E80C5048BF0CC05DF804EBF7
:10071000890028BF40F8042B08BF704748BF20F865
:10072000022B11F0804F18BF00F8012B704700001A
:100730004FF0013C50F8042B51F8043B9A4221D170
:10074000A2EB0C03934313EACC1317D150F8042BFC
:1007500051F8043B9A4215D1A2EB0C03934313EAE0
:10076000CC130BD150F8042B51F8043B9A4209D119
:10077000A2EB0C03934313EACC13DBD04FF0000041
:10078000704700BFD01A01BAB1FA81F101F0180127
:1007900022FA01F0CB40C1F12001DBB2C0B2C01A95
:1007A0002CFA01F3D11A914311EAC311E6D1704733
:1007B000704770477047000070B5064C7C44064D8A
:1007C0007D4403E0206820448047241DAC42F9D1D9
:1007D00070BD0000CC0F0100EC0F01002DE9F041CD
:1007E00017460E46054633B107FB0354E41B20466B
:1007F000B047A542FAD1A5F10800BDE8F08100009C
:10080000004870471463002000487047DC620020F5
:1008100070B5064600F0F2FB056806F10B0020F00B
:100820000704B4429CBF002070BD2B466A68BAB171
:100830001068A04210D304F1080188423CBF506800
:10084000586007D35168101941601168091B016095
:1008500058601460101D70BD13465268002AE7D11D
:100860002146284600F0D2FB0028DED170BD70B5CD
:100870000446051F00F0C2FB0068002C14BF44684A
:1008800070BD002C18BFAC423CBF20466468F8D352
:1008900001680A18AA4218BF456003D12A680546B4
:1008A0001144016028684119A1421CBF6C6070BDF1
:1008B0006168696021680844286070BD10B5FFF761
:1008C000A3FF006810BD10B50446FFF79DFF04604C
:1008D00010BD70B5044685690068C10601D5302693
:1008E00000E02026C00707D070BDD4E901213046C2
:1008F0009047206A401C20626D1EF6D570BD70B511
:10090000044685690078C00707D170BDD4E901218C
:1009100020209047206A401C20626D1EF6D570BDD5
:1009200009684A0501D540B27047C905FCD500B237
:10093000704709684A0501D5C0B27047C905FCD5A2
:1009400080B2704770B50C460546012A05D028785C
:10095000800600D5EA69002302E0012305E05B1C64
:10096000934202D2E05C0028F9D1A869E618C01AC7
:10097000A861286A184428622846FFF7AAFF04E005
:10098000D5E9012114F8010B9047B442F8D3284669
:10099000FFF7B5FF70BD00002DE9F04106460024C9
:1009A00010687529314616A510D0FFF7B9FF002849
:1009B00002DA404213A507E031688A0701D512A583
:1009C00002E0490704D511A5012401E0FFF7B1FFBA
:1009D00000210A2206F1240709E0B0FBF2FCB0FB7B
:1009E000F2F302FB1C00303078541846491C0028F2
:1009F000F3D123462A463046BDE8F04100F09EBBC5
:100A0000000000002D0000002B000000200000006E
:100A100011680268006A530501D508700AE0D30521
:100A200001D5088006E0130603D5C217C1E900020C
:100A300000E008600120704701694A1C02610878E3
:100A4000704700B58FB0CDE901310021059105490E
:100A50007944CDE903101146684600F031F90FB032
:100A600000BD0000E5FFFFFF0A6802F8010B0A6005
:100A70007047D1E900239A4202D2531C0B601070D8
:100A8000704700002DE9FF5F15468A460446DFF8EF
:100A9000AC80F8440027D8E900103E46CDE90010AC
:100AA00010E03AF816106A4602A800F0C8FF411C90
:100AB00007D02178890603D5E269391891420DD80B
:100AC0000744761C2078800602D5E069B84205DD2F
:100AD000AE42E6DB3AF816000028E2D1A069C01B5E
:100AE000A0612046FFF7F5FED8E90010CDE900101F
:100AF000002017E03AF818106A4602A800F09FFF9D
:100B0000B0F1FF3F81460BD000250DF1080B05E049
:100B1000D4E901211BF8050090476D1C4D45F7D322
:100B200008F10100B0428046E4DB206A38442062CC
:100B30002046FFF7E4FEBDE8FF9F000062080100C9
:100B40002DE9F0418046D21D22F007020025D2E9AE
:100B50000002F52915A614D0011E72F1000106DA73
:100B60000023D0EB030063EB020211A608E0D8F8E3
:100B700000108B0701D50FA602E0490701D50EA68C
:100B800001251146002408F1240704E000F088FA4A
:100B900030323A55641C50EA0102F7D12B463246F6
:100BA00021464046BDE8F04100F0C8BA0000000010
:100BB0002D0000002B0000002000000030B40021B8
:100BC00000F1240408E002F00705D208303542EABB
:100BD0004372DB086554491C52EA0305F3D10468EB
:100BE000002310A2250707D5A40600D421B1C469AB
:100BF00001230DA2641EC46130BC00F09FBA10B581
:100C0000044621461068FFF794FE02462046BDE8E0
:100C100010400023D2E7D21D22F00701D1E90023C2
:100C2000CCE700000000000030000000F0B40D46EA
:100C30000188090502D5214C7C4402E01F4C7C440C
:100C40000E34002100F1240608E002F00F0712091B
:100C5000E75D42EA03721B097754491C52EA030715
:100C6000F3D102780023120704D5702D06D009B104
:100C7000022311342246F0BC00F060BA0123103484
:100C8000F8E770B504460D4621461068FFF751FE9F
:100C9000024629462046BDE870400023C6E7D21D23
:100CA00022F00703D3E90023C0E70368126843F08A
:100CB000200303600823C3610023B7E7C4060100D3
:100CC0002DE9F05F894604464FF0000ADFF874B161
:100CD000FB44C0F820A02046E1688847002874D073
:100CE000252806D0D4E901219047206A401C2062C3
:100CF000F1E700265F462046E16888472028054640
:100D000007DB312D05D2781910F8200C08B1064305
:100D1000F1E7B00701D526F00406C4F81CA00027AF
:100D2000C4F818A02A2D09D028460CF0A7FC38B327
:100D300004EB8708303DC8F8185019E059F8041B37
:100D4000204604EB87029161E1688847012F054640
:100D500018D1E069002820DA26F020061DE0D8F836
:100D6000180000EB800005EB40003038C8F8180090
:100D70002046E168884705460CF080FC0028EED14B
:100D8000012F0AD02E2D08D12046E16888477F1C0C
:100D90000546022F46F02006C4DBA069002803DACE
:100DA000404246F00106A061F00701D026F010068F
:100DB0006C2D0BD0682D09D04C2D39D06A2D35D033
:100DC000742D35D07A2D33D016E038E0E1682F4607
:100DD00020468847B842054609D16C2F26D04FF4EB
:100DE0008060E168064320468847054604E06C2F92
:100DF0001AD04FF4807006430DB3A5F141001928B5
:100E000002D8203546F400664A4629462046266028
:100E10004E46FFF713FA80B101280BD0F61D26F0DD
:100E2000070000F1080956E74020E4E78020D8E7F2
:100E30000020D6E706F104094DE7284652E7206A6C
:100E4000BDE8F09F540601000FB4002300B589B03F
:100E50000CA900910B99CB60214B7B440693214B4D
:100E60007B44079304236FF00042CDE901321E4A10
:100E70007A446B460892024600200FF0F9FF09B051
:100E80005DF814FB70B506464FF0FF3015460C4672
:100E9000324686B00091CDE90101694600200490F8
:100EA00004A8FFF7D1FF02460498211825B108B124
:100EB000084600E020462860049800280DD0002A4B
:100EC00002DD0098884208D03246081B694600942B
:100ED000CDE9010404A8FFF7B7FF06B070BD00001C
:100EE000030B00001B0B0000B70200002DE9F047C8
:100EF00091460F4680460446002614F8015B2DB14A
:100F000000F074F80068405DC007F6D12B2D02D0C8
:100F10002D2D18D0641E4A463946204600F040FD6B
:100F200027B13968A14201D1C7F800804FF002040F
:100F300071050BD54042002803DDFFF765FC046016
:100F4000A007BDE8F08746F48066E4E70028F8DAF9
:100F5000FFF75AFC04606FF00040F2E72DE9F04122
:100F60000646FFF74DFC8046454613E016B1E068A3
:100F7000B0420ED120682860D4E90101D8F8007091
:100F800088472046FFF773FCD8F80000B842EBD141
:100F900000E025462C68002CE8D1BDE8F0814FF038
:100FA00000020429C0F0128010F0030C3FF49AAB49
:100FB000CCF1040CBCF1020F18BF00F8012BA8BF44
:100FC00020F8022BA1EB0C01FFF78CBB5FEAC17C80
:100FD00024BF00F8012B00F8012B48BF00F8012BBB
:100FE0007047000000487047DC62002010B500F038
:100FF00077FD001D10BD00BF55ED00000048704793
:10100000E4620020704770477047704738B5044667
:101010000A4600206946AFF30080002808BF38BDAB
:1010200002460099204600F05FFD012038BD0120F6
:1010300001F0D2B8F8B5AFF30080054600200C46A9
:10104000102000BF0646A819A0420DD932466946B5
:101050000020AFF30080070008BF01F0BDF8009842
:10106000A04218BF0546C419FFF7C8FF0560074630
:10107000F01D20F007004619284600F00AF8B44297
:1010800008BFF8BDA21B31463868BDE8F84000F043
:101090002BBD00210160C0E901107047102070478E
:1010A00030B5B0F10A024FEA900E71F100034EEA3A
:1010B000817EB0EB0E0061EB91014FEA101E4EEA0B
:1010C000017E10EB0E0041EB11114FEA102E4EEA9B
:1010D000016E10EB0E0041EB11214FEA104E4EEA6B
:1010E000014E10EB0E0041EB1141401841F100019F
:1010F0004FEAD00040EA41704FEAD10110EB800581
:101100004FEA810444EA907444EB01046D1944EB06
:101110000404521BA3414FF0000348BF0A3200D51C
:1011200030BD401C41F1000130BD10B50446FFF751
:101130005DFF0068005D00F0010010BD2DE9F04783
:101140000D4699469246044600F124080168880637
:1011500004D5E06921F01001216000E00120A842DF
:1011600001DD471B00E00027A1697A1902EB0900A5
:10117000081AA0612078C00602D42046FFF7A9FB18
:10118000002608E0D4E901211AF806009047206AF9
:10119000401C761C20624E45F4DB2078C0060AD540
:1011A0002046FFF796FB06E0D4E901213020904766
:1011B000206A401C2062381EA7F10107F4DC07E01A
:1011C000D4E9012118F805009047206A401C2062EC
:1011D000281EA5F10105F3DC2046FFF790FB2078DF
:1011E000000602D50220BDE8F0870120FBE770472A
:1011F0002DE9FF4F0C461E464FF0FF378BB0D2E96A
:101200000001DDF860800A908A46C1F30A5505B9ED
:101210003D46002108464FF00000BAF1000F00F4EF
:10122000400005DA00EB80004FF4400101EA500075
:101230004FEA9059B9F1010F00DDB9460A9850EA1A
:101240004A000ED044F61050A5F2FF3545432F1446
:10125000B8F1000F1ED07542291E1EDDC9F1000233
:101260001CE0B8F1010F4FF0000001D0302103E085
:10127000F24305E02154401CB042FBDB3046002223
:10128000002121540B99C1F80880C1E900200FB05A
:10129000BDE8F08FBD1B6D1CDEE74A4600DA6942EF
:1012A00006A800F005FF06AB93E8070003AB83E850
:1012B000070050460A9901F004FA8DE80700A0F5EE
:1012C00000501F3800900398002D0ADD42F21F01E4
:1012D0004A460844002303A90390684601F0B0FC85
:1012E00009E0A0F500504A461F38002303A90390E7
:1012F000684601F0CFFC8DE807000004000C03D025
:101300004FF0FF30410800E01046B8F1000F03D065
:101310000022009215461EE0751E05D4FFF7C0FEA0
:10132000303262556D1EF9D5B3460122084302D012
:1013300000227F1C04E02078302801D100227F1E8B
:10134000002A099784D01DE0112D07DAFFF7A8FEC7
:10135000303262556D1C50EA0102F5D1084302D0CB
:101360000098C8B10EE00021681E05E0235C625CB5
:1013700063542254401E491C8142F7DBAB46A81B34
:10138000401E0990002004F80B000B98099AC0F841
:101390000880C0E9002B7AE711264FF0000857E7D4
:1013A0002DE9F04F88460446D21D22F0070191B086
:1013B000D1E90001CDE90A010AF01FFF02460B98AE
:1013C000C00F01D02D2007E02068810701D52B2018
:1013D00002E0202101EAC000032A099001D0072A77
:1013E00005DB03464146204600F098FB0BE12078E0
:1013F000800601D5E06900E00620B8F1650F81465E
:1014000006D0B8F1660F18D0B8F1670F70D131E08F
:101410000020B9F1110F009001DB112301E009F167
:1014200001030AAA01A90CA8FFF7E2FEDDE90C708E
:10143000002609F10105834647E001204B46009054
:101440004FF000470AAA01A90CA8FFF7D1FEDDE979
:101450000DB00C995D46002610B909F101000D1878
:10146000B9EB050003D4C0F1FF3609F10105A5EB86
:1014700009002BE0B9F1010F01DA4FF0010900205A
:10148000B9F1110F0090484601DD112300E0034639
:101490000AAA01A90CA8FFF7ABFEDDE90C704D46C6
:1014A00000268346207800070AD4AB4500DA5D4663
:1014B00001A8012D04DD411911F8011C302907D0C4
:1014C0004F4502DA17F1040F04DA012082460FE0DB
:1014D0006D1EEEE7002F02DCED1B3E4403E0781C9E
:1014E000A84200DD7D1CB81B00F1010A4FF0004747
:1014F0002078000703D4AA4501DB4FF0FF3A002112
:10150000B7F1004F0DF143088DF8431024D00220AD
:101510002B23002F01DA7F422D230A21021EA0F186
:10152000010000DC5FB197FBF1FC97FBF1F201FBDE
:101530001C7C17460CF1300C08F801CDEEE7A8F141
:10154000010003702188090501D5452100E06521CE
:10155000A0F1010800F8011C09980FA9A1EB0807E8
:10156000FF1D00B10120411901EBEA70A169384467
:10157000081A401EA0612078C00602D42046FFF75A
:10158000A8F9099828B1D4E901219047206A401CA4
:1015900020622078C00622D52046FFF79AF91EE087
:1015A000002E04DBB34502DD01A8805D00E03020A1
:1015B000D4E901219047206A401C2062761CAAF1E0
:1015C00001005FEA000A0AD100F08AFAC0680168E7
:1015D000405CD4E901219047206A401C2062281E0B
:1015E000A5F10105DCDC07E0D4E9012118F8010BC5
:1015F0009047206A401C2062381EA7F10107F3DCE7
:101600002046FFF77CF9032011B041E62DE9F04FA9
:1016100004460D46D21D22F0070089B0D0E900979C
:10162000484639460AF0E9FD0246F80F01D02D235D
:1016300007E02068810701D52B2302E0202101EA81
:10164000C0038DF820300BB1012000E00020032AF8
:10165000824601D0072A04DB2946204600F05EFAC4
:101660003FE12078800601D40D2500E0E569C7F34D
:101670000A560D2D49DA00214FEA175B08464FF054
:101680000000002F00F4400007DA00EB80004FF468
:10169000400100EBD07001EA60008115012901DDF5
:1016A0004FF0FF3100224FEA850CBCF1180F06D332
:1016B0001346ACF118004FF08052C24003E04FF4E3
:1016C000801323FA0CF30CF10C0CBCF1200F04D3A3
:1016D000ACF1200C09FA0CF001E007FA0CF000293B
:1016E0004FF0004801DD18B90FE00ED140450CD392
:1016F00019EB02095F4121B9404502D19F4329EA14
:101700000209BBEB175F00D0761C2088000502D5CC
:101710007B48784402E07A487844193808AA302394
:1017200002F80A30037C0AF10101002E0AF1020AD4
:1017300053546A4602DC4FF0300101E04FF03101B2
:101740004FF001088DF8001002D0A6F2FF3603E03A
:1017500059EA470100D06B4E002D02DC21780907C1
:1017600004D54FF002082E218DF80110C446002147
:101770000BE0C7F303433F01C35C491C6D1E02F835
:101780000830052908F1010801DA002DF1DC0021FB
:101790000CE000EB1973491C1B786D1E082902F838
:1017A00008304FEA091908F1010801DA002DF0DCD0
:1017B00021688B0602D516E0A8F10108E04505DD99
:1017C00002EB080313F8013C302BF5D0B8F1000F01
:1017D00009DD02EB080313F8013C2E2B03D10907A6
:1017E00001D4A8F10108002D05DD3E2102F8081002
:1017F0006D1E08F10108407C002E02F8080008F177
:10180000010804DA2D20764202F8080002E02B20BD
:1018100002F808000A214FF47A70864208F10108A4
:101820000BDB96FBF0F3303302F8083096FBF0F355
:1018300008F1010800FB136601E0642E0CDB642054
:1018400096FBF0F3303302F8083096FBF0F308F122
:10185000010800FB136601E00A2E06DB96FBF1F09F
:10186000303002F8080008F1010896FBF1F001FBA6
:101870001060303002F80800A16908F1010808EB97
:10188000050202EB0A00081AA0612078C00602D403
:101890002046FFF71EF8216A08AE01EB0A0020621D
:1018A00004E0D4E9012116F8010B9047BAF1010ACE
:1018B000F7D22078C00602D52046FFF70AF86E4618
:1018C00009E016F8010B3E280FD0D4E9012190471A
:1018D000206A401C2062B8F10108F2D22046FFF7CE
:1018E0000EF809B00320BDE8F08F206A284420627A
:1018F00003E0D4E90121302090476D1EEBD3F8E7D7
:1019000059FC000002FCFFFF10B5436913B1AFF3AF
:10191000008001E0FFF716F8012010BD127800F1F9
:1019200024010A7000224A700122EDE711684FF08D
:10193000FF32E9E710B5436913B1AFF3008001E06E
:10194000FFF7A0F8012010BD128800F12401828465
:101950000022C2840122EDE711684FF0FF32E9E76F
:10196000426842B1016811F8013B23B1521EC0E93F
:101970000012184670470121C160881E70474268F6
:101980005AB1C368016843B983688B4205D0491EC8
:10199000521CC0E90012002070474FF0FF30704722
:1019A0002DE9F05F824615468B4600270AF10104B7
:1019B000B9460078302801D09DB113E014F8010B2E
:1019C0000127782803D0582801D045B10AE00DB18D
:1019D000102D07D1002714F8010B102502E008256F
:1019E00000E00A250026B0460EE005FB080005FBD6
:1019F00006F101271FFA80F801EB1046B6F5803F8B
:101A000000D3B94614F8010B294600F0C7F80028A6
:101A1000EBDABBF1000F05D00FB1641E00E05446B5
:101A2000CBF80040B9F1000F06D0FEF7EDFE022121
:101A30000160C81EBDE8F09F48EA0640FAE770B5AD
:101A400016460C460546FFF7D1FA036893F80101E4
:101A5000012806D0FF2C0FD8185D68B101202C702A
:101A600070BDD3F807013246214603F20713034441
:101A70002846BDE8704018474FF0FF3070BD002881
:101A800001D000F001B8704701491820ABBEFEE755
:101A9000260002007546FFF7A5FAAE460500694626
:101AA000534620F00700854618B020B5FEF7A8FC85
:101AB000BDE820404FF000064FF000074FF000084F
:101AC0004FF0000B21F00701AC46ACE8C009ACE8D0
:101AD000C009ACE8C009ACE8C0098D4670470000F9
:101AE00000487047FC620020034640688C4600288E
:101AF00018BF88423CBF03464068F8D318681844B2
:101B0000884207D00CF1030020F00700001D411AA5
:101B1000521A0146081D0A60FEF7A9BE2DE9F041E0
:101B20001F46044603260168072A01F4006004DB0F
:101B300008B116A505E016A503E008B115A500E05B
:101B400015A521F010002060A069C01EA0610FB192
:101B5000401EA0612046FEF7BCFE4FB1D4E9012132
:101B600038469047206A401C2062C01C206206E074
:101B7000206AFAE7D4E9012115F8010B9047761E97
:101B8000F8D22046FEF7BBFEBDE8F0814E414E0084
:101B90006E616E00494E4600696E66003A2800D2BA
:101BA000303820F02002412A01D3A2F137008842C8
:101BB00001D34FF0FF3070472DE9FF4F06468BB041
:101BC0000878FF2806D0491C2D2805D000244FF0A6
:101BD000000908E000200CE00124F8E709EB890384
:101BE000491C00EB43090878FF28F7D114B1C9F16B
:101BF00000008146107800252C46AA4629462D284B
:101C000001D02B2804D1521C2D2813D0002082464D
:101C10008B461078FF280FD04FF0000C0A21521C81
:101C2000A5FB017804FB018105FB0C11C5194BEBE9
:101C30000104EEE70120EAE7002108464FF000002A
:101C4000BAF1000F02D000EB80004008C0F38157CA
:101C5000012F01DD4FF0FF370E9955EA040009EB23
:101C600001080BD04FF0020918F5FA7F16DA4FEA97
:101C7000CA70002F706008DD012007E04FEACA70CB
:101C8000C6E900B00FB0BDE8F08F00203060FEF76D
:101C9000BBFDC0F800901821084616E0B8F5FA7FA1
:101CA00018DD002F02DAF748784401E0F64878445E
:101CB000D0E90010C6E9001040EACA707060FEF773
:101CC000A3FDC0F80090142108460FB0BDE8F04F06
:101CD0000FF067B8002108464FF00000B8F100018E
:101CE000099002DAC7F1000200E03A4601DAC8F1D1
:101CF000000106A800F0DCF906AB93E8070003AB8F
:101D000083E8070044F23E005BEA04010090584675
:101D100004D144F21E012C465D460091210C0904B9
:101D2000014306D10099240444EA15442D041039D6
:101D3000009104F07F41014306D10099240244EA56
:101D400015642D020839009104F07041014306D159
:101D50000099240144EA15742D01091F009104F033
:101D60004041014306D10099A40044EA9574AD00B6
:101D7000891E009104F00041084304D100986D19B8
:101D80006441401E00904FF001033A466846B8F1A6
:101D9000000FCDE9014503A902DD00F090FF01E04D
:101DA00000F063FFBAF1000F04460D4601D084F045
:101DB0000044002108464FF00000099940F2FF77E7
:101DC000484010F00C0F07D124F00040284303D006
:101DD000C4F30A50B84212D1FEF716FDC0F80090C5
:101DE000C4F30A50B8420AD1A8487844D0E9001098
:101DF000C6E9001004F000410843706042E7C6E9FC
:101E000000543FE72DE9FF4F1F464FF0000A4FF007
:101E1000FF38454691B0D7E90146CDF83CA0FFF721
:101E20005FFEC0680168405C1090B96912986D1C33
:101E30008847396A814688470028F6D1B9F1FF3FC3
:101E40000AD0002E24F4D06411DDB9F12B0F08D094
:101E5000B9F12D0F0BD102E0404615B013E744F461
:101E60008064B96912986D1C8847761E81466005AA
:101E700004A901D52D2000E02B20002E01F1010B3B
:101E80000DF130088DF810003FDDB9F1690F08D071
:101E9000B9F1490F05D0B9F16E0F02D0B9F14E0F6B
:101EA0001CD13B4601A8009580E85002DDE91212E2
:101EB0006FF002000EF0E0FFC11CCED10EE0B96958
:101EC00012986D1C884781461398761E44F400745E
:101ED00005600F98401C002E0F9016DDB9F1300FF1
:101EE000EDD0B9F1780F02D0B9F1580F0DD10F989C
:101EF00001280AD13B46CDE90054DDE91212001F4A
:101F000002960EF0B7FFC11CA7D1109989453ED1AA
:101F100044F0800406E01399681CAAF1010A44F415
:101F200000740860B9696D1C1298761E88473028C5
:101F30008146F0D02BE01099894505D1200603D4C5
:101F4000761E44F0800418E048460BF097FB08B377
:101F5000761E0DF123018B4544F4007408D2A9F1DB
:101F600030000BF8010B200607D5AAF1010003E0B1
:101F7000200602D40AF101008246A00502D5139979
:101F8000681C0860B96912986D1C88478146002E4C
:101F9000D1DC53E0002E51DDB9F1650F02D0B9F16B
:101FA000450F4BD1A00549D5B9696D1C1298761E15
:101FB00024F440748847002E81460CDD2B2804D081
:101FC000B9F12D0F07D144F48074B96912986D1CD2
:101FD0008847761E8146E00501D52D2100E02B21A2
:101FE00008F8011BCDF8008021E0761E0DF13901C3
:101FF000884544F400740CD2A9F1300010F0FF00C1
:1020000088F8000002D10099884509D908F1010833
:1020100006E0E00501D51E4801E042F20F7082465D
:10202000B96912986D1C8847814613980560002E87
:1020300004DD48460BF022FB0028D6D1F96912983E
:102040008847FF2053468BF8000088F800000020E6
:102050000A900B9004AA0CA90AA8FFF7ADFDA005F1
:1020600002D46FF00100F8E614F0240F12D0E0075C
:102070001CD13868DDE90A12031D3B600068C0E925
:10208000001213E0ACF900009EF9000062F80000B5
:10209000F1D8FFFF0AA968460BF0C2F8E00705D1A6
:1020A0003868009A011D3960006802602846D4E64D
:1020B0002DE9F047814616468AB0354878440DC868
:1020C0008DE80D0032487844801C03AC0DC884E8CC
:1020D0000D0041F69B300844372190FBF1F290FB54
:1020E000F1F5A5F1800501FB12041B3C02D5644209
:1020F000012000E00020DFF898A080460027FA4485
:10210000AAF1BE0A0EE0E0070AD03246684607EBA5
:10211000470101230AEB810100F0BCFD8DE80700B7
:1021200064107F1C002CEED1194F7F44AE3F19E0A4
:10213000E80715D007EB04100DF1180A90E80E001F
:102140008AE80E00C068F04201D198190890324622
:10215000012306A903A800F09DFD03AB83E8070057
:102160006D10641C002DE3D14FF001033246694627
:10217000B8F1000F03A802D000F062FD01E000F00A
:1021800089FDC9E90001C9F808200AB0BDE8F08757
:1021900040F3000010B50446AFF300802046BDE8D0
:1021A0001040FEF7B9B870B505460C460A2000E0AD
:1021B0006D1C00F018F835B128780028F8D102E03D
:1021C000641C00F010F814B120780028F8D1BDE8A4
:1021D00070400A2000F007B810B500F00DF8BDE817
:1021E0001040FFF74CBC08B569468DF8000003208D
:1021F000ABBE08BD7047000010B5012805D0002116
:1022000003A0FFF7D0FF012010BD09A1F8E70000EF
:1022100053494752544D454D3A204F7574206F66CF
:102220002068656170206D656D6F72790000000037
:102230003A2048656170206D656D6F727920636F1B
:1022400072727570746564002DE9FF4F1F464FF080
:102250003C0987B04FF00042DDE9141001F101089C
:10226000DDF858A002EA4050039000200590834614
:10227000054604460490B969461E08988847AAF1A5
:10228000010A0290BAF1000F3BDD02982E2815D00A
:102290001021FFF783FC00282EDB4FF0010B05997E
:1022A000014317D0B9F1000F0BDB4A46C11700F00C
:1022B000F5F905430C43A9F1040905E00120049058
:1022C0000BE008B145F0010501200590049820B904
:1022D000361D02E0049800B1361FB969089808F16C
:1022E00001088847BBF1000FAAF1010A0290C9D08A
:1022F0000999C1F80080C5E70298702808D05028D5
:1023000006D0F96908988847BBF1000F14D04FE058
:10231000002002900120BBF1000F049009D0B969A0
:10232000089808F101088847AAF10109B9F1000FDE
:1023300007DCF969089888476FF001000BB0BDE829
:10234000F08F2B2804D02D280CD14FF0FF300490B3
:10235000B969089808F101088847A9F10109B9F19C
:10236000000FE6DD411CE4D00A21FFF717FC00282E
:10237000DFDB029908F1010801EB810100EB41006C
:102380000290B969089888470A21FFF707FC099A63
:10239000A9F10109B9F1000FC2F8008001DD0028A0
:1023A000E7DAF969089888470499029800FB016602
:1023B00055EA040004D004F04041090002D006E0D0
:1023C000039898E0A40044EA9574AD00B61E04F0AA
:1023D0000041080002D16D196441761E159810F075
:1023E000240F03D04FF00B095C4803E04FF028099D
:1023F0006FF07D008246564507DAAAEB0601894454
:10240000B9F1410F01DD4FF0410901200021A9F18F
:10241000010200F043F9024628400B4621400843E0
:1024200001D0012100E00021501E029143F1FF3153
:1024300028402140084301D0012000E000200299FB
:10244000834651EA0B014FD0002108464FF00000AF
:10245000039900F4400039B100EB80004FF44001D3
:1024600000EBD07001EA60008015012802DD4FF01A
:10247000FF3000E013D0401C36D0029860B3BBF1AF
:10248000000F0CD14A460120002100F007F9284036
:102490002140084301D0012000E00020E0B10120EC
:1024A0004A46002100F0FAF8034640190A46614105
:1024B0002D1A8C4111D3B9F1400F09DD159810F098
:1024C000240F02D0AAF1340603E0AAF1170600E0B7
:1024D000761C00254FF0004406E05B1E42F1FF32FF
:1024E00020EA030521EA0204CAF10100B04206DA3B
:1024F0001B49039808430190002000900EE0039AC6
:10250000C4F3D321E80A0A43164940EA44500A4377
:102510003146CDE9000268460BF0A6F8159810F098
:10252000240F0BD01598C00715D13868DDE90012CB
:10253000031D3B600068C0E900120CE002A8694678
:102540000AF06EFE1598C00705D13868029A011D81
:102550003960006802604046F0E6000002FCFFFFC0
:102560000000F07F0000F03F2DE9FF4F92461D462E
:1025700085B04FF00041DDE9124BDDE914727F1E9A
:1025800001EA4B50414940F0FF4940EA010800216F
:1025900022F020004928049102D04E2828D04CE097
:1025A0003BA0012607C88DE80700A9690698641CAE
:1025B00088477F1E014606D41DF8060018B121F099
:1025C000200181420BD0E96906988847032E34D058
:1025D000082E32D06FF0010009B0BDE8F08F761CF4
:1025E000032E01D0082EE0D1601CCAF80000DCE701
:1025F000A9690698641C88477F1E2AD420F0200011
:10260000412826D1A9690698641C88477F1E20D4DA
:1026100020F020004E281CD1A9690698641C884728
:102620007F1E48F4002849F48009CAF8004001D40C
:10263000282806D0E969069888475FEACB7012D04F
:1026400022E0A9690698641C88477F1E01D40028EF
:1026500003DAE96906988847BCE72928F1D1641CA8
:10266000CAF80040E9E71BF0240F07D02868049956
:10267000031D2B600068C0E9001805E02868021DF2
:102680002A600068C0F800902046A5E70000F07FAF
:10269000494E46494E49545900000000B2F120030A
:1026A0000AD5C2F1200301FA02F120FA03F300FA7D
:1026B00002F041EA0301704700FA03F14FF0000015
:1026C00070475FEA400C08BF91F0000F4FEA8C237F
:1026D0004FEAC12243EA51514FEA1C5018BF00F59E
:1026E000F0404FEA300018BF41F000415FEA6C5CF7
:1026F00000F02980BCF1FF3F08BF40F080407047E8
:10270000130C06BF12044FF0100C4FF0000C130E08
:1027100004BF12020CF1080C130F04BF12010CF1DC
:10272000040C930F04BF92000CF1020CD30F04BFF2
:1027300052000CF1010C11464FF00002A0F11F00F5
:10274000A0EB0C00704711F0004F08BF704731F04C
:1027500000413FF4D5AF0B0C06BF09044FF0100C3D
:102760004FF0000C0B0E04BF09020CF1080C0B0F0C
:1027700004BF09010CF1040C8B0F04BF89000CF19C
:10278000020CCB0F04BF49000CF1010CCCF120036B
:10279000A0EB0C0022FA03F302FA0CF241EA030167
:1027A00000F10100704720F07F4C80EA030023F025
:1027B0007F47ACEB070303F57C5300F0004003F1C7
:1027C000FF032DE980494FEA154B09B44FEA144342
:1027D00025EA0B4E24EA03480FF2042606EB1327E2
:1027E00049083E785FEA320203FB0667C7F5000737
:1027F00007FB06F64FEA54374FEAD64606F10206C3
:1028000007FB066CCCF1005C4FEA1C472CEA074C36
:1028100007FB06F40CFB06F504EB15464FEA96168B
:1028200034BF00204FF000404FEAD13706FB07FCD1
:102830004FEA1C4C0CFB0BF7D21B03FB0CF761EBB4
:1028400007010CFB0EF7B0EB074072EB17420CFBD5
:1028500008F734BFA2EB0742B2EB074261EB174126
:102860004FEA0C444FEA910706FB07FC4FEA1C4C69
:102870000CFB0BF7B0EBC74072EB573203FB0CF7C6
:1028800034BFA2EBC742B2EBC74261EB57310CFB3E
:102890000EF7B0EBC70072EB57720CFB08F734BFB2
:1028A000A2EBC702B2EBC70261EB5771039F4FEA7D
:1028B000816141EA921104EBCC044FEAD1374FEA2F
:1028C000826206FB07FC42EA90124FEA80604FEA00
:1028D0001C4C0CFB0BF7D21B03FB0CF761EB070145
:1028E0000CFB0EF7B0EB074072EB17420CFB08F73E
:1028F00034BFA2EB0742B2EB074261EB17414FEA4C
:102900008C554FEA910704EB9C2406FB07FC4FEA29
:102910001C4C0CFB0BF7B0EBC74072EB573203FBC0
:102920000CF734BFA2EBC742B2EBC74261EB5731A1
:102930000CFB0EF7B0EBC70072EB57720CFB08F7FD
:1029400034BFA2EBC702B2EBC70261EB577115EBC4
:102950004C254FEA816141EA92114FEA82624FEAC7
:10296000D13742EA901206FB07FC44F100044FEA1B
:1029700080604FEA1C4C0CFB0BF7D21B03FB0CF7DF
:1029800061EB07010CFB0EF7B0EB074072EB17424F
:102990000CFB08F734BFA2EB0742B2EB074261EB36
:1029A000174115EB1C154FEA813141EA92414FEA7C
:1029B000823242EA90424FEA80304FEA0C7644F18C
:1029C000000448EA03434EEA0B484FF0000EB2EB16
:1029D000080C71EB030724BF624639464EEB0E0E1E
:1029E0004FF0000B0018524149414BEB0B0BB2EB7F
:1029F000080C71EB03077BF1000B24BF62463946DC
:102A00004EEB0E0E4FF0000B0018524149414BEBBC
:102A10000B0BB2EB080C71EB03077BF1000B24BF2F
:102A2000624639464EEB0E0E51EA020718BF46F0D9
:102A3000010616EB0E7655F1000254F1000103D5A4
:102A4000BDE88901BDE80088BDE88901BDE800480E
:102A5000B619524141EB0101A3F101037047808097
:102A60007F7E7D7C7B7A79787776767574737271E8
:102A700071706F6E6E6D6C6C6B6A6A6968686766A0
:102A800066656464636362616160605F5F5E5E5D32
:102A90005D5C5C5B5B5A5A595958585757565655A6
:102AA00055555454535352525251515050504F4F08
:102AB0004F4E4E4D4D4D4C4C4C4B4B4B4A4A4A4958
:102AC000494948484847474747464646454545449B
:102AD0004444444343434342424242414141000053
:102AE00046EA0646A3F570534FEA164646EA4256B2
:102AF0004FEAD22242EA415210B54FEAD121A3F166
:102B0000010300F02FF820F0004000F1020C00F06B
:102B1000004701EB00501146BCF5006F40EA07008A
:102B200000D210BDBAF1000F0AD01CB503B44FF0AB
:102B300004004FF004014FF000000FBCBDE810404E
:102B40004FF00001BBF1010FB9BF04484FF0FF3156
:102B50000348002140EA070010BD00BFFFFFEF7FE0
:102B60000000F07F002B9C4630D477002BD01CB5A2
:102B70004FEA370703B44FF010004FF01001BAF1DD
:102B8000000F06D0BCF1000FDCBF40F0080040F0A1
:102B900008014FF000000FBCBDE810400BF1010B25
:102BA000BBF1010F08BF5FEA170722BF12F1010254
:102BB00011F101014FF0004143F1000300F000402A
:102BC00043EA00007047F9D35708D0E746EA0646C3
:102BD00013F1400F4FEA16461FDD13F1200FDFBF40
:102BE00016430A46002120335B42BED0C3F12007C2
:102BF00046EA064602FA07F74FEA164646EA07068D
:102C0000C3F1200722FA03F201FA07F721FA03F1D0
:102C10004FF0000342EA0702A7E746EA020646EA47
:102C200006464FEA164646EA0106BCBF46EA064695
:102C3000360C4FF000034FF000024FF0000194E714
:102C40002DE9804C9A46934670B491E8380007C845
:102C500031EA400C48BF34EA430C03D5FFF7A3FD2B
:102C6000FFF780FFF0BCBDE8008C2DE9804C9A4650
:102C7000934670B491E8380007C831EA400C48BF69
:102C800034EA430C03D5FFF78EFDFFF729FFF0BCB4
:102C9000BDE8008C2DE9804C9A46934670B491E8CB
:102CA000380007C810F0804F08BF13F0804F03D1E1
:102CB00000F01AF8FFF756FFF0BCBDE8008C2DE9D4
:102CC000804C9A46934670B491E8380007C810F0DB
:102CD000804F08BF13F0804F03D100F005F8FFF7D5
:102CE000FFFEF0BCBDE8008C20F07F4780EA0300C7
:102CF00023F07F4C07EB0C03A3F57C5300F000405E
:102D0000A3F1FE0392F0000F00F0B38095F0000FE6
:102D100000F077802DE901494FEA11404FEA14464F
:102D200021EA004800FB06FC24EA064708FB06F6F9
:102D300007FB08F800FB07F718EB06484CEB164CAE
:102D40004FEA124B18EB07484FEA15464CEB174079
:102D500022EA0B4E0BFB06FC25EA06470EFB06F6A5
:102D600007FB0EFE0BFB07F71EEB064E4CEB164C5B
:102D70004FF000061EEB074E4CEB174B18EB0B0801
:102D800040F1000018EB0E0B58EB000840F100007A
:102D90008F1A4FF000013CBFC943661B14BFB5EB4F
:102DA000040C00213CBFC943F61B4FEA17444EEA0E
:102DB0008E0E27EA04454FEA1C4704FB07622CEA03
:102DC000074C05FB07F70CFB05F604FB0CFC16EBA8
:102DD000074642EB174216EB0C4642EB1C421BEB3C
:102DE000060658EB0202414146EA9E0601D5BDE8BF
:102DF0000189B619524141EB0101A3F10103BDE87C
:102E000001894FEA14454FEA114724EA054621EAB1
:102E1000074C05FB07F406FB07F70CFB06F105FB67
:102E20000CFC11EB074144EB17444FEA124711EB3E
:102E30000C4144EB1C4422EA074C05FB07F206FB5D
:102E400007F70CFB06F605FB0CFC16EB074642EBFE
:102E5000174216EB0C4642EB1C456A1854F1000170
:102E600048BF7047B619524141EB0101A3F101037C
:102E7000704795F0000F37D04FEA11424FEA1447E0
:102E800021EA024624EA074C02FB07F106FB07F79A
:102E90000CFB06F402FB0CFC14EB074441EB17415E
:102EA0004FEA154714EB0C4441EB1C4125EA074C53
:102EB00002FB07F506FB07F70CFB06F602FB0CFC12
:102EC00016EB074645EB174516EB0C4645EB1C4247
:102ED000121951F1000148BF7047B619524141EB38
:102EE0000101A3F1010370474FEA14454FEA11476E
:102EF00024EA054621EA074C05FB07F106FB07F724
:102F00000CFB06F24FF0000605FB0CFC12EB07422F
:102F100041EB174112EB0C4251EB1C4148BF70478B
:102F2000921841EB0101A3F1010370472DED068BCF
:102F300088B0FE48007800F0010050B9FB4809F065
:102F4000B5F930B1FA48002180F82810F748AFF3FE
:102F500000800020F749087048600120F44981F89A
:102F6000250000BFF448808AB0F5AF6F08DDF24855
:102F7000808AB0F5C86F03DA40F2DC50EE498882EF
:102F8000ED48C08AB0F5AF6F08DDEB48C08AB0F5F8
:102F9000C86F03DA40F2DC50E749C882E648008A8D
:102FA000B0F5AF6F24DDE448008AB0F5C86F1FDAD2
:102FB000E148408AB0F5AF6F1ADDDF48408AB0F5CE
:102FC000C86F15DADB48007828B90CF063FCD949E2
:102FD0004860012008700CF05DFCD6494968401A31
:102FE000322809D340F2DC50D3490882488203E0FA
:102FF0000020D04908704860CF48008A48B9CE48C0
:10300000408A30B9CC48808A18B9CB48C08A002899
:103010007DD0C9494989A1F57A700DF04CF9B0F518
:10302000C87F75DDC449498A40F2DC52501A0DF060
:10303000CBFB41EC1A0B9FEDC10B53EC102B0DF0A9
:103040002FFA41EC190B9FEDBF0B53EC102B0DF039
:103050000FFC41EC180B0DF035F9B5494860B64945
:10306000098A40F2DC52501A0DF0AEFB41EC1A0B0B
:103070009FEDB20B53EC102B0DF012FA41EC190B33
:103080009FEDB00B53EC102B0DF0F2FB41EC180B45
:103090000DF018F9A6490860A749898AA1F2DC5009
:1030A0000DF092FB41EC1A0B9FEDA40B53EC102B8F
:1030B0000DF0F6F941EC190B9FEDA40B53EC102B1E
:1030C0000DF0D6FB41EC180B0DF0FCF89849486167
:1030D0009949C98AA1F2DC500DF076FB41EC1A0B3C
:1030E0009FED960B53EC102B0DF0DAF941EC190B18
:1030F0009FED980B53EC102B0DF0BAFB41EC180B25
:103100000DF0E0F88A498861091D081F01E02CE1F3
:10311000F2E006F00BFC88494989A1F2DC500DF081
:10312000CAF832286EDA0220814981F820008249EB
:103130000989A1F57A700DF0BEF832282FDA002047
:103140007B4981F82200012081F82500002081F8C8
:1031500026007949C989A1F57A700DF0ACF83228BA
:1031600007DA0020724981F82700012081F8210048
:10317000D6E07149C989A1F5FA600DF09CF83228B2
:10318000F6DA6B4814309FED750A06F085FB0120D6
:10319000674981F82700022081F82100C0E06649D4
:1031A0000989A1F5FA600DF086F83228E0DA624963
:1031B000C989A1F57A700DF07EF8322807DA00206F
:1031C0005B4981F82200012081F8210015E05A496D
:1031D000C989A1F5FA600DF06EF832280DDA0220E7
:1031E000534981F82100042081F82200012081F850
:1031F000260001F1140006F089FB00204C4981F8FB
:1032000025008DE04C494989A1F5FA600DF053F88D
:10321000322851DA0120464981F8200046490989BF
:10322000A1F5FA600DF047F8322808DA0620404987
:1032300081F8210001F1140006F0E2FB0BE03E49A9
:103240000989A1F57A700DF036F8322803DA0220E8
:10325000374981F821003849C989A1F57A700DF004
:103260002AF8322804DA0220314981F822000BE0E2
:103270003149C989A1F5FA600DF01DF8322803DA49
:1032800003202B4981F82200294890F822000328C6
:1032900004D0274890F82200022841D12649898984
:1032A000A1F57A700DF007F8322806DA00202049DF
:1032B00081F8230081F8240032E01F498989A1F2B6
:1032C000DC500CF0F8FF322807DA0120184981F8A9
:1032D0002300002081F8240022E017498989A1F504
:1032E000FA600CF0E8FF32281ADA0120104981F860
:1032F000230081F8240013E000200D4981F820000C
:1033000081F8210081F8220081F8230081F824004F
:10331000012081F82500002081F8260081F827008F
:1033200000231A4602490E4800681BE09002002064
:10333000D8570020780200208C55002000000000A3
:1033400000407F409A99999999990D40000000009A
:1033500000001440000000000000004000000000D9
:103360003C0200200BF0AAFF0EE020216846FDF78A
:10337000B7F9202206496846FDF778F92022694608
:103380000448FDF773F900BF01200AF01FFBE9E5CF
:1033900024100108D857002010B500221146044817
:1033A00004F03BFE05F020FF024808F03DFE10BD92
:1033B000D0040020393E000800BFFEE710B50248E7
:1033C00000F073FF10BD00003803002010B5044664
:1033D000A06800283AD12068A0F20120082834D241
:1033E000DFE800F0040A1133181E252C04F11C013B
:1033F000174806F0F4FD28E004F11C0114482C30B5
:1034000006F0EDFD21E004F11C011148583006F0F2
:10341000E6FD1AE004F11C010E4806F0E0FD14E0A0
:1034200004F11C010B482C3006F0D9FD0DE004F12D
:103430001C010848583006F0D2FD06E004F11C01DA
:103440000448843006F0CBFD00BF00BF10BD000073
:1034500098590020705C00201FB500BF4FF0FF326C
:1034600069460B4800680CF07BF80128F6D100BFD4
:10347000084800F0FFFEC4B2002CF9D09DF80C30D3
:10348000029881B26A4603480AF068F9E6E700004C
:10349000280200203803002010B5024800F005FF84
:1034A00010BD00003803002010B5024800F0FDFEFA
:1034B00010BD00006003002010B50446A068042879
:1034C0000DD12146064807F0EFFD2146044838306B
:1034D00007F0EAFD21460248703007F0E5FD10BD17
:1034E000205D00201FB500BF4FF0FF3269460B483A
:1034F00000680CF035F80128F6D100BF00BF08487D
:1035000000F0B8FEC4B2002CF9D09DF80C306A4629
:10351000034802990AF004F9E6E700002C020020B3
:103520006003002010B5024800F0BFFE10BD00008F
:1035300060030020F0B58BB007460C4615461E46CA
:1035400004F0020080B1E8040190E80004F00301F7
:1035500040EA41000290F0040390F00004F00301FF
:1035600040EA4100049009E068010190A007400F83
:10357000029070010390A007400F0490E0100690A5
:10358000C4F38000059001200990002007900120DD
:1035900008900E200A9001A9384600F01BFD08B1E2
:1035A00000F044FC0BB0F0BD70B504460D4620465B
:1035B00001F07BF908B100F039FC0121204600F050
:1035C00049FC08B100F032FC0221204600F042FC28
:1035D00008B100F02BFC1021204600F03BFC08B1A4
:1035E00000F024FC08492068884203D107480560A0
:1035F000002070BD06492068884203D10548056057
:103600000020F6E70120F4E700640040B800002045
:1036100000680040BC0000202DED048B8EB002201D
:103620000623F64AF6490090F64807F0DCFA012036
:103630000823F54AF5490090F24807F0D4FA002330
:103640000122F349F34800680BF038FE00BFF2484E
:1036500008F068FDF1490860EF48383008F062FD75
:103660004042EF490860EC48703008F05BFDED49DE
:103670000860EA480068002806DAE848006800F5B3
:1036800080300A30E5490860E5480068002806DA1D
:10369000E348006800F580300A30E1490860E148FD
:1036A0000068002806DADF48006800F580300A303C
:1036B000DC4908600122DC49DC4800680BF050FF5F
:1036C00001287AD1DA4890ED000ADA4880ED000A44
:1036D000D0ED000AB0EE600AD748D0ED000AFDEE4A
:1036E000E00A10EE900A06F053F800EE100AB8EE69
:1036F000C00AD14880ED000ACE48D0ED000AB0EEF5
:10370000600ACD48D0ED000AFDEEE00A10EE901AF6
:10371000BC4807F03DFAC74880ED020AC64890ED64
:10372000000AF7EE000AB4EE600AF1EE10FA05D1D5
:103730009FEDC20AC24880ED000A24E0BE4890ED29
:10374000000AF0EE000AB4EE600AF1EE10FA05D1BC
:103750009FEDBC0ABA4880ED000A14E0B64890ED2F
:10376000000AF0EE080AB4EE600AF1EE10FA05D194
:103770009FEDB50AB24880ED000A04E09FEDAF0A64
:10378000AF4880ED000AA7480368A5480268A3482F
:103790000168AEA00AF022FAA34890F8210001289F
:1037A0000CD11422A0490C316846FCF75FFF9E48FB
:1037B0000EC8A94806F016FFC9E0CDE19A4890F876
:1037C000210005280ED1202106A8FCF789FF14222C
:1037D00009A96846FCF74AFF9F4806A90EC906F0EA
:1037E00001FFB4E0904890F8210002284CD18E48A7
:1037F00090ED000A10EE101A08460DF057FA41EC51
:10380000190B9FED960B53EC102B0DF031F841EC9A
:10381000180B0CF057FD84490860084690ED010A2A
:1038200010EE101A08460DF041FA41EC190B9FED0D
:103830008B0B53EC102B0DF01BF841EC180B0CF01C
:1038400041FD79494860084690ED050A10EE101ACE
:1038500008460DF02BFA41EC190B9FED800B53EC51
:10386000102B0DF005F841EC180B0CF02BFD6E49F8
:10387000486114220C316846FCF7F8FE6A480EC80D
:10388000754806F0AFFE62E0674890F8210070B915
:10389000202106A8FCF724FF142209A96846FCF79A
:1038A000E5FE6D4806A90EC906F09CFE4FE05E4895
:1038B00090F8210006283BD15B4890ED000A10EEFD
:1038C000101A08460DF0F2F941EC190B9FED650B4B
:1038D00053EC102B0CF0CCFF41EC180B0CF0F2FC6D
:1038E00051490860084690ED010A10EE101A08468A
:1038F0000DF0DCF941EC190B9FED5A0B53EC102B3A
:103900000CF0B6FF41EC180B0CF0DCFC46494860AB
:10391000084690ED050A80ED050A14220C31684630
:10392000FCF7A4FE40480EC84B4806F05BFE0EE0D4
:10393000202106A8FCF7D4FE142209A96846FCF74A
:1039400095FE454806A90EC906F04CFE00BF364854
:1039500090F82200022806D19FED380A2E48B83888
:1039600007F044FD3CE0304890F82200032807D1DE
:103970003E4890ED000A2848B83807F037FD2FE0A0
:10398000294890F82200042806D19FED390A2248E0
:10399000B83808F017F823E0234890F8220030B92F
:1039A0009FED260A1C48B83807F020FD18E01E4895
:1039B00090F8220001280DD11748B03890ED050A83
:1039C0002C4880ED000A90ED000A1348B83807F043
:1039D0000DFD05E09FED190A0F48B83807F006FD08
:1039E000114890F8230040B99FED140A00221146B7
:1039F0000948B83807F06CFD5CE03DE0241101088F
:103A0000D410010850620020B410010844100108CD
:103A1000B002002054020020205D0020A4020020FB
:103A2000A8020020AC020020246200203C020020FA
:103A30000C0200207C620020D40200200000000064
:103A4000D00200200000B4420000024325642C256F
:103A5000642C25640D0A00004059002033333333B1
:103A60003333D33F9A9999999999E93FC802002035
:103A700000402F44B8020020394890F82300012864
:103A800018D1374890F8240050B93648D0ED020AD2
:103A9000B0EE600A01220021334807F019FD09E069
:103AA0003048D0ED020AB0EE600A012211462E48DD
:103AB00007F00EFD2A4890F82500012807D12B4871
:103AC00090ED000A0021284807F082FE12E0244809
:103AD00090F8250038B9254890ED000A01212248C8
:103AE00007F076FE06E0214890ED000A00211E480E
:103AF00007F06EFE1A4890F82700012814D11C48E0
:103B0000D0ED000A1B4890ED000A04F02DFA0120C8
:103B100019490870194908700023012216491848EC
:103B200000680BF0CBFB0FE00D4890F8270058B968
:103B300000201149087011490870002301220E4924
:103B40000F4800680BF0BAFB0E4806F043FB06482E
:103B500008F078F805F0F4FA012009F037FF76E56F
:103B6000246200207C620020685C0020CC020020DF
:103B7000E8020020EC020020DC020020DD02002030
:103B80004C0200204059002010B5024800F030FFE0
:103B900010BD0000AC08002010B5024800F028FF5E
:103BA00010BD00006C06002010B5024800F020FF98
:103BB00010BD00000C09002010B5024800F018FFED
:103BC00010BD0000CC06002010B5024800F010FF28
:103BD00010BD0000EC07002010B5024800F008FFFF
:103BE00010BD00004C08002010B5024800F000FF96
:103BF00010BD00006C09002010B5024800F0F8FE6E
:103C000010BD00008C07002010B5024800F0F0FE47
:103C100010BD0000E003002010B5024800F0E8FEEF
:103C200010BD0000CC09002010B5024800F0E0FEF5
:103C300010BD00002C07002001460878103818231A
:103C4000B0FBF3F20848805CC865032A05D9086810
:103C50006FF30900001D886503E008686FF3090031
:103C60008865886D70470000F00F0108014600204C
:103C70008A6A8B69CBB932B1012A0DD0022A03D0EE
:103C8000032A10D10EE000BFCB6A03F08073B3F1BA
:103C9000807F00D1012007E0CB6AB3F1C07F00D163
:103CA000012001E000E000BF34E08B69B3F5005F64
:103CB0001AD132B1012A07D0022A03D0032A11D126
:103CC0000AE000BF01200EE0CB6A03F08073B3F17D
:103CD000807F00D1012006E0CB6AB3F1C07F00D124
:103CE000012000E000BF15E032B1012A05D0022A10
:103CF00004D0032A0CD103E000BF00BF012008E07C
:103D0000CB6A03F08073B3F1807F00D1012000E023
:103D100000BF00BF704730B50468246824F48024D5
:103D200005682C60046863608468402C04D10468D2
:103D3000A2600468E16003E00468A1600468E260D6
:103D400030BD000010B50022102108200BF0CCF986
:103D5000274908600022102108200BF0C5F92549E9
:103D6000086000220C2104200BF0BEF922490860F3
:103D700000220C2104200BF0B7F920490860002232
:103D8000202104200BF0B0F91D49086000222C21ED
:103D900004200BF0A9F91B4908600022042102202D
:103DA0000BF0A2F9184908600022012108460BF027
:103DB0009BF91649086000220F2101200BF094F9AD
:103DC0001349086000220F2101200BF08DF91149E1
:103DD00008600022012104200BF086F90E490860DA
:103DE0000022012114200BF07FF90C49086010BD5E
:103DF000280200202C020020300200203402002083
:103E0000380200203C020020400200204C0200202A
:103E100044020020480200205002002054020020EA
:103E2000704710B5802000F0CDFF10BD72B600BF06
:103E3000FEE700BFFEE70000044800680068406A33
:103E400003490968C1EB014108447047C4000020E0
:103E5000C000002010B5024692F82030012B01D09E
:103E6000022B06D110684069084314686061002085
:103E700010BD506A40F4802050620120F8E7F0B590
:103E800004460D461E4694F8207020688368A86892
:103E900000B900E000BF012F01D0022F7CD103F058
:103EA000806030B903F0006018B903F0805000283A
:103EB00073D0C3F30161022905D9606A40F40000A0
:103EC00060620120F0BD012088403060A86860B9C0
:103ED000B5F800C0E86840EA4C5C206800F5C070A6
:103EE00000EB0110C0F800C00FE0D5E901C040EAC6
:103EF000CC00D5F80CC040EA0C00D4F800C00CF59A
:103F0000C07C0CEB011CCCF80000D5F810C0206878
:103F100000F5C07000EB0110C0F804C0287D012836
:103F20000ED1206800F5C07000EB0110406840F42D
:103F3000807C206800F5C07000EB0110C0F804C060
:103F4000D079000692F806C040EA0C4092F805C00D
:103F500040EA0C2C10794CEA000C206800F5C07087
:103F600000EB0110C0F80CC0D078000692F802C037
:103F700040EA0C4092F801C040EA0C2092F800C0E0
:103F800040EA0C00D4F800C00CF5C07C0CEB011C1E
:103F9000CCF80800206801E016E00FE000F5C070E2
:103FA00000EB0110006840F0010C206800F5C070C3
:103FB00000EB0110C0F800C0002083E7606A40F405
:103FC0000010606201207DE7606A40F4802060623A
:103FD000012077E7F0B504460A46216894F820509E
:103FE000012D01D0022D7ED1424901F500710868F2
:103FF00040F001000860086820F47C500860086800
:10400000566A40EA06200860107D00F01F06012075
:1040100000FA06F3C8699843C861A1F50071D06938
:10402000C8B9D1F80C029843C1F80C02908880B24C
:10403000968940EA064601F51070576940F83760E6
:10404000108880B2168940EA064601F5107057695B
:1040500000EBC7004660D069012819D1D1F80C02E5
:104060001843C1F80C02908880B2168840EA0646D0
:1040700001F51070576940F83760908980B2168951
:1040800040EA064601F51070576900EBC70046602C
:10409000906928B9D1F804029843C1F8040204E0F9
:1040A000D1F804021843C1F80402106928B9D1F804
:1040B00014029843C1F8140204E0D1F81402184322
:1040C000C1F81402106A012804D1D1F81C02184367
:1040D000C1F81C02D1F8000220F00100C1F8000272
:1040E0000020F0BDFFE7606A40F48020606201209C
:1040F000F7E7000000640040704770B5044694F88C
:104100002050012D01D0022D7DD151B92068C06809
:1041100000F0030080B9606A40F400106062012082
:1041200070BD2068006900F0030028B9606A40F49F
:10413000001060620120F3E7206800F5D87000EB02
:104140000110006800F004009060906840B9206899
:1041500000F5D87000EB01100068400D106007E01A
:10416000206800F5D87000EB01100068C0085060AE
:10417000206800F5D87000EB0110006800F0020024
:10418000D060206800F5D87000EB0110406800F0A6
:104190000F001061206800F5D87000EB0110406836
:1041A00000F47F40000A9061206800F5D87000EBB1
:1041B00001104068000C5061206800F5D87000EBD9
:1041C000011080681870206800F5D87000EB0110AD
:1041D000806800F47F40000A5870206800F5D870AD
:1041E00000EB0110806800F47F00000C98702068DC
:1041F00000F5D87000EB01108068000ED8702068C0
:1042000000F5D87000E02FE000EB0110C0681871D5
:10421000206800F5D87000EB0110C06800F47F4002
:10422000000A5871206800F5D87000EB0110C068D2
:1042300000F47F00000C9871206800F5D87000EB46
:104240000110C068000ED87131B92068C06840F014
:1042500020002668F06005E02068006940F020003A
:104260002668306100205BE7606A40F4802060626D
:10427000012055E70146002091F82020012A01D0B5
:10428000022A11D10B689B6803F0806303B1401CC4
:104290000B689B6803F0006303B1401C0B689B68CC
:1042A00003F0805303B1401C70472DE9F05F0446D2
:1042B0000025206846692068D0F804902068876847
:1042C0002068D0F80CA02068D0F810B02068D0F892
:1042D000188006F00100002855D007F00100C0B199
:1042E00001202168886007F0020018B1204600F024
:1042F0000CFB0EE007F0040010B145F4006508E087
:1043000007F0080010B145F4805502E0204600F0A7
:10431000FBFA07F48070C8B14FF4807021688860A0
:1043200007F4007018B1204600F0F1FA0EE007F42F
:10433000806010B145F4005508E007F4006010B14A
:1043400045F4804502E0204600F0E0FA07F48030B2
:10435000C8B14FF480302168886007F4003018B18C
:10436000204600F0D6FA0EE007F4802010B145F4A4
:10437000004508E007F4002010B145F4803502E064
:10438000204600F0C5FA06F0080038B10AF0100027
:1043900020B145F4007510202168C86006F00400C3
:1043A00040B10AF0080028B108202168C860204602
:1043B00000F01EFA06F0020038B12068C06800F074
:1043C000030010B1204600F015FA06F0400038B1A5
:1043D0000BF0100020B145F48065102021680861C1
:1043E00006F0200040B10BF0080028B10820216839
:1043F0000861204600F02AFA06F0100038B1206863
:10440000006900F0030010B1204600F021FA06F424
:10441000003040B109F0100028B110202168486038
:10442000204600F041FA06F4803040B109F008005F
:1044300028B1082021684860204600F06BFA06F495
:10444000004088B309F0040078B306F4807020B10E
:1044500008F0010008B145F0010506F4007020B134
:1044600008F0020008B145F0020506F4806020B1B2
:1044700008F0040008B145F0040506F40060A0B19E
:1044800008F0700088B108F07000402817D006DCF2
:1044900010280BD020280CD0302819D10CE050283F
:1044A00010D0602814D110E01DE019E045F0080597
:1044B0000FE045F010050CE045F0200509E045F05F
:1044C000400506E045F0800503E045F4807500E016
:1044D00000BF00BF2068806920F0700021688861FB
:1044E0000420216848602DB1606A2843606220463C
:1044F000FFF702FEBDE8F09F70B504460CB901203D
:1045000070BD94F8200010B9204600F0AFF8206884
:10451000006840F001002168086000F061FD054678
:104520000DE000F05DFD401B0A2808D9606A40F4E8
:1045300000306062052084F820000120E0E7206858
:10454000406800F001000028EBD02068006820F0EF
:1045500002002168086000F043FD05460DE000F010
:104560003FFD401B0A2808D9606A40F400306062B1
:10457000052084F820000120C2E72068406800F090
:1045800002000028EBD1207E012806D120680068B7
:1045900040F080002168086005E02068006820F095
:1045A000800021680860607E012806D120680068CC
:1045B00040F040002168086005E02068006820F0B5
:1045C000400021680860A07E012806D120680068AC
:1045D00040F020002168086005E02068006820F0B5
:1045E000200021680860E07E012806D1206800686C
:1045F00020F010002168086005E02068006840F0A5
:10460000100021680860207F012806D1206800681A
:1046100040F008002168086005E02068006820F08C
:10462000080021680860607F012806D120680068C2
:1046300040F004002168086005E02068006820F070
:10464000040021680860D4E9020108432169084395
:10465000616908436168491E08432168C8610020F8
:104660006062012084F82000002049E710B586B080
:104670000446142101A8FCF733F857492068884202
:1046800049D156480068401C5449086008460068F3
:1046900001280FD100BF002000905148006840F071
:1046A00000704F4908600846006800F000700090F4
:1046B00000BF00BF00BF00200090494810380068CC
:1046C00040F008004649103908600846006800F0CC
:1046D0000800009000BF00BF03200190022002905C
:1046E00000200390032004900920059001A93D4873
:1046F00000F076FB00220521132000F035FD132089
:1047000000F022FD00220521142000F02DFD1420D0
:1047100000F01AFD5DE034492068884259D100BF9D
:10472000002000902E48006840F080602C4908600E
:104730000846006800F08060009000BF00BF274876
:104740000068401C254908600846006801280FD110
:1047500000BF002000902248006840F0007020490F
:1047600008600846006800F00070009000BF00BFBD
:1047700000BF002000901A481038006840F0020086
:104780001749103908600846006800F002000090E0
:1047900000BF00BF4FF44050019002200290002063
:1047A0000390032004900920059001A90F4800F010
:1047B00017FB002205213F2000F0D6FC3F2000F02F
:1047C000C3FC00220521402000F0CEFC402000F078
:1047D000BBFC06B010BD00000064004024000020B7
:1047E00040380240000C02400068004000040240D3
:1047F0007047000010B504460F4884420BD10F4BA0
:10480000A3F11C0200212046FFF777FC0B481C385F
:104810000B49096888470B4884420BD1074BA3F129
:104820001C0200212046FFF768FC04481C3806499A
:104830000968884710BD0000380300208453002019
:10484000B800002060030020BC000020704700007A
:1048500010B504460F4884420BD10F4BA3F11C0244
:1048600001212046FFF749FC0B481C380B49096819
:1048700088470B4884420BD1074BA3F11C0201214E
:104880002046FFF73AFC04481C3806490968884767
:1048900010BD000038030020A8530020B8000020FD
:1048A00060030020BC000020704770B5044694F8F7
:1048B0002000012822D1022084F82000206800680E
:1048C00020F001002168086000F08AFB05460DE039
:1048D00000F086FB401B0A2808D9606A40F40030CB
:1048E0006062052084F82000012070BD20684068C7
:1048F00000F001000028EBD16062F6E7606A40F446
:10490000002060620120F0E77047704770477047F1
:1049100070477047704770B50446A56D00F060FBA6
:10492000064694F83500022808D08020606500BF54
:10493000002084F8340000BF012070BD20680068AA
:1049400020F01600216808602068406920F080008F
:1049500021684861206C08B9A06C28B12068006803
:1049600020F00800216808602068006820F001003D
:104970002168086010E000F033FB801B05280BD98C
:1049800020206065032084F8350000BF002084F8F3
:10499000340000BF0320D0E72068006800F0010069
:1049A0000028E8D194F85C103F208840A8600120DE
:1049B00084F8350000BF002084F8340000BF00BF39
:1049C000BBE7014691F83500022803D080204865F6
:1049D00001207047052081F835000868006820F044
:1049E00001000A6810600020F3E70146486D704737
:1049F000F8B50446002000908C4800684FF416512A
:104A0000B0FBF1F7A56D2E6894F85C100820884083
:104A1000304098B12068006800F0040070B1206850
:104A2000006820F004002168086094F85C100820F9
:104A30008840A860606D40F00100606594F85C10EB
:104A400001208840304068B12068406900F0800053
:104A500040B194F85C1001208840A860606D40F07F
:104A60000200606594F85C1004208840304068B112
:104A70002068006800F0020040B194F85C10042047
:104A80008840A860606D40F00400606594F85C1098
:104A900010208840304078B32068006800F008009B
:104AA00050B394F85C1010208840A860206800681B
:104AB00000F4802080B12068006800F4002028B94C
:104AC000206CC8B12046216C884715E0A06C98B1D5
:104AD0002046A16C88470FE02068006800F48070D1
:104AE00028B92068006820F0080021680860206C60
:104AF00010B12046216C884794F85C102020884033
:104B00003040002865D02068006800F010000028C0
:104B10005FD094F85C1020208840A86094F835009D
:104B2000052828D12068006820F016002168086058
:104B30002068406920F0800021684861206C08B935
:104B4000A06C28B12068006820F008002168086087
:104B500094F85C103F208840A860012084F835005C
:104B600000BF002084F8340000BF206D10B1204643
:104B7000216D8847F8BD2068006800F4802080B16E
:104B80002068006800F4002028B9606C10B120464D
:104B9000616C88471DE0E06BD8B12046E16B884727
:104BA00017E02068006800F4807068B92068006829
:104BB00020F0100021680860012084F8350000BF53
:104BC000002084F8340000BFE06B10B12046E16B98
:104BD0008847606D38B3606D00F00100F0B10520CA
:104BE00084F835002068006820F001002168086022
:104BF00000BF0098401C0090B84200D905E0206832
:104C0000006800F001000028F3D100BF012084F803
:104C1000350000BF002084F8340000BFE06C10B104
:104C20002046E16C884700BFA4E700003400002064
:104C30002DE9F0410446002500F0D2F9074614B9E9
:104C40000120BDE8F081606A00B100BF022084F855
:104C5000350000BF002084F8340000BF20680068E1
:104C600020F00100216808600AE000F0B9F9C01BDB
:104C7000052805D920206065032084F83500E0E789
:104C80002068006800F001000028EED12068056867
:104C900021480540D4E901010843E168084321693E
:104CA000084361690843A1690843E1690843216A2F
:104CB00008430543606A042803D1D4E90B01084383
:104CC0000543206805602068456925F00705606A8E
:104CD0000543606A04280DD1A06A0543E06A48B123
:104CE0002046FEF7C3FF28B140206065012084F80C
:104CF0003500A6E7206845612046FEF79DFF064681
:104D000094F85C103F208840B0600020606501206E
:104D100084F83500002094E73F8010F02DE9F0473B
:104D200004460D4616461F464FF00008D4F858902A
:104D300000BF94F83400012802D10220BDE8F087BA
:104D4000012084F8340000BF94F83500012825D1F3
:104D5000022084F83500002060653B463246294633
:104D60002046FEF7D8FF94F85C103F208840C9F831
:104D700008002068006840F0160021680860206C78
:104D800028B12068006840F00800216808602068A9
:104D9000006840F001002168086006E000BF0020C4
:104DA00084F8340000BF4FF002084046C6E7000018
:104DB00010B5044680222146014806F0B3FA10BD22
:104DC0008C55002010B5044604480068204020B1EE
:104DD000024804602046FFF7EBFF10BD143C014081
:104DE000F8B502460B460025002400200021D6E03D
:104DF000012606FA01F51E6806EA0504AC4274D1E4
:104E00001E7906F00306012E04D01E7906F0030673
:104E1000022E13D190684F000326BE40B0434F00CE
:104E2000DE68BE4030439060506801268E40B0433B
:104E30001E79C6F300168E40304350601E7906F08E
:104E40000306032E09D0D0684F000326BE40B043AE
:104E50004F009E68BE403043D0601E7906F00306C6
:104E6000022E13D1CF0802F1200656F827004E0774
:104E7000F70E0F26BE40B0434F07FF0E1E69BE401F
:104E80003043CF0802F1200646F8270010684F0093
:104E90000326BE40B0431E7906F003064F00BE4015
:104EA000304310605E6806F44036002E76D000BFB6
:104EB000002600963C4E366846F480463A4F3E60E7
:104EC0003E46366806F48046009600BF00BF374E67
:104ED0008F0856F827008E07370F0F26BE40B043C5
:104EE000334EB24202D1002624E057E0314EB242A6
:104EF00001D101261EE0304EB24201D1022619E056
:104F00002E4EB24201D1032614E02D4EB24201D101
:104F100004260FE02B4EB24201D105260AE02A4EAC
:104F2000B24201D1062605E0284EB24201D1072641
:104F300000E008268F073F0FBE4030431B4E8F080E
:104F400046F82700224E3068A0435E6806F48016BB
:104F500006B120431E4E3060361D3068A0435E68A7
:104F600006F4001606B12043194E361D3060184E67
:104F7000361F3068A0435E6806F4003606B1204351
:104F8000134E361F3060361F3068A0435E6806F44B
:104F9000803606B120430E4E083E3060491C102971
:104FA000FFF426AFF8BD0000443802400838014045
:104FB000000002400004024000080240000C0240D1
:104FC000001002400014024000180240001C024081
:104FD000083C01400AB1816101E00B048361704724
:104FE000014800687047000028000020034800685E
:104FF00003490978084401490860704728000020E7
:105000003000002010B50D48006840F400700B49D6
:1050100008600846006840F4806008600846006840
:1050200040F480700860032000F0DCF80F2000F0EE
:1050300007F800F05FF8002010BD0000003C0240BF
:105040002DE9F04188B004460027B84600BF002093
:1050500001902348006840F002002149086008469A
:10506000006800F00200019000BF00BF02A903A881
:1050700000F08EF9069F1FB900F0B2F9054602E074
:1050800000F0AEF945001748B5FBF0F0A0F10108BB
:1050900015481649086040F2E7311448C160C0F86D
:1050A0000480002101618160816100F085FD064678
:1050B00096B90E4800F010FE06466EB91D2000F0AD
:1050C00043F8102C07D2002221461D2000F04CF896
:1050D0000748046000E00126304608B0BDE8F081D2
:1050E0004038024040420F00000400402C0A0020DB
:1050F0002C00002008B500BF002000901148006877
:1051000040F480400F4908600846006800F4804081
:10511000009000BF00BF00BF00200090081F006883
:1051200040F08050091F08600846006800F0805079
:10513000009000BF00BF00220F21901E00F014F865
:1051400008BD00004438024001460846002809DB3B
:1051500000F01F0301229A4043099B0003F1E02362
:10516000C3F8002100BF70472DE9F05F80460D466F
:105170001646002707F06CF8074639462A4633469C
:1051800001F00700C0F1070ABAF1040F02D94FF08D
:10519000040A01E0C0F1070AD14600F1040ABAF19D
:1051A000070F02D24FF0000A01E0A0F1030AD44633
:1051B0004FF0010A0AFA09FAAAF1010A0AEA020AF8
:1051C0000AFA0CFA4FF0010B0BFA0CFBABF1010BD6
:1051D0000BEA030B4AEA0B042146404607F040F86D
:1051E000BDE8F09F00BF00F00702064B19684FF6BC
:1051F000FF031940044B0B4343EA0221014B1960A2
:1052000000BF70470CED00E00000FA0570B50446E1
:105210000D460CB9012070BD5848006800F0070029
:10522000A84209D255490D700846006800F00700F1
:10523000A84201D00120EEE7207800F00200022809
:105240001DD1207800F00400042805D14C480068E6
:1052500040F4E0504A490860207800F0080008282F
:1052600005D14748006840F460404549086044481B
:10527000006820F0F000A1680843414908602078E8
:1052800000F00100A8B36068012807D13C48083845
:105290000068C0F34040B8B90120BCE7606802284C
:1052A00002D06068032807D1354808380068C0F389
:1052B000406048B90120AEE7314808380068C0F3C3
:1052C000400008B90120A6E72D48006820F003003F
:1052D000616808432A490860FFF782FE064609E034
:1052E000FFF77EFE801B41F28831884202D90320FD
:1052F00091E707E02248006800F00C006168B0EB1D
:10530000810FEDD11D48006800F00700A84209D9BF
:105310001A490D700846006800F00700A84201D045
:10532000012078E7207800F00400042807D1144811
:10533000006820F4E050E1680843114908602078D3
:1053400000F00800082808D10D48006820F46040EB
:10535000216940EAC1000A49086000F061F8084983
:105360000968C1F30311074A515CC8400649086047
:1053700006480068FFF764FE00204CE7003C02404E
:1053800008380240F80F0108340000202C000020EB
:105390000F2202600D4A126802F0030242600B4ABB
:1053A000126802F0F0028260084A126802F4E052C9
:1053B000C260064A126802F46042D2080261044ADE
:1053C000126802F007020A607047000008380240C5
:1053D000003C024001480068704700003400002093
:1053E00000B5FFF7F7FF04490968C1F38221034ABA
:1053F000515CC84000BD0000083802400810010898
:1054000000B5FFF7E7FF04490968C1F34231034AD9
:10541000515CC84000BD0000083802400810010877
:105420002DE9F047002400250026A1462548006804
:1054300000F00C0020B1042805D008283AD105E07E
:10544000DFF8849039E0DFF8849036E01D48001FD3
:10545000006800F03F041B48001F006800F4800053
:1054600078B11A481749091F0968C1F38811A0FBD0
:1054700001700146224600233846FAF7D3FF05465D
:105480000EE011480F49091F0968C1F38811A0FBFC
:1054900001700146224600233846FAF7C3FF05464D
:1054A0000848001F0068C0F30140401C4600B5FBDF
:1054B000F6F902E0DFF8109000BF00BF4846BDE8F3
:1054C000F0870000083802400024F40000127A003F
:1054D000F8B504460CB90120F8BD207800F00100B1
:1054E000002874D0F948006800F00C0004280DD0A2
:1054F000F648006800F00C00082813D1F348001F9C
:10550000006800F48000B0F5800F0BD1EF48083838
:105510000068C0F34040002859D06068002856D188
:105520000120D9E700BF6068B0F5803F08D1E748A7
:105530000838006840F48030E449083908601EE00B
:105540006068B0F5A02F0DD1E0480838006840F43D
:105550008020DE49083908600846006840F4803041
:1055600008600CE0D9480838006820F48030D7493A
:10557000083908600846006820F48020086000BFF1
:10558000606890B1FFF72CFD054606E0FFF728FDA7
:10559000401B642801D903209EE7CC4808380068E6
:1055A000C0F340400028F1D011E0FFF719FD054697
:1055B00006E0FFF715FD401B642801D903208BE7A7
:1055C000C24808380068C0F340400028F1D1207874
:1055D00000F0020002285FD1BC48006800F00C0017
:1055E00058B1BA48006800F00C0008281CD1B74830
:1055F000001F006800F48000B0B9B44808380068A3
:10560000C0F3400020B1E068012801D0012063E729
:10561000AE480838006820F0F800216940EAC1006F
:10562000AA490839086037E0E06800B30120A849BA
:105630000860FFF7D5FC054606E0FFF7D1FC401BEC
:10564000022801D9032047E7A04808380068C0F3C2
:1056500040000028F1D09D480838006820F0F8008C
:10566000216940EAC10099490839086014E0002026
:1056700097490860FFF7B4FC054606E0FFF7B0FC69
:10568000401B022801D9032026E79048083800680B
:10569000C0F340000028F1D1207800F0080008286D
:1056A0002CD16069A8B101208A490860FFF798FCF5
:1056B000054606E0FFF794FC401B022801D90320B1
:1056C0000AE782486C300068C0F340000028F1D03F
:1056D00014E000207F490860FFF782FC054606E0E1
:1056E000FFF77EFC401B022801D90320F4E677482F
:1056F0006C300068C0F340000028F1D1207800F041
:105700000400042870D1002770483830006800F089
:10571000805090B900BF002000906C48383000687D
:1057200040F080506949383108600846006800F050
:105730008050009000BF00BF01276748006800F458
:105740008070B0B96448006840F4807062490860B5
:10575000FFF746FC054606E0FFF742FC401B022827
:1057600001D90320B8E65C48006800F48070002886
:10577000F2D000BFA068012808D154486830006802
:1057800040F001005149683108601DE0A06805281B
:105790000DD14E486830006840F004004B49683134
:1057A00008600846006840F0010008600CE04748C7
:1057B0006830006820F001004449683108600846FC
:1057C000006820F00400086000BFA068A8B1FFF7DF
:1057D00007FC054609E0FFF703FC401B41F2883156
:1057E000884202D9032077E626E03848683000680E
:1057F000C0F340000028EED013E0FFF7F1FB0546B0
:1058000008E0FFF7EDFB401B41F28831884201D9E7
:10581000032061E62D4868300068C0F3400000288E
:10582000EFD1012F07D129483830006820F080508F
:1058300026493831086000BFA069002845D02348B8
:10584000006800F00C0008285DD0A069022845D14E
:1058500000201F490866FFF7C3FB054606E0FFF777
:10586000BFFB401B022801D9032035E61748083842
:105870000068C0F340600028F1D1D4E90701084373
:10588000616A40EA81110122A06AC2EB500041EA3C
:1058900000412C20005D41EA00600C49091F0860AE
:1058A00001200B490866FFF79BFB054606E0FFF762
:1058B00097FB401B022801D903200DE60348083856
:1058C0000068C0F340600028F1D049E00838024089
:1058D00000004742800E47420070004000202149EE
:1058E0000866FFF77DFB054606E0FFF779FB401BE6
:1058F000022801D90320EFE51B480068C0F340608F
:105900000028F2D12CE0A069012800D1E4E5164876
:10591000001D0668A069012820D006F48001E06916
:1059200081421BD106F03F01206A814216D147F621
:10593000C0703040616AB0EB811F0FD106F4403176
:105940000122A06AC2EB5000B1EB004F06D106F075
:1059500070612C20005DB1EB006F01D00120BBE530
:105960000020B9E5000047420038024010B5044667
:105970000CB9012010BD606A38B96068B0F5827F4B
:1059800000D105E00021E16102E0002121616161B7
:105990000021A16294F8510028B9002084F8500039
:1059A000204600F047F8022084F851002068006883
:1059B00020F0400021680860A08800F482702189EE
:1059C00001F404410843A18901F400610843217CEA
:1059D00001F002010843217D01F001010843218B00
:1059E00001F400710843217F01F0380108432021B0
:1059F000095D01F080010843218D01F40051084345
:105A0000216808600421A06901EA104094F824107C
:105A100001F010010843216848602068C06920F443
:105A200000602168C86100206065012084F8510091
:105A300000209FE710B586B00446142101A8FAF7AC
:105A40004FFE2A49206888424DD100BF00200090B7
:105A50002748006840F480502549086008460068DF
:105A600000F48050009000BF00BF00BF00200090F5
:105A70001F481438006840F001001D4914390860BF
:105A80000846006800F00100009000BF00BFA020A1
:105A90000190022002900020039003200490052032
:105AA000059001A91348FFF79BF9134813490860B3
:105AB0004FF0C06048604021104881600021C16003
:105AC0004FF480610161002141618161C161016226
:105AD0004162FFF7ADF808B1FEF7A8F900BF07482B
