:020000040800F2
:10000000E05F0020190300083B3A00084B36000867
:10001000393A0008490C00080147000800000000B8
:10002000000000000000000000000000590200086D
:100030005111000800000000B5020008A33A0008B2
:1000400033030008330300083303000833030008B8
:1000500033030008330300083303000833030008A8
:100060003303000833030008330300083303000898
:10007000C10F000833030008CD0F00083303000848
:10008000D90F0008E50F000833030008E10C000851
:100090004D0C000833030008330300085311000817
:1000A0003303000833030008330300083303000858
:1000B00033030008F93B0008053C0008330300083F
:1000C0003303000833030008330300083303000838
:1000D00033030008E1430008FD4300081944000809
:1000E0003303000833030008330300083303000818
:1000F0003303000833030008330300083303000808
:1001000033030008330300083303000833030008F7
:1001100033030008330300083303000833030008E7
:1001200033030008F10F0008FD0F00083303000837
:10013000330300083303000833030008650D00088B
:10014000ED0C0008330300083303000833030008F4
:100150003303000809100008151000083544000892
:100160003303000833030008330300083303000897
:1001700033030008330300083303000800000000C5
:10018000330300083303000800F002F800F055F8CC
:100190000AA090E8000C82448344AAF10107DA45E2
:1001A00001D100F04AF8AFF2090EBAE80F0013F0DF
:1001B000010F18BFFB1A43F00103184750970000C6
:1001C000709700000A4410F8014B14F00F0508BFA7
:1001D00010F8015B240908BF10F8014B6D1E05D013
:1001E00010F8013B6D1E01F8013BF9D1641E03D0EC
:1001F000641E01F8015BFBD19142E4D3704700001B
:100200000023002400250026103A28BF78C1FBD81F
:10021000520728BF30C148BF0B6070471FB509F0B7
:10022000E0F99DE8030000F0BFFA00F0CDF91FBD32
:1002300010B5002000F051FA10BD00F0F7FA114699
:10024000FFF7ECFF06F067FE00F02FFB03B4FFF7AB
:10025000EFFF03BC00F0E4FA2C4B19680868B0E823
:10026000F04F80F30988BFF36F8F4FF0000080F3E9
:10027000118870470000000008480068006880F39B
:1002800008884FF0000080F3148862B661B6BFF3AF
:100290004F8FBFF36F8F00DF00BF00BF08ED00E09E
:1002A000DFF80C00016841F470010160704700BF85
:1002B00088ED00E0EFF30980BFF36F8F134B1A68EE
:1002C0001EF0100F08BF20ED108A20E9F04F1060DB
:1002D00009B44FF0500080F31188BFF34F8FBFF384
:1002E0006F8F07F055FD4FF0000080F3118809BCB7
:1002F00019680868B0E8F04F1EF0100F08BFB0ECA6
:10030000108A80F30988BFF36F8F704728000020A0
:10031000EFF305807047000009488047094800470F
:10032000FEE7FEE7FEE7FEE7FEE7FEE7FEE7FEE7A5
:10033000FEE7FEE704480549054A064B7047000002
:10034000513B000889010008E0590020E05F0020CF
:10035000E05B0020E05B002053EA020C00F06980C3
:100360002DE9F04B4FF00006002B1FBFB3FA83F5C9
:1003700003FA05F424FA05F65E4012BF1643B2FAFA
:1003800082F502FA05F4C5F120051EBF22FA05FC2C
:1003900044EA0C04203556EA044C4FEA144418BFD2
:1003A000641C4FF000084FF00009904271EB030C01
:1003B00039D3002919BFB1FA81F701FA07F6B0FA6B
:1003C00080F700FA07F6C7F120071EBF20FA07FCE6
:1003D00046EA0C062037B6FBF4FCA7EB0507103FF6
:1003E00007F01F0BCBF120060CFA0BFB2CFA06F6DC
:1003F00044BFB3460026202FA4BF5E464FF0000B3B
:100400005BEA060C08BF4FF0010B19EB0B09ABFBC5
:10041000027C48EB0608C01B06FB02CC0BFB03CC9E
:1004200071EB0C01C1E70B46024641464846BDE868
:10043000F08B13B54FF000004FF00001AFF30080D8
:10044000BDE81C4070472DE9F041074615460E46B1
:10045000102000F0E1F804000AD06760C4E90265EA
:1004600000F0D6F80168216004600020BDE8F0814A
:100470000120FBE7032A40F2308010F0030C00F06B
:10048000158011F8013BBCF1020F624498BF11F8CE
:1004900001CB00F8013B38BF11F8013BA2F1040287
:1004A00098BF00F801CB38BF00F8013B11F00303FF
:1004B00000F02580083AC0F0088051F8043B083A63
:1004C00051F804CBA0E80810F5E7121D5CBF51F805
:1004D000043B40F8043BAFF30080D20724BF11F87F
:1004E000013B11F801CB48BF11F8012B24BF00F8E4
:1004F000013B00F801CB48BF00F8012B704710B555
:10050000203AC0F00B80B1E81850203AA0E818500B
:10051000B1E81850A0E81850BFF4F5AF5FEA027CCC
:1005200024BFB1E81850A0E8185044BF18C918C03B
:10053000BDE810405FEA827C24BF51F8043B40F8DC
:10054000043B08BF7047D20728BF31F8023B48BFC1
:1005500011F8012B28BF20F8023B48BF00F8012BFF
:10056000704702F0FF0343EA032242EA024200F02E
:10057000D7B84FF0000200B513469446964620398E
:1005800022BFA0E80C50A0E80C50B1F12001BFF44C
:10059000F7AF090728BFA0E80C5048BF0CC05DF8B2
:1005A00004EB890028BF40F8042B08BF704748BF00
:1005B00020F8022B11F0804F18BF00F8012B704774
:1005C000704770477047000070B5064C7C44064D7C
:1005D0007D4403E0206820448047241DAC42F9D1CB
:1005E00070BD00005C930000789300002DE9F0419D
:1005F00017460E46054633B107FB0354E41B20465D
:10060000B047A542FAD1A5F10800BDE8F08100008D
:1006100000487047B859002070B5064600F0A4F8AD
:10062000056806F10B0020F00704B4429CBF0020CF
:1006300070BD2B466A68BAB11068A04210D304F1AD
:10064000080188423CBF5068586007D351681019B0
:1006500041601168091B016058601460101D70BD75
:1006600013465268002AE7D12146284600F088F850
:100670000028DED170BD70B50446051F00F074F887
:100680000068002C14BF446870BD002C18BFAC4239
:100690003CBF20466468F8D301680A18AA4218BF14
:1006A000456003D12A680546114401602868411954
:1006B000A1421CBF6C6070BD61686960216808441C
:1006C000286070BD10B500F053F8006810BD10B57B
:1006D000044600F04DF8046010BD2DE9F0410646D7
:1006E000FFF796FF8046454613E016B1E068B0423A
:1006F0000ED120682860D4E90101D8F8007088473D
:100700002046FFF7B8FFD8F80000B842EBD100E070
:1007100025462C68002CE8D1BDE8F0814FF000029E
:100720000429C0F0128010F0030C3FF424AFCCF188
:10073000040CBCF1020F18BF00F8012BA8BF20F871
:10074000022BA1EB0C01FFF716BF5FEAC17C24BFAF
:1007500000F8012B00F8012B48BF00F8012B70476F
:100760000048704780590020004870478859002091
:1007700000487047805900207047704770477047A5
:1007800038B504460A4600206946AFF300800028C9
:1007900008BF38BD02460099204600F06CF80120E1
:1007A00038BD012000F0A3B8F8B5AFF300800546CE
:1007B00000200C46102000BF0646A819A0420DD903
:1007C000324669460020AFF30080070008BF00F002
:1007D0008EF80098A04218BF0546C419FFF7C4FF61
:1007E00005600746F01D20F007004619284600F076
:1007F0000AF8B44208BFF8BDA21B31463868BDE80C
:10080000F84000F038B800210160C0E901107047DD
:1008100010207047002801D000F002B87047000097
:1008200001491820ABBEFEE7260002007546FFF71F
:1008300097FFAE4605006946534620F007008546FF
:1008400018B020B5FFF776FDBDE820404FF0000658
:100850004FF000074FF000084FF0000B21F00701A8
:10086000AC46ACE8C009ACE8C009ACE8C009ACE8EB
:10087000C0098D467047034640688C46002818BF63
:1008800088423CBF03464068F8D318681844884241
:1008900007D00CF1030020F00700001D411A521A86
:1008A0000146081D0A60FFF7E6BE10B50446AFF327
:1008B00000802046BDE81040FFF7C8BC70B5054673
:1008C0000C460A2000E06D1C00F018F835B12878BD
:1008D0000028F8D102E0641C00F010F814B1207870
:1008E0000028F8D1BDE870400A2000F007B810B524
:1008F00000F00CF8BDE81040FFF78CBF08B5694662
:100900008DF800000320ABBE08BD704710B501286C
:1009100005D0002103A0FFF7D1FF012010BD09A1E0
:10092000F8E7000053494752544D454D3A204F7562
:1009300074206F662068656170206D656D6F7279D7
:10094000000000003A2048656170206D656D6F728F
:100950007920636F7272757074656400F0B587B04A
:1009600005460E460022002401203BE0052A38D22D
:10097000DFE802F0030A13252E00295D0D2900D1BE
:100980000122641CE4B22DE0295D0A2903D0002273
:10099000641CE4B226E00222FAE7A6F11A018C42B6
:1009A00000DD0020002301A92F5DCF54641CE4B2B8
:1009B0005B1CDBB2182BF7D3521CD2B212E0295DBC
:1009C0000A2903D00022641CE4B20BE00422FAE7F7
:1009D000285D0D2802D101A803F0E4FD00220020CB
:1009E00000E00022B44201D20128BFD007B00020AD
:1009F000F0BD000080482DED048B88B00078C00762
:100A00000AD17D4805F0E1FD30B17C48002180F835
:100A100024107948AFF30080794D784C40F2DC56D1
:100A20004FF0010A4FF00B0B03274FF00209288A01
:100A3000A0F27950C72800D22E82688AA0F279509D
:100A4000C72800D26E82A88AA0F27950C72800D2A7
:100A5000AE82E88AA0F27950C72800D2EE82B5F8BB
:100A60001080B8F1000F06D1688A20B9A88A10B9A1
:100A7000E88A002875D02889A0F29F70632871D277
:100A8000688AA0F2DC50404208F03AFB9FED5D8B93
:100A900053EC182B08F0DCF99FED5C9B53EC192B01
:100AA00008F046FB08F0FAF86060A8F2DC58C8F1DC
:100AB000000008F025FB53EC182B08F0C9F953ECA3
:100AC000192B08F035FB08F0E9F82060A88AA0F29D
:100AD000DC5008F015FB53EC182B08F0B9F99FED2A
:100AE0004D9B53EC192B08F023FB08F0D7F86061FD
:100AF000E88A00EE100AB8EE400A84ED030AA0F27C
:100B0000DC5008F0FDFA53EC182B08F0A1F953EC77
:100B1000192B08F00DFB08F0C1F8A061E889A0F5D9
:100B2000FA6008F0B7F8322838DA062084F8200096
:100B300084F823B0A889A0F2DC5008F0ABF8322882
:100B400002DA84F821A03CE0A889A0F5FA6008F058
:100B5000A1F8322807DA84F821A0042084F82200C2
:100B60002FE036E024E06889A0F2DC5008F092F82B
:100B7000322803DA082084F8200022E06889A0F5F2
:100B8000FA6008F087F8322803DA092084F8200098
:100B900017E084F8227084F8219012E02034A770C6
:100BA00084F80190052020700A20E070203C08E0C5
:100BB00084F823B084F82190072084F8200084F87A
:100BC0002270164800231A460C49006807F042FAC2
:100BD0000DE020216846FFF7CCFC20221049684632
:100BE000FFF78DFC202269460448FFF788FC0120AE
:100BF00006F0B2F91BE700008001002058590020E0
:100C0000205000200000000000407F400000000055
:100C100000000840000000000000004054010020D7
:100C20004097000810B500221146054802F014FF55
:100C300003F048FEBDE81040024805F065BC000026
:100C40002402002061110008FEE70000014800F0C6
:100C500043BC00008C010020816800291DD102687E
:100C600000F11C01A2F20122062A16D2DFE802F0EE
:100C700003060A0E1511094804F0D0B907482C30B4
:100C800004F0CCB90548583004F0C8B9044804F061
:100C9000C5B903482C3004F0C1B97047C8520020D0
:100CA000185600201FB50C4C4FF0FF352A466946F8
:100CB000206807F0E1FA0128F8D1084800F0F6FBB7
:100CC000C0B20028F9D002989DF80C3081B26A4673
:100CD000024806F009F9E9E7400100208C010020F4
:100CE000014800F0F9BB00008C010020014800F031
:100CF000F3BB0000B401002010B50446A06804282E
:100D00000FD12146074804F0C7FF06482146383076
:100D100004F0C2FF21460348BDE81040703004F0E3
:100D2000BBBF10BD705600201FB50C4C4FF0FF35F7
:100D30002A466946206807F09FFA0128F8D108483A
:100D400000F0B4FBC0B20028F9D09DF80C306A4620
:100D50000348029906F0B0F8EAE7000044010020D9
:100D6000B4010020014800F0B7BB0000B40100202E
:100D700030B58BB08D0701F003040CD5D504019577
:100D8000D20042EA44020292DA040392DA0042EA12
:100D90004402049206E052010192620002925B0159
:100DA00003930492CA080692C1F3800105910121C0
:100DB00009910022079208910E210A9101A900F0E1
:100DC00069FA002801D000F0C7F90BB030BD00006F
:100DD00070B505460C46284600F013FE08B100F039
:100DE000BBF90121284600F0C9F908B100F0B4F9B7
:100DF0000221284600F0C2F908B100F0ADF9102137
:100E0000284600F0BBF908B100F0A6F9074A2868A7
:100E10000749904202D10C60002070BD054A904203
:100E200002D14C60002070BD012070BD0064004004
:100E3000A8000020006800402DED048B8EB0544EB9
:100E4000DFED548A544C554D9FED559A9FED558AD0
:100E500001225249306807F00FFA012833D195F882
:100E600023000A2833D0202106A8FFF782FB142292
:100E700009A96846FFF743FB06A94B480EC904F0D1
:100E80003DFB95F8200006282FD005285AD00828C9
:100E90005ED0092862D0B0EE480A84ED000A4348CB
:100EA00005F01EF895F8210001285DD00022B0EE73
:100EB000480A11463D4805F075F83B4804F0FEF835
:100EC0003A4805F0D9F9012006F046F8C0E7334961
:100ED00014220C316846FFF712FB3048403840308E
:100EE0000EC8314804F00AFBCBE7A869B0F17C5F7B
:100EF00006DDD4ED000A70EEA80AC4ED000A08E091
:100F0000B0F13F4F05D9D4ED000A70EEE80AC4ED08
:100F1000000AD4ED000AF5EEC00AF1EE10FA02D292
:100F200084ED008A08E010EE900A2149884203DD32
:100F3000DFED200AC4ED000A94ED000A1B4804F01E
:100F4000CFFFAFE794ED000A184804F0C9FFA9E706
:100F50009FED190A154804F0C3FFA3E79FED170A98
:100F6000124805F0A1F89DE795F82200032807D064
:100F70000122B0EE490A11460C4805F013F89CE72F
:100F8000B0EE490A01220021084805F00BF894E769
:100F9000540100200AD7233D74010020305900205D
:100FA00000606A47000000007052002010560020C8
:100FB00000000C4400000C440000C8420000344310
:100FC000014800F0ABBD0000FC040020014800F027
:100FD000A5BD00005C050020014800F09FBD000099
:100FE0003C040020014800F099BD00009C04002052
:100FF000014800F093BD0000BC050020014800F04E
:101000008DBD0000DC030020014800F087BD00001A
:101010001C060020014800F081BD00007C03002078
:101020000168CAB2103A1823B2FBF3F2064B9B5C7C
:10103000C3656FF30901032A02D9091D816500E028
:101040008165806D70470000AC96000810B50146C0
:1010500000208A6A8B694FF0C074002B0ED0B3F564
:10106000005F1AD062B3012A2AD0022A28D0032AAC
:1010700003D1C96AC90100D5012010BD1AB1012AE6
:1010800006D0022AF9D1C96AC901F6D5012010BDDE
:10109000C96AA142FBD1012010BD52B1012A0AD078
:1010A000022A06D0032AF7D1C96AA142F4D101204D
:1010B00010BD012010BDC96AC901FBD5012010BDBA
:1010C000012010BD30B50468256825F48025256011
:1010D000046863608368402B04D0036899600068EB
:1010E000C26030BD03689A600068C16030BD000016
:1010F00010B500221021082006F00EFF134C2060CE
:1011000000221021082006F007FF606000220C2159
:10111000042006F001FFA06000220C21042006F04C
:10112000FBFEE06000222021042006F0F5FE206195
:1011300000222821042006F0EFFE60610022042135
:10114000022006F0E9FEA06110BD00004001002071
:101150007047802000F074BE72B6FEE7FEE7000024
:10116000054800680068416A0348001F0068C0EB3A
:101170000040084470470000B400002090F8202090
:10118000012A07D0022A05D0416A41F48021416238
:1011900001207047006842690A434261002070479D
:1011A000F0B590F820500468A468012D07D0022DF6
:1011B00005D0416A41F4802141620120F0BD04F074
:1011C000806504F00066354301D1E5005BD5C4F3CA
:1011D0000164022C05D9416A41F4000141620120F9
:1011E000F0BD0125A5401D608B684FF4C0759BB113
:1011F000CE6805EB041733434E6843EAC60306681E
:10120000F3514FF4C273076803EB04130E69FE50E9
:10121000097D012909D00DE00E88CB6805EB041784
:1012200043EA46530668F351EBE70168CE5846F4AB
:101230008076CE501179D379567941EA036193795A
:101240001B0443EA062319434FF4C676036806EBF2
:10125000041699511178D37841EA03619378527852
:101260001B0443EA022211434FF4C473026803EBE8
:101270000413D150006805EB0411425842F00102FA
:1012800042500020F0BD416A41F40011416201204A
:10129000F0BD000010B590F82020012A07D0022AE6
:1012A00005D0416A41F480214162012010BD3C48D3
:1012B00000F50070026842F001020260026822F448
:1012C0007C52026002684B6A42EA032202600A7D95
:1012D00002F01F0301229A40C3699343C361A0F542
:1012E0000070CB69B3B9D0F80C329343C0F80C321C
:1012F0008C894B6864F31F434C6900EBC404C4F849
:1013000040320C890B6864F31F434C6900EBC40442
:10131000C4F84432CB69012B16D1D0F80C321343F8
:10132000C0F80C320C884B6864F31F434C6900EB27
:10133000C404C4F840320C89CB6864F31F434C6981
:1013400000EBC404C4F844328B697BB1D0F804329A
:101350001343C0F804320B6973B1D0F8143213434D
:10136000C0F81432096A01290CD010E0D0F8043218
:101370009343C0F80432EEE7D0F814329343C0F838
:101380001432EFE7D0F81C121143C0F81C12D0F849
:10139000001221F00101C0F80012002010BD000071
:1013A00000640040704730B590F82040012C07D011
:1013B000022C05D0416A41F480214162012030BDF8
:1013C00021B104682469A4075FD003E00468E468DD
:1013D000A40754D04FF4D874056804EB01142D59B8
:1013E00005F004059560F5B305682D59ED085560C5
:1013F00005682C5904F00204D4604FF4DA740568CF
:1014000004EB01142D5905F00F05156105682D59E0
:10141000C5F30725956105682C59240C54614FF4D8
:10142000DC72046802EB0112A4581C700468A45812
:10143000240A5C700468A458240C9C700468A258A8
:10144000120EDA704FF4DE72046802EB0112A45837
:101450001C710468A458240A5C710468A458240C04
:101460009C71046800E016E0A258120EDA71B9B15E
:101470000068016941F020010161002030BD416A2E
:1014800041F400114162012030BD416A41F4001174
:101490004162012030BD05682D596D0D1560A7E72B
:1014A0000068C16841F02001C160E6E70246002003
:1014B00092F82010012901D002290CD111688A6804
:1014C000520100D501208A68120100D5401C8968AC
:1014D000C90000D5401C70472DE9F05F0546002487
:1014E00028684669D0F804908768D0F80CA0D0F836
:1014F00010B0D0F81880F10748D0F90714D00121B6
:101500008160B80703D5284600F0A8FA0CE07807F8
:1015100002D54FF4006407E0380702D54FF4805439
:1015200002E0284600F099FAF80516D529684FF42C
:1015300080708860B80503D5284600F091FA0CE069
:10154000780502D544F4005407E0380502D544F488
:10155000804402E0284600F082FAF80316D5296894
:101560004FF480308860B80303D5284600F07AFA3B
:101570000CE0780302D544F4004407E0380302D5B8
:1015800044F4803402E0284600F06BFA300707D5B7
:101590005FEACA6004D544F4007429681020C8606A
:1015A00070074FF0080707D55FEA0A7004D528686E
:1015B000C760284600F0C8F9B00706D52868C0689B
:1015C000800702D0284600F0C1F9700607D55FEA0F
:1015D000CB6004D544F48064296810200861B0060B
:1015E00007D55FEA0B7004D528680761284600F02C
:1015F000D9F9F00606D528680069800702D0284688
:1016000000F0D2F9B00308D55FEAC96005D52968B2
:1016100010204860284600F0F3F9F00307D55FEA90
:10162000097004D528684760284600F01CFA300489
:1016300046D55FEA497040D5F00504D55FEAC87029
:1016400001D044F00104B00504D55FEA887001D5EB
:1016500044F00204700504D55FEA487001D544F0F7
:101660000404300529D518F0700F26D008F070005A
:10167000402815D006DC102809D020280AD03028B0
:1016800016D10AE050280ED0602811D10EE044F0A7
:1016900008040DE044F010040AE044F0200407E0E0
:1016A00044F0400404E044F0800401E044F4807419
:1016B0002868816921F070018161296804204860EF
:1016C000002C05D0686A204368622846FFF76AFE4E
:1016D000BDE8F09F70B50446002C03D094F82000BC
:1016E00010B104E0012070BD204600F09DF8206894
:1016F000016841F00101016000F096FC05460526F5
:101700000CE000F091FC401B0A2807D9606A40F405
:101710000030606284F82060012070BD206840685D
:10172000C007EED02068016821F00201016000F0DE
:101730007BFC05460CE000F077FC401B0A2807D92B
:10174000606A40F40030606284F82060012070BD5F
:10175000206840688007EED4207E01283FD02068B2
:10176000016821F080010160607E01283DD0206881
:10177000016821F040010160A07E01283BD0206873
:10178000016821F020010160E07E012839D0206845
:10179000016841F010010160207F012837D02068E6
:1017A000016821F008010160607F012835D02068C0
:1017B000016821F004010160D4E902010843D4E981
:1017C0000412114308436168491E08432168C86137
:1017D00000206062012084F82000002070BD206895
:1017E000016841F080010160BEE72068016841F0B6
:1017F00040010160C0E72068016841F020010160FC
:10180000C2E72068016821F010010160C4E7206888
:10181000016841F008010160C6E72068016841F0F5
:1018200004010160C8E700002DE9F04186B00446DC
:10183000142101A8FEF79DFE3E4B3F4ADFF8F080E1
:10184000186821683C4C03260227401C10320025F2
:101850004FF0090C41452FD11860012807D11068BD
:1018600040F000701060106800F000700090206878
:1018700040F008002060206800F008000090019609
:10188000029703950496CDF814C001A92B4800F0E7
:10189000E3FA00220521132000F064FC132000F07D
:1018A00053FC00220521142000F05CFC142000F001
:1018B0004BFC06B0BDE8F081DFF884804145F8D1EB
:1018C000116841F080611160116801F08061009140
:1018D0001860012807D1106840F00070106010688F
:1018E00000F000700090206840F002002060206846
:1018F00000F0020000904FF44050019002970395D1
:101900000496CDF814C001A90E4800F0A5FA0022F3
:1019100005213F2000F026FC3F2000F015FC0022AE
:101920000521402000F01EFC402000F00DFCC0E727
:10193000006400401400002030380240000C0240D7
:1019400000680040000402407047000070B5044683
:101950001048114D114E84420AD12B46A5F11C02AC
:1019600000212046FFF71FFD3168A5F11C008847C4
:101970000B4884420CD1084A2B461C3A00212046D1
:10198000FFF711FD7168BDE8704003481C38084737
:1019900070BD00008C010020B44F0020A800002082
:1019A000B40100207047000070B504461048114D86
:1019B000114E84420AD12B46A5F11C02012120467A
:1019C000FFF7F1FC3168A5F11C0088470B48844201
:1019D0000CD1084A2B461C3A01212046FFF7E3FCB4
:1019E0007168BDE8704003481C38084770BD0000AE
:1019F0008C010020D84F0020A8000020B401002056
:101A0000704770B5044694F82000012805D0606A3C
:101A100040F400206062012070BD022084F82000A4
:101A20002068016821F00101016000F0FDFA05461F
:101A30000DE000F0F9FA401B0A2808D9606A40F46A
:101A400000306062052084F82000012070BD20680D
:101A50004068C007EDD1606270BD70477047704745
:101A600070477047704770472DE9F0410446A76DF5
:101A700000F0DAFA054694F835000026022806D070
:101A80008020606584F834600120BDE8F081206822
:101A9000016821F0160101602068416921F0800190
:101AA0004161206C08B9A06C20B12068016821F068
:101AB000080101602068016821F0010101600BE06C
:101AC00000F0B2FA401B052806D9202034342062E9
:101AD000032060702670D8E720680068C007EFD147
:101AE00034343F2094F828108840B860012060709A
:101AF00026700020C9E790F83510022903D0802114
:101B0000416501207047052180F8351000680168A3
:101B100021F0010101600020704700002DE9F84329
:101B200004464FF00009CDF800906F484FF416516D
:101B30000068B0FBF1F7A56D2E6894F85C000822F0
:101B400002FA00F1314210D02068016849070CD533
:101B5000016821F00401016094F85C0002FA00F1D0
:101B6000A960606D40F00100606594F85C104FF072
:101B7000010808FA01F0304208D0216849690906D5
:101B800004D5A860606D40F00200606594F85C10B8
:101B900004208840304208D021680968890704D5AC
:101BA000A860606D40F00400606594F85C1010203F
:101BB0008840304220D02168096809071CD5A860F8
:101BC0002068016849030CD50068000304D4216C27
:101BD00091B1204688470FE0A16C69B12046884743
:101BE0000AE00168C90503D4016821F00801016019
:101BF000216C09B12046884794F85C102020884069
:101C000030424CD021680968C90648D5A86094F8CC
:101C1000350005280BD020680168490330D50068DD
:101C2000000328D4616C51B32046884737E0206810
:101C3000016821F0160101602068416921F08001EE
:101C40004161206C08B9A06C20B12068016821F0C6
:101C50000801016094F85C103F208840A86084F877
:101C6000358084F83490216D00293BD001B02046A6
:101C7000BDE8F0430847E16B09B1204688470EE014
:101C80000168C90507D4016821F01001016084F8DA
:101C9000358084F83490E16B09B120468847606D47
:101CA00000281FD0606DC00714D0052084F83500CF
:101CB0002068016821F0010101600098401C00903B
:101CC000B84203D820680068C007F6D184F8358090
:101CD00084F83490E16C002904D001B02046BDE8BE
:101CE000F0430847BDE8F883240000202DE9F041C7
:101CF000044600F099F905465CB1022084F83500ED
:101D0000002684F834602068016821F00101016038
:101D10000DE00120BDE8F08100F086F9401B0528A8
:101D200005D920206065032084F83500F2E720689B
:101D30000068C007F0D121680A6820480240D4E951
:101D400001031843D4E903352B431843636918434F
:101D5000A3691843E3691843236A18431043626A6E
:101D6000042A03D1D4E90B231A43104308602068E6
:101D7000406920F00700656A2946054301270429C8
:101D80000DD1A06A0543E06A48B12046FFF75EF92D
:101D900028B14020606584F835700120BAE72068DA
:101DA00045612046FFF73CF994F85C203F219140C3
:101DB0008160666584F835700020ABE73F8010F0E5
:101DC0002DE9F04104460025A66D94F83400012861
:101DD0000DD0012084F8340094F835700020012FD4
:101DE00007D084F8340002252846BDE8F08102209F
:101DF000FBE7022784F8357060652046FFF762F93B
:101E000094F85C103F208840B0602068016841F081
:101E100016010160206C20B12068016841F00801C2
:101E200001602068016841F001010160DCE7000009
:101E300001468022014804F003B800002050002031
:101E400010B504490A68024202D00860FFF7F0FFAB
:101E500010BD0000143C01402DE9F84F0022DFF8CE
:101E60009C914FF0010803274FF00F0C09F1040A71
:101E7000A9F1040B08FA02F50B682B40AB426ED1B6
:101E80000C7904F00304012C01D0022C15D18668D2
:101E9000540007FA04FE26EA0E06D1F80CE00EFA0A
:101EA00004FE4EEA060EC0F808E04468AC430D7923
:101EB000C5F300159540254345600C79E443A4071C
:101EC00008D0C568540007FA04F6B5438E68A640EA
:101ED0002E43C6600C7904F00304022C11D1D408FF
:101EE00000EB8406356A5407E40E0CFA04FE25EA7A
:101EF0000E05D1F810E00EFA04FE4EEA050EC6F803
:101F000020E00568540007FA04F6B5430E7906F0A0
:101F10000306A6402E4306604C6814F4403F67D089
:101F2000374C256845F480452560246804F48044D6
:101F30000094344C22F003052E19D6F80858940763
:101F40004FEA147E0CFA0EF4A5432F4CA04201D1A7
:101F5000002424E02D4CA04202D101241FE047E0E0
:101F60002B4CA04201D1022419E02A4CA04201D1FD
:101F7000032414E0284CA04201D104240FE0274C94
:101F8000A04201D105240AE0254CA04201D106243B
:101F900005E0244CA04201D1072400E0082404FA03
:101FA0000EF42C43C6F80848D9F800409C434D680D
:101FB000ED0200D51C43C9F80040DAF800409C430C
:101FC0004D68AD0200D51C43CAF80040DBF8004064
:101FD0009C434D68AD0300D51C43CBF80040074D32
:101FE000083D2C689C434E68F60300D51C432C60CA
:101FF000521C102AFFF43EAFBDE8F88F083C0140A8
:102000004438024000300140000002400004024019
:1020100000080240000C0240001002400014024080
:1020200000180240001C0240014880687047000010
:1020300018000020024881680278114481607047CE
:102040001800002010B50B48016841F400710160D0
:10205000016841F480610160016841F480710160B0
:10206000032000F09FF80F2000F006F800F050F871
:10207000002010BD003C024030B587B0054600246A
:102080001E48016841F002010160006800F0020092
:10209000009001A902A800F03DF90598A8B100F050
:1020A0005DF940001649B0FBF1F1491E1648154A8A
:1020B000026040F2E732C260416004618460846182
:1020C00000F0CAFB04461CB115E000F047F9E9E74F
:1020D0000D4800F013FC04466CB91D2000F034F8E4
:1020E000102D07D2002229461D2000F03BF807489A
:1020F000056000E0012407B0204630BD40380240B2
:1021000040420F00000400407C0600201C0000201C
:1021100082B00C48016841F480410160006800F41D
:10212000804001900748001F016841F08051016024
:10213000006800F08050019000220F21901E02B034
:1021400000F010B844380240002809DB00F01F02FC
:10215000012191404009800000F1E020C0F8001109
:1021600070470000F0B40D460D4B1B68C3F302230B
:10217000C3F10704042C00D90424191D072901D236
:10218000002300E0DB1E012606FA04F1491E294067
:1021900099409E40761E16403143F0BC04F0F3B9DE
:1021A0000CED00E000F00701054A10684FF6FF0350
:1021B000184040EA012003490843106070470000BE
:1021C0000CED00E00000FA052DE9F04704460D464D
:1021D000002C13D0DFF82891D9F80000EFB200F0FE
:1021E0000700A8420CD289F80070D9F8000000F06E
:1021F0000700A84204D00120BDE8F0870120FBE7DA
:102200002068404E810712D5400703D5306840F45E
:10221000E05030602078000703D5306840F460401B
:1022200030603068A16820F0F0000843306020780A
:10223000C00731D0334960680839012808D0022826
:102240000BD0032809D0096889070BD40120D3E7F4
:102250000968890306D40120CEE70968890101D401
:102260000120C9E7316821F0030101433160FFF724
:10227000DBFE804641F2883A07E0FFF7D5FEA0EB8F
:102280000800504501D90320B6E73068616800F0C6
:102290000C00B0EB810FF0D1D9F8000000F007007E
:1022A000A84209D989F80070D9F8000000F00700A9
:1022B000A84201D001209FE72078400705D530686B
:1022C000E16820F4E050084330602078000706D52C
:1022D0003068216920F4604040EAC100306000F0BD
:1022E0005DF83168084AC1F30311515CC8400749E1
:1022F000086007480068FFF7BFFE00207CE7000089
:10230000003C024008380240B49600082400002037
:102310001C0000200F2202600B4A136803F0030325
:102320004360136803F0F0038360136803F4E05321
:10233000C360126802F46042D20802610348006878
:1023400000F007000860704708380240003C024077
:1023500001480068704700002400002000B5FFF726
:10236000F7FF04490968044AC1F38221515CC8405F
:1023700000BD000008380240C496000800B5FFF711
:10238000E7FF04490968044AC1F34231515CC8407F
:1023900000BD000008380240C496000810B5174878
:1023A000006810F00C01164816D04310042912D012
:1023B000082911D1114C241F216801F03F02216826
:1023C00049020AD52068C0F38810A0FB030100234E
:1023D000FDF7C2FF09E0184610BD21680023C1F3D4
:1023E0008811A1FB0001FDF7B7FF2168C1F301418E
:1023F000491C4900B0FBF1F010BD00000838024054
:102400000024F4002DE9F84F0446002C13D0207866
:10241000DFF8A083C007A8F1040556D008F1040036
:102420000168C1F3810101290CD00068C0F381006B
:10243000022803D00DE00120BDE8F88FD8F8000095
:10244000400206D5286880033FD5606870BB012034
:10245000F2E76068B0F5803F10D0B0F5A02F12D041
:10246000286820F480302860286820F480202860C4
:102470006068E0B1FFF7D8FD064614E0286840F434
:1024800080302860F4E7286840F4802028602868BD
:1024900040F480302860EBE7FFF7C6FD801B64281E
:1024A00001D90320C8E728688003F5D50DE0FFF7C0
:1024B000BBFD064606E0FFF7B7FD801B642801D987
:1024C0000320B9E728688003F5D42078BA4F800745
:1024D0004FF0000948D5B748001D016811F00C0FF6
:1024E00008D00068C0F38100022813D1D8F800009A
:1024F00040020FD42868800704D5E068012801D085
:10250000012099E72868216920F0F80040EAC1001D
:10251000286029E0E068B8B101203860FFF784FD49
:10252000064606E0FFF780FD801B022801D9032044
:1025300082E728688007F5D52868216920F0F8002F
:1025400040EAC10028600FE0C7F80090FFF76CFD7B
:10255000064606E0FFF768FD801B022801D903202C
:102560006AE728688007F5D42078000729D5DFF8C6
:1025700044A2924861690AF1700A89B1012101609F
:10258000FFF752FD064606E0FFF74EFD801B0228CE
:1025900001D9032050E7DAF800008007F4D510E0F5
:1025A000C0F80090FFF740FD064606E0FFF73CFD4F
:1025B000801B022801D903203EE7DAF800008007DB
:1025C000F4D42078400778D54FF0000A79483C30A1
:1025D0000068C0000BD477483C30016841F080515E
:1025E0000160006800F0805000904FF0010ADFF8B1
:1025F000D0B1DBF80000C00514D4DBF8000040F4D3
:102600008070CBF80000FFF70FFD064606E0FFF7ED
:102610000BFD801B022801D903200DE7DBF8000029
:10262000C005F4D5634EA0686C3601280FD005288C
:1026300012D0306820F001003060306820F00400D3
:102640003060A068F8B1FFF7EFFC834617E0306810
:1026500040F001003060F4E7306840F00400306082
:10266000306840F001003060EBE7FFF7DDFCA0EBE5
:102670000B0141F28830814201D90320DCE6306849
:102680008007F2D510E0FFF7CFFC834609E0FFF7A3
:10269000CBFCA0EB0B0141F28830814201D9032031
:1026A000CAE630688007F2D4BAF1010F05D141487B
:1026B0003C30016821F080510160A069C0B33D4900
:1026C000091D09684FF0FF36C1F38101022946D088
:1026D000022805D0C7F86090FFF7A6FC04463AE050
:1026E000C7F86090FFF7A0FC814607E0FFF79CFC6D
:1026F000A0EB0900022801D903209DE6286880018B
:10270000F4D4D4E907010843616AA26A890106EB9F
:10271000520241EA0241084394F82C1040EA016059
:10272000C8F8000001203866FFF77EFC044607E089
:102730003DE0FFF779FC001B022801D903207BE66E
:1027400028688001F5D532E0FFF76EFC001B0228F7
:1027500001D9032070E628688001F5D427E001281C
:1027600023D0D8F80000E26900F4800191421AD128
:10277000226A00F03F01914215D147F6C071626AAA
:102780000140B1EB821F0ED1A26A00F4403106EB8A
:102790005202B1EB024F06D194F82C1000F0706099
:1027A000B0EB016F03D0012046E6012044E6002093
:1027B00042E600000438024000004742800E4742D3
:1027C000007000407047704770B590F83C20012AB7
:1027D00031D0012680F83C60022280F83D2002685A
:1027E0005468936824F070050C682C435460134CB3
:1027F0000268A24214D0B2F1804F11D0104CA24214
:102800000ED0104CA2420BD00F4CA24208D00F4C5D
:10281000A24205D00E4CA24202D00E4CA24204D1DC
:1028200023F080034968194391603C3046700021D1
:102830000170002070BD022070BD0000000001404A
:102840000004004000080040000C0040000401406B
:10285000004001400018004010B50446002C03D091
:1028600094F83D0010B107E0012010BD002084F86D
:102870003C00204600F016F8022084F83D00211D9F
:10288000206801F0C5F901203D3460726070A070CD
:10289000E07020716071A071E071207220700020E2
:1028A00010BD000008B500681149884212D11148D6
:1028B000016841F004010160006800F0040000902C
:1028C000002205211E20FFF74DFCBDE808401E2018
:1028D000FFF73ABC0849884209D10648001D016843
:1028E00041F400310160006800F40030009008BD40
:1028F00000080040403802400044014090F83D107C
:10290000012901D001207047022180F83D100168A3
:10291000CA6842F00102CA6000681449884214D0B3
:10292000B0F1804F11D0124988420ED0114988422F
:102930000BD01149884208D01049884205D010496F
:10294000884202D00F49884209D1816801F007010D
:10295000062908D0016841F00101016003E0016827
:1029600041F00101016000207047000000000140BB
:102970000004004000080040000C0040000401403A
:10298000004001400018004070B50446002594F84E
:102990003C00012817D0012684F83C60022084F80E
:1029A0003D002068826822F0770222F47F42826034
:1029B0000868502838D00DDC202853D005DC90B3AF
:1029C000102811D14EE0022070BD30284AD0402896
:1029D0000AD13DE0602831D070280CD0B0F5805F7E
:1029E00003D0B0F5005F12D001253C3466700020A2
:1029F0002070284670BDCB68D1E90121206801F024
:102A00007AF92068816841F077018160EDE7CB6851
:102A1000D1E90121206801F06EF92068816841F454
:102A200080418160E1E71DE0CA684968206801F0E3
:102A300045FA5021206801F068F9D6E7CA6849686C
:102A4000206801F04CFA6021206801F05EF9CCE7C3
:102A5000CA684968206801F031FA4021206801F015
:102A600054F9C2E722680146104601F04EF9BCE76E
:102A7000704770B50446206801694FF00005C943EE
:102A8000890716D4C168C943890712D4E91E0161B8
:102A90000120207720688069800703D02046FFF757
:102AA000E7FF05E0204600F0C5F8204600F055F9A4
:102AB000257720680169C943490718D4C168C9430B
:102AC000490714D46FF004010161022020772068C7
:102AD000806910F4407F03D02046FFF7C9FF05E06E
:102AE000204600F0A7F8204600F037F92577206847
:102AF0000169C943090717D4C168C943090713D439
:102B00006FF008010161042020772068C069800708
:102B100003D02046FFF7ACFF05E0204600F08AF81E
:102B2000204600F01AF9257720680169C943C906D3
:102B300018D4C168C943C90614D46FF010010161EB
:102B4000082020772068C06910F4407F03D0204619
:102B5000FFF78EFF05E0204600F06CF8204600F0FD
:102B6000FCF8257720680169C943C90708D1C16805
:102B7000C943C90704D1891E0161204600F05CF9F0
:102B800020680169C943090609D4C168C943090617
:102B900005D46FF0800101612046FFF713FE206825
:102BA0000169C943490609D4C168C943490605D426
:102BB0006FF040010161204600F054F9206801697E
:102BC000C94389060BD4C168C943890607D46FF08D
:102BD000200101612046BDE87040FFF7F4BD70BDE3
:102BE00010B586B00446142101A8FDF7C2FC0E48BA
:102BF0002168814215D100210C48026842F0200270
:102C00000260006800F02000009040200190022047
:102C10000290039104910320059001A90448FFF755
:102C20001BF906B010BD00000044014030380240DE
:102C300000140240704770B504460D46002694F813
:102C40003C0001280FD0012084F83C006AB1042A1E
:102C50001FD0082A32D00C2A44D00126002084F844
:102C60003C00304670BD022070BD2946206801F04E
:102C700055F82068816941F0080181612068816907
:102C800021F004018161206881692A691143816111
:102C9000E4E72946206801F075F82068816941F46D
:102CA000006181612068816921F48061816120680F
:102CB00081692A6941EA02218161CFE729462068BA
:102CC00001F09AF82068C16941F00801C1612068EB
:102CD000C16921F00401C1612068C1692A691143F9
:102CE000C161BBE72946206801F0BEF82068C169D0
:102CF00041F40061C1612068C16921F48061C16152
:102D00002068C1692A6941EA0221C161A6E710B5BC
:102D10000446002C03D094F83D0010B107E00120D8
:102D200010BD002084F83C00204600F015F8022079
:102D300084F83D00211D206800F06AFF01203D3429
:102D400060726070A070E07020716071A071E071BD
:102D500020722070002010BD7047704710B50446E7
:102D6000002909D004290AD008290BD094F8410081
:102D700001280AD0012010BD94F83E00F8E794F82D
:102D80003F00F5E794F84000F2E70220A9B30429D8
:102D900037D0082938D084F841000122206800F09B
:102DA0009DFF1E4920681E4A884201D0904203D1EF
:102DB000436C43F4004343642068884213D0B0F16D
:102DC000804F10D0174988420DD0174988420AD049
:102DD0001649884207D0904205D01549884202D052
:102DE0001449884213D1816801F00701062912D0E5
:102DF000016841F0010101600DE0FFE784F83E0049
:102E0000CBE784F83F00C8E784F84000C5E70168D5
:102E100041F001010160002010BD000000000140F0
:102E2000000401400004004000080040000C004085
:102E3000004001400018004010B5044607492068D2
:102E4000884201D1FFF7F6F805492068884203D18E
:102E5000BDE8104001F018BC10BD000000040040A7
:102E6000000800407047704710B50446206840696C
:102E7000C0F3C01094F83D10212911D180B1206811
:102E8000143050E8001F21F0800140E80012002AB1
:102E9000F5D1606B08B1FEF7E7FD204601F0EFF8D1
:102EA00020684069C0F3801094F83E10222911D1A7
:102EB00080B12068143050E8001F21F0400140E844
:102EC0000012002AF5D1A06B08B1FEF7CDFD204617
:102ED00001F0A1F8002010BD70470000F8B50446CD
:102EE00022681068D168536900F00F06002E08D1DF
:102EF000850606D58D0604D52046BDE8F84001F0CC
:102F0000CCB80025002E66D003F0010601F49077BE
:102F1000374360D0C20705D0CA0503D5226C42F002
:102F200001022264420705D5DA0703D0226C42F081
:102F300002022264820705D5DA0703D0226C42F030
:102F400004022264020707D501F02002324303D0B5
:102F5000226C42F008022264226C002A31D08006E2
:102F600004D5880602D5204601F097F8206840690C
:102F7000C0F38010216C090700D438B3204601F05B
:102F80004AF82068406940061CD52068143050E893
:102F9000001F21F0400140E80012002AF5D1A06B8B
:102FA00060B157490165A06BFEF7A5FD002808D068
:102FB000A06B016D01B0BDE8F04008472046FFF767
:102FC0008BFFF8BD2046FFF787FFF8BD2046FFF7CF
:102FD00083FF2564F8BD236B012B7ED1C3067CD50E
:102FE000CB067AD510685068009050694FF02003E6
:102FF000400643D5A16B0868406880B20028E9D03C
:10300000A28D8242E6D9E085C869B0F5807F2DD0D7
:1030100020680C3050E8001F21F4807140E8001255
:10302000002AF5D12068143050E8001F21F001017A
:1030300040E80012002AF5D12068143050E8001F43
:1030400021F0400140E80012002AF5D184F83E301A
:10305000256320680C3050E8001F21F0100140E883
:103060000012002AF5D1A06BFEF7FEFCA08DE18DC9
:10307000401A81B22046FFF7F6FEF8BDA08DE18D23
:10308000401A81B2E08D0028F7D00029F5D02068E1
:103090000C3050E8002F22F4907240E80026002EF9
:1030A000F5D12068143050E8002F22F0010240E8EA
:1030B0000026002EF5D184F83E30256320680C30C0
:1030C00050E8002F22F0100240E80023002BF5D139
:1030D0002046FFF7C8FEF8BDFFE7020606D50A0640
:1030E00004D52046BDE8F84001F010B94006F2D5FD
:1030F0004806F0D52046BDE8F84000F0B3BF000018
:10310000213F000870B50446002C04D094F83D001F
:10311000002510B106E0012070BD84F83C50204627
:1031200000F022F8242084F83D002068C16821F4D2
:103130000051C160204601F013F82068016921F4B4
:10314000904101612068416921F02A0141612068B4
:10315000C16841F40051C1602564202084F83D001D
:1031600084F83E00002070BD2DE9F04F87B0044682
:10317000142102A8FDF7FDF9EB48DFF8A8931438F5
:10318000D4F800A0DFF8A0B3022103220723DFF860
:103190009CC34027002506154FF00068CA4562D140
:1031A000DBF8009049F01009CBF80090DBF80090B4
:1031B00009F01009CDF80490D0F8009049F0010909
:1031C000C0F80090006800F00100019050020290E9
:1031D000039104950592069302A96046FEF73CFE12
:1031E000DFF85093D248C9F80000C9F80480C9F844
:1031F0000870C9F80C50C9F81060C9F81450C9F823
:103200001850C9F81C50C9F82050C9F82450484635
:10321000FEF76CFD08B1FDF79FFFC4F83490C9F8C4
:103220003840C348C34F783860373860C7F80480E7
:10323000BD60FD603E617D61BD61FD613D627D629D
:103240003846FEF753FD08B1FDF786FFA763BC6360
:10325000002205212520FEF785FF2520FEF774FFBB
:1032600007B0BDE8F08FDFF8D0E2DFF8BC92F2459E
:10327000A9F104096DD1D9F800A04AF4003AC9F8BF
:1032800000A0D9F8009009F40039CDF80490D0F8E6
:10329000009049F00109C0F80090006800F00100BA
:1032A00001900C200290039104950592069302A9C7
:1032B0006046FEF7D1FDDFF87C92A04809F1C00915
:1032C000C9F80000C9F80480C9F80850C9F80C50C2
:1032D000C9F81060C9F81450C9F81850C9F81C5042
:1032E000C9F82050C9F824504846FEF7FFFC08B141
:1032F000FDF732FFC4F83890C9F838408F48DFF83E
:1033000040921830C9F80000C9F80480C9F8087064
:10331000C9F80C50C9F81060C9F81450C9F8185011
:10332000C9F81C50C9F82050C9F824504846FEF787
:10333000DDFC08B1FDF710FFC4F83490C9F838403F
:10334000002205212620FEF70DFF2620FEF7FCFEB9
:1033500086E7DFF8F0C1E24572D1D9F800C04CF43D
:10336000802CC9F800C0D9F800C00CF4802CCDF82E
:1033700004C0D0F800C04CF0020CC0F800C00068D7
:1033800000F0020001904FF4406002900391049518
:103390000592069302A96C48FEF75EFDDFF8A09146
:1033A000664809F160096038C9F80000C9F804806E
:1033B000C9F80850C9F80C50C9F81060C9F8145081
:1033C000C9F81850C9F81C50C9F82050C9F8245041
:1033D0004846FEF78BFC08B1FDF7BEFEC4F83890F6
:1033E000C9F83840DFF85891544809F1C00930381D
:1033F000C9F80000C9F80480C9F80870C9F80C5071
:10340000C9F81060C9F81450C9F81850C9F81C5010
:10341000C9F82050C9F824504846FEF767FC08B1A7
:10342000FDF79AFEC4F83490C9F83840002205210F
:103430002720FEF797FE2720FEF786FE10E7FFE71E
:10344000424B9A4584D1DBF8003043F02003CBF89F
:103450000030DBF8003003F020030193036843F0F1
:1034600004030360006800F004000190C020029093
:103470000391049505920820069002A93448FEF7AE
:10348000EBFC2B48DFF8CC809038C8F800004FF0F8
:103490002069C8F80490C8F80850C8F80C50C8F85B
:1034A0001060C8F81450C8F81850C8F81C50C8F874
:1034B0002050C8F824504046FEF718FC08B1FDF72C
:1034C0004BFEC4F83880C8F83840DFF888801848C8
:1034D00008F160081838C8F80000C8F80490C8F867
:1034E0000870C8F80C50C8F81060C8F81450C8F834
:1034F0001850C8F81C50C8F82050C8F8245040464E
:10350000FEF7F4FB08B1FDF727FEC4F83480C8F8D5
:103510003840002205214720FEF724FE4720FEF711
:1035200013FE9DE6001001404438024000000240B6
:10353000B86402407C0300200044004088600240E0
:103540009C04002000480040000402400014014098
:1035500000080240BC05002090F83E30202B01D02E
:103560000220704759B152B190F83C30012B08D07D
:10357000012380F83C300023036300F07BBE012070
:10358000704702207047704770472DE9F8430446A2
:103590000E4615461F4694F83D00202802D0022012
:1035A000BDE8F883C6B1BDB194F83C00012815D040
:1035B000012084F83C004FF00009C4F8409021201D
:1035C00084F83D00FEF730FD8046A584E584A068C0
:1035D000B0F5805F04D005E00120E1E70220DFE7DD
:1035E000206920B13546002684F83C9013E0002580
:1035F000FAE74346002280212046009700F0B5FEFE
:1036000008B10320CCE79DB1216815F8010B486093
:10361000E08C401EE084E08C0028EAD14346002282
:1036200040212046009700F0A0FE40B10320B7E7FC
:1036300036F8020B2168C0F308004860E8E7202054
:1036400084F83D000020ABE77047FEE710B50F4857
:103650000D4901600321416000218160C1604FF488
:10366000002202614FF44012426101764176817678
:10367000C17601774177FEF72DF8002803D0BDE829
:103680001040FDF769BD10BD006400408C010020B2
:1036900010B50F480D490160032141600021816090
:1036A000C1604FF4002202614FF440124261017682
:1036B00041768176C17601774177FEF70BF80028D5
:1036C00003D0BDE81040FDF747BD10BD00680040C5
:1036D000B401002008B52948016841F48001016067
:1036E000016801F480010091016841F4001101605A
:1036F000006800F400100090002205210C20FEF765
:1037000031FD0C20FEF720FD002205210E20FEF7E2
:1037100029FD0E20FEF718FD002205211020FEF7DE
:1037200021FD1020FEF710FD002205211120FEF7DB
:1037300019FD1120FEF708FD002205213920FEF7B2
:1037400011FD3920FEF700FD002205213A20FEF789
:1037500009FD3A20FEF7F8FC002205214520FEF77E
:1037600001FD4520FEF7F0FC002205214620FEF772
:10377000F9FCBDE808404620FEF7E6BC30380240C0
:1037800010B5124A0021124803F024FC114C2060AD
:103790000E4A00212432104803F01CFC60600B4AE2
:1037A000002148320D4803F015FCA060074A0021B3
:1037B0006C320B4803F00EFCE060044A00219032AA
:1037C000084803F007FC206110BD0000F8950008D0
:1037D000A50C000800000020390E0008290D000883
:1037E00007470008F509000800B587B0142102A8B2
:1037F000FCF7BFFE00212248026842F0040202608A
:10380000026802F004020192026842F020020260A3
:10381000026802F020020192026842F08002026017
:10382000026802F080020192026842F00102026026
:10383000026802F001020192026842F00202026094
:10384000026802F002020192026842F0080202607D
:10385000006800F008000190802002904FF488106A
:103860000390049102A90748FEF7F6FA0022052109
:103870001720FEF777FC1720FEF766FC07B000BDA7
:10388000303802400014024010B588B01C2101A855
:10389000FCF76FFE15481449016053214160002474
:1038A000846040F63301C16004618461FEF7D4FF97
:1038B00008B1FDF751FC0D48FFF729FA08B1FDF7F3
:1038C0004BFC60200190029403940594002201A90E
:1038D0000648FFF7B0F908B1FDF73EFC0348FFF7D3
:1038E0007FF908B010BD0000004401402402002010
:1038F00010B586B0002402940394049405940094B7
:1039000001941448124901605321416084604FF6CC
:10391000FF71C16004618461FEF79EFF08B1FDF78D
:103920001BFC4FF48050029002A90A48FFF72CF8C4
:1039300008B1FDF711FC0094019469460548FEF7B3
:1039400043FF002801D0FDF707FC06B010BD0000C2
:1039500000080040DC01002010B50C480A49016055
:103960004FF41651416000218160C16001610C2259
:1039700042618161C161FFF7C5FB002803D0BDE84A
:103980001040FDF7E9BB10BD001001406C020020A3
:1039900010B50C480A4901604FF4E1314160002143
:1039A0008160C16001610C2242618161C161FFF7E8
:1039B000A9FB002803D0BDE81040FDF7CDBB10BD2A
:1039C00000440040B002002010B50C480A490160D4
:1039D0004FF4E131416000218160C16001610C223E
:1039E00042618161C161FFF78DFB002803D0BDE812
:1039F0001040FDF7B1BB10BD00480040F4020020AC
:103A000010B50C480A4901604FF4E13141600021D2
:103A10008160C16001610C2242618161C161FFF777
:103A200071FB002803D0BDE81040FDF795BB10BD29
:103A30000014014038030020FEE7FEE770B514468D
:103A40001D46E06061602046FEF706FF29462046DD
:103A5000BDE87040FFF782B90068C36A5B1C53433E
:103A60006422B3FBF2F2002905D0042905D008290D
:103A700005D0026470474263704782637047C26337
:103A8000704770B5002300E05B1CC45C002CFBD1C8
:103A900004E01D460E5D5B1C4655641C9442F8DB39
:103AA00070BD10B54FF0E020006904F021FD012841
:103AB00003D0BDE8104004F019BA10BD30B593B082
:103AC000302107A8FCF755FD142102A8FCF751FD91
:103AD00000251D48016841F080510160006800F038
:103AE000805001901948016841F4804101600068EC
:103AF00000F4804001900120079000040890022407
:103B00000D9480010E9004200F90A8211091119423
:103B1000129007A8FEF776FC08B1FDF71DFB0F20F9
:103B20000290039404954FF4A05005904FF48050F8
:103B30000690052102A8FEF747FB002801D0FDF7FB
:103B40000BFB13B030BD0000403802400070004055
:103B50000248016841F470010160704788ED00E09F
:103B600010B5FDF7C5FA02211A4800F0CBF9002381
:103B7000194A49F63F4141F26700FFF75FFF1749D5
:103B80001748FDF725F917491748FDF721F90023D4
:103B90001A4619461248FDF7EBF800231A460C2185
:103BA0000F48FDF7E5F800231A4672210E48FDF78D
:103BB000DFF800231A467E210B48FDF7D9F80B4B9E
:103BC00023220B490B4800F043FCBDE81040FDF7F1
:103BD00029B80000DC01002024020020590C000854
:103BE0008C010020F90C0008B40100205D090008D8
:103BF00090510020F40200200148FEF73ABF000077
:103C00007C0600200148FEF734BF0000DC010020E4
:103C10002DE9F0410268264D264E274FDFF89CC063
:103C2000274B4FF08048A84209D0404507D0B0420A
:103C300005D0B84203D0604501D0984203D122F0AC
:103C400070044A682243A8421BD0404519D0B042B4
:103C500017D0B84215D0604513D0984211D0194CF6
:103C6000A0420ED0184CA0420BD0184CA04208D055
:103C7000174CA04205D0174CA04202D0164CA042CF
:103C800003D122F44074CA6822434C6922F08002B6
:103C9000224302608A68C2620A688262A84201D036
:103CA000984201D10969016301214161BDE8F081B8
:103CB000000001400004004000080040000C0040EB
:103CC0000004014000400140004401400048014020
:103CD00000180040001C00400020004010B501F01A
:103CE0001F0101238B40046A9C430462036A8A40DB
:103CF0001343036210BD10B5846824F47F4442EA84
:103D000003220A432243826010BD826822F07002BF
:103D10000A4342F00701816070470000F0B5026A73
:103D200022F001020262026A4368846924F070048E
:103D300024F003050C682C4322F002058A682A430C
:103D40000E4E0F4FB04201D0B84205D122F0080507
:103D5000CA682A4322F00402B04201D0B84207D117
:103D600023F4807323F400734D691D438B692B4347
:103D700043608461496841630262F0BD0000014014
:103D800000040140F0B5026A22F010020262036AE8
:103D90004268846924F4E04424F440740D6844EAE1
:103DA000052423F020038D6843EA0513104D114EBE
:103DB000A84201D0B04206D123F08003CF6843EA85
:103DC000071323F04003A84201D0B04209D122F4E6
:103DD000806222F400624D6942EA85028D6942EAFE
:103DE000850242608461496881630362F0BD00001E
:103DF0000000014000040140F0B5026A22F4807224
:103E00000262026A4368C46924F0700424F0030566
:103E10000C682C4322F400728D6842EA0522104D92
:103E2000104EA84201D0B04206D122F40062CF6801
:103E300042EA072222F48062A84201D0B04209D1AE
:103E400023F4805323F400534D6943EA05138D692D
:103E500043EA05134360C4614968C1630262F0BD6F
:103E6000000001400004014030B5026A22F4805293
:103E70000262046A4268C36923F4E04323F4407396
:103E80000D6843EA052324F400548D6844EA0534A0
:103E9000084DA84202D0084DA84204D122F4804225
:103EA0004D6942EA85124260C36149680164046257
:103EB00030BD0000000001400004014010B5036A5D
:103EC000046A24F001040462846924F0F00444EAE2
:103ED000021423F00A020A438461026210BD10B585
:103EE000036A23F0100303628469036A24F47044B4
:103EF00044EA023223F0A00343EA01118261016225
:103F000010BD000010B5054A10601171FEF7F6FCF7
:103F1000002801D0FDF722F910BD0000B4000020F8
:103F200010B5806B0021C185C184FEF7D5FF10BD9F
:103F300070B5846B20684069C0F3C01094F83D10E0
:103F40000025212904D118B1E584204600F097F816
:103F500020684069C0F3801094F83E10222904D1F3
:103F600018B1E585204600F056F8206C40F01000AE
:103F700020642046FEF7B0FF70BD10B50146886B87
:103F800009680968C9052FD40021C18501680C3171
:103F900051E8002F22F4807241E80023002BF5D174
:103FA0000168143151E8002F22F0010241E800239A
:103FB000002BF5D10168143151E8002F22F04002A6
:103FC00041E80023002BF5D1202180F83E10016B41
:103FD000012909D101680C3151E8002F22F01002AB
:103FE00041E80023002BF5D1016B012902D0FFF736
:103FF000CAFA10BD818DFEF736FF10BD10B5806B7B
:10400000016B012902D0FFF7BFFA10BD818D49086D
:10401000FEF729FF10BD01680C3151E8002F22F492
:10402000907241E80023002BF5D10168143151E86A
:10403000002F22F0010241E80023002BF5D1016B93
:10404000012909D101680C3151E8002F22F010023A
:1040500041E80023002BF5D1202180F83E100021FB
:104060000163704710B50168CA6822F04002CA6057
:10407000202180F83D10FFF7E7FA002010BD01680D
:104080000C3151E8002F22F0C00241E80023002B40
:10409000F5D1202180F83D10704708B590F83E100A
:1040A000222901D0022008BD82684FF480539A4231
:1040B00001D1016921B1816A9A421DD052B10BE050
:1040C000816A02685268C2F308020A80816A891C08
:1040D000816209E002697AB10268526802F07F02E7
:1040E0000A70816A491C8162C18D491E0904090C4C
:1040F000C18505D0002008BD026852680A70F0E74B
:104100000168CA6822F02002CA600168CA6822F405
:104110008072CA6001684A6922F001024A61202166
:1041200080F83E10016B012903D0FFF72CFA002024
:1041300008BD0021016301680C3151E8002F22F015
:10414000100241E80023002BF5D101680A68D2066D
:1041500002D50A6849680091818DFEF784FEE6E782
:104160002DE9F041044620680169E26821F44051DC
:1041700011430161A1682069E2690143606910434C
:1041800001432068C26849F20C639A430A43C26043
:1041900020684169A26921F44071114341613349AA
:1041A0002068884202D03249884202D1FEF7E6F800
:1041B00001E0FEF7D3F8E1690023192764253226D0
:1041C000B1F5004F28D061688B0F8A00A0FB070172
:1041D000FCF7C2F80146B0FBF5F07A42504301EB20
:1041E000800006EB0010B0FBF5F000F0F002B1FB30
:1041F000F5F002EB0012B1FBF5F07B42584301EB06
:10420000800006EB0010B0FBF5F0216800F00F0015
:1042100010448860BDE8F08161684A18A0FB07017E
:104220005B41FCF799F80146B0FBF5F00201B1FBE8
:10423000F5F06FF01803584301EB800006EBC00067
:10424000B0FBF5F000F0F80002EB4002B1FBF5F036
:10425000584301EB800006EBC000B0FBF5F021688D
:1042600000F0070010448860D4E70000001001400F
:104270000014014037B582B004461346039AA26287
:10428000A38500252564222084F83E00A16B1C48EC
:10429000C863A16B1B480864A16B1B48C864A06B72
:1042A00005652168A06B091DFDF78AFD206801687E
:1042B0004068019084F83C50206948B120680C3077
:1042C00050E8001F41F4807140E80012002AF5D147
:1042D0002068143050E8001F41F0010140E800124E
:1042E000002AF5D12068143050E8001F41F0400149
:1042F00040E80012002AF5D105B0002030BD0000D2
:104300007B3F0008FD3F0008313F000890F83D105A
:10431000212901D0022070478168B1F5805F01D169
:10432000016961B1016A4A1C026202680978516040
:10433000C18C491E0904090CC1840AD013E0016A2A
:1043400002680988C1F308015160016A891C016291
:10435000EEE70168CA6822F08002CA600068C1689E
:1043600041F04001C160002070472DE9F041044652
:104370000E4617469846069D25E0681C23D02DB1B1
:10438000FDF752FEA0EB0800A8421CD920680C30B3
:1043900050E8001F21F4D07140E80012002AF5D146
:1043A0002068143050E8001F21F0010140E800129D
:1043B000002AF5D120203C346070A07000202070CD
:1043C0000320BDE8F0812068006836EA000004D0D0
:1043D0000020B842D1D00020F3E70120F9E7000027
:1043E00010B50448FEF77AFDBDE81040024800F021
:1043F000AFB800006C020020E04F002010B5044868
:10440000FEF76CFDBDE81040024800F0A1B80000C6
:10441000B0020020F04F002010B50448FEF75EFD0A
:10442000BDE81040024800F093B80000F4020020FC
:104430000050002010B50448FEF750FDBDE81040C4
:10444000024800F085B8000038030020105000201A
:10445000F8B504460D4616461F46002C01D1FCF760
:104460007BFE36492068884215D135480460856056
:104470008680394600F045F920680168416800915E
:10448000C16841F01001C160324629462046BDE8AE
:10449000F840FFF761B82B49884216D12848103000
:1044A000046085608680394600F02BF92068016839
:1044B00041680091C16841F01001C160324629464F
:1044C0002046BDE8F840FFF747B81F49884216D19B
:1044D0001B482030046085608680394600F011F961
:1044E0002068016841680091C16841F01001C16015
:1044F000324629462046BDE8F840FFF72DB813495B
:10450000884216D10E483030046085608680394676
:1045100000F0F7F82068016841680091C16841F037
:104520001001C160324629462046BDE8F840FFF739
:1045300013B8BDE8F840FCF70FBE000000100140C2
:10454000E04F0020004400400048004000140140BB
:10455000016809680968C943C90601D400F002B8B6
:104560007047000038B50446216808680268406852
:1045700000900846FEF778FC2168A088896B0968DE
:104580004968401A81B206480180E2680AB1A06811
:104590009047A288A1682068BDE83840FEF7DCBFDC
:1045A000BC00002070B52DED048B324C94ED032A35
:1045B00084ED062A94ED041A84ED071A90ED000AA2
:1045C00084ED000AD0ED010AC4ED010AD0ED020A23
:1045D000C4ED020AD0ED031AC4ED031AD0ED040AAB
:1045E000C4ED040AD0ED052AC4ED052A71EEC21A05
:1045F000C4ED081A70EEC10AC4ED090A04F13005D1
:1046000085ED020A94ED0A1A31EE211A84ED0A1A98
:1046100094ED0B1A71EE200AC4ED0B0ADFED169A29
:104620009FED169A60EE290A80EE890A02F0A6F93B
:10463000A06A04F065FF9FED128B53EC182B04F079
:104640005FFB04F02BFB286095ED020A60EE290A5F
:1046500080EE890A02F0EAF8E06A04F051FF53ECB8
:10466000182B04F04DFB04F019FB6860BDEC048BC3
:1046700070BD000070500020DB0F49400000344343
:10468000000000000000000002480168491C0160B1
:1046900070470000B00000200EB509A003C8CDE9A6
:1046A00001018DED000A0422694602A8FFF7E9F92D
:1046B0004FF0FF33082201A90348FEF766FF0EBD45
:1046C0004143545800000000F40200200EB509A038
:1046D00003C8CDE901018DED000A0422694602A854
:1046E000FFF7CFF94FF0FF33082201A90348FEF787
:1046F0004CFF0EBD4143545900000000F40200205D
:10470000FEE7C1607047012002F026FCFBE70000D5
:1047100010B52DED028B84B036499FED370A37482E
:10472000D1ED000A80EE801A80ED001AD1ED010A69
:10473000C0EE801AC0ED011AA0F13804D4ED090AC8
:1047400094ED080A00F092F98DED020ACDED030A0E
:10475000B0EE408AF0EE608AB0EE480AF0EE680AE9
:1047600000F0A1F9B0EE401A84ED0A1AC4ED0B0A6C
:10477000B0EE600A8DED000AF1EE410ACDED010ABE
:1047800000F091F984ED0C0AC4ED0D0AF0EE680A10
:10479000B0EE480A00F07AF984ED050AF0EE480A16
:1047A000B0EE680A01F01AFFDFED150A20EE200ACC
:1047B00084ED060AB5EEC00AF1EE10FA07DDDFED72
:1047C000110A30EE600A04F05DFA84ED060A0E4824
:1047D00094ED060AD0ED000A70EE600A9FED0B0A18
:1047E0000B4800F073FA84ED010A04B0BDEC028BB3
:1047F00010BD0000A050002000007A4438010020C5
:10480000E02E654200003443C80000200000000094
:10481000AC50002010B52DED048B23489FED218A6C
:1048200080ED008A9FED210A80ED010AB0EE480A72
:10483000FFF74CFFB0EE480AFFF72EFF00F072F9C9
:10484000DFED1B8A9FED1C9AB0EE483AF0EE683A15
:10485000F7EE002A9FED172AF0EE491AB0EE481A3B
:10486000F0EE480AB0EE000A0421144800F0E0F827
:10487000F0EE683AB0EE483AF0EE491AB0EE481A57
:10488000F0EE480ABDEC048B0421F7EE002A0B4839
:10489000BDE810409FED0A2AB0EE000A683000F033
:1048A000C7B800000000000020010020CDCCAC40C3
:1048B000C3F5283F0000B443CDCCCC3DAC50002024
:1048C0000000344310B52DED048BF3EE042ADFED28
:1048D0004B8AB0EE682AF0EE681A9FED498AB0EE76
:1048E000481A9FED489AB3EE040A0021F0EE490AF7
:1048F000454800F0F9FBF3EE042AB0EE682AF0EE2A
:10490000681AB0EE481AF0EE490AB2EE080A012120
:104910003D4800F0E9FBF3EE042AB0EE682AF0EE21
:10492000681AB0EE481AF0EE490AB2EE080A0221FF
:10493000354800F0D9FBDFED359A00220123F0EE77
:10494000480AB0EE690A11462F4800F0BFFB012368
:104950000022F0EE480AB0EE690A19462A4800F033
:10496000B5FB01230022F0EE480AB0EE690A0221ED
:10497000254800F0ABFB00231A46F0EE480AB0EEE3
:10498000690A0321204800F0A1FBDFED211AF0EEB7
:10499000482AB0EE481AB0EE612AF0EE490AB2EEAB
:1049A000080A00211B4801F070FB00220123F0EEF1
:1049B000480AB0EE690A1146164801F053FBF0EEC2
:1049C000482AB0EE682AF0EE681AB0EE481AF0EE07
:1049D000490AB2EE080A01210E4801F056FBF0EE3A
:1049E000480AB0EE690ABDEC048B01230022BDE841
:1049F00010401946074801F035BB00000000804612
:104A0000000000008FC2753C70520020CDCCCC3D20
:104A100000803B46105600202DED040B9DED000A52
:104A200020EE010ADDED010A60EE810A04B0704754
:104A300000F84C1F80ED010AC0ED020A80ED031A58
:104A4000C0ED041A80ED052A40ED132A00ED123A5C
:104A500040ED113A9FED040A00ED010A00ED020A53
:104A60000121017670470000000000002DED040BCD
:104A70009DED000ADDED020A30EE600ADDED010A6F
:104A80009DED031A70EEC10A04B070472DED020BC4
:104A90009DED000ADDED010A02B020EE000A00EEF5
:104AA000A00A02F033B810B52DED020B2DED028BEC
:104AB000DDED030A9DED020AB0EE608AF0EE408A59
:104AC000FFF7E4FFB5EEC00AF1EE10FA06D1B0EE42
:104AD000680AF0EE480ABDEC028B1CBD88EE801A15
:104AE000C8EE000AB0EE410AF5E70A68431CD35C41
:104AF000805C43EA002000B2921C0A60704710B547
:104B00000A68C31CD35C845C43EA0463441C145DE0
:104B10002404801C105C44EA00200343121D0A6038
:104B2000184610BD10B5F7EE001A0F4C0522A27002
:104B300000200E499FED0E1A0DE000EE900AB0EE37
:104B4000610A01EB8003F8EE600A00EE810A83ED52
:104B5000000A401CC0B29042EFD391ED000A84EDF0
:104B6000020A0020607010BD000100207C5100206E
:104B70009A99193F30B513680D0E5C1C1460C5542A
:104B800013680D0C5C1C1460C55413680D0A5C1C82
:104B90001460C55413685C1C1460C15430BD00001F
:104BA0002DE9F04105462DED028B0E46384C20696B
:104BB000002803D1FFF72EFE01202061FFF7A8FD9A
:104BC000D5ED008A96ED008AD4ED050A94ED020A2F
:104BD000304800F07BF884ED070AB0EE480A04F094
:104BE00051F810EE100A2C4FB84225DD2949B5EED8
:104BF000C08A6831F1EE10FA0EDDA0786278401EAE
:104C0000824209DA521CD0B2607001EB800090ED54
:104C1000000A84ED020A0FE0B5EEC08AF1EE10FA48
:104C20000AD2627842B1521ED2B2627001EB8200A7
:104C300090ED000A84ED020AB0EE680A04F022F852
:104C400010EE100AB84203DD9FED140A84ED010A4C
:104C5000B0EE681AD4ED0D0A94ED0C0AFFF7DCFEF5
:104C6000B0EE402AF0EE601A94ED071AD4ED0B0A6C
:104C700094ED0A0AFFF7D0FE32EE000A85ED000A35
:104C800031EEA00A86ED000ABDEC028BBDE8F08192
:104C90000001002014510020BD37863500000000BF
:104CA000D0ED000AF4EEC00AF1EE10FA01DD80ED5D
:104CB000000AD0ED000AB1EE400AF4EEC00AF1EEAF
:104CC00010FA01D280ED000A7047000070B504466A
:104CD0002DED028BC4ED090A84ED060A30EE600A60
:104CE00084ED0C0A94F86400012806D184ED0B0AC7
:104CF00084ED0A0A002084F86400D4ED180A9FEDC0
:104D0000738AF5EEC00AF1EE10FA0FD003F0BAFF85
:104D1000D4ED180AB4EEE00AF1EE10FA06DDB0EEBA
:104D2000480A84ED110ABDEC028B70BD94ED170AA0
:104D3000B5EEC00AF1EE10FA0FD094ED0C0A03F0B4
:104D4000A1FFD4ED170AB4EEE00AF1EE10FA04D296
:104D5000B0EE480A84ED110AE5E794F84C0004F13E
:104D60004405042802D0052862D094E0D4ED000A5E
:104D700094ED0C0A60EE800AC4ED0D0AD4ED160A1B
:104D8000F5EEC00AF1EE10FA08D1D4ED0E0A94ED5A
:104D9000011A41EE000AC4ED0E0A15E003F072FF9D
:104DA000D4ED160AB4EEE00AF1EE10FA0AD294ED50
:104DB0000E0AD4ED010A94ED0C1A00EE810A84ED7E
:104DC0000E0A01E084ED0E8A94ED150A04F1380014
:104DD000FFF766FF94ED0C0AD4ED0B0A30EE600A83
:104DE000D4ED020A20EE200A84ED0F0AD4ED060A63
:104DF00094ED051A70EEC10A94ED031A60EE810A73
:104E0000C4ED100A94ED0D1AD4ED0E1A31EE211AEC
:104E100031EE000A30EE200A84ED110A94ED140AF6
:104E20002846FFF73DFF94ED110A84ED120A32E0A7
:104E300094ED0C0AD4ED0B1A94ED001A70EE610A91
:104E400060EE810AC4ED0D0A94ED011A21EE001AFC
:104E500084ED0E1AB0EE002A01EEC20AD4ED0A1A51
:104E600030EE210AD4ED021A20EE210A84ED0F0A59
:104E700070EE810A30EE800AD4ED120A30EE200A7C
:104E800084ED110A94ED140A2846FFF709FF94ED0A
:104E9000110A84ED120A94ED0B0A84ED0A0A94EDCE
:104EA0000C0A84ED0B0A94ED080A84ED070A94EDD0
:104EB000090A84ED080A94ED050A84ED040A94EDCC
:104EC000060A84ED050A94ED110A2CE700000000A3
:104ED00010B504462DED028B4878097840EA012090
:104EE0002082217F00291ED000EE100A216AF8EEF0
:104EF000400A94ED060A70EEC00A10EE902A12F1F4
:104F00006A5F02D9491C216215E000EE900AF8EEB2
:104F1000600A30EEC00A10EE102AB2F18B4F0ADDA3
:104F2000491E216207E000EE100AB8EE400A84ED47
:104F3000020A0121217700EE100AB8EE400A84ED42
:104F4000060A216AD4ED020A00EB413000EE100A95
:104F5000B8EEC00A30EE600ABDEEC08A2068816AF1
:104F600020468847F8EEC80A206880EE808AC1692A
:104F70002046884700EE100AB8EE400AC8EE000A44
:104F8000C4ED050ABDEC028B10BD70B505462DEDD4
:104F9000028B0C462868C26A284690472868B0EE03
:104FA000408AC26A28469047B1EE400AF0EE480AAD
:104FB00005F10C0003F054FE95ED030A2846BDEE02
:104FC000C00A10EE101A09B202790825531E032BED
:104FD00011D804EB42020B0A02F8023C027904EBFE
:104FE000420202F8011C0168C96B8847A060257362
:104FF000BDEC028B70BD531F032BF9D804EB4202AA
:105000000B0A02F80A3C027904EB420202F8091C7E
:105010000168896B8847A0602573E9E770B504468D
:105020000D4620682946026A204690472068294696
:10503000426B204690476879297940EA0120E08454
:1050400070BD000010B500F011F8034901600021A7
:10505000C18480F8281010BDC09700087047CA7836
:10506000897842EA012181847047000001719FED37
:10507000090A80ED020A80ED030A0021018280ED19
:10508000050A80ED060A01770162034A0260818405
:105090007047000000000000089800089FED051A06
:1050A00060EE810A9FED041A20EE011A80EE810A5B
:1050B0007047000000007042DA0FC94000F158014B
:1050C000014803F05FBC00008C010020C1EB01111E
:1050D00000EBC10080F82C2180F82D3180ED3C0AD6
:1050E000C0ED3F0A0120704710B5B0EE613AF0EE16
:1050F000421AC1EB011100EBC100DC30B0EE432AD3
:1051000000F070FC012010BD0FB42DE9F041044601
:105110002DED068B204601F0BFF9EE4DEE4E2878BE
:10512000E0BBEE49687896ED021A01EB800282ED51
:10513000001A401C0522B0FBF2F302FB130068705A
:1051400001270120E64BD1ED000A01EB800292ED30
:10515000000A30EE600AB0EEC00A10EE102A9A4241
:1051600001DD002703E0401CC0B20528EDD337B1B4
:1051700085ED021A0120287085ED031AA870A87821
:1051800060B900209FEDD70A01EB800282ED000A92
:10519000401CC0B20528F7D300206870287838B1C9
:1051A00096ED020AD5ED020A30EE600A85ED010A9D
:1051B00095ED010A9FEDCC9A60EE090A9FEDCB8A2E
:1051C00080EE880A01F032FBF0EE408A95ED010A8C
:1051D00060EE090A80EE880A01F0D0FBB0EE408A4A
:1051E0000EA90DA8FFF7DCFCDDED0D1A9DED0E1AE2
:1051F00061EEA80A41EE480ACDED0D0A21EE888A3B
:10520000B0EE680A01EE008A8DED0E8A9FEDB89B24
:10521000F5EEC00AF1EE10FA25DDD4EDDF8AF4EEEA
:10522000E80AF1EE10FA1EDB206804F069F941EC9F
:105230001A0BD4F85C0304F063F953EC192B03F058
:1052400077FF53EC1A2B03F073FF41EC190B18EEA8
:10525000900A04F055F953EC192B03F051FD03F0BB
:105260001DFD0D907FE0F5EEC00AF1EE10FA25D29B
:10527000D4EDDF8AF4EEE80AF1EE10FA1ED82068C9
:1052800004F03EF941EC1A0BD4F85C0304F038F951
:1052900053EC192B03F04CFF53EC1A2B03F048FF8F
:1052A00041EC190B18EE900A04F02AF953EC192B73
:1052B00004F03CF803F0F2FC0D9054E0F5EEC00A67
:1052C000F1EE10FA25DDD4EDDF8AF4EEE80AF1EE16
:1052D00010FA1ED8206804F013F941EC1A0BD4F828
:1052E0005C0304F00DF953EC192B03F021FF53EC90
:1052F0001A2B03F01DFF41EC190B18EE900A04F075
:10530000FFF853EC192B04F011F803F0C7FC0D90D3
:1053100029E0F5EEC00AF1EE10FA24D2D4EDDF8ACE
:10532000F4EEE80AF1EE10FA1DDB206804F0E8F86C
:1053300041EC1A0BD4F85C0304F0E2F853EC192B9F
:1053400003F0F6FE53EC1A2B03F0F2FE41EC190BBE
:1053500018EE900A04F0D4F853EC192B03F0D0FCAB
:1053600003F09CFC0D90B5EEC08AF1EE10FA0FDD53
:1053700094EDE00AB4EEC08AF1EE10FA08DBD4ED49
:10538000D70A94ED001A00EE810A8DED0E0A3DE079
:10539000B5EEC08AF1EE10FA0FD294EDE00AB4EE49
:1053A000C08AF1EE10FA08D8D4EDD70A94ED001AAD
:1053B00000EEC10A8DED0E0A28E0B5EEC08AF1EECE
:1053C00010FA0FDD94EDE00AB4EEC08AF1EE10FAA7
:1053D00008D8D4EDD70A94ED001A00EEC10A8DED7D
:1053E0000E0A13E0B5EEC08AF1EE10FA0ED294ED7B
:1053F000E00AB4EEC08AF1EE10FA07DBD4EDD70A6A
:1054000094ED001A00EE810A8DED0E0A20220DA9FE
:1054100004F55F70FBF773F837489DED120AD0ED85
:10542000000A30EE200A8DED120A94EDD60AF3EE52
:10543000030A2046FFF732FEDDED0D0A9DED121A3C
:10544000D4EDD81A41EE210A20EE200A84EDB00AEC
:1054500094EDD60AF3EE030A2046FFF71FFEDDEDBA
:105460000E0A94EDDE1AD4EDDD1AF1EE600A60EE5C
:10547000810A9DED0D1A41EE610A9DED121AD4EDDF
:10548000D81A41EE210A20EE200A84EDB20A94EDEA
:10549000D60AF3EE030A2046FFF700FEDDED0E0A02
:1054A00094EDDB1AD4EDDC1A60EE810A9DED0D1A45
:1054B00041EE610A9DED121AD4EDD81A41EE210A8F
:1054C00020EE200A84EDB40ABDEC068BBDE8F001A5
:1054D0005DF814FBC4000020A05000205C500020A8
:1054E000CDCCCC3D00000000DB0F49400000344330
:1054F000000000000000E03F040100200FB4F0B500
:1055000005462DED028B85B0142210A96846FAF7E6
:10551000F6FF0DA928460EC9FFF7F6FD00242EE080
:1055200004EB440000EBC40005EB800606F15800D4
:10553000B0F9240003F0E4FD9FED168B53EC182B1B
:1055400003F0F6FD03F0AAFBC4EB041105EBC10761
:10555000C7F8E40005EBC400D0F8C00203F0D0FFA8
:1055600053EC182B03F0E4FD03F098FBC7F8E800B8
:1055700007F1DC0000F042FA86ED190A641CD5F848
:105580005403A042CCDC05B0BDEC028BF0BC5DF84E
:1055900014FB0000000000000000044070B5044649
:1055A0002DED048BB0EE408AB0EE609A0D46F0EE21
:1055B000418A2022404904F10800FAF7A0FF3E4941
:1055C0002022203104F12800FAF799FF012104F18B
:1055D0005800FFF737FD022104F18400FFF732FD88
:1055E000032104F1B000FFF72DFD04237822334995
:1055F00004F1DC0000F0D7FFDC3800F5377000F074
:1056000003FBA0F537740020C4F854039FED2C0A67
:1056100084EDD60A9FED2B0A84EDD70A9FED2A0A66
:1056200084EDD80ADFED299AB0EE690A00F092FF06
:1056300084EDD90AB0EE690A00F08EFF84EDDA0A33
:10564000DFED239AB0EE690A00F084FF84EDDB0AF7
:10565000B0EE690A00F080FF84EDDC0ADFED1D9AF0
:10566000B0EE690A00F076FF84EDDD0AB0EE690A5B
:1056700000F072FF84EDDE0A0F492022403104F56C
:105680005F70FAF73CFF84EDD68AC4EDD78A84EDCB
:10569000D89AC4F854530120C4F8BC020220C4F8BC
:1056A000C4020320C4F8CC020420C4F8D40220466B
:1056B000BDEC048B70BD0000E0960008095C00089A
:1056C000E3A59B3D000000009318A43EDA0F493F7C
:1056D000910A063F910A863F10B5044603232C2207
:1056E000034904F15800FAF781FF204610BD00007D
:1056F0005D50000870B504462DED068BF0EE408A33
:10570000B0EE608AF0EE419A94ED120AB4EE480AC7
:10571000F1EE10FA06D194ED110AB4EE680AF1EE3A
:1057200010FA07D02068816820468847C4ED118AA6
:1057300084ED128A94F8210000287CD194F820008E
:105740009FED7DAA38EE689AF0EE00AA012588BB8D
:1057500084ED018AC4ED028A94ED090A4FF07E516E
:1057600010EE100A88420FDCD4ED0A0A10EE900AFF
:10577000884209DCB5EEC00AF1EE10FA04D3F5EE6A
:10578000C00AF1EE10FA06D2B0EE4A0A84ED040A1D
:10579000BDEC068B70BDB5EEC00AF1EE10FA0AD171
:1057A000F5EEC00AF1EE10FA05D194ED0B0A84ED86
:1057B000040AEDE754E0F4EE488AF1EE10FA04D161
:1057C000B0EE4A0A84ED040AE2E7B0EE490A03F0BB
:1057D00059FA84ED0C0AD4ED090A60EE200AC4EDF2
:1057E0000D0A94ED0A1A20EE011A84ED0E1A30EE1D
:1057F000600A30EE410A84ED0F0A94ED0B0AD4EDF5
:10580000031A60EEAA0A20EE000AB0EE402A01EE6A
:10581000E12AC2EE201AC4ED051A61EE2A0A80EED2
:10582000201A84ED061AB5EEC09AF1EE10FA06DDE4
:10583000F4EEC89A00E07BE0F1EE10FA09DCB5EE78
:10584000C09AF1EE10FA09D2F4EEC89AF1EE10FA0D
:1058500004D2B0EE4A0A84ED040A99E784F8205095
:10586000B5EEC09AF1EE10FA06DD39EEE80A03F063
:1058700009FA84ED100A05E038EEE90A03F002FAAD
:1058800084ED100A94ED100AD4ED0D0AB4EEE00A8E
:10589000F1EE10FA10D2D4ED050A60EEAA0A60EE1D
:1058A000800A94ED030A40EE000AB0EE600A00F0B0
:1058B00055FE84ED040A21E094ED0F1A70EE811A72
:1058C000F4EEC01AF1EE10FA04DD94ED0B0A84ED4B
:1058D000040A13E030EE600AD4ED0B1AD4ED060A88
:1058E00061EEA11A30EE410A60EEAA0A40EEC01A3B
:1058F000B0EE610A00F032FE84ED040AB5EEC09A03
:10590000F1EE10FA05D294ED040AB1EE400A84EDEE
:10591000040A39EEC80A03F0B5F9D4ED070AB4EE6B
:10592000E00AF1EE10FA03D284ED04AA84F82150C3
:1059300094ED040A2CE7000000000000002100F8AC
:10594000201F417070470000DFED0A2AC0ED042AD5
:10595000002180F8201080F821100749016080EDB7
:10596000090AC0ED0A0A80ED0B1AC0ED031A80ED9A
:10597000072A7047000000004898000800B501465B
:10598000084600F005F808465DF804EB00F007B89B
:10599000D0ED010AC0ED020A80ED010A704790EDDA
:1059A000010AD0ED000AF7EE001A90ED021A20EE7F
:1059B000200A71EEE00A01EE200A704780ED000A2D
:1059C0009FED030A80ED020A80ED010A7047000096
:1059D0000000000000F8501F427000ED0F0A40ED7B
:1059E0000C0A704780ED0D0AC0ED0E0A80ED0F1A0B
:1059F000C0ED111A80ED102A7047000010B5044662
:105A00002DED028B204600F047FD9FED7E8A20B1F0
:105A1000B0EE480ABDEC028B10BD94ED030AD4ED44
:105A2000020A30EE600A84ED0C0A03F02BF9D4ED83
:105A3000120AB4EEE00AF1EE10FA04D2B0EE480A0F
:105A400084ED040AE6E794ED0C0A04F11400FFF774
:105A500095FF84ED0C0A94F8510050B1D4ED0D0A75
:105A6000D4ED151A20EE801A00EEE11A84ED1B1A0F
:105A700005E0D4ED0D0A60EE800AC4ED1B0A94ED3A
:105A80000E1AB5EEC01AF1EE10FA18D010B184ED6E
:105A9000190A07E0D4ED190AD4ED001A40EE210AE4
:105AA000C4ED190A94ED110A04F16400C0EE010A74
:105AB000F1EE401A81EE810A03F0C0F801E084EDB6
:105AC000198A94ED0C0A03F0DDF8D4ED130AB4EE54
:105AD000E00AF1EE10FA10D294ED0E0AD4ED190A94
