:020000040800F2
:10000000986E002019030008175600084F49000891
:10001000E5550008CD0F00083D680008000000000D
:10002000000000000000000000000000590200086D
:10003000C117000800000000B50200085D59000863
:1000400033030008330300083303000833030008B8
:1000500033030008330300083303000833030008A8
:100060003303000833030008330300083303000898
:100070004D1500085D1500086D1500087D15000878
:100080008D1500089D15000833030008AD10000809
:10009000D10F00083303000833030008C31700081A
:1000A0003303000833030008330300083303000858
:1000B00033030008015B0008115B000833030008EC
:1000C0003303000833030008330300083303000838
:1000D000330300086965000881650008956500081C
:1000E0003303000833030008330300083303000818
:1000F0003303000833030008330300083303000808
:1001000033030008330300083303000833030008F7
:10011000815E000833030008215B000833030008F8
:1001200033030008AD150008BD150008CD15000803
:1001300033030008330300083303000839110008B3
:10014000BD10000833030008330300083303000820
:1001500033030008DD150008ED150008AD65000843
:100160003303000833030008330300083303000897
:1001700033030008330300083303000800000000C5
:10018000330300083303000800F002F800F055F8CC
:100190000AA090E8000C82448344AAF10107DA45E2
:1001A00001D100F04AF8AFF2090EBAE80F0013F0DF
:1001B000010F18BFFB1A43F00103184784CB00005E
:1001C000A4CB00000A4410F8014B14F00F0508BF3F
:1001D00010F8015B240908BF10F8014B6D1E05D013
:1001E00010F8013B6D1E01F8013BF9D1641E03D0EC
:1001F000641E01F8015BFBD19142E4D3704700001B
:100200000023002400250026103A28BF78C1FBD81F
:10021000520728BF30C148BF0B6070471FB50CF0B4
:1002200078FB9DE8030000F0FFFA00F00DFA1FBD17
:1002300010B5002000F095FA10BD00F037FB114614
:10024000FFF7ECFF09F0E3FC00F06FFB03B4FFF7EE
:10025000EFFF03BC00F024FB2C4B19680868B0E8E2
:10026000F04F80F30988BFF36F8F4FF0000080F3E9
:10027000118870470000000008480068006880F39B
:1002800008884FF0000080F3148862B661B6BFF3AF
:100290004F8FBFF36F8F00DF00BF00BF08ED00E09E
:1002A000DFF80C00016841F470010160704700BF85
:1002B00088ED00E0EFF30980BFF36F8F134B1A68EE
:1002C0001EF0100F08BF20ED108A20E9F04F1060DB
:1002D00009B44FF0500080F31188BFF34F8FBFF384
:1002E0006F8F0AF02DFE4FF0000080F3118809BCDB
:1002F00019680868B0E8F04F1EF0100F08BFB0ECA6
:10030000108A80F30988BFF36F8F70473000002098
:10031000EFF305807047000009488047094800470F
:10032000FEE7FEE7FEE7FEE7FEE7FEE7FEE7FEE7A5
:10033000FEE7FEE704480549054A064B7047000002
:10034000295A00088901000898680020986E00204A
:10035000986A0020986A002053EA020C00F0698035
:100360002DE9F04B4FF00006002B1FBFB3FA83F5C9
:1003700003FA05F424FA05F65E4012BF1643B2FAFA
:1003800082F502FA05F4C5F120051EBF22FA05FC2C
:1003900044EA0C04203556EA044C4FEA144418BFD2
:1003A000641C4FF000084FF00009904271EB030C01
:1003B00039D3002919BFB1FA81F701FA07F6B0FA6B
:1003C00080F700FA07F6C7F120071EBF20FA07FCE6
:1003D00046EA0C062037B6FBF4FCA7EB0507103FF6
:1003E00007F01F0BCBF120060CFA0BFB2CFA06F6DC
:1003F00044BFB3460026202FA4BF5E464FF0000B3B
:100400005BEA060C08BF4FF0010B19EB0B09ABFBC5
:10041000027C48EB0608C01B06FB02CC0BFB03CC9E
:1004200071EB0C01C1E70B46024641464846BDE868
:10043000F08B13B54FF000004FF00001AFF30080D8
:10044000BDE81C4070472DE9F041074615460E46B1
:10045000102000F025F904000AD06760C4E90265A5
:1004600000F016F90168216004600020BDE8F08109
:100470000120FBE7032A40F2308010F0030C00F06B
:10048000158011F8013BBCF1020F624498BF11F8CE
:1004900001CB00F8013B38BF11F8013BA2F1040287
:1004A00098BF00F801CB38BF00F8013B11F00303FF
:1004B00000F02580083AC0F0088051F8043B083A63
:1004C00051F804CBA0E80810F5E7121D5CBF51F805
:1004D000043B40F8043BAFF30080D20724BF11F87F
:1004E000013B11F801CB48BF11F8012B24BF00F8E4
:1004F000013B00F801CB48BF00F8012B704710B555
:10050000203AC0F00B80B1E81850203AA0E818500B
:10051000B1E81850A0E81850BFF4F5AF5FEA027CCC
:1005200024BFB1E81850A0E8185044BF18C918C03B
:10053000BDE810405FEA827C24BF51F8043B40F8DC
:10054000043B08BF7047D20728BF31F8023B48BFC1
:1005500011F8012B28BF20F8023B48BF00F8012BFF
:10056000704702F0FF0343EA032242EA024200F02E
:100570001BB94FF0000200B5134694469646203949
:1005800022BFA0E80C50A0E80C50B1F12001BFF44C
:10059000F7AF090728BFA0E80C5048BF0CC05DF8B2
:1005A00004EB890028BF40F8042B08BF704748BF00
:1005B00020F8022B11F0804F18BF00F8012B704774
:1005C0004FF0013C50F8042B51F8043B9A4221D1E2
:1005D000A2EB0C03934313EACC1317D150F8042B6E
:1005E00051F8043B9A4215D1A2EB0C03934313EA52
:1005F000CC130BD150F8042B51F8043B9A4209D18B
:10060000A2EB0C03934313EACC13DBD04FF00000B2
:10061000704700BFD01A01BAB1FA81F101F0180198
:1006200022FA01F0CB40C1F12001DBB2C0B2C01A06
:100630002CFA01F3D11A914311EAC311E6D17047A4
:10064000704770477047000070B5064C7C44064DFB
:100650007D4403E0206820448047241DAC42F9D14A
:1006600070BD000010C7000030C700002DE9F04148
:1006700017460E46054633B107FB0354E41B2046DC
:10068000B047A542FAD1A5F10800BDE8F08100000D
:1006900000487047706800200048704738680020A4
:1006A00070B5064600F0A4F8056806F10B0020F0CE
:1006B0000704B4429CBF002070BD2B466A68BAB1E3
:1006C0001068A04210D304F1080188423CBF506872
:1006D000586007D35168101941601168091B016007
:1006E00058601460101D70BD13465268002AE7D18F
:1006F0002146284600F084F80028DED170BD70B590
:100700000446051F00F074F80068002C14BF44680C
:1007100070BD002C18BFAC423CBF20466468F8D3C3
:1007200001680A18AA4218BF456003D12A68054625
:100730001144016028684119A1421CBF6C6070BD62
:100740006168696021680844286070BD10B5FFF7D2
:10075000A3FF006810BD10B50446FFF79DFF0460BD
:1007600010BD2DE9F0410646FFF792FF8046454651
:1007700013E016B1E068B0420ED120682860D4E9D9
:100780000101D8F8007088472046FFF7B8FFD8F875
:100790000000B842EBD100E025462C68002CE8D1DF
:1007A000BDE8F0814FF000020429C0F0128010F083
:1007B000030C3FF4E0AECCF1040CBCF1020F18BF07
:1007C00000F8012BA8BF20F8022BA1EB0C01FFF7CA
:1007D000D2BE5FEAC17C24BF00F8012B00F8012BD8
:1007E00048BF00F8012B7047004870473868002068
:1007F0000048704740680020704770477047704756
:1008000038B504460A4600206946AFF30080002848
:1008100008BF38BD02460099204600F06CF8012060
:1008200038BD012000F0A3B8F8B5AFF3008005464D
:1008300000200C46102000BF0646A819A0420DD982
:10084000324669460020AFF30080070008BF00F081
:100850008EF80098A04218BF0546C419FFF7C8FFDC
:1008600005600746F01D20F007004619284600F0F5
:100870000AF8B44208BFF8BDA21B31463868BDE88B
:10088000F84000F038B800210160C0E9011070475D
:1008900010207047002801D000F002B87047000017
:1008A00001491820ABBEFEE7260002007546FFF79F
:1008B0009BFFAE4605006946534620F0070085467B
:1008C00018B020B5FFF736FDBDE820404FF0000618
:1008D0004FF000074FF000084FF0000B21F0070128
:1008E000AC46ACE8C009ACE8C009ACE8C009ACE86B
:1008F000C0098D467047034640688C46002818BFE3
:1009000088423CBF03464068F8D3186818448842C0
:1009100007D00CF1030020F00700001D411A521A05
:100920000146081D0A60FFF7EABE10B50446AFF3A2
:1009300000802046BDE81040FFF788BC70B5054632
:100940000C460A2000E06D1C00F018F835B128783C
:100950000028F8D102E0641C00F010F814B12078EF
:100960000028F8D1BDE870400A2000F007B810B5A3
:1009700000F00CF8BDE81040FFF78CBF08B56946E1
:100980008DF800000320ABBE08BD704710B50128EC
:1009900005D0002103A0FFF7D1FF012010BD09A160
:1009A000F8E7000053494752544D454D3A204F75E2
:1009B00074206F662068656170206D656D6F727957
:1009C000000000003A2048656170206D656D6F720F
:1009D0007920636F727275707465640019480068DD
:1009E000006900F0010060B36FF00100154909686B
:1009F000086114480068C06820F0010011490968C6
:100A0000C8601148B0F8820020F0100010300E4984
:100A1000A1F8820000BF0B480068006A41F2111182
:100A2000084068B907480068006A8910084038B96A
:100A300004480068006820F0010002490968086065
:100A400000BF704758530020E45300201CB53448C1
:100A500000680068C0F3C00090B100BF00200090A3
:100A60002F480068006800902D480068406800909A
:100A700000BF00BF2A480068006829480068406835
:100A8000274800680068C0F34010002847D04FF0A6
:100A9000FF33012201A9224803F05EFE2148B0F88D
:100AA00080007F282ADA00201F49096848621D4813
:100AB000B0F88000A0B96FF001001B490968086117
:100AC00019480068C06840F0010017490968C8600B
:100AD00015480068006840F0010013490968086083
:100AE0009DF804100F48B0F88020B0F88000401C3A
:100AF0000C4BA3F880001846815410E000200949EF
:100B0000A1F880009DF80400B1F88010054A505407
:100B10001046B0F88000401C1146A1F880001CBDB2
:100B2000A0530020E4530020585300202DED068BE5
:100B300088B09FEDFE0AFE4880ED000A9FEDFB0A9B
:100B4000FC4880ED000A0020FB490860FB48007863
:100B500000F0010050B9F94808F0A0FA30B1F848A7
:100B6000002180F82810F548AFF3008000BFF54859
:100B7000008AB0F5AF6F08DDF248008AB0F5C86FA3
:100B800003DA40F2DC50EF490882EE48408AB0F5C3
:100B9000AF6F08DDEB48408AB0F5C86F03DA40F26A
:100BA000DC50E8494882E748808AB0F5AF6F08DD3D
:100BB000E448808AB0F5C86F03DA40F2DC50E149BE
:100BC0008882E048C08AB0F5AF6F08DDDD48C08A92
:100BD000B0F5C86F03DA40F2DC50DA49C882D94870
:100BE000008A48B9D748408A30B9D648808A18B9AF
:100BF000D448C08A00287CD0D2494989A1F57A70AE
:100C00000BF06FFBB0F5C87F74DDCE49498AA1F2C5
:100C1000DC500BF0F7FC41EC1A0B9FEDCB0B53ECC7
:100C2000102B0BF097FB41EC190B9FEDC90B53EC0C
:100C3000102B0BF0FFFC41EC180B0BF059FBC049DB
:100C40004860C049098A40F2DC52501A0BF0DAFCC5
:100C500041EC1A0B9FEDBC0B53EC102B0BF07AFB05
:100C600041EC190B9FEDBA0B53EC102B0BF0E2FC8F
:100C700041EC180B0BF03CFBB1490860B149898A83
:100C8000A1F2DC500BF0BEFC41EC1A0B9FEDAE0B59
:100C900053EC102B0BF05EFB41EC190B9FEDAE0BF0
:100CA00053EC102B0BF0C6FC41EC180B0BF020FBA7
:100CB000A3494861A349C98AA1F2DC500BF0A2FC08
:100CC00041EC1A0B9FEDA00B53EC102B0BF042FBE9
:100CD00041EC190B9FEDA00B53EC102B0BF0AAFC71
:100CE00041EC180B0BF004FB954988619549498943
:100CF00001E042E10AE1A1F2DC500BF0F2FA322805
:100D00006DDA02208E4981F8200003F03DFE8D4906
:100D10000989A1F57A700BF0E4FA322833DA012060
:100D2000874981F82100002081F82200012081F804
:100D30002500002081F826008249C989A1F57A7032
:100D40000BF0CFFA322804DA00207D4981F8270021
:100D50000BE17C49C989A1F5FA600BF0C2FA32288F
:100D6000F6DA9FED720A05F077FF75491031081F1A
:100D700005F08EFF7248143006F00CF8012070491F
:100D800081F82700F1E06F490989A1F5FA600BF0BD
:100D9000A8FA3228DCDA6B49C989A1F57A700BF020
:100DA000A0FA322804DA0120654981F8210011E017
:100DB0006449C989A1F5FA600BF093FA322809DA7F
:100DC00002205F4981F82100042081F822000120DF
:100DD00081F8260000205A4981F82500C5E05949CC
:100DE0004989A1F5FA600BF07CFA3228B0DA03F0F9
:100DF000B1FD0120524981F8200052490989A1F52D
:100E0000FA600BF06EFA32280CDA06204C4981F8B1
:100E100021001031081F05F03BFF4948143005F050
:100E2000B9FF0BE047490989A1F57A700BF059FA2F
:100E3000322803DA0220424981F82100404890F824
:100E4000210006281DD13F49C989A1F57A700BF010
:100E500048FA322806DA03F0CBFD0220384981F83F
:100E600022001BE03749C989A1F5FA600BF039FA75
:100E7000322813DA03F0A2FD0320314981F8220061
:100E80000CE02F4890F82100012807D12C4981F867
:100E90002200002081F8230081F82400284890F8DF
:100EA0002200032804D0264890F8220002285CD1B2
:100EB00024498989A1F57A700BF013FA322806DAF1
:100EC00000201F4981F8230081F824004DE01D49CE
:100ED0008989A1F2DC500BF004FA322807DA0120EC
:100EE000174981F82300002081F824003DE01549CE
:100EF0008989A1F5FA600BF0F4F9322835DA01207E
:100F00000F4981F8230081F824002EE000200C49CD
:100F100081F8200081F8210081F8220081F8230067
:100F200081F82400012081F8250019E0000000006C
:100F3000D0010020D4010020D8010020DC010020D5
:100F4000105A0020685800200000000000407F4038
:100F50000000000000000840000000000000004009
:100F6000002081F8260081F8270000231A460C494A
:100F70000C4800680AF0E4F90EE020216846FFF70B
:100F8000F8FA202208496846FFF7B9FA2022694694
:100F90000348FFF7B4FA00BF012008F060FEE6E561
:100FA000105A00208C01002058CA000810B50022F9
:100FB0001146044804F0B7FC05F0D6FC024807F0DF
:100FC00089FF10BDC4030020D917000800BFFEE749
:100FD00010B5024800F039FE10BD00002C020020C0
:100FE00010B50446A06800283AD12068A0F201207C
:100FF000082834D2DFE800F0040A1133181E252C2B
:1010000004F11C01174806F0B2F828E004F11C01B5
:1010100014482C3006F0ABF821E004F11C01114813
:10102000583006F0A4F81AE004F11C010E4806F04E
:101030009EF814E004F11C010B482C3006F097F8E0
:101040000DE004F11C010848583006F090F806E065
:1010500004F11C010448843006F089F800BF00BF89
:1010600010BD0000D05B0020A85E00201FB500BFAF
:101070004FF0FF3269460B4800680AF0B3FA0128C6
:10108000F6D100BF084800F0C5FDC4B2002CF9D06D
:101090009DF80C30029881B26A46034808F09AFD28
:1010A000E6E70000780100202C02002010B502487D
:1010B00000F0CBFD10BD00002C02002010B502484E
:1010C00000F0C3FD10BD00005402002010B504461E
:1010D000A06804280DD12146064807F055F821469E
:1010E0000448383007F050F821460248703007F0C5
:1010F0004BF810BD585F00201FB500BF4FF0FF3206
:1011000069460B4800680AF06DFA0128F6D100BF65
:1011100000BF084800F07EFDC4B2002CF9D09DF855
:101120000C306A460348029908F036FDE6E70000F5
:101130007C0100205402002010B5024800F085FD1B
:1011400010BD000054020020F0B58BB007460C46DD
:1011500015461E4604F0020080B1E8040190E80044
:1011600004F0030140EA41000290F0040390F00013
:1011700004F0030140EA4100049009E06801019095
:10118000A007400F029070010390A007400F049049
:10119000E0100690C4F38000059001200990002023
:1011A0000790012008900E200A9001A9384600F00F
:1011B000E1FB08B100F00AFB0BB0F0BD70B50446CE
:1011C0000D46204601F041F808B100F0FFFA012178
:1011D000204600F00FFB08B100F0F8FA022120468B
:1011E00000F008FB08B100F0F1FA1021204600F0F1
:1011F00001FB08B100F0EAFA08492068884203D1EF
:1012000007480560002070BD06492068884203D168
:10121000054805600020F6E70120F4E7006400407F
:10122000B000002000680040B40000202DED048BC9
:101230008EB000BF0122B849B84800680AF0D2F960
:10124000012876D1B44890F8210001280BD114224E
:10125000B1490C316846FFF752F9AF480EC8B048A3
:1012600006F030FAC4E0AC4890F8210005280ED111
:10127000202106A8FFF77DF9142209A96846FFF787
:101280003EF9A74806A90EC906F01CFAB0E0A2482C
:1012900090F8210002284DD19F4890ED000A10EEF1
:1012A000101A08460BF0C4FA41EC190B9FED9D0B88
:1012B00053EC102B0BF0BEF941EC180B0BF018F8A7
:1012C00095490860084690ED010A10EE101A08468C
:1012D0000BF0AEFA41EC190B9FED920B53EC102B77
:1012E0000BF0A8F941EC180B0BF002F88A494860A2
:1012F000084690ED050A10EE101A08460BF098FA11
:1013000041EC190B9FED870B53EC102B0BF092F96E
:1013100041EC180B0AF0ECFF7F49486114220C31B4
:101320006846FFF7ECF87C480EC87D4806F0CAF91D
:101330005EE0EDE0784890F8210070B9202106A821
:10134000FFF717F9142209A96846FFF7D8F874487F
:1013500006A90EC906F0B6F94AE06F4890F82100D8
:10136000062836D16C4890ED000A10EE101A084697
:101370000BF05EFA41EC190B9FED6A0B53EC102B4E
:101380000BF058F941EC180B0AF0B2FF6249086003
:10139000084690ED010A10EE101A08460BF048FAC4
:1013A00041EC190B9FED5F0B53EC102B0BF042F946
:1013B00041EC180B0AF09CFF5749486014220C318D
:1013C0006846FFF79CF854480EC8554806F07AF96D
:1013D0000EE0202106A8FFF7CCF8142209A96846E0
:1013E000FFF78DF84E4806A90EC906F06BF900BF4D
:1013F000494890F82200022805D19FED4C0A4C483C
:1014000007F028FA37E0444890F82200032806D174
:10141000484890ED000A464807F01CFA2BE03E4889
:1014200090F82200042805D19FED430A404807F0B8
:1014300011FA20E0384890F8220028B99FED3B0AC5
:101440003B4807F007FA16E0334890F822000128DD
:101450000CD13748083090ED050A384880ED000A75
:1014600090ED000A324807F031F804E09FED2F0AB2
:101470002F4807F0EFF9284890F8230038B99FED7E
:101480002B0A002211462A4807F092F819E0224858
:1014900090F82300012814D11F4890F8240040B987
:1014A000274890ED000A01220021214807F080F82A
:1014B00007E0234890ED000A012211461C4807F07E
:1014C00077F8154890F82500012800D000BF124891
:1014D00090F82700012808D11A490870002301223A
:1014E0001948006809F02CFF0CE00B4890F8270021
:1014F00040B90020134908700023012212480068F7
:1015000009F01EFF064805F0A9FE094807F0E2FAB7
:10151000012008F0A4FB8DE69C6400208C010020D3
:10152000785B0020333333333333D33F0000000084
:10153000A05E00200402002000402F44F40100209F
:10154000F8010020140200209C01002010B5024880
:1015500000F01CFF10BD0000A007002010B50248DD
:1015600000F014FF10BD00006005002010B5024817
:1015700000F00CFF10BD00000008002010B502486C
:1015800000F004FF10BD0000C005002010B50248A7
:1015900000F0FCFE10BD0000E006002010B502487F
:1015A00000F0F4FE10BD00004007002010B5024816
:1015B00000F0ECFE10BD00006008002010B50248ED
:1015C00000F0E4FE10BD00008006002010B50248C7
:1015D00000F0DCFE10BD0000D402002010B502486F
:1015E00000F0D4FE10BD0000C008002010B5024875
:1015F00000F0CCFE10BD0000200600200146087857
:1016000010381823B0FBF3F20848805CC865032A41
:1016100005D908686FF30900001D886503E00868B4
:101620006FF309008865886D7047000024CA0008C0
:10163000014600208A6A8B69CBB932B1012A0DD0EC
:10164000022A03D0032A10D10EE000BFCB6A03F0B8
:101650008073B3F1807F00D1012007E0CB6AB3F142
:10166000C07F00D1012001E000E000BF34E08B69C1
:10167000B3F5005F1AD132B1012A07D0022A03D094
:10168000032A11D10AE000BF01200EE0CB6A03F06B
:101690008073B3F1807F00D1012006E0CB6AB3F103
:1016A000C07F00D1012000E000BF15E032B1012A67
:1016B00005D0022A04D0032A0CD103E000BF00BFEA
:1016C000012008E0CB6A03F08073B3F1807F00D182
:1016D000012000E000BF00BF704730B504682468F7
:1016E00024F4802405682C60046863608468402CBE
:1016F00004D10468A2600468E16003E00468A160AA
:101700000468E26030BD000010B5002210210820FE
:1017100009F02CFD2049086000221021082009F062
:1017200025FD1E49086000220C21042009F01EFD41
:101730001B49086000220C21042009F017FD1949FB
:10174000086000222021042009F010FD16490860DD
:1017500000222C21042009F009FD14490860002210
:101760000421022009F002FD114908600022012134
:10177000084609F0FBFC0F49086000220F210120F8
:1017800009F0F4FC0C49086000220F21012009F047
:10179000EDFC0A49086010BD780100207C010020A2
:1017A0008001002084010020880100208C0100209D
:1017B000900100209C01002094010020980100204D
:1017C000704710B5802000F0DFFF10BD72B600BF7B
:1017D000FEE700BFFEE70000044800680068406ABA
:1017E00003490968C1EB014108447047BC0000206F
:1017F000B800002010B5024692F82030012B01D02D
:10180000022B06D11068406908431468606100200B
:1018100010BD506A40F4802050620120F8E7F0B516
:1018200004460D461E4694F8207020688368A86818
:1018300000B900E000BF012F01D0022F7CD103F0DE
:10184000806030B903F0006018B903F080500028C0
:1018500073D0C3F30161022905D9606A40F4000026
:1018600060620120F0BD012088403060A86860B946
:10187000B5F800C0E86840EA4C5C206800F5C0702C
:1018800000EB0110C0F800C00FE0D5E901C040EA4C
:10189000CC00D5F80CC040EA0C00D4F800C00CF520
:1018A000C07C0CEB011CCCF80000D5F810C02068FF
:1018B00000F5C07000EB0110C0F804C0287D0128BD
:1018C0000ED1206800F5C07000EB0110406840F4B4
:1018D000807C206800F5C07000EB0110C0F804C0E7
:1018E000D079000692F806C040EA0C4092F805C094
:1018F00040EA0C2C10794CEA000C206800F5C0700E
:1019000000EB0110C0F80CC0D078000692F802C0BD
:1019100040EA0C4092F801C040EA0C2092F800C066
:1019200040EA0C00D4F800C00CF5C07C0CEB011CA4
:10193000CCF80800206801E016E00FE000F5C07068
:1019400000EB0110006840F0010C206800F5C07049
:1019500000EB0110C0F800C0002083E7606A40F48B
:101960000010606201207DE7606A40F480206062C0
:10197000012077E7F0B504460A46216894F8205024
:10198000012D01D0022D7ED1424901F50071086878
:1019900040F001000860086820F47C500860086886
:1019A000566A40EA06200860107D00F01F060120FC
:1019B00000FA06F3C8699843C861A1F50071D069BF
:1019C000C8B9D1F80C029843C1F80C02908880B2D3
:1019D000968940EA064601F51070576940F837606D
:1019E000108880B2168940EA064601F510705769E2
:1019F00000EBC7004660D069012819D1D1F80C026C
:101A00001843C1F80C02908880B2168840EA064656
:101A100001F51070576940F83760908980B21689D7
:101A200040EA064601F51070576900EBC7004660B2
:101A3000906928B9D1F804029843C1F8040204E07F
:101A4000D1F804021843C1F80402106928B9D1F88A
:101A500014029843C1F8140204E0D1F814021843A8
:101A6000C1F81402106A012804D1D1F81C021843ED
:101A7000C1F81C02D1F8000220F00100C1F80002F8
:101A80000020F0BDFFE7606A40F480206062012022
:101A9000F7E7000000640040704770B5044694F812
:101AA0002050012D01D0022D7DD151B92068C06890
:101AB00000F0030080B9606A40F400106062012009
:101AC00070BD2068006900F0030028B9606A40F426
:101AD000001060620120F3E7206800F5D87000EB89
:101AE0000110006800F004009060906840B9206820
:101AF00000F5D87000EB01100068400D106007E0A1
:101B0000206800F5D87000EB01100068C008506034
:101B1000206800F5D87000EB0110006800F00200AA
:101B2000D060206800F5D87000EB0110406800F02C
:101B30000F001061206800F5D87000EB01104068BC
:101B400000F47F40000A9061206800F5D87000EB37
:101B500001104068000C5061206800F5D87000EB5F
:101B6000011080681870206800F5D87000EB011033
:101B7000806800F47F40000A5870206800F5D87033
:101B800000EB0110806800F47F00000C9870206862
:101B900000F5D87000EB01108068000ED870206846
:101BA00000F5D87000E02FE000EB0110C06818715C
:101BB000206800F5D87000EB0110C06800F47F4089
:101BC000000A5871206800F5D87000EB0110C06859
:101BD00000F47F00000C9871206800F5D87000EBCD
:101BE0000110C068000ED87131B92068C06840F09B
:101BF00020002668F06005E02068006940F02000C1
:101C00002668306100205BE7606A40F480206062F3
:101C1000012055E70146002091F82020012A01D03B
:101C2000022A11D10B689B6803F0806303B1401C4A
:101C30000B689B6803F0006303B1401C0B689B6852
:101C400003F0805303B1401C70472DE9F05F044658
:101C50000025206846692068D0F8049020688768CD
:101C60002068D0F80CA02068D0F810B02068D0F818
:101C7000188006F00100002855D007F00100C0B11F
:101C800001202168886007F0020018B1204600F0AA
:101C90000CFB0EE007F0040010B145F4006508E00D
:101CA00007F0080010B145F4805502E0204600F02E
:101CB000FBFA07F48070C8B14FF480702168886027
:101CC00007F4007018B1204600F0F1FA0EE007F4B6
:101CD000806010B145F4005508E007F4006010B1D1
:101CE00045F4804502E0204600F0E0FA07F4803039
:101CF000C8B14FF480302168886007F4003018B113
:101D0000204600F0D6FA0EE007F4802010B145F42A
:101D1000004508E007F4002010B145F4803502E0EA
:101D2000204600F0C5FA06F0080038B10AF01000AD
:101D300020B145F4007510202168C86006F0040049
:101D400040B10AF0080028B108202168C860204688
:101D500000F01EFA06F0020038B12068C06800F0FA
:101D6000030010B1204600F015FA06F0400038B12B
:101D70000BF0100020B145F4806510202168086147
:101D800006F0200040B10BF0080028B108202168BF
:101D90000861204600F02AFA06F0100038B12068E9
:101DA000006900F0030010B1204600F021FA06F4AB
:101DB000003040B109F0100028B1102021684860BF
:101DC000204600F041FA06F4803040B109F00800E6
:101DD00028B1082021684860204600F06BFA06F41C
:101DE000004088B309F0040078B306F4807020B195
:101DF00008F0010008B145F0010506F4007020B1BB
:101E000008F0020008B145F0020506F4806020B138
:101E100008F0040008B145F0040506F40060A0B124
:101E200008F0700088B108F07000402817D006DC78
:101E300010280BD020280CD0302819D10CE05028C5
:101E400010D0602814D110E01DE019E045F008051D
:101E50000FE045F010050CE045F0200509E045F0E5
:101E6000400506E045F0800503E045F4807500E09C
:101E700000BF00BF2068806920F070002168886181
:101E80000420216848602DB1606A284360622046C2
:101E9000FFF702FEBDE8F09F70B504460CB90120C3
:101EA00070BD94F8200010B9204600F0AFF820680B
:101EB000006840F001002168086000F073FD0546ED
:101EC0000DE000F06FFD401B0A2808D9606A40F45D
:101ED00000306062052084F820000120E0E72068DF
:101EE000406800F001000028EBD02068006820F076
:101EF00002002168086000F055FD05460DE000F085
:101F000051FD401B0A2808D9606A40F40030606225
:101F1000052084F820000120C2E72068406800F016
:101F200002000028EBD1207E012806D1206800683D
:101F300040F080002168086005E02068006820F01B
:101F4000800021680860607E012806D12068006852
:101F500040F040002168086005E02068006820F03B
:101F6000400021680860A07E012806D12068006832
:101F700040F020002168086005E02068006820F03B
:101F8000200021680860E07E012806D120680068F2
:101F900020F010002168086005E02068006840F02B
:101FA000100021680860207F012806D120680068A1
:101FB00040F008002168086005E02068006820F013
:101FC000080021680860607F012806D12068006849
:101FD00040F004002168086005E02068006820F0F7
:101FE000040021680860D4E902010843216908431C
:101FF000616908436168491E08432168C86100207F
:102000006062012084F82000002049E710B586B006
:102010000446142101A8FEF7ACFA5749206888420B
:1020200049D156480068401C544908600846006879
:1020300001280FD100BF002000905148006840F0F7
:1020400000704F4908600846006800F0007000907A
:1020500000BF00BF00BF0020009049481038006852
:1020600040F008004649103908600846006800F052
:102070000800009000BF00BF0320019002200290E2
:1020800000200390032004900920059001A93D48F9
:1020900000F088FB00220521132000F047FD1320EB
:1020A00000F034FD00220521142000F03FFD142033
:1020B00000F02CFD5DE034492068884259D100BF12
:1020C000002000902E48006840F080602C49086095
:1020D0000846006800F08060009000BF00BF2748FD
:1020E0000068401C254908600846006801280FD197
:1020F00000BF002000902248006840F00070204996
:1021000008600846006800F00070009000BF00BF43
:1021100000BF002000901A481038006840F002000C
:102120001749103908600846006800F00200009066
:1021300000BF00BF4FF440500190022002900020E9
:102140000390032004900920059001A90F4800F096
:1021500029FB002205213F2000F0E8FC3F2000F091
:10216000D5FC00220521402000F0E0FC402000F0DA
:10217000CDFC06B010BD0000006400401C00002033
:1021800040380240000C0240006800400004024059
:102190007047000010B504460F4884420BD10F4B26
:1021A000A3F11C0200212046FFF777FC0B481C38E6
:1021B0000B49096888470B4884420BD1074BA3F1B0
:1021C0001C0200212046FFF768FC04481C38064921
:1021D0000968884710BD00002C02002078520020BA
:1021E000B000002054020020B4000020704700001E
:1021F00010B504460F4884420BD10F4BA3F11C02CB
:1022000001212046FFF749FC0B481C380B4909689F
:1022100088470B4884420BD1074BA3F11C020121D4
:102220002046FFF73AFC04481C38064909688847ED
:1022300010BD00002C0200209C520020B0000020A5
:1022400054020020B4000020704770B5044694F892
:102250002000012822D1022084F820002068006894
:1022600020F001002168086000F09CFB05460DE0AD
:1022700000F098FB401B0A2808D9606A40F400303F
:102280006062052084F82000012070BD206840684D
:1022900000F001000028EBD16062F6E7606A40F4CC
:1022A000002060620120F0E7704770477047704778
:1022B00070477047704770B50446A56D00F072FB1B
:1022C000064694F83500022808D08020606500BFDB
:1022D000002084F8340000BF012070BD2068006831
:1022E00020F01600216808602068406920F0800016
:1022F00021684861206C08B9A06C28B1206800688A
:1023000020F00800216808602068006820F00100C3
:102310002168086010E000F045FB801B05280BD900
:1023200020206065032084F8350000BF002084F879
:10233000340000BF0320D0E72068006800F00100EF
:102340000028E8D194F85C103F208840A860012064
:1023500084F8350000BF002084F8340000BF00BFBF
:10236000BBE7014691F83500022803D0802048657C
:1023700001207047052081F835000868006820F0CA
:1023800001000A6810600020F3E70000F8B5044679
:10239000002000908C4800684FF41651B0FBF1F714
:1023A000A56D2E6894F85C1008208840304098B1E4
:1023B0002068006800F0040070B12068006820F018
:1023C00004002168086094F85C1008208840A86028
:1023D000606D40F00100606594F85C100120884059
:1023E000304068B12068406900F0800040B194F846
:1023F0005C1001208840A860606D40F002006065BC
:1024000094F85C1004208840304068B1206800686F
:1024100000F0020040B194F85C1004208840A860ED
:10242000606D40F00400606594F85C1010208840F6
:10243000304078B32068006800F0080050B394F88A
:102440005C1010208840A8602068006800F480209C
:1024500080B12068006800F4002028B9206CC8B161
:102460002046216C884715E0A06C98B12046A16CED
:1024700088470FE02068006800F4807028B9206861
:10248000006820F0080021680860206C10B1204628
:10249000216C884794F85C10202088403040002848
:1024A00065D02068006800F0100000285FD094F824
:1024B0005C1020208840A86094F83500052828D1B9
:1024C0002068006820F016002168086020684069D4
:1024D00020F0800021684861206C08B9A06C28B108
:1024E0002068006820F008002168086094F85C10FB
:1024F0003F208840A860012084F8350000BF0020FC
:1025000084F8340000BF206D10B12046216D88474B
:10251000F8BD2068006800F4802080B12068006861
:1025200000F4002028B9606C10B12046616C884727
:102530001DE0E06BD8B12046E16B884717E02068CA
:10254000006800F4807068B92068006820F010000E
:1025500021680860012084F8350000BF002084F85D
:10256000340000BFE06B10B12046E16B8847606D1E
:1025700038B3606D00F00100F0B1052084F835003B
:102580002068006820F001002168086000BF009802
:10259000401C0090B84200D905E02068006800F0B7
:1025A00001000028F3D100BF012084F8350000BFEE
:1025B000002084F8340000BFE06C10B12046E16CCC
:1025C000884700BFA4E700002C0000202DE9F0415F
:1025D0000446002500F0E6F9074614B90120BDE8DD
:1025E000F081606A00B100BF022084F8350000BFAE
:1025F000002084F8340000BF2068006820F001004B
:10260000216808600AE000F0CDF9C01B052805D953
:1026100020206065032084F83500E0E7206800682A
:1026200000F001000028EED120680568214805402F
:10263000D4E901010843E16808432169084361695D
:102640000843A1690843E1690843216A0843054337
:10265000606A042803D1D4E90B01084305432068CC
:1026600005602068456925F00705606A0543606AD2
:1026700004280DD1A06A0543E06A48B12046FEF760
:10268000D7FF28B140206065012084F83500A6E717
:10269000206845612046FEF7B1FF064694F85C10BD
:1026A0003F208840B06000206065012084F835003C
:1026B000002094E73F8010F02DE9F04704460D46D6
:1026C00016461F464FF00008D4F8589000BF94F803
:1026D0003400012802D10220BDE8F087012084F8EF
:1026E000340000BF94F83500012825D1022084F879
:1026F0003500002060653B46324629462046FEF7FD
:10270000ECFF94F85C103F208840C9F8080020686E
:10271000006840F0160021680860206C28B120682D
:10272000006840F00800216808602068006840F0F8
:1027300001002168086006E000BF002084F8340032
:1027400000BF4FF002084046C6E7000070B50446DF
:1027500000F028F906462546681C10B104480078A8
:10276000054400BF00F01EF9801BA842FAD370BDDB
:102770002800002010B5044680222146014805F0BB
:1027800041FE10BD6858002010B50446044800689A
:10279000204020B1024804602046FFF7EBFF10BD47
:1027A000143C0140F8B502460B46002500240020E9
:1027B0000021D6E0012606FA01F51E6806EA0504A6
:1027C000AC4274D11E7906F00306012E04D01E79A6
:1027D00006F00306022E13D190684F000326BE4078
:1027E000B0434F00DE68BE40304390605068012621
:1027F0008E40B0431E79C6F300168E4030435060C1
:102800001E7906F00306032E09D0D0684F00032678
:10281000BE40B0434F009E68BE403043D0601E793A
:1028200006F00306022E13D1CF0802F1200656F857
:1028300027004E07F70E0F26BE40B0434F07FF0E8E
:102840001E69BE403043CF0802F1200646F827003B
:1028500010684F000326BE40B0431E7906F0030601
:102860004F00BE40304310605E6806F44036002ED4
:1028700076D000BF002600963C4E366846F480466F
:102880003A4F3E603E46366806F48046009600BFEA
:1028900000BF374E8F0856F827008E07370F0F26D8
:1028A000BE40B043334EB24202D1002624E057E08E
:1028B000314EB24201D101261EE0304EB24201D16A
:1028C000022619E02E4EB24201D1032614E02D4E0D
:1028D000B24201D104260FE02B4EB24201D10526AF
:1028E0000AE02A4EB24201D1062605E0284EB24245
:1028F00001D1072600E008268F073F0FBE40304376
:102900001B4E8F0846F82700224E3068A0435E68B1
:1029100006F4801606B120431E4E3060361D306826
:10292000A0435E6806F4001606B12043194E361D1A
:102930003060184E361F3068A0435E6806F40036DB
:1029400006B12043134E361F3060361F3068A04357
:102950005E6806F4803606B120430E4E083E3060B5
:10296000491C1029FFF426AFF8BD0000443802408E
:102970000838014000000240000402400008024004
:10298000000C0240001002400014024000180240F7
:10299000001C0240083C01400AB1816101E00B04C7
:1029A00083617047014800687047000020000020E4
:1029B00003480068034909780844014908607047E2
:1029C000200000202800002010B50D48006840F4C9
:1029D00000700B4908600846006840F48060086099
:1029E0000846006840F480700860032000F0DCF8BE
:1029F0000F2000F007F800F05FF8002010BD000085
:102A0000003C02402DE9F04188B004460027B8465A
:102A100000BF002001902348006840F002002149D7
:102A200008600846006800F00200019000BF00BF87
:102A300002A903A800F08EF9069F1FB900F0B2F9B1
:102A4000054602E000F0AEF945001748B5FBF0F08E
:102A5000A0F1010815481649086040F2E731144812
:102A6000C160C0F80480002101618160816100F0D3
:102A700027FE064696B90E4800F0B2FE06466EB92D
:102A80001D2000F043F8102C07D2002221461D2003
:102A900000F04CF80748046000E00126304608B01A
:102AA000BDE8F0814038024040420F000004004081
:102AB000200900202400002008B500BF002000905D
:102AC0001148006840F480400F49086008460068DB
:102AD00000F48040009000BF00BF00BF00200090C5
:102AE000081F006840F08050091F08600846006811
:102AF00000F08050009000BF00BF00220F21901E08
:102B000000F014F808BD00004438024001460846B1
:102B1000002809DB00F01F0301229A4043099B00B3
:102B200003F1E023C3F8002100BF70472DE9F05FF7
:102B300080460D461646002706F082FA07463946BB
:102B40002A46334601F00700C0F1070ABAF1040F24
:102B500002D94FF0040A01E0C0F1070AD14600F1A2
:102B6000040ABAF1070F02D24FF0000A01E0A0F107
:102B7000030AD4464FF0010A0AFA09FAAAF1010A37
:102B80000AEA020A0AFA0CFA4FF0010B0BFA0CFBE4
:102B9000ABF1010B0BEA030B4AEA0B04214640465A
:102BA00006F056FABDE8F09F00BF00F00702064BA2
:102BB00019684FF6FF031940044B0B4343EA022107
:102BC000014B196000BF70470CED00E00000FA05F2
:102BD00070B504460D460CB9012070BD5848006818
:102BE00000F00700A84209D255490D700846006858
:102BF00000F00700A84201D00120EEE7207800F0A5
:102C0000020002281DD1207800F00400042805D11C
:102C10004C48006840F4E0504A490860207800F0D1
:102C20000800082805D14748006840F4604045493D
:102C300008604448006820F0F000A168084341495A
:102C40000860207800F00100A8B36068012807D16F
:102C50003C4808380068C0F34040B8B90120BCE7E0
:102C60006068022802D06068032807D13548083818
:102C70000068C0F3406048B90120AEE73148083829
:102C80000068C0F3400008B90120A6E72D4800689D
:102C900020F00300616808432A490860FFF782FEBC
:102CA000064609E0FFF77EFE801B41F2883188422C
:102CB00002D9032091E707E02248006800F00C00E9
:102CC0006168B0EB810FEDD11D48006800F007008E
:102CD000A84209D91A490D700846006800F007009B
:102CE000A84201D0012078E7207800F004000428F1
:102CF00007D11448006820F4E050E1680843114906
:102D00000860207800F00800082808D10D48006805
:102D100020F46040216940EAC1000A49086000F0DF
:102D200061F808490968C1F30311074A515CC840BA
:102D30000649086006480068FFF764FE00204CE77B
:102D4000003C0240083802402CCA00082C00002039
:102D5000240000200F2202600D4A126802F00302D4
:102D600042600B4A126802F0F0028260084A126860
:102D700002F4E052C260064A126802F46042D208CD
:102D80000261044A126802F007020A6070470000FC
:102D900008380240003C02400148006870470000CB
:102DA0002C00002000B5FFF7F7FF04490968C1F3C4
:102DB0008221034A515CC84000BD0000083802402F
:102DC0003CCA000800B5FFF7E7FF04490968C1F3F2
:102DD0004231034A515CC84000BD0000083802403F
:102DE0003CCA00082DE9F047002400250026A14632
:102DF0002548006800F00C0020B1042805D0082800
:102E00003AD105E0DFF8849039E0DFF8849036E0CD
:102E10001D48001F006800F03F041B48001F0068A9
:102E200000F4800078B11A481749091F0968C1F3F6
:102E30008811A0FB01700146224600233846FDF7A9
:102E40008BFA05460EE011480F49091F0968C1F3C6
:102E50008811A0FB01700146224600233846FDF789
:102E60007BFA05460848001F0068C0F30140401C7B
:102E70004600B5FBF6F902E0DFF8109000BF00BF96
:102E80004846BDE8F0870000083802400024F400FE
:102E900000127A00F8B504460CB90120F8BD20787C
:102EA00000F00100002874D0F948006800F00C0020
:102EB00004280DD0F648006800F00C00082813D153
:102EC000F348001F006800F48000B0F5800F0BD1BC
:102ED000EF4808380068C0F34040002859D06068C7
:102EE000002856D10120D9E700BF6068B0F5803FC7
:102EF00008D1E7480838006840F48030E4490839D0
:102F000008601EE06068B0F5A02F0DD1E0480838D9
:102F1000006840F48020DE490839086008460068EF
:102F200040F4803008600CE0D9480838006820F48C
:102F30008030D749083908600846006820F48020AE
:102F4000086000BF606890B1FFF72CFD054606E001
:102F5000FFF728FD401B642801D903209EE7CC48D9
:102F600008380068C0F340400028F1D011E0FFF7B6
:102F700019FD054606E0FFF715FD401B642801D941
:102F800003208BE7C24808380068C0F3404000289F
:102F9000F1D1207800F0020002285FD1BC4800681F
:102FA00000F00C0058B1BA48006800F00C00082886
:102FB0001CD1B748001F006800F48000B0B9B448C5
:102FC00008380068C0F3400020B1E068012801D053
:102FD000012063E7AE480838006820F0F800216956
:102FE00040EAC100AA490839086037E0E06800B348
:102FF0000120A8490860FFF7D5FC054606E0FFF769
:10300000D1FC401B022801D9032047E7A04808381B
:103010000068C0F340000028F1D09D4808380068DF
:1030200020F0F800216940EAC10099490839086098
:1030300014E0002097490860FFF7B4FC054606E05D
:10304000FFF7B0FC401B022801D9032026E7904877
:1030500008380068C0F340000028F1D1207800F063
:10306000080008282CD16069A8B101208A490860AD
:10307000FFF798FC054606E0FFF794FC401B02288A
:1030800001D903200AE782486C300068C0F3400091
:103090000028F1D014E000207F490860FFF782FC8F
:1030A000054606E0FFF77EFC401B022801D90320FD
:1030B000F4E677486C300068C0F340000028F1D196
:1030C000207800F00400042870D1002770483830C0
:1030D000006800F0805090B900BF002000906C485C
:1030E0003830006840F0805069493831086008463F
:1030F000006800F08050009000BF00BF01276748C3
:10310000006800F48070B0B96448006840F48070D2
:1031100062490860FFF746FC054606E0FFF742FCFF
:10312000401B022801D90320B8E65C48006800F47F
:1031300080700028F2D000BFA068012808D1544850
:103140006830006840F001005149683108601DE0B6
:10315000A06805280DD14E486830006840F0040092
:103160004B49683108600846006840F0010008607B
:103170000CE047486830006820F00100444968319D
:1031800008600846006820F00400086000BFA068DE
:10319000A8B1FFF707FC054609E0FFF703FC401B59
:1031A00041F28831884202D9032077E626E0384888
:1031B00068300068C0F340000028EED013E0FFF74D
:1031C000F1FB054608E0FFF7EDFB401B41F28831BB
:1031D000884201D9032061E62D4868300068C0F3B9
:1031E00040000028EFD1012F07D12948383000686E
:1031F00020F0805026493831086000BFA0690028BF
:1032000045D02348006800F00C0008285DD0A06974
:10321000022845D100201F490866FFF7C3FB054679
:1032200006E0FFF7BFFB401B022801D9032035E66B
:10323000174808380068C0F340600028F1D1D4E98D
:1032400007010843616A40EA81110122A06AC2EBCA
:10325000500041EA00412C20005D41EA00600C4929
:10326000091F086001200B490866FFF79BFB054614
:1032700006E0FFF797FB401B022801D903200DE66B
:10328000034808380068C0F340600028F1D049E0E6
:103290000838024000004742800E4742007000405C
:1032A000002021490866FFF77DFB054606E0FFF791
:1032B00079FB401B022801D90320EFE51B48006879
:1032C000C0F340600028F2D12CE0A069012800D1B1
:1032D000E4E51648001D0668A069012820D006F420
:1032E0008001E06981421BD106F03F01206A8142E2
:1032F00016D147F6C0703040616AB0EB811F0FD124
:1033000006F440310122A06AC2EB5000B1EB004F3D
:1033100006D106F070612C20005DB1EB006F01D08A
:103320000120BBE50020B9E500004742003802401B
:103330007047014691F85100704710B504460CB92A
:10334000012010BD606A38B96068B0F5827F00D195
:1033500005E00021E16102E0002121616161A06AD4
:10336000B0F5005F00D100BF94F8510028B90020EB
:1033700084F85000204600F04FF8022084F85100F5
:103380002068006820F0400021680860A08800F4F0
:103390008270218901F404410843A18901F400618C
:1033A0000843217C01F002010843217D01F0010165
:1033B0000843218B01F400710843217F01F038019B
:1033C00008432021095D01F080010843218D01F4AB
:1033D00000510843216808600421A06901EA1040F7
:1033E00094F8241001F01001084321684860A06A95
:1033F000B0F5005F03D1A08D80B22168086120681C
:10340000C06920F400602168C86100206065012067
:1034100084F85100002094E710B586B004461421CA
:1034200001A8FDF7A6F82A49206888424DD100BFBF
:10343000002000902748006840F48050254908602B
:103440000846006800F48050009000BF00BF00BF35
:10345000002000901F481438006840F001001D490A
:10346000143908600846006800F00100009000BFB1
:1034700000BFE02001900220029000200390032072
:1034800004900520059001A91348FFF78BF9134814
:10349000134908604FF0C0604860402110488160C7
:1034A0000021C1604FF480610161002141618161AF
:1034B000C16101624162FFF789F808B1FEF786F940
:1034C00000BF0748A064846300BF06B010BD0000C1
:1034D000003001404438024000000240586402407D
:1034E000D40200202DE9F04104460E46154600277F
:1034F00000BF94F85000012802D10220BDE8F081FD
:10350000012084F8500000BF94F85100012801D038
:1035100002276AE006B10DB9012766E0032084F8AE
:103520005100002060652663A586E586A06360647F
:103530002064A087E087A068B0F5004F0BD1206819
:10354000006820F04000216808602068006840F4AE
:10355000804021680860A06AB0F5005F0DD100BF0F
:103560002068006820F40050216808602068006826
:1035700040F400502168086000BF1F48A16C086437
:103580001E48A16CC8631E48A16CC8640020A16CD1
:103590000865E38ED4F800C00CF10C02216BA06C1E
:1035A000FFF78AF840B1606D40F0100060650127B8
:1035B000012084F8510018E02068006800F0400005
:1035C000402805D02068006840F04000216808606D
:1035D0002068406840F0200021684860206840680A
:1035E00040F002002168486000BF00BF002084F85E
:1035F000500000BF384681E7515700085F57000868
:1036000029570008704770477047704730B5024629
:103610000B4600BF92F83C00012801D1022030BDCA
:10362000012082F83C0000BF022082F83D001068B3
:1036300044681068816824F07004186804431068B6
:103640004460184D1068A8421BD01068B0F1804F3C
:1036500017D0154D1068A84213D0144D1068A84219
:103660000FD0134D1068A8420BD0124D1068A8421D
:1036700007D0114D1068A84203D0104D1068A84221
:1036800005D121F080015868014310688160012054
:1036900082F83D0000BF002082F83C0000BF00BF60
:1036A000BDE70000000001400004004000080040A9
:1036B000000C0040000401400040014000180040A0
:1036C00010B504460CB9012010BD94F83D0028B98E
:1036D000002084F83C00204600F026F8022084F800
:1036E0003D00211D206802F025FA012084F84600E3
:1036F00000BF84F83E0001213F20015540200155C4
:103700004120015500BF00BF012084F84200432042
:103710000155442001554520015500BF012084F882
:103720003D000020D0E7000038B504462849206855
:10373000884218D100BF002000902648006840F061
:103740000400244908600846006800F00400009066
:1037500000BF00BF002205211E20FFF7E7F91E2051
:10376000FFF7D4F932E01C492068884218D100BF25
:10377000002000901748006840F0100015490860CC
:103780000846006800F01000009000BF00BF002253
:1037900005213620FFF7CAF93620FFF7B7F915E003
:1037A0000E492068884211D100BF002000900948CE
:1037B000001D006840F400300649091D08600846F5
:1037C000006800F40030009000BF00BF38BD00006A
:1037D0000008004040380240001000400044014012
:1037E000014691F83D00012801D0012070470220D8
:1037F00081F83D000868C06840F001000B68D8609F
:103800001A4B086898421BD00868B0F1804F17D057
:10381000174B0868984213D0164B086898420FD08F
:10382000154B086898420BD0144B0868984207D093
:10383000134B0868984203D0124B086898420CD189
:103840000868806800F00702062A0CD00868006843
:1038500040F001000B68186005E00868006840F05F
:1038600001000B6818600020C0E700000000014064
:103870000004004000080040000C0040000401402B
:1038800000400140001800402DE9F04104460D467B
:10389000002700BF94F83C00012802D10220BDE8B7
:1038A000F081012084F83C0000BF022084F83D0034
:1038B0002068866826F0770626F47F4620688660B2
:1038C0002868502833D00CDC202850D004DC002895
:1038D0004BD0102851D149E0302849D040284CD154
:1038E00039E060282DD0702807D0B0F5805F03D074
:1038F000B0F5005F41D10DE041E0D5E902136A68FF
:10390000206802F094F92068866846F077062068FF
:10391000866034E0D5E902136A68206802F087F90E
:103920002068806840F480402168886027E0EA6869
:103930006968206802F06CFA5021206802F082F970
:103940001DE0EA686968206802F075FA6021206865
:1039500002F078F913E0EA686968206802F058FA22
:103960004021206802F06EF909E000BF00BF00BFEF
:103970002968206802F066F901E0012700BF00BF56
:10398000012084F83D0000BF002084F83C0000BF07
:10399000384684E7704710B5044620680069C0F3D4
:1039A0004000D8B12068C068C0F34000B0B16FF0EB
:1039B000020021680861012020772068806900F0FA
:1039C000030018B12046FFF7E5FF05E0204600F0B0
:1039D000DDF8204600F091F900202077206800698A
:1039E000C0F38000D8B12068C068C0F38000B0B1D7
:1039F0006FF0040021680861022020772068806948
:103A000000F4407018B12046FFF7C4FF05E02046DF
:103A100000F0BCF8204600F070F900202077206804
:103A20000069C0F3C000D8B12068C068C0F3C0000E
:103A3000B0B16FF008002168086104202077206889
:103A4000C06900F0030018B12046FFF7A3FF05E0AE
:103A5000204600F09BF8204600F04FF90020207728
:103A600020680069C0F30010D8B12068C068C0F3B6
:103A70000010B0B16FF010002168086108202077B5
:103A80002068C06900F4407018B12046FFF782FF3B
:103A900005E0204600F07AF8204600F02EF90020DC
:103AA00020772068006900F0010058B12068C068E4
:103AB00000F0010030B16FF001002168086120467C
:103AC00000F0A2F920680069C0F3C01058B1206866
:103AD000C068C0F3C01030B16FF080002168086189
:103AE0002046FFF791FD20680069C0F3801058B1AF
:103AF0002068C068C0F3801030B16FF040002168CA
:103B00000861204600F094F920680069C0F3401075
:103B100058B12068C068C0F3401030B16FF0200089
:103B2000216808612046FFF770FD10BD10B586B012
:103B30000446142101A8FCF71CFD114920688842A5
:103B40001CD100BF002000900E48006840F020000B
:103B50000C4908600846006800F02000009000BF93
:103B600000BF4020019002200290002003900490AA
:103B70000320059001A90448FEF714FE06B010BD0D
:103B800000440140303802400014024070472DE9E3
:103B9000F04104460D461646002700BF94F83C004D
:103BA000012802D10220BDE8F081012084F83C0008
:103BB00000BF36B1042E1BD0082E31D00C2E5ED1A2
:103BC00045E02946206802F047F82068806940F007
:103BD0000800216888612068806920F0040021685D
:103BE000886120688069296908432168886148E004
:103BF0002946206802F068F82068806940F4006077
:103C0000216888612068806920F48060216888616B
:103C100020688069296940EA01202168886130E0D4
:103C20002946206802F08EF82068C06940F008003C
:103C30002168C8612068C06920F004002168C8615B
:103C40002068C069296908432168C86119E02946CC
:103C5000206802F0B3F82068C06940F40060216871
:103C6000C8612068C06920F480602168C86120684C
:103C7000C069296940EA01202168C86101E0012783
:103C800000BF00BF00BF002084F83C0000BF3846E2
:103C900089E710B504460CB9012010BD94F83D0029
:103CA00028B9002084F83C00204600F025F80220C6
:103CB00084F83D00211D206801F03CFF012084F8BC
:103CC000460000BF84F83E0001213F2001554020FE
:103CD00001554120015500BF00BF012084F842007A
:103CE00043200155442001554520015500BF0120C6
:103CF00084F83D000020D0E77047704770B5044657
:103D00000D4615B994F83E000BE0042D02D13F207A
:103D1000005D06E0082D02D14020005D01E0412059
:103D2000005D012801D0012070BD1DB9022084F87A
:103D30003E000EE0042D03D102213F20015508E092
:103D4000082D03D102214020015502E0022141202B
:103D5000015501222946206801F058FF23492068B7
:103D6000884203D022492068884201D1012000E026
:103D7000002028B12068406C40F40040216848646D
:103D80001A49206888421BD02068B0F1804F17D0B4
:103D900018492068884213D01749206888420FD0FC
:103DA0001649206888420BD011492068884207D004
:103DB00013492068884203D01249206888420CD1F8
:103DC0002068806800F00706062E0CD02068006886
:103DD00040F001002168086005E02068006840F0BC
:103DE00001002168086000209EE7000000000140FB
:103DF000000401400004004000080040000C0040A6
:103E0000004001400018004010B5044606492068F3
:103E1000884201D1FEF7CCFD04492068884201D1D7
:103E200002F004FD10BD0000000400400008004046
:103E30007047704770B50446002520684069C0F39C
:103E4000C01594F83D00212817D1B5B100BF00BFBF
:103E50002168143151E8001F21F0800021681431DD
:103E600041E80002002AF3D100BF606B10B1606B23
:103E7000FEF721FA204602F0EFF820684069C0F30F
:103E8000801594F83E00222817D1B5B100BF00BFBD
:103E90002168143151E8001F21F0400021681431DD
:103EA00041E80002002AF3D100BFA06B10B1A06B63
:103EB000FEF701FA204602F089F8002070BD704735
:103EC0002DE9F84F0446206805682068C668206818
:103ED00047694FF00009CA4605F00F09B9F1000F14
:103EE0000AD105F0200038B106F0200020B12046AC
:103EF00002F0C5F8BDE8F88FB9F1000F7CD007F0EB
:103F0000010018B906F49070002875D005F0010082
:103F100030B106F4807018B1206C40F001002064CC
:103F200005F0040030B107F0010018B1206C40F03A
:103F30000200206405F0020030B107F0010018B162
:103F4000206C40F00400206405F0080048B106F041
:103F5000200010B907F0010018B1206C40F00800F3
:103F60002064206C002846D005F0200028B106F01F
:103F7000200010B1204602F082F820684069C0F3AA
:103F8000801A206C00F0080010B9BAF1000F2DD093
:103F9000204602F01BF82068406900F040004028ED
:103FA00020D100BF00BF2168143151E8001F21F06B
:103FB00040002168143141E80002002AF3D100BF1B
:103FC000A06B50B17548A16B0865A06BFEF7C9F9ED
:103FD00088B1A06B016D88470DE02046FFF76FFFA9
:103FE00009E009E02046FFF76AFF04E02046FFF7FA
:103FF00066FF002020647DE7206B012876D105F064
:104000001000002872D006F010000028FAD000BF7F
:1040100000200090206800680090206840680090B0
:1040200000BF00BF2068406900F0400040285ED11A
:10403000A06B006840681FFA80F8B8F1000F54D0F8
:10404000A08D404551DDA4F82E80A06BC069B0F56D
:10405000807F43D000BF00BF21680C3151E8001FB2
:1040600021F4807021680C3141E80002002AF3D16C
:1040700000BF00BF00BF2168143151E8001F21F0CC
:1040800001002168143141E80002002AF3D100BF89
:1040900000BF00BF2168143151E8001F21F040002B
:1040A0002168143141E80002002AF3D100BF20202A
:1040B00084F83E000020206300BF00BF21680C315F
:1040C00051E8001F21F0100021680C3141E8000286
:1040D000002AF3D100BFA06BFEF7EDF8A08DE28DB2
:1040E000801A81B22046FFF7A4FE03E740E0A08DCE
:1040F000E18D401A1FFA80F8E08DC0B3B8F1000FCF
:1041000035D000BF00BF21680C3151E8001F21F4F9
:10411000907021680C3141E80002002AF3D100BF01
:1041200000BF00BF2168143151E8001F21F00100D9
:104130002168143141E80002002AF3D100BF202099
:1041400084F83E000020206300BF00BF21680C31CE
:1041500051E8001F21F0100021680C3141E80002F5
:10416000002AF3D100BF41462046FFF762FEC1E6B8
:1041700005F0800030B106F0800018B1204602F052
:1041800079F9B7E605F0400030B106F0400018B10B
:10419000204601F051FFADE600BFABE6995E000896
:1041A00010B504460CB9012010BDA06900B100E0B3
:1041B00000BF94F83D0028B9002084F83C00204658
:1041C00000F028F8242084F83D002068C06820F41E
:1041D00000502168C860204601F0CEFF20680069C9
:1041E00020F49040216808612068406920F02A008E
:1041F000216848612068C06840F400502168C860A8
:1042000000202064202084F83D0084F83E00002037
:10421000CAE7000010B586B00446142101A8FCF7D7
:10422000A8F9F7492068884275D100BF00200090A6
:10423000F448006840F40020F2490860084600682D
:1042400000F40020009000BF00BF00BF00200090DD
:10425000EC481038006840F00400EA491039086062
:104260000846006800F00400009000BF00BF4FF453
:1042700040600190022002900120039003200490EE
:104280000820059001A9E048FEF78CFADF48E049D4
:104290000860400548600021DD488160C1604FF43E
:1042A00080610161002141618161C16101624162FE
:1042B000FEF78CF908B1FDF789FA00BFD448A06376
:1042C000846300BFD1483030D24908604FF00060AD
:1042D00048604021CF4881600021C1604FF4806177
:1042E0000161002141618161C16101624162FEF7AA
:1042F0006DF908B1FDF76AFA00BFC64860638463D0
:1043000000BF002205213420FEF710FC3420FEF708
:10431000FDFB13E2FFE7C0492068884278D100BF67
:1043200000200090B748001D006840F01000B5491B
:10433000091D08600846006800F01000009000BFEA
:1043400000BF00BF00200090AE481038006840F069
:104350000100AC49103908600846006800F001000F
:10436000009000BF00BF4FF4C06001900220029097
:1043700000200390032004900720059001A9A7487E
:10438000FEF710FAA648A74908604FF000604860A1
:104390004021A44881600021C1604FF48061016127
:1043A000002141618161C16101624162FEF70EF944
:1043B00008B1FDF70BFA00BF9A486063846300BF41
:1043C00097487838984908604FF0006048600021AD
:1043D00095488160C1604FF48061016100214161B5
:1043E0008161C16101624162FEF7F0F808B1FDF739
:1043F000EDF900BF8C48A063846300BF0022052153
:104400002520FEF793FB2520FEF780FB96E1FFE7D2
:1044100086492068884276D100BF00200090794804
:10442000006840F40030774908600846006800F4EE
:104430000030009000BF00BF00BF00200090714816
:104440001038006840F008006E49103908600846CE
:10445000006800F00800009000BF00BF60200190DD
:104460000220029000200390032004900720059072
:1044700001A96F48FEF796F9644848306D49086015
:104480004FF00060486000216A488160C1604FF4CD
:1044900080610161002141618161C161016241620C
:1044A000FEF794F808B1FDF791F900BF6148A063E9
:1044B000846300BF554860305F4908604FF000607A
:1044C000486040215C4881600021C1604FF48061F8
:1044D0000161002141618161C16101624162FEF7B8
:1044E00075F808B1FDF772F900BF53486063846343
:1044F00000BF002205212620FEF718FB2620FEF72C
:1045000005FB1BE1FFE74D492068884276D100BFDB
:10451000002000903B48006840F480203949086042
:104520000846006800F48020009000BF00BF00BF74
:104530000020009033481038006840F002003149F4
:10454000103908600846006800F00200009000BFC3
:1045500000BF4FF4406001900220029000200390C1
:10456000032004900720059001A93548FEF71AF9A9
:1045700026481838334908604FF000604860002131
:1045800030488160C1604FF4806101610021416168
:104590008161C16101624162FEF718F808B1FDF75F
:1045A00015F900BF2748A063846300BF174818307F
:1045B000254908604FF00060486040212248816032
:1045C0000021C1604FF4806101610021416181617E
:1045D000C16101624162FDF7F9FF08B1FDF7F6F82C
:1045E00000BF19486063846300BF002205212720B3
:1045F000FEF79CFA2720FEF789FA9FE026E00000EC
:10460000004C004040380240000802404060024038
:1046100060050020C005002000100140000002409D
:10462000B8640240200600208006002000440040BC
:10463000000C0240E0060020400700200048004037
:1046400000040240A0070020000800203C49206828
:10465000884273D100BF002000903A48006840F0C3
:104660002000384908600846006800F020000090EB
:1046700000BF00BF00BF002000903248143800681F
:1046800040F040002F49143908600846006800F0E7
:104690004000009000BF00BF4FF484400190022012
:1046A000029001200390032004900820059001A9A6
:1046B0002548FEF777F825482549086080054860B9
:1046C000002123488160C1604FF4806101610021B5
:1046D00041618161C16101624162FDF777FF08B10B
:1046E000FDF774F800BF1A48A063846300BF174841
:1046F0007830184908604FF0206048604021154824
:1047000081600021C1604FF480610161002141613D
:104710008161C16101624162FDF758FF08B1FDF797
:1047200055F800BF0B486063846300BF0022052179
:104730004720FEF7FBF94720FEF7E8F906B010BD69
:10474000001401404438024000180240286402402E
:1047500060080020C00800202DE9F84F04460E46EE
:10476000174699464FF0000A94F83E0020285FD182
:1047700006B117B90120BDE8F88F00BF94F83C00DE
:10478000012801D10220F6E7012084F83C0000BF97
:1047900000202064222084F83E0000202063FEF7E1
:1047A00001F98246A785E785A068B0F5805F04D14E
:1047B000206910B90025B04602E035464FF00008E8
:1047C00000BF002084F83C0000BF29E053460022CF
:1047D00020212046CDF8009001F07CFE08B1032096
:1047E000C9E745B920684068C0F30800A8F8000090
:1047F00008F1020811E0A068B0F5805F03D0A0685E
:1048000028B9206918B920684068287004E0206839
:10481000406800F07F0028706D1CE08D401EE08530
:10482000E08D0028D2D1202084F83E000020A2E7AD
:104830000220A0E770B504460D46164694F83E00E7
:10484000202816D105B10EB9012070BD00BF94F823
:104850003C00012801D10220F7E7012084F83C0048
:1048600000BF0020206332462946204601F09AFD11
:10487000EBE70220E9E7704770472DE9F84F04465F
:104880000E46174699464FF0000A94F83D0020283E
:104890005AD106B117B90120BDE8F88F00BF94F8CE
:1048A0003C00012801D10220F6E7012084F83C00F9
:1048B00000BF00202064212084F83D00FEF772F83C
:1048C0008246A784E784A068B0F5805F04D12069A0
:1048D00010B90025B04602E035464FF0000800BF91
:1048E000002084F83C0000BF1BE0534600228021DA
:1048F0002046CDF8009001F0EDFD08B10320CBE794
:1049000045B9B8F80000C0F308002168486008F114
:10491000020803E02878216848606D1CE08C401E86
:10492000E084E08C0028E0D153460022402120465C
:10493000CDF8009001F0CEFD08B10320ACE72020B7
:1049400084F83D000020A7E70220A5E7704700BFDC
:10495000FEE7000038B5052409E000200346FF22E9
:1049600021460090074803F09BF9601CC4B2082C54
:10497000F3DBE720F623F82208210090014803F03A
:104980008FF938BD4C65002038B5052409E00020BA
:10499000FF23024621460090074803F081F9601C7E
:1049A000C4B2082CF3DBE720F623F822082100909C
:1049B000014803F075F938BD4C65002038B5002476
:1049C00009E000200346FF2221460090074803F03B
:1049D00067F9601CC4B2042CF3DBE720F623F8224D
:1049E00004210090014803F05BF938BD4C650020BC
:1049F00038B5002409E00020FF230246214600903C
:104A0000074803F04DF9601CC4B2042CF3DBE72027
:104A1000F623F82204210090014803F041F938BD43
:104A20004C65002070B505460024284600F070F85B
:104A3000044305F1140000F06BF80443204670BDF8
:104A4000F8B5044600252E4820602E4800686060B6
:104A500000202072802060720020A072E06000219F
:104A6000218261822848606128480168A161002193
:104A70002177802161770021A1772162A184E184DF
:104A8000002000909621684606F03EF9204600F08E
:104A9000ADF8054304F1140000F0A8F805432046E2
:104AA00000F0B6F8054304F1140000F0B1F8054336
:104AB000D5B1012600BF0025204600F0A9F8054326
:104AC00004F1140000F0A4F8054305B90AE0032E30
:104AD00001DB2846F8BD4FF47A7005F0C0F8701C71
:104AE000C6B2E8E700BF00BF204600F04FF805431C
:104AF00004F1140000F04AF805432846EAE70000F4
:104B00001C050020940100200C04002098010020C6
:104B10002DE9F0410446002500221B49606806F09B
:104B200061FD01282DD1184880790006164FFF79C4
:104B300040EA0740144F3F7A40EA0720124F7F7A3D
:104B400040EA07021048C07A0F4FBF7A40EA0723B5
:104B50000D48067B0021012005E00B4F3F5C0F4410
:104B6000F9B2471CF8B20C28F7DB8E4202D1E260A2
:104B7000238205E0608A40F00407678245F0010562
:104B800000BF2846BDE8F08114650020FEB504464C
:104B9000002513A207CA8DE80700A07A8DF801004E
:104BA0009DF801009DF8021008449DF80310084488
:104BB0009DF8041008449DF8051008449DF806105F
:104BC00008449DF807100844C6B28DF808600A230F
:104BD00009226946206800F007FD05432846FEBD0E
:104BE000AA000020000100040000000038B50446BF
:104BF000002506A000680090052301226946206870
:104C000000F0F2FC0543284638BD000058000000C3
:104C1000FEB5044600251FA207CA8DE80700A07A4A
:104C20008DF801009DF801009DF8021008449DF8E0
:104C3000031008449DF8041008449DF8051008442A
:104C40009DF8061008449DF807100844C6B28DF878
:104C500008600A2309226946206800F0C5FC054364
:104C600032220F49606806F0BDFC01280CD169466C
:104C70000B48FBF7A5FC08B90020FEBD608A40F098
:104C8000020161820120F8E7608A40F0010161823F
:104C90000120F2E7AA0001BE0001000100000000AF
:104CA0001465002038B504460D460020009002230C
:104CB0006A4621460948006806F016FC01280BD117
:104CC000009838B14FF0805005490860BFF34F8F0E
:104CD000BFF36F8F012038BD0020FCE79801002052
:104CE00004ED00E038B504460D4600200090022394
:104CF0006A4621460948006806F0F6FB01280BD1F8
:104D0000009838B14FF0805005490860BFF34F8FCD
:104D1000BFF36F8F012038BD0020FCE79401002015
:104D200004ED00E010B52DED048B82B004469FED3C
:104D3000230A04F07DFBD4ED000A9FED201A70EEEB
:104D4000810A20EE209A9FED1D0A04F019FCD4ED93
:104D5000010A9FED1A1A70EE810A00EE209AB0EE59
:104D6000498A9FED160A04F00BFCFFEE000A20EEC4
:104D7000200AD4ED000A9FED111A70EE810A20EE90
:104D8000209A9FED0E0A04F053FBF7EE000A20EE86
:104D9000200AD4ED010A9FED091A70EE810A00EE97
:104DA000209AF0EE498A8DED008ACDED018A6846A1
:104DB00000F0B8FD02B0BDEC048B10BD0000000097
:104DC0001FB5002400259FED3E0A8DED010A06F077
:104DD000A3FD00903B48FFF733FE04432CB103E0F2
:104DE0004FF47A7004F03BFFFAE7642004F037FFD9
:104DF00000BF00240025002132484182C184FFF712
:104E000011FE04432F48006A2F4908602D48C068EE
:104E10002E4908602C4890ED000AF8EE400A2C4814
:104E2000008800EE100AB8EE400A30EEC00ADFED4E
:104E3000290A30EE200A284880ED000A084690ED45
:104E4000000AF8EE400A2548008800EE100AB8EE85
:104E5000400A30EEC00ADFED220A30EE200A214877
:104E600080ED000A1C4890ED000ADFED1F0A80EE7D
:104E7000201A80ED001A1B4890ED000ADFED1A0A97
:104E800080EE201A80ED001A01A800F09BF805467C
:104E90008DB10C48026AC1689DED010A02A800F0BC
:104EA00025F89DED010A02A800F08AF8054615B91B
:104EB00002A8FFF737FF2821684605F025FF98E78D
:104EC000E4CB9640246500201C020020180200203C
:104ED000200200200000AF43280200202202002010
:104EE000000078422402002000007A4470B52DEDC5
:104EF000048B0446B0EE408A0D4616469FED2E0AFE
:104F000038EE000AB0EE408A9FED2B0AC0EE000A90
:104F1000F0EE609AB0EE690A04F0CCF8F0EE408A48
:104F20009FED250AC0EE000AF0EE609AB0EE690A25
:104F300004F0C0F8B0EE409A78EE680AB0EE600A6D
:104F400004F01EFBF0EE400A00EE105AB8EE400AE4
:104F500020EE800ADFED190A80EE201AB1EE410A38
:104F600084ED010A78EE490AB0EE600A04F008FB0D
:104F7000F0EE400A00EE106AB8EE400A20EE800A19
:104F8000DFED0E0A80EE201AB1EE410A84ED000A30
:104F900094ED000ADFED080A30EE200A84ED000AE5
:104FA00094ED010ADFED040A30EE200A84ED010AD7
:104FB000BDEC048B70BD00000000000000007A44CE
:104FC000014670470146704700BF012004F047FECC
:104FD000FBE7000010B50E480E490860032048604A
:104FE00000210C488160C1604FF4002101614FF441
:104FF000401141610021017641768176C1760177C9
:105000004177FCF749FF08B1FCF7E0FB10BD000059
:10501000006400402C02002010B50E480E490860C4
:105020000320486000210C488160C1604FF40021DA
:1050300001614FF440114161002101764176817692
:10504000C17601774177FCF727FF08B1FCF7BEFB7B
:1050500010BD0000006800405402002008B500BFE9
:10506000002000903A48006840F480003849086009
:105070000846006800F48000009000BF00BF00BF39
:10508000002000900846006840F4001008600846C0
:10509000006800F40010009000BF00BF002205214E
:1050A0000C20FDF743FD0C20FDF730FD002205210B
:1050B0000D20FDF73BFD0D20FDF728FD0022052109
:1050C0000E20FDF733FD0E20FDF720FD0022052107
:1050D0000F20FDF72BFD0F20FDF718FD0022052105
:1050E0001020FDF723FD1020FDF710FD0022052103
:1050F0001120FDF71BFD1120FDF708FD0022052101
:105100003920FDF713FD3920FDF700FD00220521B0
:105110003A20FDF70BFD3A20FDF7F8FC00220521AF
:105120003B20FDF703FD3B20FDF7F0FC00220521AD
:105130004520FDF7FBFC4520FDF7E8FC002205219A
:105140004620FDF7F3FC4620FDF7E0FC08BD00001B
:105150003038024010B5194A0021194804F0D4FD36
:1051600018490860184A0021184804F0CDFD184974
:105170000860184A0021184804F0C6FD1749086065
:10518000174A0021174804F0BFFD17490860174A65
:105190000021174804F0B8FD16490860164A00219E
:1051A000164804F0B1FD16490860164A0021164859
:1051B00004F0AAFD1549086010BD000028C90008C8
:1051C0006D100008000000204CC900082D120008D6
:1051D0000400002070C90008F91000080800002031
:1051E00094C90008456800080C000020B8C90008F0
:1051F0002D0B000810000020DCC90008C14D00087C
:105200001400002000CA0008C94F00081800002040
:1052100000B587B0142102A8FBF7ABF900BF00204E
:1052200001904C48006840F004004A490860084674
:10523000006800F00400019000BF00BF00BF002024
:1052400001900846006840F02000086008460068A9
:1052500000F02000019000BF00BF00BF00200190BF
:105260000846006840F0800008600846006800F0CA
:105270008000019000BF00BF00BF002001900846E1
:10528000006840F0010008600846006800F0010076
:10529000019000BF00BF00BF0020019008460068D9
:1052A00040F0020008600846006800F0020001902B
:1052B00000BF00BF00BF002001900846006840F01A
:1052C000080008600846006800F00800019000BF70
:1052D00000BF00BF002001900846006840F0400079
:1052E00008600846006800F04000019000BF00BF61
:1052F000002289151848FDF74FFB802002904FF4DB
:10530000881003900020049002A91448FDF74AFA7F
:105310004FF48070029001200390022004900590C9
:1053200002A90D48FDF73EFA4FF48060029000207C
:1053300003900120049002A90748FDF733FA0022E8
:1053400005211720FDF7F2FB1720FDF7DFFB07B063
:1053500000BD000030380240000C02400014024042
:1053600010B50F480F4908604FF482704860002163
:105370000C488160C1600161012141614902816184
:105380001021C1610021016241624FF4005181622C
:105390000E21C162FDF7D1FF08B1FCF717FA10BD6D
:1053A000003001407C02002000B587B01C21684617
:1053B000FBF7DFF8154816490860532048600021C4
:1053C0001348816040F63301C160002101618161B1
:1053D000FEF776F908B1FCF7F9F90D48FEF759FC2C
:1053E00008B1FCF7F3F960200090002001900290D2
:1053F0000490002269460648FEF7C9FB08B1FCF795
:10540000E5F90348FEF792FB07B000BD00440140F8
:10541000C403002000B587B00020039004900590DD
:105420000690019002901448144908605320486087
:105430000021124881604FF6FF71C16000210161B7
:105440008161FEF73DF908B1FCF7C0F94FF48050D7
:10545000039003A90948FEF717FA08B1FCF7B6F95B
:1054600000200190029001A90448FEF7CFF808B18E
:10547000FCF7ACF907B000BD000800403403002081
:105480001CB50020009001900E480F4908600020D4
:10549000486000210C4881604FF6FF71C160002117
:1054A0008161FEF70DF908B1FCF790F9002000903A
:1054B000019069460448FEF7A9F808B1FCF786F99F
:1054C0001CBD0000001000407C03002010B50B48FC
:1054D0000B4908604FF496404860002108488160FD
:1054E000C16001610C21416100218161C161FEF750
:1054F00057FE08B1FCF76AF910BD0000004C0040EF
:105500000C04002010B50B480B4908604FF41650EE
:105510004860002108488160C16001610C2141613F
:1055200000218161C161FEF73BFE08B1FCF74EF935
:1055300010BD0000001001405004002010B50B48C1
:105540000B4908604FF4E130486000210848816051
:10555000C16001610C21416100218161C161FEF7DF
:105560001FFE08B1FCF732F910BD000000440040F6
:105570009404002010B50B480B4908604FF4E1304B
:105580004860002108488160C16001610C214161CF
:1055900000218161C161FEF703FE08B1FCF716F935
:1055A00010BD000000480040D804002010B50B4892
:1055B0000B4908604FF4964048600021084881601C
:1055C000C16001610C21416100218161C161FEF76F
:1055D000E7FD08B1FCF7FAF810BD00000014014027
:1055E0001C05002000BFFEE72DE9F04104460D46F2
:1055F00016461F464FF000083B46324629462046D5
:10560000FFF73BF98046B8F1000F02D10020BDE85A
:10561000F0810120FBE700BFFEE72DE9F0410546E0
:105620000E4614461F46E56066602046FEF748F8C1
:1056300039462046FEF762FBBDE8F081F8B5034627
:105640000D4600240022012666E0082C61D2DFE826
:1056500004F0040E18222C3F4D57985CFC2802D110
:10566000601CC4B200E00024501CC2B253E0985C3D
:10567000FB2802D1601CC4B200E00024501CC2B25E
:1056800049E0985C012802D1601CC4B200E000240B
:10569000501CC2B23FE0985C0C2802D1601CC4B21E
:1056A00000E00024501CC2B235E0A5F11001914287
:1056B00000DA0026002006E0995C1A4F3954511C8C
:1056C000CAB2411CC8B20C28F6DB611CCCB222E085
:1056D000002006E0995C0DF80010511CCAB2411C74
:1056E000C8B20228F6DB611CCCB214E0985CFD283D
:1056F00002D1601CC4B200E00024501CC2B20AE017
:10570000985CFE2802D1074801F05AF800240026D0
:1057100001E0002400BF00BFAA4201DA012E94D0AC
:105720000020F8BDDC58002070B50546AC6B206841
:10573000406820F0030021684860606D40F0100070
:105740006065012084F851002046FDF7F1FD70BD31
:1057500070B50446A56B2846FDF755FF70BDF8B53A
:105760000546AC6BFDF71EF906462868006800F494
:105770008070B0F5807F2DD02068406820F0200038
:10578000216848602068406820F002002168486075
:1057900032466421204600F023F818B1606D40F0D5
:1057A00020006065A06850B900BF0020009020680C
:1057B000C068009020688068009000BF00BF002093
:1057C000E086012084F85100606D18B12046FDF795
:1057D000AFFDF8BD2046FDF715FF00BFF9E700005B
:1057E0007CB504460D461646164800681821B0FBE5
:1057F000F1F01549B0FBF1F04FF47A714843019094
:105800006068B0F5827F0DD12B46002280212046B2
:10581000009600F01BF898B1606D40F020006065C4
:1058200003207CBD00BF019800B908E00198401E2C
:10583000019020688068C0F3C0100028F3D100BF39
:105840000020EEE72C00002040420F002DE9F84F29
:1058500004460D4690461E46DDF82890FDF7A2F856
:10586000A0EB0900371AFDF79DF882462C48006826
:10587000C0F3CB307843009045E0701C002842D044
:10588000FDF790F8A0EB0A00B84200D2A7BB206851
:10589000406820F0E000216848606068B0F5827FD1
:1058A0000DD1A068B0F5004F03D0A068B0F5806FAF
:1058B00005D12068006820F0400021680860A06AD7
:1058C000B0F5005F0DD100BF2068006820F40050E3
:1058D000216808602068006840F400502168086072
:1058E00000BF012084F8510000BF002084F8500060
:1058F00000BF0320BDE8F88FFFE7009800B900273C
:105900000098401E0090206880682840A84201D17D
:10591000012000E000204045AFD10020EAE7000070
:105920002C000020704770B5134600240568EC6A0F
:10593000651C5D436426B5FBF6F211B905686A6320
:105940000BE0042902D10568AA6306E0082902D108
:105950000568EA6301E005682A6470BD10B54FF080
:10596000E020006905F0C8FF012801D005F0E4FB44
:1059700010BD000000B593B0302107A8FAF7F9FD7B
:10598000142102A8FAF7F5FD00BF00200190244879
:10599000006840F08050224908600846006800F026
:1059A0008050019000BF00BF00BF002001901D4843
:1059B000006840F480401B4908600846006800F415
:1059C0008040019000BF00BF0120079000040890B4
:1059D00002200D9041050E9104210F91A8211091F4
:1059E000022111910421129107A8FDF753FA08B181
:1059F000FBF7ECFE0F2002900220039000200490A1
:105A00004FF4A05005904FF480500690052102A855
:105A1000FDF7DEF808B1FBF7D9FE13B000BD0000BA
:105A200040380240007000400348006840F47000B5
:105A3000014908607047000088ED00E010B5FBF7F1
:105A400063FE02211F4800F00BFA00231E4A49F6AC
:105A50003F4141F26700FFF7E0FD1C491C48FBF79E
:105A6000ADFB1C491C48FBF7A9FB00231A4619464D
:105A70001748FBF769FB00231A460C211448FBF773
:105A800063FB00231A4672211348FBF75DFB0023DA
:105A90001A467E211048FBF757FB104B2322104972
:105AA000104800F08FFD104B0F221049104800F0F5
:105AB00089FD104B0F221049104800F083FDFBF7C1
:105AC00075FA10BD34030020C4030020E10F000864
:105AD0002C020020CD100008540200203D56000882
